{
  "_format": "hh-sol-artifact-1",
  "contractName": "WrappedToken",
  "sourceName": "contracts/WrappedToken.sol",
  "abi": [
    {
      "inputs": [
        {
          "internalType": "address",
          "name": "kycToken",
          "type": "address"
        },
        {
          "internalType": "address",
          "name": "pushComm",
          "type": "address"
        },
        {
          "internalType": "address",
          "name": "channelAddress",
          "type": "address"
        }
      ],
      "stateMutability": "nonpayable",
      "type": "constructor"
    },
    {
      "anonymous": false,
      "inputs": [
        {
          "indexed": true,
          "internalType": "address",
          "name": "account",
          "type": "address"
        },
        {
          "indexed": true,
          "internalType": "address",
          "name": "operator",
          "type": "address"
        },
        {
          "indexed": false,
          "internalType": "bool",
          "name": "approved",
          "type": "bool"
        }
      ],
      "name": "ApprovalForAll",
      "type": "event"
    },
    {
      "anonymous": false,
      "inputs": [
        {
          "indexed": false,
          "internalType": "address",
          "name": "tokenAddress",
          "type": "address"
        },
        {
          "indexed": false,
          "internalType": "uint256",
          "name": "erc1155TokenID",
          "type": "uint256"
        },
        {
          "indexed": false,
          "internalType": "address",
          "name": "from",
          "type": "address"
        },
        {
          "indexed": false,
          "internalType": "address",
          "name": "to",
          "type": "address"
        },
        {
          "indexed": false,
          "internalType": "uint256",
          "name": "amount",
          "type": "uint256"
        },
        {
          "indexed": false,
          "internalType": "bytes",
          "name": "data",
          "type": "bytes"
        }
      ],
      "name": "LockedERC20",
      "type": "event"
    },
    {
      "anonymous": false,
      "inputs": [
        {
          "indexed": false,
          "internalType": "address",
          "name": "tokenAddress",
          "type": "address"
        },
        {
          "indexed": false,
          "internalType": "uint256",
          "name": "tokenID",
          "type": "uint256"
        },
        {
          "indexed": false,
          "internalType": "uint256",
          "name": "erc1155TokenID",
          "type": "uint256"
        },
        {
          "indexed": false,
          "internalType": "address",
          "name": "from",
          "type": "address"
        },
        {
          "indexed": false,
          "internalType": "address",
          "name": "to",
          "type": "address"
        },
        {
          "indexed": false,
          "internalType": "bytes",
          "name": "data",
          "type": "bytes"
        }
      ],
      "name": "LockedERC721",
      "type": "event"
    },
    {
      "anonymous": false,
      "inputs": [
        {
          "indexed": true,
          "internalType": "address",
          "name": "previousOwner",
          "type": "address"
        },
        {
          "indexed": true,
          "internalType": "address",
          "name": "newOwner",
          "type": "address"
        }
      ],
      "name": "OwnershipTransferred",
      "type": "event"
    },
    {
      "anonymous": false,
      "inputs": [
        {
          "indexed": false,
          "internalType": "address",
          "name": "account",
          "type": "address"
        }
      ],
      "name": "Paused",
      "type": "event"
    },
    {
      "anonymous": false,
      "inputs": [
        {
          "indexed": false,
          "internalType": "address",
          "name": "tokenAddress",
          "type": "address"
        },
        {
          "indexed": false,
          "internalType": "uint256",
          "name": "erc1155TokenID",
          "type": "uint256"
        },
        {
          "indexed": false,
          "internalType": "address",
          "name": "operator",
          "type": "address"
        },
        {
          "indexed": false,
          "internalType": "address",
          "name": "to",
          "type": "address"
        },
        {
          "indexed": false,
          "internalType": "uint256",
          "name": "amount",
          "type": "uint256"
        },
        {
          "indexed": false,
          "internalType": "bytes",
          "name": "data",
          "type": "bytes"
        }
      ],
      "name": "ReleasedERC20",
      "type": "event"
    },
    {
      "anonymous": false,
      "inputs": [
        {
          "indexed": false,
          "internalType": "address",
          "name": "tokenAddress",
          "type": "address"
        },
        {
          "indexed": false,
          "internalType": "uint256",
          "name": "tokenID",
          "type": "uint256"
        },
        {
          "indexed": false,
          "internalType": "uint256",
          "name": "erc1155TokenId",
          "type": "uint256"
        },
        {
          "indexed": false,
          "internalType": "address",
          "name": "from",
          "type": "address"
        },
        {
          "indexed": false,
          "internalType": "address",
          "name": "to",
          "type": "address"
        },
        {
          "indexed": false,
          "internalType": "bytes",
          "name": "data",
          "type": "bytes"
        }
      ],
      "name": "ReleasedERC721",
      "type": "event"
    },
    {
      "anonymous": false,
      "inputs": [
        {
          "indexed": true,
          "internalType": "address",
          "name": "operator",
          "type": "address"
        },
        {
          "indexed": true,
          "internalType": "address",
          "name": "from",
          "type": "address"
        },
        {
          "indexed": true,
          "internalType": "address",
          "name": "to",
          "type": "address"
        },
        {
          "indexed": false,
          "internalType": "uint256[]",
          "name": "ids",
          "type": "uint256[]"
        },
        {
          "indexed": false,
          "internalType": "uint256[]",
          "name": "values",
          "type": "uint256[]"
        }
      ],
      "name": "TransferBatch",
      "type": "event"
    },
    {
      "anonymous": false,
      "inputs": [
        {
          "indexed": true,
          "internalType": "address",
          "name": "operator",
          "type": "address"
        },
        {
          "indexed": true,
          "internalType": "address",
          "name": "from",
          "type": "address"
        },
        {
          "indexed": true,
          "internalType": "address",
          "name": "to",
          "type": "address"
        },
        {
          "indexed": false,
          "internalType": "uint256",
          "name": "id",
          "type": "uint256"
        },
        {
          "indexed": false,
          "internalType": "uint256",
          "name": "value",
          "type": "uint256"
        }
      ],
      "name": "TransferSingle",
      "type": "event"
    },
    {
      "anonymous": false,
      "inputs": [
        {
          "indexed": false,
          "internalType": "string",
          "name": "value",
          "type": "string"
        },
        {
          "indexed": true,
          "internalType": "uint256",
          "name": "id",
          "type": "uint256"
        }
      ],
      "name": "URI",
      "type": "event"
    },
    {
      "anonymous": false,
      "inputs": [
        {
          "indexed": false,
          "internalType": "address",
          "name": "account",
          "type": "address"
        }
      ],
      "name": "Unpaused",
      "type": "event"
    },
    {
      "inputs": [],
      "name": "_channelAddress",
      "outputs": [
        {
          "internalType": "address",
          "name": "",
          "type": "address"
        }
      ],
      "stateMutability": "view",
      "type": "function"
    },
    {
      "inputs": [],
      "name": "_kycToken",
      "outputs": [
        {
          "internalType": "contract IBalanceOf",
          "name": "",
          "type": "address"
        }
      ],
      "stateMutability": "view",
      "type": "function"
    },
    {
      "inputs": [],
      "name": "_push",
      "outputs": [
        {
          "internalType": "contract IPUSHCommInterface",
          "name": "",
          "type": "address"
        }
      ],
      "stateMutability": "view",
      "type": "function"
    },
    {
      "inputs": [
        {
          "internalType": "address",
          "name": "account",
          "type": "address"
        },
        {
          "internalType": "uint256",
          "name": "id",
          "type": "uint256"
        }
      ],
      "name": "balanceOf",
      "outputs": [
        {
          "internalType": "uint256",
          "name": "",
          "type": "uint256"
        }
      ],
      "stateMutability": "view",
      "type": "function"
    },
    {
      "inputs": [
        {
          "internalType": "address[]",
          "name": "accounts",
          "type": "address[]"
        },
        {
          "internalType": "uint256[]",
          "name": "ids",
          "type": "uint256[]"
        }
      ],
      "name": "balanceOfBatch",
      "outputs": [
        {
          "internalType": "uint256[]",
          "name": "",
          "type": "uint256[]"
        }
      ],
      "stateMutability": "view",
      "type": "function"
    },
    {
      "inputs": [
        {
          "internalType": "address",
          "name": "tokenAddress",
          "type": "address"
        }
      ],
      "name": "erc20TokenID",
      "outputs": [
        {
          "internalType": "uint256",
          "name": "",
          "type": "uint256"
        }
      ],
      "stateMutability": "view",
      "type": "function"
    },
    {
      "inputs": [
        {
          "internalType": "address",
          "name": "tokenAddress",
          "type": "address"
        },
        {
          "internalType": "uint256",
          "name": "tokenID",
          "type": "uint256"
        }
      ],
      "name": "erc721TokenID",
      "outputs": [
        {
          "internalType": "uint256",
          "name": "",
          "type": "uint256"
        }
      ],
      "stateMutability": "view",
      "type": "function"
    },
    {
      "inputs": [
        {
          "internalType": "address",
          "name": "account",
          "type": "address"
        },
        {
          "internalType": "address",
          "name": "operator",
          "type": "address"
        }
      ],
      "name": "isApprovedForAll",
      "outputs": [
        {
          "internalType": "bool",
          "name": "",
          "type": "bool"
        }
      ],
      "stateMutability": "view",
      "type": "function"
    },
    {
      "inputs": [
        {
          "internalType": "address",
          "name": "tokenAddress",
          "type": "address"
        },
        {
          "internalType": "address",
          "name": "from",
          "type": "address"
        },
        {
          "internalType": "address",
          "name": "to",
          "type": "address"
        },
        {
          "internalType": "uint256",
          "name": "amount",
          "type": "uint256"
        },
        {
          "internalType": "bytes",
          "name": "data",
          "type": "bytes"
        }
      ],
      "name": "lockERC20",
      "outputs": [],
      "stateMutability": "nonpayable",
      "type": "function"
    },
    {
      "inputs": [
        {
          "internalType": "address",
          "name": "tokenAddress",
          "type": "address"
        },
        {
          "internalType": "uint256",
          "name": "tokenID",
          "type": "uint256"
        },
        {
          "internalType": "address",
          "name": "from",
          "type": "address"
        },
        {
          "internalType": "address",
          "name": "to",
          "type": "address"
        },
        {
          "internalType": "bytes",
          "name": "data",
          "type": "bytes"
        }
      ],
      "name": "lockERC721",
      "outputs": [],
      "stateMutability": "nonpayable",
      "type": "function"
    },
    {
      "inputs": [],
      "name": "owner",
      "outputs": [
        {
          "internalType": "address",
          "name": "",
          "type": "address"
        }
      ],
      "stateMutability": "view",
      "type": "function"
    },
    {
      "inputs": [],
      "name": "pause",
      "outputs": [],
      "stateMutability": "nonpayable",
      "type": "function"
    },
    {
      "inputs": [],
      "name": "paused",
      "outputs": [
        {
          "internalType": "bool",
          "name": "",
          "type": "bool"
        }
      ],
      "stateMutability": "view",
      "type": "function"
    },
    {
      "inputs": [
        {
          "internalType": "address",
          "name": "tokenAddress",
          "type": "address"
        },
        {
          "internalType": "address",
          "name": "to",
          "type": "address"
        },
        {
          "internalType": "uint256",
          "name": "amount",
          "type": "uint256"
        },
        {
          "internalType": "bytes",
          "name": "data",
          "type": "bytes"
        }
      ],
      "name": "releaseERC20",
      "outputs": [],
      "stateMutability": "nonpayable",
      "type": "function"
    },
    {
      "inputs": [
        {
          "internalType": "address",
          "name": "tokenAddress",
          "type": "address"
        },
        {
          "internalType": "uint256",
          "name": "tokenID",
          "type": "uint256"
        },
        {
          "internalType": "address",
          "name": "to",
          "type": "address"
        },
        {
          "internalType": "bytes",
          "name": "data",
          "type": "bytes"
        }
      ],
      "name": "releaseERC721",
      "outputs": [],
      "stateMutability": "nonpayable",
      "type": "function"
    },
    {
      "inputs": [],
      "name": "renounceOwnership",
      "outputs": [],
      "stateMutability": "nonpayable",
      "type": "function"
    },
    {
      "inputs": [
        {
          "internalType": "address",
          "name": "from",
          "type": "address"
        },
        {
          "internalType": "address",
          "name": "to",
          "type": "address"
        },
        {
          "internalType": "uint256[]",
          "name": "ids",
          "type": "uint256[]"
        },
        {
          "internalType": "uint256[]",
          "name": "amounts",
          "type": "uint256[]"
        },
        {
          "internalType": "bytes",
          "name": "data",
          "type": "bytes"
        }
      ],
      "name": "safeBatchTransferFrom",
      "outputs": [],
      "stateMutability": "nonpayable",
      "type": "function"
    },
    {
      "inputs": [
        {
          "internalType": "address",
          "name": "from",
          "type": "address"
        },
        {
          "internalType": "address",
          "name": "to",
          "type": "address"
        },
        {
          "internalType": "uint256",
          "name": "id",
          "type": "uint256"
        },
        {
          "internalType": "uint256",
          "name": "amount",
          "type": "uint256"
        },
        {
          "internalType": "bytes",
          "name": "data",
          "type": "bytes"
        }
      ],
      "name": "safeTransferFrom",
      "outputs": [],
      "stateMutability": "nonpayable",
      "type": "function"
    },
    {
      "inputs": [
        {
          "internalType": "address",
          "name": "operator",
          "type": "address"
        },
        {
          "internalType": "bool",
          "name": "approved",
          "type": "bool"
        }
      ],
      "name": "setApprovalForAll",
      "outputs": [],
      "stateMutability": "nonpayable",
      "type": "function"
    },
    {
      "inputs": [
        {
          "internalType": "address",
          "name": "kycToken",
          "type": "address"
        }
      ],
      "name": "setKYCToken",
      "outputs": [],
      "stateMutability": "nonpayable",
      "type": "function"
    },
    {
      "inputs": [
        {
          "internalType": "address",
          "name": "pushComm",
          "type": "address"
        },
        {
          "internalType": "address",
          "name": "channelAddress",
          "type": "address"
        }
      ],
      "name": "setPushProtocol",
      "outputs": [],
      "stateMutability": "nonpayable",
      "type": "function"
    },
    {
      "inputs": [
        {
          "internalType": "bytes4",
          "name": "interfaceId",
          "type": "bytes4"
        }
      ],
      "name": "supportsInterface",
      "outputs": [
        {
          "internalType": "bool",
          "name": "",
          "type": "bool"
        }
      ],
      "stateMutability": "view",
      "type": "function"
    },
    {
      "inputs": [
        {
          "internalType": "address",
          "name": "newOwner",
          "type": "address"
        }
      ],
      "name": "transferOwnership",
      "outputs": [],
      "stateMutability": "nonpayable",
      "type": "function"
    },
    {
      "inputs": [],
      "name": "unpause",
      "outputs": [],
      "stateMutability": "nonpayable",
      "type": "function"
    },
    {
      "inputs": [
        {
          "internalType": "uint256",
          "name": "tokenID",
          "type": "uint256"
        }
      ],
      "name": "uri",
      "outputs": [
        {
          "internalType": "string",
          "name": "",
          "type": "string"
        }
      ],
      "stateMutability": "view",
      "type": "function"
    }
  ],
  "bytecode": "0x60806040526040518060200160405280600081525060039081620000249190620004de565b503480156200003257600080fd5b5060405162005e4938038062005e4983398181016040528101906200005891906200062f565b6040518060200160405280600081525062000079816200018160201b60201c565b506000600560006101000a81548160ff021916908315150217905550620000b5620000a96200019660201b60201c565b6200019e60201b60201c565b82600660006101000a81548173ffffffffffffffffffffffffffffffffffffffff021916908373ffffffffffffffffffffffffffffffffffffffff16021790555081600760006101000a81548173ffffffffffffffffffffffffffffffffffffffff021916908373ffffffffffffffffffffffffffffffffffffffff16021790555080600860006101000a81548173ffffffffffffffffffffffffffffffffffffffff021916908373ffffffffffffffffffffffffffffffffffffffff1602179055505050506200068b565b8060029081620001929190620004de565b5050565b600033905090565b6000600560019054906101000a900473ffffffffffffffffffffffffffffffffffffffff16905081600560016101000a81548173ffffffffffffffffffffffffffffffffffffffff021916908373ffffffffffffffffffffffffffffffffffffffff1602179055508173ffffffffffffffffffffffffffffffffffffffff168173ffffffffffffffffffffffffffffffffffffffff167f8be0079c531659141344cd1fd0a4f28419497f9722a3daafe3b4186f6b6457e060405160405180910390a35050565b600081519050919050565b7f4e487b7100000000000000000000000000000000000000000000000000000000600052604160045260246000fd5b7f4e487b7100000000000000000000000000000000000000000000000000000000600052602260045260246000fd5b60006002820490506001821680620002e657607f821691505b602082108103620002fc57620002fb6200029e565b5b50919050565b60008190508160005260206000209050919050565b60006020601f8301049050919050565b600082821b905092915050565b600060088302620003667fffffffffffffffffffffffffffffffffffffffffffffffffffffffffffffffff8262000327565b62000372868362000327565b95508019841693508086168417925050509392505050565b6000819050919050565b6000819050919050565b6000620003bf620003b9620003b3846200038a565b62000394565b6200038a565b9050919050565b6000819050919050565b620003db836200039e565b620003f3620003ea82620003c6565b84845462000334565b825550505050565b600090565b6200040a620003fb565b62000417818484620003d0565b505050565b5b818110156200043f576200043360008262000400565b6001810190506200041d565b5050565b601f8211156200048e57620004588162000302565b620004638462000317565b8101602085101562000473578190505b6200048b620004828562000317565b8301826200041c565b50505b505050565b600082821c905092915050565b6000620004b36000198460080262000493565b1980831691505092915050565b6000620004ce8383620004a0565b9150826002028217905092915050565b620004e98262000264565b67ffffffffffffffff8111156200050557620005046200026f565b5b620005118254620002cd565b6200051e82828562000443565b600060209050601f83116001811462000556576000841562000541578287015190505b6200054d8582620004c0565b865550620005bd565b601f198416620005668662000302565b60005b82811015620005905784890151825560018201915060208501945060208101905062000569565b86831015620005b05784890151620005ac601f891682620004a0565b8355505b6001600288020188555050505b505050505050565b600080fd5b600073ffffffffffffffffffffffffffffffffffffffff82169050919050565b6000620005f782620005ca565b9050919050565b6200060981620005ea565b81146200061557600080fd5b50565b6000815190506200062981620005fe565b92915050565b6000806000606084860312156200064b576200064a620005c5565b5b60006200065b8682870162000618565b93505060206200066e8682870162000618565b9250506040620006818682870162000618565b9150509250925092565b6157ae806200069b6000396000f3fe608060405234801561001057600080fd5b50600436106101725760003560e01c80638456cb59116100de578063ad2edf9011610097578063e985e9c511610071578063e985e9c51461040d578063f242432a1461043d578063f2fde38b14610459578063f45529821461047557610172565b8063ad2edf90146103b5578063dee3a00b146103d1578063dfc40e31146103ef57610172565b80638456cb59146103095780638da5cb5b14610313578063903acbdb1461033157806398b6ca9b1461034d578063a22cb4651461037d578063a3c1c4a91461039957610172565b80633f4ba83a116101305780633f4ba83a1461026f5780634e1273f4146102795780635668c3f4146102a95780635c975abb146102c5578063672bf705146102e3578063715018a6146102ff57610172565b8062fdd58e1461017757806301ffc9a7146101a75780630e89341c146101d757806329d06964146102075780632eb2c2d61461023757806337e4b0c214610253575b600080fd5b610191600480360381019061018c9190613297565b610493565b60405161019e91906132e6565b60405180910390f35b6101c160048036038101906101bc9190613359565b61055b565b6040516101ce91906133a1565b60405180910390f35b6101f160048036038101906101ec91906133bc565b61063d565b6040516101fe9190613479565b60405180910390f35b610221600480360381019061021c919061349b565b61064f565b60405161022e91906132e6565b60405180910390f35b610251600480360381019061024c91906136c5565b61066f565b005b61026d60048036038101906102689190613794565b610710565b005b61027761079e565b005b610293600480360381019061028e9190613897565b6107b0565b6040516102a091906139cd565b60405180910390f35b6102c360048036038101906102be91906139ef565b6108c9565b005b6102cd6109bb565b6040516102da91906133a1565b60405180910390f35b6102fd60048036038101906102f89190613a72565b6109d2565b005b610307610a78565b005b610311610a8c565b005b61031b610a9e565b6040516103289190613b04565b60405180910390f35b61034b60048036038101906103469190613b1f565b610ac8565b005b61036760048036038101906103629190613297565b610bbe565b60405161037491906132e6565b60405180910390f35b61039760048036038101906103929190613be2565b610bf4565b005b6103b360048036038101906103ae919061349b565b610c0a565b005b6103cf60048036038101906103ca9190613c22565b610c56565b005b6103d9610cfe565b6040516103e69190613d18565b60405180910390f35b6103f7610d24565b6040516104049190613d54565b60405180910390f35b61042760048036038101906104229190613794565b610d4a565b60405161043491906133a1565b60405180910390f35b61045760048036038101906104529190613d6f565b610dde565b005b610473600480360381019061046e919061349b565b610e7f565b005b61047d610f02565b60405161048a9190613b04565b60405180910390f35b60008073ffffffffffffffffffffffffffffffffffffffff168373ffffffffffffffffffffffffffffffffffffffff1603610503576040517f08c379a00000000000000000000000000000000000000000000000000000000081526004016104fa90613e78565b60405180910390fd5b60008083815260200190815260200160002060008473ffffffffffffffffffffffffffffffffffffffff1673ffffffffffffffffffffffffffffffffffffffff16815260200190815260200160002054905092915050565b60007fd9b67a26000000000000000000000000000000000000000000000000000000007bffffffffffffffffffffffffffffffffffffffffffffffffffffffff1916827bffffffffffffffffffffffffffffffffffffffffffffffffffffffff1916148061062657507f0e89341c000000000000000000000000000000000000000000000000000000007bffffffffffffffffffffffffffffffffffffffffffffffffffffffff1916827bffffffffffffffffffffffffffffffffffffffffffffffffffffffff1916145b80610636575061063582610f28565b5b9050919050565b606061064882610f92565b9050919050565b60008173ffffffffffffffffffffffffffffffffffffffff169050919050565b610677611077565b73ffffffffffffffffffffffffffffffffffffffff168573ffffffffffffffffffffffffffffffffffffffff1614806106bd57506106bc856106b7611077565b610d4a565b5b6106fc576040517f08c379a00000000000000000000000000000000000000000000000000000000081526004016106f390613f0a565b60405180910390fd5b610709858585858561107f565b5050505050565b6107186113a0565b81600760006101000a81548173ffffffffffffffffffffffffffffffffffffffff021916908373ffffffffffffffffffffffffffffffffffffffff16021790555080600860006101000a81548173ffffffffffffffffffffffffffffffffffffffff021916908373ffffffffffffffffffffffffffffffffffffffff1602179055505050565b6107a66113a0565b6107ae61141e565b565b606081518351146107f6576040517f08c379a00000000000000000000000000000000000000000000000000000000081526004016107ed90613f9c565b60405180910390fd5b6000835167ffffffffffffffff811115610813576108126134cd565b5b6040519080825280602002602001820160405280156108415781602001602082028036833780820191505090505b50905060005b84518110156108be5761088e85828151811061086657610865613fbc565b5b602002602001015185838151811061088157610880613fbc565b5b6020026020010151610493565b8282815181106108a1576108a0613fbc565b5b602002602001018181525050806108b79061401a565b9050610847565b508091505092915050565b6108d1611481565b60006108dc8561064f565b90506108e93382856114cb565b8473ffffffffffffffffffffffffffffffffffffffff1663a9059cbb85856040518363ffffffff1660e01b8152600401610924929190614062565b6020604051808303816000875af1158015610943573d6000803e3d6000fd5b505050506040513d601f19601f8201168201806040525081019061096791906140a0565b6109a6576040517f08c379a000000000000000000000000000000000000000000000000000000000815260040161099d90614119565b60405180910390fd5b6109b4858233878787611711565b5050505050565b6000600560009054906101000a900460ff16905090565b6109da611481565b60006109e68585610bbe565b90506109f4338260016114cb565b8473ffffffffffffffffffffffffffffffffffffffff166323b872dd3085876040518463ffffffff1660e01b8152600401610a3193929190614139565b600060405180830381600087803b158015610a4b57600080fd5b505af1158015610a5f573d6000803e3d6000fd5b50505050610a71858583338787611950565b5050505050565b610a806113a0565b610a8a6000611b8f565b565b610a946113a0565b610a9c611c55565b565b6000600560019054906101000a900473ffffffffffffffffffffffffffffffffffffffff16905090565b610ad0611481565b6000610adb8661064f565b90508573ffffffffffffffffffffffffffffffffffffffff166323b872dd8630866040518463ffffffff1660e01b8152600401610b1a93929190614139565b6020604051808303816000875af1158015610b39573d6000803e3d6000fd5b505050506040513d601f19601f82011682018060405250810190610b5d91906140a0565b610b9c576040517f08c379a0000000000000000000000000000000000000000000000000000000008152600401610b9390614119565b60405180910390fd5b610ba884828585611cb8565b610bb6868233878787611e68565b505050505050565b60008282604051602001610bd39291906141d9565b6040516020818303038152906040528051906020012060001c905092915050565b610c06610bff611077565b83836120a7565b5050565b610c126113a0565b80600660006101000a81548173ffffffffffffffffffffffffffffffffffffffff021916908373ffffffffffffffffffffffffffffffffffffffff16021790555050565b610c5e611481565b6000610c6a8686610bbe565b90508573ffffffffffffffffffffffffffffffffffffffff166323b872dd8530886040518463ffffffff1660e01b8152600401610ca993929190614139565b600060405180830381600087803b158015610cc357600080fd5b505af1158015610cd7573d6000803e3d6000fd5b50505050610ce88382600185611cb8565b610cf6868683878787612213565b505050505050565b600660009054906101000a900473ffffffffffffffffffffffffffffffffffffffff1681565b600760009054906101000a900473ffffffffffffffffffffffffffffffffffffffff1681565b6000600160008473ffffffffffffffffffffffffffffffffffffffff1673ffffffffffffffffffffffffffffffffffffffff16815260200190815260200160002060008373ffffffffffffffffffffffffffffffffffffffff1673ffffffffffffffffffffffffffffffffffffffff16815260200190815260200160002060009054906101000a900460ff16905092915050565b610de6611077565b73ffffffffffffffffffffffffffffffffffffffff168573ffffffffffffffffffffffffffffffffffffffff161480610e2c5750610e2b85610e26611077565b610d4a565b5b610e6b576040517f08c379a0000000000000000000000000000000000000000000000000000000008152600401610e6290613f0a565b60405180910390fd5b610e788585858585612452565b5050505050565b610e876113a0565b600073ffffffffffffffffffffffffffffffffffffffff168173ffffffffffffffffffffffffffffffffffffffff1603610ef6576040517f08c379a0000000000000000000000000000000000000000000000000000000008152600401610eed90614277565b60405180910390fd5b610eff81611b8f565b50565b600860009054906101000a900473ffffffffffffffffffffffffffffffffffffffff1681565b60007f01ffc9a7000000000000000000000000000000000000000000000000000000007bffffffffffffffffffffffffffffffffffffffffffffffffffffffff1916827bffffffffffffffffffffffffffffffffffffffffffffffffffffffff1916149050919050565b60606000600460008481526020019081526020016000208054610fb4906142c6565b80601f0160208091040260200160405190810160405280929190818152602001828054610fe0906142c6565b801561102d5780601f106110025761010080835404028352916020019161102d565b820191906000526020600020905b81548152906001019060200180831161101057829003601f168201915b50505050509050600081511161104b57611046836126ed565b61106f565b60038160405160200161105f9291906143cb565b6040516020818303038152906040525b915050919050565b600033905090565b81518351146110c3576040517f08c379a00000000000000000000000000000000000000000000000000000000081526004016110ba90614461565b60405180910390fd5b600073ffffffffffffffffffffffffffffffffffffffff168473ffffffffffffffffffffffffffffffffffffffff1603611132576040517f08c379a0000000000000000000000000000000000000000000000000000000008152600401611129906144f3565b60405180910390fd5b600061113c611077565b905061114c818787878787612781565b60005b84518110156112fd57600085828151811061116d5761116c613fbc565b5b60200260200101519050600085838151811061118c5761118b613fbc565b5b60200260200101519050600080600084815260200190815260200160002060008b73ffffffffffffffffffffffffffffffffffffffff1673ffffffffffffffffffffffffffffffffffffffff1681526020019081526020016000205490508181101561122d576040517f08c379a000000000000000000000000000000000000000000000000000000000815260040161122490614585565b60405180910390fd5b81810360008085815260200190815260200160002060008c73ffffffffffffffffffffffffffffffffffffffff1673ffffffffffffffffffffffffffffffffffffffff168152602001908152602001600020819055508160008085815260200190815260200160002060008b73ffffffffffffffffffffffffffffffffffffffff1673ffffffffffffffffffffffffffffffffffffffff16815260200190815260200160002060008282546112e291906145a5565b92505081905550505050806112f69061401a565b905061114f565b508473ffffffffffffffffffffffffffffffffffffffff168673ffffffffffffffffffffffffffffffffffffffff168273ffffffffffffffffffffffffffffffffffffffff167f4a39dc06d4c0dbc64b70af90fd698a233a518aa5d07e595d983b8c0526c8f7fb87876040516113749291906145d9565b60405180910390a461138a818787878787612a65565b611398818787878787612a6d565b505050505050565b6113a8611077565b73ffffffffffffffffffffffffffffffffffffffff166113c6610a9e565b73ffffffffffffffffffffffffffffffffffffffff161461141c576040517f08c379a00000000000000000000000000000000000000000000000000000000081526004016114139061465c565b60405180910390fd5b565b611426612c44565b6000600560006101000a81548160ff0219169083151502179055507f5db9ee0a495bf2e6ff9c91a7834c1ba4fdd244a5e8aa4e537bd38aeae4b073aa61146a611077565b6040516114779190613b04565b60405180910390a1565b6114896109bb565b156114c9576040517f08c379a00000000000000000000000000000000000000000000000000000000081526004016114c0906146c8565b60405180910390fd5b565b600073ffffffffffffffffffffffffffffffffffffffff168373ffffffffffffffffffffffffffffffffffffffff160361153a576040517f08c379a00000000000000000000000000000000000000000000000000000000081526004016115319061475a565b60405180910390fd5b6000611544611077565b9050600061155184612c8d565b9050600061155e84612c8d565b905061157e83876000858560405180602001604052806000815250612781565b600080600087815260200190815260200160002060008873ffffffffffffffffffffffffffffffffffffffff1673ffffffffffffffffffffffffffffffffffffffff16815260200190815260200160002054905084811015611615576040517f08c379a000000000000000000000000000000000000000000000000000000000815260040161160c906147ec565b60405180910390fd5b84810360008088815260200190815260200160002060008973ffffffffffffffffffffffffffffffffffffffff1673ffffffffffffffffffffffffffffffffffffffff16815260200190815260200160002081905550600073ffffffffffffffffffffffffffffffffffffffff168773ffffffffffffffffffffffffffffffffffffffff168573ffffffffffffffffffffffffffffffffffffffff167fc3d58168c5ae7397731d063d5bbf3d657854427343f4c083240f7aacaa2d0f6289896040516116e292919061480c565b60405180910390a461170884886000868660405180602001604052806000815250612a65565b50505050505050565b7fb7271e758ff408b37ddd718b846580fe18138146a5efcd28d0d6a74979e2a1f286868686868660405161174a9695949392919061488a565b60405180910390a1600073ffffffffffffffffffffffffffffffffffffffff16600760009054906101000a900473ffffffffffffffffffffffffffffffffffffffff1673ffffffffffffffffffffffffffffffffffffffff1614806117fd5750600073ffffffffffffffffffffffffffffffffffffffff16600860009054906101000a900473ffffffffffffffffffffffffffffffffffffffff1673ffffffffffffffffffffffffffffffffffffffff16145b61194857600760009054906101000a900473ffffffffffffffffffffffffffffffffffffffff1673ffffffffffffffffffffffffffffffffffffffff1663ba3d69d7600860009054906101000a900473ffffffffffffffffffffffffffffffffffffffff16866118828a73ffffffffffffffffffffffffffffffffffffffff16612d07565b61188b8a612d34565b6118aa8a73ffffffffffffffffffffffffffffffffffffffff16612d07565b6118c98a73ffffffffffffffffffffffffffffffffffffffff16612d07565b6118d28a612d34565b896040516020016118e896959493929190614b9e565b6040516020818303038152906040526040518463ffffffff1660e01b815260040161191593929190614c85565b600060405180830381600087803b15801561192f57600080fd5b505af1158015611943573d6000803e3d6000fd5b505050505b505050505050565b7ff6d170c2e977a15f6f88d5821ecf488aca751382e5add9230c224655a92cdeb586868686868660405161198996959493929190614cc3565b60405180910390a1600073ffffffffffffffffffffffffffffffffffffffff16600760009054906101000a900473ffffffffffffffffffffffffffffffffffffffff1673ffffffffffffffffffffffffffffffffffffffff161480611a3c5750600073ffffffffffffffffffffffffffffffffffffffff16600860009054906101000a900473ffffffffffffffffffffffffffffffffffffffff1673ffffffffffffffffffffffffffffffffffffffff16145b611b8757600760009054906101000a900473ffffffffffffffffffffffffffffffffffffffff1673ffffffffffffffffffffffffffffffffffffffff1663ba3d69d7600860009054906101000a900473ffffffffffffffffffffffffffffffffffffffff1685611ac18a73ffffffffffffffffffffffffffffffffffffffff16612d07565b611aca8a612d34565b611ad38a612d34565b611af28a73ffffffffffffffffffffffffffffffffffffffff16612d07565b611b118a73ffffffffffffffffffffffffffffffffffffffff16612d07565b89604051602001611b2796959493929190614dc3565b6040516020818303038152906040526040518463ffffffff1660e01b8152600401611b5493929190614c85565b600060405180830381600087803b158015611b6e57600080fd5b505af1158015611b82573d6000803e3d6000fd5b505050505b505050505050565b6000600560019054906101000a900473ffffffffffffffffffffffffffffffffffffffff16905081600560016101000a81548173ffffffffffffffffffffffffffffffffffffffff021916908373ffffffffffffffffffffffffffffffffffffffff1602179055508173ffffffffffffffffffffffffffffffffffffffff168173ffffffffffffffffffffffffffffffffffffffff167f8be0079c531659141344cd1fd0a4f28419497f9722a3daafe3b4186f6b6457e060405160405180910390a35050565b611c5d611481565b6001600560006101000a81548160ff0219169083151502179055507f62e78cea01bee320cd4e420270b5ea74000d11b0c9f74754ebdbfc544b05a258611ca1611077565b604051611cae9190613b04565b60405180910390a1565b600073ffffffffffffffffffffffffffffffffffffffff168473ffffffffffffffffffffffffffffffffffffffff1603611d27576040517f08c379a0000000000000000000000000000000000000000000000000000000008152600401611d1e90614f1c565b60405180910390fd5b6000611d31611077565b90506000611d3e85612c8d565b90506000611d4b85612c8d565b9050611d5c83600089858589612781565b8460008088815260200190815260200160002060008973ffffffffffffffffffffffffffffffffffffffff1673ffffffffffffffffffffffffffffffffffffffff1681526020019081526020016000206000828254611dbb91906145a5565b925050819055508673ffffffffffffffffffffffffffffffffffffffff16600073ffffffffffffffffffffffffffffffffffffffff168473ffffffffffffffffffffffffffffffffffffffff167fc3d58168c5ae7397731d063d5bbf3d657854427343f4c083240f7aacaa2d0f628989604051611e3992919061480c565b60405180910390a4611e5083600089858589612a65565b611e5f83600089898989612db9565b50505050505050565b7fac867b0c94ce6505841ee92fa0e1daf2d34d549ddf3bd7f6a4e4656604c81dd5868686868686604051611ea19695949392919061488a565b60405180910390a1600073ffffffffffffffffffffffffffffffffffffffff16600760009054906101000a900473ffffffffffffffffffffffffffffffffffffffff1673ffffffffffffffffffffffffffffffffffffffff161480611f545750600073ffffffffffffffffffffffffffffffffffffffff16600860009054906101000a900473ffffffffffffffffffffffffffffffffffffffff1673ffffffffffffffffffffffffffffffffffffffff16145b61209f57600760009054906101000a900473ffffffffffffffffffffffffffffffffffffffff1673ffffffffffffffffffffffffffffffffffffffff1663ba3d69d7600860009054906101000a900473ffffffffffffffffffffffffffffffffffffffff1686611fd98a73ffffffffffffffffffffffffffffffffffffffff16612d07565b611fe28a612d34565b6120018a73ffffffffffffffffffffffffffffffffffffffff16612d07565b6120208a73ffffffffffffffffffffffffffffffffffffffff16612d07565b6120298a612d34565b8960405160200161203f96959493929190614f88565b6040516020818303038152906040526040518463ffffffff1660e01b815260040161206c93929190614c85565b600060405180830381600087803b15801561208657600080fd5b505af115801561209a573d6000803e3d6000fd5b505050505b505050505050565b8173ffffffffffffffffffffffffffffffffffffffff168373ffffffffffffffffffffffffffffffffffffffff1603612115576040517f08c379a000000000000000000000000000000000000000000000000000000000815260040161210c906150e1565b60405180910390fd5b80600160008573ffffffffffffffffffffffffffffffffffffffff1673ffffffffffffffffffffffffffffffffffffffff16815260200190815260200160002060008473ffffffffffffffffffffffffffffffffffffffff1673ffffffffffffffffffffffffffffffffffffffff16815260200190815260200160002060006101000a81548160ff0219169083151502179055508173ffffffffffffffffffffffffffffffffffffffff168373ffffffffffffffffffffffffffffffffffffffff167f17307eab39ab6107e8899845ad3d59bd9653f200f220920489ca2b5937696c318360405161220691906133a1565b60405180910390a3505050565b7faf6985cd85c6236f5219a3e4d053464810cadb35dc8ba7ecfbd8f25bdbffe60d86868686868660405161224c96959493929190614cc3565b60405180910390a1600073ffffffffffffffffffffffffffffffffffffffff16600760009054906101000a900473ffffffffffffffffffffffffffffffffffffffff1673ffffffffffffffffffffffffffffffffffffffff1614806122ff5750600073ffffffffffffffffffffffffffffffffffffffff16600860009054906101000a900473ffffffffffffffffffffffffffffffffffffffff1673ffffffffffffffffffffffffffffffffffffffff16145b61244a57600760009054906101000a900473ffffffffffffffffffffffffffffffffffffffff1673ffffffffffffffffffffffffffffffffffffffff1663ba3d69d7600860009054906101000a900473ffffffffffffffffffffffffffffffffffffffff16856123848a73ffffffffffffffffffffffffffffffffffffffff16612d07565b61238d8a612d34565b6123968a612d34565b6123b58a73ffffffffffffffffffffffffffffffffffffffff16612d07565b6123d48a73ffffffffffffffffffffffffffffffffffffffff16612d07565b896040516020016123ea9695949392919061514d565b6040516020818303038152906040526040518463ffffffff1660e01b815260040161241793929190614c85565b600060405180830381600087803b15801561243157600080fd5b505af1158015612445573d6000803e3d6000fd5b505050505b505050505050565b600073ffffffffffffffffffffffffffffffffffffffff168473ffffffffffffffffffffffffffffffffffffffff16036124c1576040517f08c379a00000000000000000000000000000000000000000000000000000000081526004016124b8906144f3565b60405180910390fd5b60006124cb611077565b905060006124d885612c8d565b905060006124e585612c8d565b90506124f5838989858589612781565b600080600088815260200190815260200160002060008a73ffffffffffffffffffffffffffffffffffffffff1673ffffffffffffffffffffffffffffffffffffffff1681526020019081526020016000205490508581101561258c576040517f08c379a000000000000000000000000000000000000000000000000000000000815260040161258390614585565b60405180910390fd5b85810360008089815260200190815260200160002060008b73ffffffffffffffffffffffffffffffffffffffff1673ffffffffffffffffffffffffffffffffffffffff168152602001908152602001600020819055508560008089815260200190815260200160002060008a73ffffffffffffffffffffffffffffffffffffffff1673ffffffffffffffffffffffffffffffffffffffff168152602001908152602001600020600082825461264191906145a5565b925050819055508773ffffffffffffffffffffffffffffffffffffffff168973ffffffffffffffffffffffffffffffffffffffff168573ffffffffffffffffffffffffffffffffffffffff167fc3d58168c5ae7397731d063d5bbf3d657854427343f4c083240f7aacaa2d0f628a8a6040516126be92919061480c565b60405180910390a46126d4848a8a86868a612a65565b6126e2848a8a8a8a8a612db9565b505050505050505050565b6060600280546126fc906142c6565b80601f0160208091040260200160405190810160405280929190818152602001828054612728906142c6565b80156127755780601f1061274a57610100808354040283529160200191612775565b820191906000526020600020905b81548152906001019060200180831161275857829003601f168201915b50505050509050919050565b600073ffffffffffffffffffffffffffffffffffffffff168573ffffffffffffffffffffffffffffffffffffffff16148061280a5750600073ffffffffffffffffffffffffffffffffffffffff16600660009054906101000a900473ffffffffffffffffffffffffffffffffffffffff1673ffffffffffffffffffffffffffffffffffffffff16145b806128b057506000600660009054906101000a900473ffffffffffffffffffffffffffffffffffffffff1673ffffffffffffffffffffffffffffffffffffffff166370a08231876040518263ffffffff1660e01b815260040161286d9190613b04565b602060405180830381865afa15801561288a573d6000803e3d6000fd5b505050506040513d601f19601f820116820180604052508101906128ae9190615249565b115b6128ef576040517f08c379a00000000000000000000000000000000000000000000000000000000081526004016128e6906152c2565b60405180910390fd5b600073ffffffffffffffffffffffffffffffffffffffff168473ffffffffffffffffffffffffffffffffffffffff1614806129785750600073ffffffffffffffffffffffffffffffffffffffff16600660009054906101000a900473ffffffffffffffffffffffffffffffffffffffff1673ffffffffffffffffffffffffffffffffffffffff16145b80612a1e57506000600660009054906101000a900473ffffffffffffffffffffffffffffffffffffffff1673ffffffffffffffffffffffffffffffffffffffff166370a08231866040518263ffffffff1660e01b81526004016129db9190613b04565b602060405180830381865afa1580156129f8573d6000803e3d6000fd5b505050506040513d601f19601f82011682018060405250810190612a1c9190615249565b115b612a5d576040517f08c379a0000000000000000000000000000000000000000000000000000000008152600401612a549061532e565b60405180910390fd5b505050505050565b505050505050565b612a8c8473ffffffffffffffffffffffffffffffffffffffff16612f90565b15612c3c578373ffffffffffffffffffffffffffffffffffffffff1663bc197c8187878686866040518663ffffffff1660e01b8152600401612ad295949392919061534e565b6020604051808303816000875af1925050508015612b0e57506040513d601f19601f82011682018060405250810190612b0b91906153cb565b60015b612bb357612b1a615405565b806308c379a003612b765750612b2e615427565b80612b395750612b78565b806040517f08c379a0000000000000000000000000000000000000000000000000000000008152600401612b6d9190613479565b60405180910390fd5b505b6040517f08c379a0000000000000000000000000000000000000000000000000000000008152600401612baa90615529565b60405180910390fd5b63bc197c8160e01b7bffffffffffffffffffffffffffffffffffffffffffffffffffffffff1916817bffffffffffffffffffffffffffffffffffffffffffffffffffffffff191614612c3a576040517f08c379a0000000000000000000000000000000000000000000000000000000008152600401612c31906155bb565b60405180910390fd5b505b505050505050565b612c4c6109bb565b612c8b576040517f08c379a0000000000000000000000000000000000000000000000000000000008152600401612c8290615627565b60405180910390fd5b565b60606000600167ffffffffffffffff811115612cac57612cab6134cd565b5b604051908082528060200260200182016040528015612cda5781602001602082028036833780820191505090505b5090508281600081518110612cf257612cf1613fbc565b5b60200260200101818152505080915050919050565b6060612d2d8273ffffffffffffffffffffffffffffffffffffffff16601460ff16612fb3565b9050919050565b606060008203612d7b576040518060400160405280600481526020017f30783030000000000000000000000000000000000000000000000000000000008152509050612db4565b600082905060005b60008214612da5578080612d969061401a565b915050600882901c9150612d83565b612daf8482612fb3565b925050505b919050565b612dd88473ffffffffffffffffffffffffffffffffffffffff16612f90565b15612f88578373ffffffffffffffffffffffffffffffffffffffff1663f23a6e6187878686866040518663ffffffff1660e01b8152600401612e1e959493929190615647565b6020604051808303816000875af1925050508015612e5a57506040513d601f19601f82011682018060405250810190612e5791906153cb565b60015b612eff57612e66615405565b806308c379a003612ec25750612e7a615427565b80612e855750612ec4565b806040517f08c379a0000000000000000000000000000000000000000000000000000000008152600401612eb99190613479565b60405180910390fd5b505b6040517f08c379a0000000000000000000000000000000000000000000000000000000008152600401612ef690615529565b60405180910390fd5b63f23a6e6160e01b7bffffffffffffffffffffffffffffffffffffffffffffffffffffffff1916817bffffffffffffffffffffffffffffffffffffffffffffffffffffffff191614612f86576040517f08c379a0000000000000000000000000000000000000000000000000000000008152600401612f7d906155bb565b60405180910390fd5b505b505050505050565b6000808273ffffffffffffffffffffffffffffffffffffffff163b119050919050565b606060006002836002612fc691906156a1565b612fd091906145a5565b67ffffffffffffffff811115612fe957612fe86134cd565b5b6040519080825280601f01601f19166020018201604052801561301b5781602001600182028036833780820191505090505b5090507f30000000000000000000000000000000000000000000000000000000000000008160008151811061305357613052613fbc565b5b60200101907effffffffffffffffffffffffffffffffffffffffffffffffffffffffffffff1916908160001a9053507f7800000000000000000000000000000000000000000000000000000000000000816001815181106130b7576130b6613fbc565b5b60200101907effffffffffffffffffffffffffffffffffffffffffffffffffffffffffffff1916908160001a905350600060018460026130f791906156a1565b61310191906145a5565b90505b60018111156131a1577f3031323334353637383961626364656600000000000000000000000000000000600f86166010811061314357613142613fbc565b5b1a60f81b82828151811061315a57613159613fbc565b5b60200101907effffffffffffffffffffffffffffffffffffffffffffffffffffffffffffff1916908160001a905350600485901c94508061319a906156e3565b9050613104565b50600084146131e5576040517f08c379a00000000000000000000000000000000000000000000000000000000081526004016131dc90615758565b60405180910390fd5b8091505092915050565b6000604051905090565b600080fd5b600080fd5b600073ffffffffffffffffffffffffffffffffffffffff82169050919050565b600061322e82613203565b9050919050565b61323e81613223565b811461324957600080fd5b50565b60008135905061325b81613235565b92915050565b6000819050919050565b61327481613261565b811461327f57600080fd5b50565b6000813590506132918161326b565b92915050565b600080604083850312156132ae576132ad6131f9565b5b60006132bc8582860161324c565b92505060206132cd85828601613282565b9150509250929050565b6132e081613261565b82525050565b60006020820190506132fb60008301846132d7565b92915050565b60007fffffffff0000000000000000000000000000000000000000000000000000000082169050919050565b61333681613301565b811461334157600080fd5b50565b6000813590506133538161332d565b92915050565b60006020828403121561336f5761336e6131f9565b5b600061337d84828501613344565b91505092915050565b60008115159050919050565b61339b81613386565b82525050565b60006020820190506133b66000830184613392565b92915050565b6000602082840312156133d2576133d16131f9565b5b60006133e084828501613282565b91505092915050565b600081519050919050565b600082825260208201905092915050565b60005b83811015613423578082015181840152602081019050613408565b60008484015250505050565b6000601f19601f8301169050919050565b600061344b826133e9565b61345581856133f4565b9350613465818560208601613405565b61346e8161342f565b840191505092915050565b600060208201905081810360008301526134938184613440565b905092915050565b6000602082840312156134b1576134b06131f9565b5b60006134bf8482850161324c565b91505092915050565b600080fd5b7f4e487b7100000000000000000000000000000000000000000000000000000000600052604160045260246000fd5b6135058261342f565b810181811067ffffffffffffffff82111715613524576135236134cd565b5b80604052505050565b60006135376131ef565b905061354382826134fc565b919050565b600067ffffffffffffffff821115613563576135626134cd565b5b602082029050602081019050919050565b600080fd5b600061358c61358784613548565b61352d565b905080838252602082019050602084028301858111156135af576135ae613574565b5b835b818110156135d857806135c48882613282565b8452602084019350506020810190506135b1565b5050509392505050565b600082601f8301126135f7576135f66134c8565b5b8135613607848260208601613579565b91505092915050565b600080fd5b600067ffffffffffffffff8211156136305761362f6134cd565b5b6136398261342f565b9050602081019050919050565b82818337600083830152505050565b600061366861366384613615565b61352d565b90508281526020810184848401111561368457613683613610565b5b61368f848285613646565b509392505050565b600082601f8301126136ac576136ab6134c8565b5b81356136bc848260208601613655565b91505092915050565b600080600080600060a086880312156136e1576136e06131f9565b5b60006136ef8882890161324c565b95505060206137008882890161324c565b945050604086013567ffffffffffffffff811115613721576137206131fe565b5b61372d888289016135e2565b935050606086013567ffffffffffffffff81111561374e5761374d6131fe565b5b61375a888289016135e2565b925050608086013567ffffffffffffffff81111561377b5761377a6131fe565b5b61378788828901613697565b9150509295509295909350565b600080604083850312156137ab576137aa6131f9565b5b60006137b98582860161324c565b92505060206137ca8582860161324c565b9150509250929050565b600067ffffffffffffffff8211156137ef576137ee6134cd565b5b602082029050602081019050919050565b600061381361380e846137d4565b61352d565b9050808382526020820190506020840283018581111561383657613835613574565b5b835b8181101561385f578061384b888261324c565b845260208401935050602081019050613838565b5050509392505050565b600082601f83011261387e5761387d6134c8565b5b813561388e848260208601613800565b91505092915050565b600080604083850312156138ae576138ad6131f9565b5b600083013567ffffffffffffffff8111156138cc576138cb6131fe565b5b6138d885828601613869565b925050602083013567ffffffffffffffff8111156138f9576138f86131fe565b5b613905858286016135e2565b9150509250929050565b600081519050919050565b600082825260208201905092915050565b6000819050602082019050919050565b61394481613261565b82525050565b6000613956838361393b565b60208301905092915050565b6000602082019050919050565b600061397a8261390f565b613984818561391a565b935061398f8361392b565b8060005b838110156139c05781516139a7888261394a565b97506139b283613962565b925050600181019050613993565b5085935050505092915050565b600060208201905081810360008301526139e7818461396f565b905092915050565b60008060008060808587031215613a0957613a086131f9565b5b6000613a178782880161324c565b9450506020613a288782880161324c565b9350506040613a3987828801613282565b925050606085013567ffffffffffffffff811115613a5a57613a596131fe565b5b613a6687828801613697565b91505092959194509250565b60008060008060808587031215613a8c57613a8b6131f9565b5b6000613a9a8782880161324c565b9450506020613aab87828801613282565b9350506040613abc8782880161324c565b925050606085013567ffffffffffffffff811115613add57613adc6131fe565b5b613ae987828801613697565b91505092959194509250565b613afe81613223565b82525050565b6000602082019050613b196000830184613af5565b92915050565b600080600080600060a08688031215613b3b57613b3a6131f9565b5b6000613b498882890161324c565b9550506020613b5a8882890161324c565b9450506040613b6b8882890161324c565b9350506060613b7c88828901613282565b925050608086013567ffffffffffffffff811115613b9d57613b9c6131fe565b5b613ba988828901613697565b9150509295509295909350565b613bbf81613386565b8114613bca57600080fd5b50565b600081359050613bdc81613bb6565b92915050565b60008060408385031215613bf957613bf86131f9565b5b6000613c078582860161324c565b9250506020613c1885828601613bcd565b9150509250929050565b600080600080600060a08688031215613c3e57613c3d6131f9565b5b6000613c4c8882890161324c565b9550506020613c5d88828901613282565b9450506040613c6e8882890161324c565b9350506060613c7f8882890161324c565b925050608086013567ffffffffffffffff811115613ca057613c9f6131fe565b5b613cac88828901613697565b9150509295509295909350565b6000819050919050565b6000613cde613cd9613cd484613203565b613cb9565b613203565b9050919050565b6000613cf082613cc3565b9050919050565b6000613d0282613ce5565b9050919050565b613d1281613cf7565b82525050565b6000602082019050613d2d6000830184613d09565b92915050565b6000613d3e82613ce5565b9050919050565b613d4e81613d33565b82525050565b6000602082019050613d696000830184613d45565b92915050565b600080600080600060a08688031215613d8b57613d8a6131f9565b5b6000613d998882890161324c565b9550506020613daa8882890161324c565b9450506040613dbb88828901613282565b9350506060613dcc88828901613282565b925050608086013567ffffffffffffffff811115613ded57613dec6131fe565b5b613df988828901613697565b9150509295509295909350565b7f455243313135353a2061646472657373207a65726f206973206e6f742061207660008201527f616c6964206f776e657200000000000000000000000000000000000000000000602082015250565b6000613e62602a836133f4565b9150613e6d82613e06565b604082019050919050565b60006020820190508181036000830152613e9181613e55565b9050919050565b7f455243313135353a2063616c6c6572206973206e6f7420746f6b656e206f776e60008201527f6572206e6f7220617070726f7665640000000000000000000000000000000000602082015250565b6000613ef4602f836133f4565b9150613eff82613e98565b604082019050919050565b60006020820190508181036000830152613f2381613ee7565b9050919050565b7f455243313135353a206163636f756e747320616e6420696473206c656e67746860008201527f206d69736d617463680000000000000000000000000000000000000000000000602082015250565b6000613f866029836133f4565b9150613f9182613f2a565b604082019050919050565b60006020820190508181036000830152613fb581613f79565b9050919050565b7f4e487b7100000000000000000000000000000000000000000000000000000000600052603260045260246000fd5b7f4e487b7100000000000000000000000000000000000000000000000000000000600052601160045260246000fd5b600061402582613261565b91507fffffffffffffffffffffffffffffffffffffffffffffffffffffffffffffffff820361405757614056613feb565b5b600182019050919050565b60006040820190506140776000830185613af5565b61408460208301846132d7565b9392505050565b60008151905061409a81613bb6565b92915050565b6000602082840312156140b6576140b56131f9565b5b60006140c48482850161408b565b91505092915050565b7f63616e2774207472616e73666572000000000000000000000000000000000000600082015250565b6000614103600e836133f4565b915061410e826140cd565b602082019050919050565b60006020820190508181036000830152614132816140f6565b9050919050565b600060608201905061414e6000830186613af5565b61415b6020830185613af5565b61416860408301846132d7565b949350505050565b60008160601b9050919050565b600061418882614170565b9050919050565b600061419a8261417d565b9050919050565b6141b26141ad82613223565b61418f565b82525050565b6000819050919050565b6141d36141ce82613261565b6141b8565b82525050565b60006141e582856141a1565b6014820191506141f582846141c2565b6020820191508190509392505050565b7f4f776e61626c653a206e6577206f776e657220697320746865207a65726f206160008201527f6464726573730000000000000000000000000000000000000000000000000000602082015250565b60006142616026836133f4565b915061426c82614205565b604082019050919050565b6000602082019050818103600083015261429081614254565b9050919050565b7f4e487b7100000000000000000000000000000000000000000000000000000000600052602260045260246000fd5b600060028204905060018216806142de57607f821691505b6020821081036142f1576142f0614297565b5b50919050565b600081905092915050565b60008190508160005260206000209050919050565b60008154614324816142c6565b61432e81866142f7565b94506001821660008114614349576001811461435e57614391565b60ff1983168652811515820286019350614391565b61436785614302565b60005b838110156143895781548189015260018201915060208101905061436a565b838801955050505b50505092915050565b60006143a5826133e9565b6143af81856142f7565b93506143bf818560208601613405565b80840191505092915050565b60006143d78285614317565b91506143e3828461439a565b91508190509392505050565b7f455243313135353a2069647320616e6420616d6f756e7473206c656e6774682060008201527f6d69736d61746368000000000000000000000000000000000000000000000000602082015250565b600061444b6028836133f4565b9150614456826143ef565b604082019050919050565b6000602082019050818103600083015261447a8161443e565b9050919050565b7f455243313135353a207472616e7366657220746f20746865207a65726f20616460008201527f6472657373000000000000000000000000000000000000000000000000000000602082015250565b60006144dd6025836133f4565b91506144e882614481565b604082019050919050565b6000602082019050818103600083015261450c816144d0565b9050919050565b7f455243313135353a20696e73756666696369656e742062616c616e636520666f60008201527f72207472616e7366657200000000000000000000000000000000000000000000602082015250565b600061456f602a836133f4565b915061457a82614513565b604082019050919050565b6000602082019050818103600083015261459e81614562565b9050919050565b60006145b082613261565b91506145bb83613261565b92508282019050808211156145d3576145d2613feb565b5b92915050565b600060408201905081810360008301526145f3818561396f565b90508181036020830152614607818461396f565b90509392505050565b7f4f776e61626c653a2063616c6c6572206973206e6f7420746865206f776e6572600082015250565b60006146466020836133f4565b915061465182614610565b602082019050919050565b6000602082019050818103600083015261467581614639565b9050919050565b7f5061757361626c653a2070617573656400000000000000000000000000000000600082015250565b60006146b26010836133f4565b91506146bd8261467c565b602082019050919050565b600060208201905081810360008301526146e1816146a5565b9050919050565b7f455243313135353a206275726e2066726f6d20746865207a65726f206164647260008201527f6573730000000000000000000000000000000000000000000000000000000000602082015250565b60006147446023836133f4565b915061474f826146e8565b604082019050919050565b6000602082019050818103600083015261477381614737565b9050919050565b7f455243313135353a206275726e20616d6f756e7420657863656564732062616c60008201527f616e636500000000000000000000000000000000000000000000000000000000602082015250565b60006147d66024836133f4565b91506147e18261477a565b604082019050919050565b60006020820190508181036000830152614805816147c9565b9050919050565b600060408201905061482160008301856132d7565b61482e60208301846132d7565b9392505050565b600081519050919050565b600082825260208201905092915050565b600061485c82614835565b6148668185614840565b9350614876818560208601613405565b61487f8161342f565b840191505092915050565b600060c08201905061489f6000830189613af5565b6148ac60208301886132d7565b6148b96040830187613af5565b6148c66060830186613af5565b6148d360808301856132d7565b81810360a08301526148e58184614851565b9050979650505050505050565b7f302b332b455243323020546f6b656e2052656c65617365642b00000000000000600082015250565b60006149286019836142f7565b9150614933826148f2565b601982019050919050565b7f7b22746f6b656e223a2200000000000000000000000000000000000000000000600082015250565b6000614974600a836142f7565b915061497f8261493e565b600a82019050919050565b7f222c000000000000000000000000000000000000000000000000000000000000600082015250565b60006149c06002836142f7565b91506149cb8261498a565b600282019050919050565b7f22777261707065645f746f6b656e5f6964223a22000000000000000000000000600082015250565b6000614a0c6014836142f7565b9150614a17826149d6565b601482019050919050565b7f2266726f6d223a22000000000000000000000000000000000000000000000000600082015250565b6000614a586008836142f7565b9150614a6382614a22565b600882019050919050565b7f22746f223a220000000000000000000000000000000000000000000000000000600082015250565b6000614aa46006836142f7565b9150614aaf82614a6e565b600682019050919050565b7f22616d6f756e74223a2200000000000000000000000000000000000000000000600082015250565b6000614af0600a836142f7565b9150614afb82614aba565b600a82019050919050565b7f2264617461223a22000000000000000000000000000000000000000000000000600082015250565b6000614b3c6008836142f7565b9150614b4782614b06565b600882019050919050565b7f227d000000000000000000000000000000000000000000000000000000000000600082015250565b6000614b886002836142f7565b9150614b9382614b52565b600282019050919050565b6000614ba98261491b565b9150614bb482614967565b9150614bc0828961439a565b9150614bcb826149b3565b9150614bd6826149ff565b9150614be2828861439a565b9150614bed826149b3565b9150614bf882614a4b565b9150614c04828761439a565b9150614c0f826149b3565b9150614c1a82614a97565b9150614c26828661439a565b9150614c31826149b3565b9150614c3c82614ae3565b9150614c48828561439a565b9150614c53826149b3565b9150614c5e82614b2f565b9150614c6a828461439a565b9150614c7582614b7b565b9150819050979650505050505050565b6000606082019050614c9a6000830186613af5565b614ca76020830185613af5565b8181036040830152614cb98184614851565b9050949350505050565b600060c082019050614cd86000830189613af5565b614ce560208301886132d7565b614cf260408301876132d7565b614cff6060830186613af5565b614d0c6080830185613af5565b81810360a0830152614d1e8184614851565b9050979650505050505050565b7f302b332b455243373231204e46542052656c65617365642b0000000000000000600082015250565b6000614d616018836142f7565b9150614d6c82614d2b565b601882019050919050565b7f226964223a220000000000000000000000000000000000000000000000000000600082015250565b6000614dad6006836142f7565b9150614db882614d77565b600682019050919050565b6000614dce82614d54565b9150614dd982614967565b9150614de5828961439a565b9150614df0826149b3565b9150614dfb82614da0565b9150614e07828861439a565b9150614e12826149b3565b9150614e1d826149ff565b9150614e29828761439a565b9150614e34826149b3565b9150614e3f82614a4b565b9150614e4b828661439a565b9150614e56826149b3565b9150614e6182614a97565b9150614e6d828561439a565b9150614e78826149b3565b9150614e8382614b2f565b9150614e8f828461439a565b9150614e9a82614b7b565b9150819050979650505050505050565b7f455243313135353a206d696e7420746f20746865207a65726f2061646472657360008201527f7300000000000000000000000000000000000000000000000000000000000000602082015250565b6000614f066021836133f4565b9150614f1182614eaa565b604082019050919050565b60006020820190508181036000830152614f3581614ef9565b9050919050565b7f302b332b455243323020546f6b656e204c6f636b65642b000000000000000000600082015250565b6000614f726017836142f7565b9150614f7d82614f3c565b601782019050919050565b6000614f9382614f65565b9150614f9e82614967565b9150614faa828961439a565b9150614fb5826149b3565b9150614fc0826149ff565b9150614fcc828861439a565b9150614fd7826149b3565b9150614fe282614a4b565b9150614fee828761439a565b9150614ff9826149b3565b915061500482614a97565b9150615010828661439a565b915061501b826149b3565b915061502682614ae3565b9150615032828561439a565b915061503d826149b3565b915061504882614b2f565b9150615054828461439a565b915061505f82614b7b565b9150819050979650505050505050565b7f455243313135353a2073657474696e6720617070726f76616c2073746174757360008201527f20666f722073656c660000000000000000000000000000000000000000000000602082015250565b60006150cb6029836133f4565b91506150d68261506f565b604082019050919050565b600060208201905081810360008301526150fa816150be565b9050919050565b7f302b332b455243373231204e4654204c6f636b65642b00000000000000000000600082015250565b60006151376016836142f7565b915061514282615101565b601682019050919050565b60006151588261512a565b915061516382614967565b915061516f828961439a565b915061517a826149b3565b915061518582614da0565b9150615191828861439a565b915061519c826149b3565b91506151a7826149ff565b91506151b3828761439a565b91506151be826149b3565b91506151c982614a4b565b91506151d5828661439a565b91506151e0826149b3565b91506151eb82614a97565b91506151f7828561439a565b9150615202826149b3565b915061520d82614b2f565b9150615219828461439a565b915061522482614b7b565b9150819050979650505050505050565b6000815190506152438161326b565b92915050565b60006020828403121561525f5761525e6131f9565b5b600061526d84828501615234565b91505092915050565b7f73656e64657220646f65736e27742068617665204b594320746f6b656e000000600082015250565b60006152ac601d836133f4565b91506152b782615276565b602082019050919050565b600060208201905081810360008301526152db8161529f565b9050919050565b7f726563697069656e7420646f65736e27742068617665204b594320746f6b656e600082015250565b60006153186020836133f4565b9150615323826152e2565b602082019050919050565b600060208201905081810360008301526153478161530b565b9050919050565b600060a0820190506153636000830188613af5565b6153706020830187613af5565b8181036040830152615382818661396f565b90508181036060830152615396818561396f565b905081810360808301526153aa8184614851565b90509695505050505050565b6000815190506153c58161332d565b92915050565b6000602082840312156153e1576153e06131f9565b5b60006153ef848285016153b6565b91505092915050565b60008160e01c9050919050565b600060033d11156154245760046000803e6154216000516153f8565b90505b90565b600060443d106154b4576154396131ef565b60043d036004823e80513d602482011167ffffffffffffffff821117156154615750506154b4565b808201805167ffffffffffffffff81111561547f57505050506154b4565b80602083010160043d03850181111561549c5750505050506154b4565b6154ab826020018501866134fc565b82955050505050505b90565b7f455243313135353a207472616e7366657220746f206e6f6e204552433131353560008201527f526563656976657220696d706c656d656e746572000000000000000000000000602082015250565b60006155136034836133f4565b915061551e826154b7565b604082019050919050565b6000602082019050818103600083015261554281615506565b9050919050565b7f455243313135353a204552433131353552656365697665722072656a6563746560008201527f6420746f6b656e73000000000000000000000000000000000000000000000000602082015250565b60006155a56028836133f4565b91506155b082615549565b604082019050919050565b600060208201905081810360008301526155d481615598565b9050919050565b7f5061757361626c653a206e6f7420706175736564000000000000000000000000600082015250565b60006156116014836133f4565b915061561c826155db565b602082019050919050565b6000602082019050818103600083015261564081615604565b9050919050565b600060a08201905061565c6000830188613af5565b6156696020830187613af5565b61567660408301866132d7565b61568360608301856132d7565b81810360808301526156958184614851565b90509695505050505050565b60006156ac82613261565b91506156b783613261565b92508282026156c581613261565b915082820484148315176156dc576156db613feb565b5b5092915050565b60006156ee82613261565b91506000820361570157615700613feb565b5b600182039050919050565b7f537472696e67733a20686578206c656e67746820696e73756666696369656e74600082015250565b60006157426020836133f4565b915061574d8261570c565b602082019050919050565b6000602082019050818103600083015261577181615735565b905091905056fea2646970667358221220c47a98afbf931b63602e2d3f810f4134b9d699805eacbb563cfcf977f33aefbe64736f6c63430008110033",
  "linkReferences": {},
  "deployedLinkReferences": {}
}