{
  "_format": "hh-sol-artifact-1",
  "contractName": "WrappedToken",
  "sourceName": "contracts/WrappedToken.sol",
  "abi": [
    {
      "inputs": [
        {
          "internalType": "contract IBalanceOf",
          "name": "kycToken",
          "type": "address"
        },
        {
          "internalType": "address",
          "name": "pushComm",
          "type": "address"
        },
        {
          "internalType": "address",
          "name": "channelAddress",
          "type": "address"
        }
      ],
      "stateMutability": "nonpayable",
      "type": "constructor"
    },
    {
      "anonymous": false,
      "inputs": [
        {
          "indexed": true,
          "internalType": "address",
          "name": "account",
          "type": "address"
        },
        {
          "indexed": true,
          "internalType": "address",
          "name": "operator",
          "type": "address"
        },
        {
          "indexed": false,
          "internalType": "bool",
          "name": "approved",
          "type": "bool"
        }
      ],
      "name": "ApprovalForAll",
      "type": "event"
    },
    {
      "anonymous": false,
      "inputs": [
        {
          "indexed": false,
          "internalType": "address",
          "name": "tokenAddress",
          "type": "address"
        },
        {
          "indexed": false,
          "internalType": "uint256",
          "name": "erc1155TokenID",
          "type": "uint256"
        },
        {
          "indexed": false,
          "internalType": "address",
          "name": "from",
          "type": "address"
        },
        {
          "indexed": false,
          "internalType": "address",
          "name": "to",
          "type": "address"
        },
        {
          "indexed": false,
          "internalType": "uint256",
          "name": "amount",
          "type": "uint256"
        },
        {
          "indexed": false,
          "internalType": "bytes",
          "name": "data",
          "type": "bytes"
        }
      ],
      "name": "LockedERC20",
      "type": "event"
    },
    {
      "anonymous": false,
      "inputs": [
        {
          "indexed": false,
          "internalType": "address",
          "name": "tokenAddress",
          "type": "address"
        },
        {
          "indexed": false,
          "internalType": "uint256",
          "name": "tokenID",
          "type": "uint256"
        },
        {
          "indexed": false,
          "internalType": "uint256",
          "name": "erc1155TokenID",
          "type": "uint256"
        },
        {
          "indexed": false,
          "internalType": "address",
          "name": "from",
          "type": "address"
        },
        {
          "indexed": false,
          "internalType": "address",
          "name": "to",
          "type": "address"
        },
        {
          "indexed": false,
          "internalType": "bytes",
          "name": "data",
          "type": "bytes"
        }
      ],
      "name": "LockedERC721",
      "type": "event"
    },
    {
      "anonymous": false,
      "inputs": [
        {
          "indexed": true,
          "internalType": "address",
          "name": "previousOwner",
          "type": "address"
        },
        {
          "indexed": true,
          "internalType": "address",
          "name": "newOwner",
          "type": "address"
        }
      ],
      "name": "OwnershipTransferred",
      "type": "event"
    },
    {
      "anonymous": false,
      "inputs": [
        {
          "indexed": false,
          "internalType": "address",
          "name": "account",
          "type": "address"
        }
      ],
      "name": "Paused",
      "type": "event"
    },
    {
      "anonymous": false,
      "inputs": [
        {
          "indexed": false,
          "internalType": "address",
          "name": "tokenAddress",
          "type": "address"
        },
        {
          "indexed": false,
          "internalType": "uint256",
          "name": "erc1155TokenID",
          "type": "uint256"
        },
        {
          "indexed": false,
          "internalType": "address",
          "name": "operator",
          "type": "address"
        },
        {
          "indexed": false,
          "internalType": "address",
          "name": "to",
          "type": "address"
        },
        {
          "indexed": false,
          "internalType": "uint256",
          "name": "amount",
          "type": "uint256"
        },
        {
          "indexed": false,
          "internalType": "bytes",
          "name": "data",
          "type": "bytes"
        }
      ],
      "name": "ReleasedERC20",
      "type": "event"
    },
    {
      "anonymous": false,
      "inputs": [
        {
          "indexed": false,
          "internalType": "address",
          "name": "tokenAddress",
          "type": "address"
        },
        {
          "indexed": false,
          "internalType": "uint256",
          "name": "tokenID",
          "type": "uint256"
        },
        {
          "indexed": false,
          "internalType": "uint256",
          "name": "erc1155TokenId",
          "type": "uint256"
        },
        {
          "indexed": false,
          "internalType": "address",
          "name": "from",
          "type": "address"
        },
        {
          "indexed": false,
          "internalType": "address",
          "name": "to",
          "type": "address"
        },
        {
          "indexed": false,
          "internalType": "bytes",
          "name": "data",
          "type": "bytes"
        }
      ],
      "name": "ReleasedERC721",
      "type": "event"
    },
    {
      "anonymous": false,
      "inputs": [
        {
          "indexed": true,
          "internalType": "address",
          "name": "operator",
          "type": "address"
        },
        {
          "indexed": true,
          "internalType": "address",
          "name": "from",
          "type": "address"
        },
        {
          "indexed": true,
          "internalType": "address",
          "name": "to",
          "type": "address"
        },
        {
          "indexed": false,
          "internalType": "uint256[]",
          "name": "ids",
          "type": "uint256[]"
        },
        {
          "indexed": false,
          "internalType": "uint256[]",
          "name": "values",
          "type": "uint256[]"
        }
      ],
      "name": "TransferBatch",
      "type": "event"
    },
    {
      "anonymous": false,
      "inputs": [
        {
          "indexed": true,
          "internalType": "address",
          "name": "operator",
          "type": "address"
        },
        {
          "indexed": true,
          "internalType": "address",
          "name": "from",
          "type": "address"
        },
        {
          "indexed": true,
          "internalType": "address",
          "name": "to",
          "type": "address"
        },
        {
          "indexed": false,
          "internalType": "uint256",
          "name": "id",
          "type": "uint256"
        },
        {
          "indexed": false,
          "internalType": "uint256",
          "name": "value",
          "type": "uint256"
        }
      ],
      "name": "TransferSingle",
      "type": "event"
    },
    {
      "anonymous": false,
      "inputs": [
        {
          "indexed": false,
          "internalType": "string",
          "name": "value",
          "type": "string"
        },
        {
          "indexed": true,
          "internalType": "uint256",
          "name": "id",
          "type": "uint256"
        }
      ],
      "name": "URI",
      "type": "event"
    },
    {
      "anonymous": false,
      "inputs": [
        {
          "indexed": false,
          "internalType": "address",
          "name": "account",
          "type": "address"
        }
      ],
      "name": "Unpaused",
      "type": "event"
    },
    {
      "inputs": [],
      "name": "_channelAddress",
      "outputs": [
        {
          "internalType": "address",
          "name": "",
          "type": "address"
        }
      ],
      "stateMutability": "view",
      "type": "function"
    },
    {
      "inputs": [],
      "name": "_push",
      "outputs": [
        {
          "internalType": "contract IPUSHCommInterface",
          "name": "",
          "type": "address"
        }
      ],
      "stateMutability": "view",
      "type": "function"
    },
    {
      "inputs": [
        {
          "internalType": "address",
          "name": "account",
          "type": "address"
        },
        {
          "internalType": "uint256",
          "name": "id",
          "type": "uint256"
        }
      ],
      "name": "balanceOf",
      "outputs": [
        {
          "internalType": "uint256",
          "name": "",
          "type": "uint256"
        }
      ],
      "stateMutability": "view",
      "type": "function"
    },
    {
      "inputs": [
        {
          "internalType": "address[]",
          "name": "accounts",
          "type": "address[]"
        },
        {
          "internalType": "uint256[]",
          "name": "ids",
          "type": "uint256[]"
        }
      ],
      "name": "balanceOfBatch",
      "outputs": [
        {
          "internalType": "uint256[]",
          "name": "",
          "type": "uint256[]"
        }
      ],
      "stateMutability": "view",
      "type": "function"
    },
    {
      "inputs": [
        {
          "internalType": "address",
          "name": "tokenAddress",
          "type": "address"
        }
      ],
      "name": "erc20TokenID",
      "outputs": [
        {
          "internalType": "uint256",
          "name": "",
          "type": "uint256"
        }
      ],
      "stateMutability": "view",
      "type": "function"
    },
    {
      "inputs": [
        {
          "internalType": "address",
          "name": "tokenAddress",
          "type": "address"
        },
        {
          "internalType": "uint256",
          "name": "tokenID",
          "type": "uint256"
        }
      ],
      "name": "erc721TokenID",
      "outputs": [
        {
          "internalType": "uint256",
          "name": "",
          "type": "uint256"
        }
      ],
      "stateMutability": "view",
      "type": "function"
    },
    {
      "inputs": [
        {
          "internalType": "address",
          "name": "account",
          "type": "address"
        },
        {
          "internalType": "address",
          "name": "operator",
          "type": "address"
        }
      ],
      "name": "isApprovedForAll",
      "outputs": [
        {
          "internalType": "bool",
          "name": "",
          "type": "bool"
        }
      ],
      "stateMutability": "view",
      "type": "function"
    },
    {
      "inputs": [
        {
          "internalType": "address",
          "name": "tokenAddress",
          "type": "address"
        },
        {
          "internalType": "address",
          "name": "from",
          "type": "address"
        },
        {
          "internalType": "address",
          "name": "to",
          "type": "address"
        },
        {
          "internalType": "uint256",
          "name": "amount",
          "type": "uint256"
        },
        {
          "internalType": "bytes",
          "name": "data",
          "type": "bytes"
        }
      ],
      "name": "lockERC20",
      "outputs": [],
      "stateMutability": "nonpayable",
      "type": "function"
    },
    {
      "inputs": [
        {
          "internalType": "address",
          "name": "tokenAddress",
          "type": "address"
        },
        {
          "internalType": "uint256",
          "name": "tokenID",
          "type": "uint256"
        },
        {
          "internalType": "address",
          "name": "from",
          "type": "address"
        },
        {
          "internalType": "address",
          "name": "to",
          "type": "address"
        },
        {
          "internalType": "bytes",
          "name": "data",
          "type": "bytes"
        }
      ],
      "name": "lockERC721",
      "outputs": [],
      "stateMutability": "nonpayable",
      "type": "function"
    },
    {
      "inputs": [],
      "name": "owner",
      "outputs": [
        {
          "internalType": "address",
          "name": "",
          "type": "address"
        }
      ],
      "stateMutability": "view",
      "type": "function"
    },
    {
      "inputs": [],
      "name": "pause",
      "outputs": [],
      "stateMutability": "nonpayable",
      "type": "function"
    },
    {
      "inputs": [],
      "name": "paused",
      "outputs": [
        {
          "internalType": "bool",
          "name": "",
          "type": "bool"
        }
      ],
      "stateMutability": "view",
      "type": "function"
    },
    {
      "inputs": [
        {
          "internalType": "address",
          "name": "tokenAddress",
          "type": "address"
        },
        {
          "internalType": "address",
          "name": "to",
          "type": "address"
        },
        {
          "internalType": "uint256",
          "name": "amount",
          "type": "uint256"
        },
        {
          "internalType": "bytes",
          "name": "data",
          "type": "bytes"
        }
      ],
      "name": "releaseERC20",
      "outputs": [],
      "stateMutability": "nonpayable",
      "type": "function"
    },
    {
      "inputs": [
        {
          "internalType": "address",
          "name": "tokenAddress",
          "type": "address"
        },
        {
          "internalType": "uint256",
          "name": "tokenID",
          "type": "uint256"
        },
        {
          "internalType": "address",
          "name": "to",
          "type": "address"
        },
        {
          "internalType": "bytes",
          "name": "data",
          "type": "bytes"
        }
      ],
      "name": "releaseERC721",
      "outputs": [],
      "stateMutability": "nonpayable",
      "type": "function"
    },
    {
      "inputs": [],
      "name": "renounceOwnership",
      "outputs": [],
      "stateMutability": "nonpayable",
      "type": "function"
    },
    {
      "inputs": [
        {
          "internalType": "address",
          "name": "from",
          "type": "address"
        },
        {
          "internalType": "address",
          "name": "to",
          "type": "address"
        },
        {
          "internalType": "uint256[]",
          "name": "ids",
          "type": "uint256[]"
        },
        {
          "internalType": "uint256[]",
          "name": "amounts",
          "type": "uint256[]"
        },
        {
          "internalType": "bytes",
          "name": "data",
          "type": "bytes"
        }
      ],
      "name": "safeBatchTransferFrom",
      "outputs": [],
      "stateMutability": "nonpayable",
      "type": "function"
    },
    {
      "inputs": [
        {
          "internalType": "address",
          "name": "from",
          "type": "address"
        },
        {
          "internalType": "address",
          "name": "to",
          "type": "address"
        },
        {
          "internalType": "uint256",
          "name": "id",
          "type": "uint256"
        },
        {
          "internalType": "uint256",
          "name": "amount",
          "type": "uint256"
        },
        {
          "internalType": "bytes",
          "name": "data",
          "type": "bytes"
        }
      ],
      "name": "safeTransferFrom",
      "outputs": [],
      "stateMutability": "nonpayable",
      "type": "function"
    },
    {
      "inputs": [
        {
          "internalType": "address",
          "name": "operator",
          "type": "address"
        },
        {
          "internalType": "bool",
          "name": "approved",
          "type": "bool"
        }
      ],
      "name": "setApprovalForAll",
      "outputs": [],
      "stateMutability": "nonpayable",
      "type": "function"
    },
    {
      "inputs": [
        {
          "internalType": "address",
          "name": "kycToken",
          "type": "address"
        }
      ],
      "name": "setKYCToken",
      "outputs": [],
      "stateMutability": "nonpayable",
      "type": "function"
    },
    {
      "inputs": [
        {
          "internalType": "address",
          "name": "pushComm",
          "type": "address"
        },
        {
          "internalType": "address",
          "name": "channelAddress",
          "type": "address"
        }
      ],
      "name": "setPushProtocol",
      "outputs": [],
      "stateMutability": "nonpayable",
      "type": "function"
    },
    {
      "inputs": [
        {
          "internalType": "bytes4",
          "name": "interfaceId",
          "type": "bytes4"
        }
      ],
      "name": "supportsInterface",
      "outputs": [
        {
          "internalType": "bool",
          "name": "",
          "type": "bool"
        }
      ],
      "stateMutability": "view",
      "type": "function"
    },
    {
      "inputs": [
        {
          "internalType": "address",
          "name": "newOwner",
          "type": "address"
        }
      ],
      "name": "transferOwnership",
      "outputs": [],
      "stateMutability": "nonpayable",
      "type": "function"
    },
    {
      "inputs": [],
      "name": "unpause",
      "outputs": [],
      "stateMutability": "nonpayable",
      "type": "function"
    },
    {
      "inputs": [
        {
          "internalType": "uint256",
          "name": "tokenID",
          "type": "uint256"
        }
      ],
      "name": "uri",
      "outputs": [
        {
          "internalType": "string",
          "name": "",
          "type": "string"
        }
      ],
      "stateMutability": "view",
      "type": "function"
    }
  ],
  "bytecode": "0x6080604052604051806020016040528060008152506003908162000024919062000521565b503480156200003257600080fd5b5060405162006660380380620066608339818101604052810190620000589190620006b7565b82604051806020016040528060008152506200007a81620001c460201b60201c565b506000600560006101000a81548160ff021916908315150217905550620000b6620000aa620001d960201b60201c565b620001e160201b60201c565b80600660006101000a81548173ffffffffffffffffffffffffffffffffffffffff021916908373ffffffffffffffffffffffffffffffffffffffff1602179055505082600660006101000a81548173ffffffffffffffffffffffffffffffffffffffff021916908373ffffffffffffffffffffffffffffffffffffffff16021790555081600760006101000a81548173ffffffffffffffffffffffffffffffffffffffff021916908373ffffffffffffffffffffffffffffffffffffffff16021790555080600860006101000a81548173ffffffffffffffffffffffffffffffffffffffff021916908373ffffffffffffffffffffffffffffffffffffffff16021790555050505062000713565b8060029081620001d5919062000521565b5050565b600033905090565b6000600560019054906101000a900473ffffffffffffffffffffffffffffffffffffffff16905081600560016101000a81548173ffffffffffffffffffffffffffffffffffffffff021916908373ffffffffffffffffffffffffffffffffffffffff1602179055508173ffffffffffffffffffffffffffffffffffffffff168173ffffffffffffffffffffffffffffffffffffffff167f8be0079c531659141344cd1fd0a4f28419497f9722a3daafe3b4186f6b6457e060405160405180910390a35050565b600081519050919050565b7f4e487b7100000000000000000000000000000000000000000000000000000000600052604160045260246000fd5b7f4e487b7100000000000000000000000000000000000000000000000000000000600052602260045260246000fd5b600060028204905060018216806200032957607f821691505b6020821081036200033f576200033e620002e1565b5b50919050565b60008190508160005260206000209050919050565b60006020601f8301049050919050565b600082821b905092915050565b600060088302620003a97fffffffffffffffffffffffffffffffffffffffffffffffffffffffffffffffff826200036a565b620003b586836200036a565b95508019841693508086168417925050509392505050565b6000819050919050565b6000819050919050565b600062000402620003fc620003f684620003cd565b620003d7565b620003cd565b9050919050565b6000819050919050565b6200041e83620003e1565b620004366200042d8262000409565b84845462000377565b825550505050565b600090565b6200044d6200043e565b6200045a81848462000413565b505050565b5b8181101562000482576200047660008262000443565b60018101905062000460565b5050565b601f821115620004d1576200049b8162000345565b620004a6846200035a565b81016020851015620004b6578190505b620004ce620004c5856200035a565b8301826200045f565b50505b505050565b600082821c905092915050565b6000620004f660001984600802620004d6565b1980831691505092915050565b6000620005118383620004e3565b9150826002028217905092915050565b6200052c82620002a7565b67ffffffffffffffff811115620005485762000547620002b2565b5b62000554825462000310565b6200056182828562000486565b600060209050601f83116001811462000599576000841562000584578287015190505b62000590858262000503565b86555062000600565b601f198416620005a98662000345565b60005b82811015620005d357848901518255600182019150602085019450602081019050620005ac565b86831015620005f35784890151620005ef601f891682620004e3565b8355505b6001600288020188555050505b505050505050565b600080fd5b600073ffffffffffffffffffffffffffffffffffffffff82169050919050565b60006200063a826200060d565b9050919050565b60006200064e826200062d565b9050919050565b620006608162000641565b81146200066c57600080fd5b50565b600081519050620006808162000655565b92915050565b62000691816200062d565b81146200069d57600080fd5b50565b600081519050620006b18162000686565b92915050565b600080600060608486031215620006d357620006d262000608565b5b6000620006e3868287016200066f565b9350506020620006f686828701620006a0565b92505060406200070986828701620006a0565b9150509250925092565b615f3d80620007236000396000f3fe608060405234801561001057600080fd5b50600436106101575760003560e01c80638456cb59116100c3578063ad2edf901161007c578063ad2edf901461039a578063dfc40e31146103b6578063e985e9c5146103d4578063f242432a14610404578063f2fde38b14610420578063f45529821461043c57610157565b80638456cb59146102ee5780638da5cb5b146102f8578063903acbdb1461031657806398b6ca9b14610332578063a22cb46514610362578063a3c1c4a91461037e57610157565b80633f4ba83a116101155780633f4ba83a146102545780634e1273f41461025e5780635668c3f41461028e5780635c975abb146102aa578063672bf705146102c8578063715018a6146102e457610157565b8062fdd58e1461015c57806301ffc9a71461018c5780630e89341c146101bc57806329d06964146101ec5780632eb2c2d61461021c57806337e4b0c214610238575b600080fd5b610176600480360381019061017191906135c7565b61045a565b6040516101839190613616565b60405180910390f35b6101a660048036038101906101a19190613689565b610522565b6040516101b391906136d1565b60405180910390f35b6101d660048036038101906101d191906136ec565b610604565b6040516101e391906137a9565b60405180910390f35b610206600480360381019061020191906137cb565b610616565b6040516102139190613616565b60405180910390f35b610236600480360381019061023191906139f5565b610636565b005b610252600480360381019061024d9190613ac4565b6106d7565b005b61025c610765565b005b61027860048036038101906102739190613bc7565b610777565b6040516102859190613cfd565b60405180910390f35b6102a860048036038101906102a39190613d1f565b610890565b005b6102b2610982565b6040516102bf91906136d1565b60405180910390f35b6102e260048036038101906102dd9190613da2565b610999565b005b6102ec610a3f565b005b6102f6610a53565b005b610300610a65565b60405161030d9190613e34565b60405180910390f35b610330600480360381019061032b9190613e4f565b610a8f565b005b61034c600480360381019061034791906135c7565b610b85565b6040516103599190613616565b60405180910390f35b61037c60048036038101906103779190613f12565b610bbb565b005b610398600480360381019061039391906137cb565b610bd1565b005b6103b460048036038101906103af9190613f52565b610be5565b005b6103be610c8d565b6040516103cb9190614048565b60405180910390f35b6103ee60048036038101906103e99190613ac4565b610cb3565b6040516103fb91906136d1565b60405180910390f35b61041e60048036038101906104199190614063565b610d47565b005b61043a600480360381019061043591906137cb565b610de8565b005b610444610e6b565b6040516104519190613e34565b60405180910390f35b60008073ffffffffffffffffffffffffffffffffffffffff168373ffffffffffffffffffffffffffffffffffffffff16036104ca576040517f08c379a00000000000000000000000000000000000000000000000000000000081526004016104c19061416c565b60405180910390fd5b60008083815260200190815260200160002060008473ffffffffffffffffffffffffffffffffffffffff1673ffffffffffffffffffffffffffffffffffffffff16815260200190815260200160002054905092915050565b60007fd9b67a26000000000000000000000000000000000000000000000000000000007bffffffffffffffffffffffffffffffffffffffffffffffffffffffff1916827bffffffffffffffffffffffffffffffffffffffffffffffffffffffff191614806105ed57507f0e89341c000000000000000000000000000000000000000000000000000000007bffffffffffffffffffffffffffffffffffffffffffffffffffffffff1916827bffffffffffffffffffffffffffffffffffffffffffffffffffffffff1916145b806105fd57506105fc82610e91565b5b9050919050565b606061060f82610efb565b9050919050565b60008173ffffffffffffffffffffffffffffffffffffffff169050919050565b61063e610fe0565b73ffffffffffffffffffffffffffffffffffffffff168573ffffffffffffffffffffffffffffffffffffffff16148061068457506106838561067e610fe0565b610cb3565b5b6106c3576040517f08c379a00000000000000000000000000000000000000000000000000000000081526004016106ba906141fe565b60405180910390fd5b6106d08585858585610fe8565b5050505050565b6106df611309565b81600760006101000a81548173ffffffffffffffffffffffffffffffffffffffff021916908373ffffffffffffffffffffffffffffffffffffffff16021790555080600860006101000a81548173ffffffffffffffffffffffffffffffffffffffff021916908373ffffffffffffffffffffffffffffffffffffffff1602179055505050565b61076d611309565b610775611387565b565b606081518351146107bd576040517f08c379a00000000000000000000000000000000000000000000000000000000081526004016107b490614290565b60405180910390fd5b6000835167ffffffffffffffff8111156107da576107d96137fd565b5b6040519080825280602002602001820160405280156108085781602001602082028036833780820191505090505b50905060005b84518110156108855761085585828151811061082d5761082c6142b0565b5b6020026020010151858381518110610848576108476142b0565b5b602002602001015161045a565b828281518110610868576108676142b0565b5b6020026020010181815250508061087e9061430e565b905061080e565b508091505092915050565b6108986113ea565b60006108a385610616565b90506108b0338285611434565b8473ffffffffffffffffffffffffffffffffffffffff1663a9059cbb85856040518363ffffffff1660e01b81526004016108eb929190614356565b6020604051808303816000875af115801561090a573d6000803e3d6000fd5b505050506040513d601f19601f8201168201806040525081019061092e9190614394565b61096d576040517f08c379a00000000000000000000000000000000000000000000000000000000081526004016109649061440d565b60405180910390fd5b61097b85823387878761167a565b5050505050565b6000600560009054906101000a900460ff16905090565b6109a16113ea565b60006109ad8585610b85565b90506109bb33826001611434565b8473ffffffffffffffffffffffffffffffffffffffff166323b872dd3085876040518463ffffffff1660e01b81526004016109f89392919061442d565b600060405180830381600087803b158015610a1257600080fd5b505af1158015610a26573d6000803e3d6000fd5b50505050610a388585833387876118b9565b5050505050565b610a47611309565b610a516000611af8565b565b610a5b611309565b610a63611bbe565b565b6000600560019054906101000a900473ffffffffffffffffffffffffffffffffffffffff16905090565b610a976113ea565b6000610aa286610616565b90508573ffffffffffffffffffffffffffffffffffffffff166323b872dd8630866040518463ffffffff1660e01b8152600401610ae19392919061442d565b6020604051808303816000875af1158015610b00573d6000803e3d6000fd5b505050506040513d601f19601f82011682018060405250810190610b249190614394565b610b63576040517f08c379a0000000000000000000000000000000000000000000000000000000008152600401610b5a9061440d565b60405180910390fd5b610b6f84828585611c21565b610b7d868233878787611dd1565b505050505050565b60008282604051602001610b9a9291906144cd565b6040516020818303038152906040528051906020012060001c905092915050565b610bcd610bc6610fe0565b8383612010565b5050565b610bd9611309565b610be28161217c565b50565b610bed6113ea565b6000610bf98686610b85565b90508573ffffffffffffffffffffffffffffffffffffffff166323b872dd8530886040518463ffffffff1660e01b8152600401610c389392919061442d565b600060405180830381600087803b158015610c5257600080fd5b505af1158015610c66573d6000803e3d6000fd5b50505050610c778382600185611c21565b610c858686838787876121c0565b505050505050565b600760009054906101000a900473ffffffffffffffffffffffffffffffffffffffff1681565b6000600160008473ffffffffffffffffffffffffffffffffffffffff1673ffffffffffffffffffffffffffffffffffffffff16815260200190815260200160002060008373ffffffffffffffffffffffffffffffffffffffff1673ffffffffffffffffffffffffffffffffffffffff16815260200190815260200160002060009054906101000a900460ff16905092915050565b610d4f610fe0565b73ffffffffffffffffffffffffffffffffffffffff168573ffffffffffffffffffffffffffffffffffffffff161480610d955750610d9485610d8f610fe0565b610cb3565b5b610dd4576040517f08c379a0000000000000000000000000000000000000000000000000000000008152600401610dcb906141fe565b60405180910390fd5b610de185858585856123ff565b5050505050565b610df0611309565b600073ffffffffffffffffffffffffffffffffffffffff168173ffffffffffffffffffffffffffffffffffffffff1603610e5f576040517f08c379a0000000000000000000000000000000000000000000000000000000008152600401610e569061456b565b60405180910390fd5b610e6881611af8565b50565b600860009054906101000a900473ffffffffffffffffffffffffffffffffffffffff1681565b60007f01ffc9a7000000000000000000000000000000000000000000000000000000007bffffffffffffffffffffffffffffffffffffffffffffffffffffffff1916827bffffffffffffffffffffffffffffffffffffffffffffffffffffffff1916149050919050565b60606000600460008481526020019081526020016000208054610f1d906145ba565b80601f0160208091040260200160405190810160405280929190818152602001828054610f49906145ba565b8015610f965780601f10610f6b57610100808354040283529160200191610f96565b820191906000526020600020905b815481529060010190602001808311610f7957829003601f168201915b505050505090506000815111610fb457610faf8361269a565b610fd8565b600381604051602001610fc89291906146bf565b6040516020818303038152906040525b915050919050565b600033905090565b815183511461102c576040517f08c379a000000000000000000000000000000000000000000000000000000000815260040161102390614755565b60405180910390fd5b600073ffffffffffffffffffffffffffffffffffffffff168473ffffffffffffffffffffffffffffffffffffffff160361109b576040517f08c379a0000000000000000000000000000000000000000000000000000000008152600401611092906147e7565b60405180910390fd5b60006110a5610fe0565b90506110b581878787878761272e565b60005b84518110156112665760008582815181106110d6576110d56142b0565b5b6020026020010151905060008583815181106110f5576110f46142b0565b5b60200260200101519050600080600084815260200190815260200160002060008b73ffffffffffffffffffffffffffffffffffffffff1673ffffffffffffffffffffffffffffffffffffffff16815260200190815260200160002054905081811015611196576040517f08c379a000000000000000000000000000000000000000000000000000000000815260040161118d90614879565b60405180910390fd5b81810360008085815260200190815260200160002060008c73ffffffffffffffffffffffffffffffffffffffff1673ffffffffffffffffffffffffffffffffffffffff168152602001908152602001600020819055508160008085815260200190815260200160002060008b73ffffffffffffffffffffffffffffffffffffffff1673ffffffffffffffffffffffffffffffffffffffff168152602001908152602001600020600082825461124b9190614899565b925050819055505050508061125f9061430e565b90506110b8565b508473ffffffffffffffffffffffffffffffffffffffff168673ffffffffffffffffffffffffffffffffffffffff168273ffffffffffffffffffffffffffffffffffffffff167f4a39dc06d4c0dbc64b70af90fd698a233a518aa5d07e595d983b8c0526c8f7fb87876040516112dd9291906148cd565b60405180910390a46112f3818787878787612740565b611301818787878787612abd565b505050505050565b611311610fe0565b73ffffffffffffffffffffffffffffffffffffffff1661132f610a65565b73ffffffffffffffffffffffffffffffffffffffff1614611385576040517f08c379a000000000000000000000000000000000000000000000000000000000815260040161137c90614950565b60405180910390fd5b565b61138f612c94565b6000600560006101000a81548160ff0219169083151502179055507f5db9ee0a495bf2e6ff9c91a7834c1ba4fdd244a5e8aa4e537bd38aeae4b073aa6113d3610fe0565b6040516113e09190613e34565b60405180910390a1565b6113f2610982565b15611432576040517f08c379a0000000000000000000000000000000000000000000000000000000008152600401611429906149bc565b60405180910390fd5b565b600073ffffffffffffffffffffffffffffffffffffffff168373ffffffffffffffffffffffffffffffffffffffff16036114a3576040517f08c379a000000000000000000000000000000000000000000000000000000000815260040161149a90614a4e565b60405180910390fd5b60006114ad610fe0565b905060006114ba84612cdd565b905060006114c784612cdd565b90506114e78387600085856040518060200160405280600081525061272e565b600080600087815260200190815260200160002060008873ffffffffffffffffffffffffffffffffffffffff1673ffffffffffffffffffffffffffffffffffffffff1681526020019081526020016000205490508481101561157e576040517f08c379a000000000000000000000000000000000000000000000000000000000815260040161157590614ae0565b60405180910390fd5b84810360008088815260200190815260200160002060008973ffffffffffffffffffffffffffffffffffffffff1673ffffffffffffffffffffffffffffffffffffffff16815260200190815260200160002081905550600073ffffffffffffffffffffffffffffffffffffffff168773ffffffffffffffffffffffffffffffffffffffff168573ffffffffffffffffffffffffffffffffffffffff167fc3d58168c5ae7397731d063d5bbf3d657854427343f4c083240f7aacaa2d0f62898960405161164b929190614b00565b60405180910390a461167184886000868660405180602001604052806000815250612740565b50505050505050565b7fb7271e758ff408b37ddd718b846580fe18138146a5efcd28d0d6a74979e2a1f28686868686866040516116b396959493929190614b7e565b60405180910390a1600073ffffffffffffffffffffffffffffffffffffffff16600760009054906101000a900473ffffffffffffffffffffffffffffffffffffffff1673ffffffffffffffffffffffffffffffffffffffff1614806117665750600073ffffffffffffffffffffffffffffffffffffffff16600860009054906101000a900473ffffffffffffffffffffffffffffffffffffffff1673ffffffffffffffffffffffffffffffffffffffff16145b6118b157600760009054906101000a900473ffffffffffffffffffffffffffffffffffffffff1673ffffffffffffffffffffffffffffffffffffffff1663ba3d69d7600860009054906101000a900473ffffffffffffffffffffffffffffffffffffffff16866117eb8a73ffffffffffffffffffffffffffffffffffffffff16612d57565b6117f48a612d84565b6118138a73ffffffffffffffffffffffffffffffffffffffff16612d57565b6118328a73ffffffffffffffffffffffffffffffffffffffff16612d57565b61183b8a612d84565b8960405160200161185196959493929190614e92565b6040516020818303038152906040526040518463ffffffff1660e01b815260040161187e93929190614f79565b600060405180830381600087803b15801561189857600080fd5b505af11580156118ac573d6000803e3d6000fd5b505050505b505050505050565b7ff6d170c2e977a15f6f88d5821ecf488aca751382e5add9230c224655a92cdeb58686868686866040516118f296959493929190614fb7565b60405180910390a1600073ffffffffffffffffffffffffffffffffffffffff16600760009054906101000a900473ffffffffffffffffffffffffffffffffffffffff1673ffffffffffffffffffffffffffffffffffffffff1614806119a55750600073ffffffffffffffffffffffffffffffffffffffff16600860009054906101000a900473ffffffffffffffffffffffffffffffffffffffff1673ffffffffffffffffffffffffffffffffffffffff16145b611af057600760009054906101000a900473ffffffffffffffffffffffffffffffffffffffff1673ffffffffffffffffffffffffffffffffffffffff1663ba3d69d7600860009054906101000a900473ffffffffffffffffffffffffffffffffffffffff1685611a2a8a73ffffffffffffffffffffffffffffffffffffffff16612d57565b611a338a612d84565b611a3c8a612d84565b611a5b8a73ffffffffffffffffffffffffffffffffffffffff16612d57565b611a7a8a73ffffffffffffffffffffffffffffffffffffffff16612d57565b89604051602001611a90969594939291906150b7565b6040516020818303038152906040526040518463ffffffff1660e01b8152600401611abd93929190614f79565b600060405180830381600087803b158015611ad757600080fd5b505af1158015611aeb573d6000803e3d6000fd5b505050505b505050505050565b6000600560019054906101000a900473ffffffffffffffffffffffffffffffffffffffff16905081600560016101000a81548173ffffffffffffffffffffffffffffffffffffffff021916908373ffffffffffffffffffffffffffffffffffffffff1602179055508173ffffffffffffffffffffffffffffffffffffffff168173ffffffffffffffffffffffffffffffffffffffff167f8be0079c531659141344cd1fd0a4f28419497f9722a3daafe3b4186f6b6457e060405160405180910390a35050565b611bc66113ea565b6001600560006101000a81548160ff0219169083151502179055507f62e78cea01bee320cd4e420270b5ea74000d11b0c9f74754ebdbfc544b05a258611c0a610fe0565b604051611c179190613e34565b60405180910390a1565b600073ffffffffffffffffffffffffffffffffffffffff168473ffffffffffffffffffffffffffffffffffffffff1603611c90576040517f08c379a0000000000000000000000000000000000000000000000000000000008152600401611c8790615210565b60405180910390fd5b6000611c9a610fe0565b90506000611ca785612cdd565b90506000611cb485612cdd565b9050611cc58360008985858961272e565b8460008088815260200190815260200160002060008973ffffffffffffffffffffffffffffffffffffffff1673ffffffffffffffffffffffffffffffffffffffff1681526020019081526020016000206000828254611d249190614899565b925050819055508673ffffffffffffffffffffffffffffffffffffffff16600073ffffffffffffffffffffffffffffffffffffffff168473ffffffffffffffffffffffffffffffffffffffff167fc3d58168c5ae7397731d063d5bbf3d657854427343f4c083240f7aacaa2d0f628989604051611da2929190614b00565b60405180910390a4611db983600089858589612740565b611dc883600089898989612e09565b50505050505050565b7fac867b0c94ce6505841ee92fa0e1daf2d34d549ddf3bd7f6a4e4656604c81dd5868686868686604051611e0a96959493929190614b7e565b60405180910390a1600073ffffffffffffffffffffffffffffffffffffffff16600760009054906101000a900473ffffffffffffffffffffffffffffffffffffffff1673ffffffffffffffffffffffffffffffffffffffff161480611ebd5750600073ffffffffffffffffffffffffffffffffffffffff16600860009054906101000a900473ffffffffffffffffffffffffffffffffffffffff1673ffffffffffffffffffffffffffffffffffffffff16145b61200857600760009054906101000a900473ffffffffffffffffffffffffffffffffffffffff1673ffffffffffffffffffffffffffffffffffffffff1663ba3d69d7600860009054906101000a900473ffffffffffffffffffffffffffffffffffffffff1686611f428a73ffffffffffffffffffffffffffffffffffffffff16612d57565b611f4b8a612d84565b611f6a8a73ffffffffffffffffffffffffffffffffffffffff16612d57565b611f898a73ffffffffffffffffffffffffffffffffffffffff16612d57565b611f928a612d84565b89604051602001611fa89695949392919061527c565b6040516020818303038152906040526040518463ffffffff1660e01b8152600401611fd593929190614f79565b600060405180830381600087803b158015611fef57600080fd5b505af1158015612003573d6000803e3d6000fd5b505050505b505050505050565b8173ffffffffffffffffffffffffffffffffffffffff168373ffffffffffffffffffffffffffffffffffffffff160361207e576040517f08c379a0000000000000000000000000000000000000000000000000000000008152600401612075906153d5565b60405180910390fd5b80600160008573ffffffffffffffffffffffffffffffffffffffff1673ffffffffffffffffffffffffffffffffffffffff16815260200190815260200160002060008473ffffffffffffffffffffffffffffffffffffffff1673ffffffffffffffffffffffffffffffffffffffff16815260200190815260200160002060006101000a81548160ff0219169083151502179055508173ffffffffffffffffffffffffffffffffffffffff168373ffffffffffffffffffffffffffffffffffffffff167f17307eab39ab6107e8899845ad3d59bd9653f200f220920489ca2b5937696c318360405161216f91906136d1565b60405180910390a3505050565b80600660006101000a81548173ffffffffffffffffffffffffffffffffffffffff021916908373ffffffffffffffffffffffffffffffffffffffff16021790555050565b7faf6985cd85c6236f5219a3e4d053464810cadb35dc8ba7ecfbd8f25bdbffe60d8686868686866040516121f996959493929190614fb7565b60405180910390a1600073ffffffffffffffffffffffffffffffffffffffff16600760009054906101000a900473ffffffffffffffffffffffffffffffffffffffff1673ffffffffffffffffffffffffffffffffffffffff1614806122ac5750600073ffffffffffffffffffffffffffffffffffffffff16600860009054906101000a900473ffffffffffffffffffffffffffffffffffffffff1673ffffffffffffffffffffffffffffffffffffffff16145b6123f757600760009054906101000a900473ffffffffffffffffffffffffffffffffffffffff1673ffffffffffffffffffffffffffffffffffffffff1663ba3d69d7600860009054906101000a900473ffffffffffffffffffffffffffffffffffffffff16856123318a73ffffffffffffffffffffffffffffffffffffffff16612d57565b61233a8a612d84565b6123438a612d84565b6123628a73ffffffffffffffffffffffffffffffffffffffff16612d57565b6123818a73ffffffffffffffffffffffffffffffffffffffff16612d57565b8960405160200161239796959493929190615441565b6040516020818303038152906040526040518463ffffffff1660e01b81526004016123c493929190614f79565b600060405180830381600087803b1580156123de57600080fd5b505af11580156123f2573d6000803e3d6000fd5b505050505b505050505050565b600073ffffffffffffffffffffffffffffffffffffffff168473ffffffffffffffffffffffffffffffffffffffff160361246e576040517f08c379a0000000000000000000000000000000000000000000000000000000008152600401612465906147e7565b60405180910390fd5b6000612478610fe0565b9050600061248585612cdd565b9050600061249285612cdd565b90506124a283898985858961272e565b600080600088815260200190815260200160002060008a73ffffffffffffffffffffffffffffffffffffffff1673ffffffffffffffffffffffffffffffffffffffff16815260200190815260200160002054905085811015612539576040517f08c379a000000000000000000000000000000000000000000000000000000000815260040161253090614879565b60405180910390fd5b85810360008089815260200190815260200160002060008b73ffffffffffffffffffffffffffffffffffffffff1673ffffffffffffffffffffffffffffffffffffffff168152602001908152602001600020819055508560008089815260200190815260200160002060008a73ffffffffffffffffffffffffffffffffffffffff1673ffffffffffffffffffffffffffffffffffffffff16815260200190815260200160002060008282546125ee9190614899565b925050819055508773ffffffffffffffffffffffffffffffffffffffff168973ffffffffffffffffffffffffffffffffffffffff168573ffffffffffffffffffffffffffffffffffffffff167fc3d58168c5ae7397731d063d5bbf3d657854427343f4c083240f7aacaa2d0f628a8a60405161266b929190614b00565b60405180910390a4612681848a8a86868a612740565b61268f848a8a8a8a8a612e09565b505050505050505050565b6060600280546126a9906145ba565b80601f01602080910402602001604051908101604052809291908181526020018280546126d5906145ba565b80156127225780601f106126f757610100808354040283529160200191612722565b820191906000526020600020905b81548152906001019060200180831161270557829003601f168201915b50505050509050919050565b6127388585612fe0565b505050505050565b600073ffffffffffffffffffffffffffffffffffffffff168573ffffffffffffffffffffffffffffffffffffffff1614806127a75750600073ffffffffffffffffffffffffffffffffffffffff168473ffffffffffffffffffffffffffffffffffffffff16145b612ab55760006040516020016127bc90615574565b6040516020818303038152906040529050806127ed8873ffffffffffffffffffffffffffffffffffffffff16612d57565b61280c8873ffffffffffffffffffffffffffffffffffffffff16612d57565b61282b8873ffffffffffffffffffffffffffffffffffffffff16612d57565b60405160200161283e94939291906156f5565b60405160208183030381529060405290506000604051602001612860906157ab565b60405160208183030381529060405290506000604051602001612882906157ab565b604051602081830303815290604052905060005b86518110156129d8576000810361293857826128cb8883815181106128be576128bd6142b0565b5b6020026020010151612d84565b6040516020016128dc92919061580c565b604051602081830303815290604052925081612911878381518110612904576129036142b0565b5b6020026020010151612d84565b60405160200161292292919061580c565b60405160208183030381529060405291506129c5565b8261295c88838151811061294f5761294e6142b0565b5b6020026020010151612d84565b60405160200161296d929190615892565b6040516020818303038152906040529250816129a2878381518110612995576129946142b0565b5b6020026020010151612d84565b6040516020016129b3929190615892565b60405160208183030381529060405291505b80806129d09061430e565b915050612896565b50600760009054906101000a900473ffffffffffffffffffffffffffffffffffffffff1673ffffffffffffffffffffffffffffffffffffffff1663ba3d69d7600860009054906101000a900473ffffffffffffffffffffffffffffffffffffffff168a8686868a604051602001612a529493929190615964565b6040516020818303038152906040526040518463ffffffff1660e01b8152600401612a7f93929190614f79565b600060405180830381600087803b158015612a9957600080fd5b505af1158015612aad573d6000803e3d6000fd5b505050505050505b505050505050565b612adc8473ffffffffffffffffffffffffffffffffffffffff166132c0565b15612c8c578373ffffffffffffffffffffffffffffffffffffffff1663bc197c8187878686866040518663ffffffff1660e01b8152600401612b229594939291906159c3565b6020604051808303816000875af1925050508015612b5e57506040513d601f19601f82011682018060405250810190612b5b9190615a40565b60015b612c0357612b6a615a7a565b806308c379a003612bc65750612b7e615a9c565b80612b895750612bc8565b806040517f08c379a0000000000000000000000000000000000000000000000000000000008152600401612bbd91906137a9565b60405180910390fd5b505b6040517f08c379a0000000000000000000000000000000000000000000000000000000008152600401612bfa90615b9e565b60405180910390fd5b63bc197c8160e01b7bffffffffffffffffffffffffffffffffffffffffffffffffffffffff1916817bffffffffffffffffffffffffffffffffffffffffffffffffffffffff191614612c8a576040517f08c379a0000000000000000000000000000000000000000000000000000000008152600401612c8190615c30565b60405180910390fd5b505b505050505050565b612c9c610982565b612cdb576040517f08c379a0000000000000000000000000000000000000000000000000000000008152600401612cd290615c9c565b60405180910390fd5b565b60606000600167ffffffffffffffff811115612cfc57612cfb6137fd565b5b604051908082528060200260200182016040528015612d2a5781602001602082028036833780820191505090505b5090508281600081518110612d4257612d416142b0565b5b60200260200101818152505080915050919050565b6060612d7d8273ffffffffffffffffffffffffffffffffffffffff16601460ff166132e3565b9050919050565b606060008203612dcb576040518060400160405280600481526020017f30783030000000000000000000000000000000000000000000000000000000008152509050612e04565b600082905060005b60008214612df5578080612de69061430e565b915050600882901c9150612dd3565b612dff84826132e3565b925050505b919050565b612e288473ffffffffffffffffffffffffffffffffffffffff166132c0565b15612fd8578373ffffffffffffffffffffffffffffffffffffffff1663f23a6e6187878686866040518663ffffffff1660e01b8152600401612e6e959493929190615cbc565b6020604051808303816000875af1925050508015612eaa57506040513d601f19601f82011682018060405250810190612ea79190615a40565b60015b612f4f57612eb6615a7a565b806308c379a003612f125750612eca615a9c565b80612ed55750612f14565b806040517f08c379a0000000000000000000000000000000000000000000000000000000008152600401612f0991906137a9565b60405180910390fd5b505b6040517f08c379a0000000000000000000000000000000000000000000000000000000008152600401612f4690615b9e565b60405180910390fd5b63f23a6e6160e01b7bffffffffffffffffffffffffffffffffffffffffffffffffffffffff1916817bffffffffffffffffffffffffffffffffffffffffffffffffffffffff191614612fd6576040517f08c379a0000000000000000000000000000000000000000000000000000000008152600401612fcd90615c30565b60405180910390fd5b505b505050505050565b600073ffffffffffffffffffffffffffffffffffffffff168273ffffffffffffffffffffffffffffffffffffffff1614806130695750600073ffffffffffffffffffffffffffffffffffffffff16600660009054906101000a900473ffffffffffffffffffffffffffffffffffffffff1673ffffffffffffffffffffffffffffffffffffffff16145b8061310f57506000600660009054906101000a900473ffffffffffffffffffffffffffffffffffffffff1673ffffffffffffffffffffffffffffffffffffffff166370a08231846040518263ffffffff1660e01b81526004016130cc9190613e34565b602060405180830381865afa1580156130e9573d6000803e3d6000fd5b505050506040513d601f19601f8201168201806040525081019061310d9190615d2b565b115b61314e576040517f08c379a000000000000000000000000000000000000000000000000000000000815260040161314590615da4565b60405180910390fd5b600073ffffffffffffffffffffffffffffffffffffffff168173ffffffffffffffffffffffffffffffffffffffff1614806131d75750600073ffffffffffffffffffffffffffffffffffffffff16600660009054906101000a900473ffffffffffffffffffffffffffffffffffffffff1673ffffffffffffffffffffffffffffffffffffffff16145b8061327d57506000600660009054906101000a900473ffffffffffffffffffffffffffffffffffffffff1673ffffffffffffffffffffffffffffffffffffffff166370a08231836040518263ffffffff1660e01b815260040161323a9190613e34565b602060405180830381865afa158015613257573d6000803e3d6000fd5b505050506040513d601f19601f8201168201806040525081019061327b9190615d2b565b115b6132bc576040517f08c379a00000000000000000000000000000000000000000000000000000000081526004016132b390615e10565b60405180910390fd5b5050565b6000808273ffffffffffffffffffffffffffffffffffffffff163b119050919050565b6060600060028360026132f69190615e30565b6133009190614899565b67ffffffffffffffff811115613319576133186137fd565b5b6040519080825280601f01601f19166020018201604052801561334b5781602001600182028036833780820191505090505b5090507f300000000000000000000000000000000000000000000000000000000000000081600081518110613383576133826142b0565b5b60200101907effffffffffffffffffffffffffffffffffffffffffffffffffffffffffffff1916908160001a9053507f7800000000000000000000000000000000000000000000000000000000000000816001815181106133e7576133e66142b0565b5b60200101907effffffffffffffffffffffffffffffffffffffffffffffffffffffffffffff1916908160001a905350600060018460026134279190615e30565b6134319190614899565b90505b60018111156134d1577f3031323334353637383961626364656600000000000000000000000000000000600f861660108110613473576134726142b0565b5b1a60f81b82828151811061348a576134896142b0565b5b60200101907effffffffffffffffffffffffffffffffffffffffffffffffffffffffffffff1916908160001a905350600485901c9450806134ca90615e72565b9050613434565b5060008414613515576040517f08c379a000000000000000000000000000000000000000000000000000000000815260040161350c90615ee7565b60405180910390fd5b8091505092915050565b6000604051905090565b600080fd5b600080fd5b600073ffffffffffffffffffffffffffffffffffffffff82169050919050565b600061355e82613533565b9050919050565b61356e81613553565b811461357957600080fd5b50565b60008135905061358b81613565565b92915050565b6000819050919050565b6135a481613591565b81146135af57600080fd5b50565b6000813590506135c18161359b565b92915050565b600080604083850312156135de576135dd613529565b5b60006135ec8582860161357c565b92505060206135fd858286016135b2565b9150509250929050565b61361081613591565b82525050565b600060208201905061362b6000830184613607565b92915050565b60007fffffffff0000000000000000000000000000000000000000000000000000000082169050919050565b61366681613631565b811461367157600080fd5b50565b6000813590506136838161365d565b92915050565b60006020828403121561369f5761369e613529565b5b60006136ad84828501613674565b91505092915050565b60008115159050919050565b6136cb816136b6565b82525050565b60006020820190506136e660008301846136c2565b92915050565b60006020828403121561370257613701613529565b5b6000613710848285016135b2565b91505092915050565b600081519050919050565b600082825260208201905092915050565b60005b83811015613753578082015181840152602081019050613738565b60008484015250505050565b6000601f19601f8301169050919050565b600061377b82613719565b6137858185613724565b9350613795818560208601613735565b61379e8161375f565b840191505092915050565b600060208201905081810360008301526137c38184613770565b905092915050565b6000602082840312156137e1576137e0613529565b5b60006137ef8482850161357c565b91505092915050565b600080fd5b7f4e487b7100000000000000000000000000000000000000000000000000000000600052604160045260246000fd5b6138358261375f565b810181811067ffffffffffffffff82111715613854576138536137fd565b5b80604052505050565b600061386761351f565b9050613873828261382c565b919050565b600067ffffffffffffffff821115613893576138926137fd565b5b602082029050602081019050919050565b600080fd5b60006138bc6138b784613878565b61385d565b905080838252602082019050602084028301858111156138df576138de6138a4565b5b835b8181101561390857806138f488826135b2565b8452602084019350506020810190506138e1565b5050509392505050565b600082601f830112613927576139266137f8565b5b81356139378482602086016138a9565b91505092915050565b600080fd5b600067ffffffffffffffff8211156139605761395f6137fd565b5b6139698261375f565b9050602081019050919050565b82818337600083830152505050565b600061399861399384613945565b61385d565b9050828152602081018484840111156139b4576139b3613940565b5b6139bf848285613976565b509392505050565b600082601f8301126139dc576139db6137f8565b5b81356139ec848260208601613985565b91505092915050565b600080600080600060a08688031215613a1157613a10613529565b5b6000613a1f8882890161357c565b9550506020613a308882890161357c565b945050604086013567ffffffffffffffff811115613a5157613a5061352e565b5b613a5d88828901613912565b935050606086013567ffffffffffffffff811115613a7e57613a7d61352e565b5b613a8a88828901613912565b925050608086013567ffffffffffffffff811115613aab57613aaa61352e565b5b613ab7888289016139c7565b9150509295509295909350565b60008060408385031215613adb57613ada613529565b5b6000613ae98582860161357c565b9250506020613afa8582860161357c565b9150509250929050565b600067ffffffffffffffff821115613b1f57613b1e6137fd565b5b602082029050602081019050919050565b6000613b43613b3e84613b04565b61385d565b90508083825260208201905060208402830185811115613b6657613b656138a4565b5b835b81811015613b8f5780613b7b888261357c565b845260208401935050602081019050613b68565b5050509392505050565b600082601f830112613bae57613bad6137f8565b5b8135613bbe848260208601613b30565b91505092915050565b60008060408385031215613bde57613bdd613529565b5b600083013567ffffffffffffffff811115613bfc57613bfb61352e565b5b613c0885828601613b99565b925050602083013567ffffffffffffffff811115613c2957613c2861352e565b5b613c3585828601613912565b9150509250929050565b600081519050919050565b600082825260208201905092915050565b6000819050602082019050919050565b613c7481613591565b82525050565b6000613c868383613c6b565b60208301905092915050565b6000602082019050919050565b6000613caa82613c3f565b613cb48185613c4a565b9350613cbf83613c5b565b8060005b83811015613cf0578151613cd78882613c7a565b9750613ce283613c92565b925050600181019050613cc3565b5085935050505092915050565b60006020820190508181036000830152613d178184613c9f565b905092915050565b60008060008060808587031215613d3957613d38613529565b5b6000613d478782880161357c565b9450506020613d588782880161357c565b9350506040613d69878288016135b2565b925050606085013567ffffffffffffffff811115613d8a57613d8961352e565b5b613d96878288016139c7565b91505092959194509250565b60008060008060808587031215613dbc57613dbb613529565b5b6000613dca8782880161357c565b9450506020613ddb878288016135b2565b9350506040613dec8782880161357c565b925050606085013567ffffffffffffffff811115613e0d57613e0c61352e565b5b613e19878288016139c7565b91505092959194509250565b613e2e81613553565b82525050565b6000602082019050613e496000830184613e25565b92915050565b600080600080600060a08688031215613e6b57613e6a613529565b5b6000613e798882890161357c565b9550506020613e8a8882890161357c565b9450506040613e9b8882890161357c565b9350506060613eac888289016135b2565b925050608086013567ffffffffffffffff811115613ecd57613ecc61352e565b5b613ed9888289016139c7565b9150509295509295909350565b613eef816136b6565b8114613efa57600080fd5b50565b600081359050613f0c81613ee6565b92915050565b60008060408385031215613f2957613f28613529565b5b6000613f378582860161357c565b9250506020613f4885828601613efd565b9150509250929050565b600080600080600060a08688031215613f6e57613f6d613529565b5b6000613f7c8882890161357c565b9550506020613f8d888289016135b2565b9450506040613f9e8882890161357c565b9350506060613faf8882890161357c565b925050608086013567ffffffffffffffff811115613fd057613fcf61352e565b5b613fdc888289016139c7565b9150509295509295909350565b6000819050919050565b600061400e61400961400484613533565b613fe9565b613533565b9050919050565b600061402082613ff3565b9050919050565b600061403282614015565b9050919050565b61404281614027565b82525050565b600060208201905061405d6000830184614039565b92915050565b600080600080600060a0868803121561407f5761407e613529565b5b600061408d8882890161357c565b955050602061409e8882890161357c565b94505060406140af888289016135b2565b93505060606140c0888289016135b2565b925050608086013567ffffffffffffffff8111156140e1576140e061352e565b5b6140ed888289016139c7565b9150509295509295909350565b7f455243313135353a2061646472657373207a65726f206973206e6f742061207660008201527f616c6964206f776e657200000000000000000000000000000000000000000000602082015250565b6000614156602a83613724565b9150614161826140fa565b604082019050919050565b6000602082019050818103600083015261418581614149565b9050919050565b7f455243313135353a2063616c6c6572206973206e6f7420746f6b656e206f776e60008201527f6572206e6f7220617070726f7665640000000000000000000000000000000000602082015250565b60006141e8602f83613724565b91506141f38261418c565b604082019050919050565b60006020820190508181036000830152614217816141db565b9050919050565b7f455243313135353a206163636f756e747320616e6420696473206c656e67746860008201527f206d69736d617463680000000000000000000000000000000000000000000000602082015250565b600061427a602983613724565b91506142858261421e565b604082019050919050565b600060208201905081810360008301526142a98161426d565b9050919050565b7f4e487b7100000000000000000000000000000000000000000000000000000000600052603260045260246000fd5b7f4e487b7100000000000000000000000000000000000000000000000000000000600052601160045260246000fd5b600061431982613591565b91507fffffffffffffffffffffffffffffffffffffffffffffffffffffffffffffffff820361434b5761434a6142df565b5b600182019050919050565b600060408201905061436b6000830185613e25565b6143786020830184613607565b9392505050565b60008151905061438e81613ee6565b92915050565b6000602082840312156143aa576143a9613529565b5b60006143b88482850161437f565b91505092915050565b7f63616e2774207472616e73666572000000000000000000000000000000000000600082015250565b60006143f7600e83613724565b9150614402826143c1565b602082019050919050565b60006020820190508181036000830152614426816143ea565b9050919050565b60006060820190506144426000830186613e25565b61444f6020830185613e25565b61445c6040830184613607565b949350505050565b60008160601b9050919050565b600061447c82614464565b9050919050565b600061448e82614471565b9050919050565b6144a66144a182613553565b614483565b82525050565b6000819050919050565b6144c76144c282613591565b6144ac565b82525050565b60006144d98285614495565b6014820191506144e982846144b6565b6020820191508190509392505050565b7f4f776e61626c653a206e6577206f776e657220697320746865207a65726f206160008201527f6464726573730000000000000000000000000000000000000000000000000000602082015250565b6000614555602683613724565b9150614560826144f9565b604082019050919050565b6000602082019050818103600083015261458481614548565b9050919050565b7f4e487b7100000000000000000000000000000000000000000000000000000000600052602260045260246000fd5b600060028204905060018216806145d257607f821691505b6020821081036145e5576145e461458b565b5b50919050565b600081905092915050565b60008190508160005260206000209050919050565b60008154614618816145ba565b61462281866145eb565b9450600182166000811461463d576001811461465257614685565b60ff1983168652811515820286019350614685565b61465b856145f6565b60005b8381101561467d5781548189015260018201915060208101905061465e565b838801955050505b50505092915050565b600061469982613719565b6146a381856145eb565b93506146b3818560208601613735565b80840191505092915050565b60006146cb828561460b565b91506146d7828461468e565b91508190509392505050565b7f455243313135353a2069647320616e6420616d6f756e7473206c656e6774682060008201527f6d69736d61746368000000000000000000000000000000000000000000000000602082015250565b600061473f602883613724565b915061474a826146e3565b604082019050919050565b6000602082019050818103600083015261476e81614732565b9050919050565b7f455243313135353a207472616e7366657220746f20746865207a65726f20616460008201527f6472657373000000000000000000000000000000000000000000000000000000602082015250565b60006147d1602583613724565b91506147dc82614775565b604082019050919050565b60006020820190508181036000830152614800816147c4565b9050919050565b7f455243313135353a20696e73756666696369656e742062616c616e636520666f60008201527f72207472616e7366657200000000000000000000000000000000000000000000602082015250565b6000614863602a83613724565b915061486e82614807565b604082019050919050565b6000602082019050818103600083015261489281614856565b9050919050565b60006148a482613591565b91506148af83613591565b92508282019050808211156148c7576148c66142df565b5b92915050565b600060408201905081810360008301526148e78185613c9f565b905081810360208301526148fb8184613c9f565b90509392505050565b7f4f776e61626c653a2063616c6c6572206973206e6f7420746865206f776e6572600082015250565b600061493a602083613724565b915061494582614904565b602082019050919050565b600060208201905081810360008301526149698161492d565b9050919050565b7f5061757361626c653a2070617573656400000000000000000000000000000000600082015250565b60006149a6601083613724565b91506149b182614970565b602082019050919050565b600060208201905081810360008301526149d581614999565b9050919050565b7f455243313135353a206275726e2066726f6d20746865207a65726f206164647260008201527f6573730000000000000000000000000000000000000000000000000000000000602082015250565b6000614a38602383613724565b9150614a43826149dc565b604082019050919050565b60006020820190508181036000830152614a6781614a2b565b9050919050565b7f455243313135353a206275726e20616d6f756e7420657863656564732062616c60008201527f616e636500000000000000000000000000000000000000000000000000000000602082015250565b6000614aca602483613724565b9150614ad582614a6e565b604082019050919050565b60006020820190508181036000830152614af981614abd565b9050919050565b6000604082019050614b156000830185613607565b614b226020830184613607565b9392505050565b600081519050919050565b600082825260208201905092915050565b6000614b5082614b29565b614b5a8185614b34565b9350614b6a818560208601613735565b614b738161375f565b840191505092915050565b600060c082019050614b936000830189613e25565b614ba06020830188613607565b614bad6040830187613e25565b614bba6060830186613e25565b614bc76080830185613607565b81810360a0830152614bd98184614b45565b9050979650505050505050565b7f302b332b455243323020546f6b656e2052656c65617365642b00000000000000600082015250565b6000614c1c6019836145eb565b9150614c2782614be6565b601982019050919050565b7f7b22746f6b656e223a2200000000000000000000000000000000000000000000600082015250565b6000614c68600a836145eb565b9150614c7382614c32565b600a82019050919050565b7f222c000000000000000000000000000000000000000000000000000000000000600082015250565b6000614cb46002836145eb565b9150614cbf82614c7e565b600282019050919050565b7f22777261707065645f746f6b656e5f6964223a22000000000000000000000000600082015250565b6000614d006014836145eb565b9150614d0b82614cca565b601482019050919050565b7f2266726f6d223a22000000000000000000000000000000000000000000000000600082015250565b6000614d4c6008836145eb565b9150614d5782614d16565b600882019050919050565b7f22746f223a220000000000000000000000000000000000000000000000000000600082015250565b6000614d986006836145eb565b9150614da382614d62565b600682019050919050565b7f22616d6f756e74223a2200000000000000000000000000000000000000000000600082015250565b6000614de4600a836145eb565b9150614def82614dae565b600a82019050919050565b7f2264617461223a22000000000000000000000000000000000000000000000000600082015250565b6000614e306008836145eb565b9150614e3b82614dfa565b600882019050919050565b7f227d000000000000000000000000000000000000000000000000000000000000600082015250565b6000614e7c6002836145eb565b9150614e8782614e46565b600282019050919050565b6000614e9d82614c0f565b9150614ea882614c5b565b9150614eb4828961468e565b9150614ebf82614ca7565b9150614eca82614cf3565b9150614ed6828861468e565b9150614ee182614ca7565b9150614eec82614d3f565b9150614ef8828761468e565b9150614f0382614ca7565b9150614f0e82614d8b565b9150614f1a828661468e565b9150614f2582614ca7565b9150614f3082614dd7565b9150614f3c828561468e565b9150614f4782614ca7565b9150614f5282614e23565b9150614f5e828461468e565b9150614f6982614e6f565b9150819050979650505050505050565b6000606082019050614f8e6000830186613e25565b614f9b6020830185613e25565b8181036040830152614fad8184614b45565b9050949350505050565b600060c082019050614fcc6000830189613e25565b614fd96020830188613607565b614fe66040830187613607565b614ff36060830186613e25565b6150006080830185613e25565b81810360a08301526150128184614b45565b9050979650505050505050565b7f302b332b455243373231204e46542052656c65617365642b0000000000000000600082015250565b60006150556018836145eb565b91506150608261501f565b601882019050919050565b7f226964223a220000000000000000000000000000000000000000000000000000600082015250565b60006150a16006836145eb565b91506150ac8261506b565b600682019050919050565b60006150c282615048565b91506150cd82614c5b565b91506150d9828961468e565b91506150e482614ca7565b91506150ef82615094565b91506150fb828861468e565b915061510682614ca7565b915061511182614cf3565b915061511d828761468e565b915061512882614ca7565b915061513382614d3f565b915061513f828661468e565b915061514a82614ca7565b915061515582614d8b565b9150615161828561468e565b915061516c82614ca7565b915061517782614e23565b9150615183828461468e565b915061518e82614e6f565b9150819050979650505050505050565b7f455243313135353a206d696e7420746f20746865207a65726f2061646472657360008201527f7300000000000000000000000000000000000000000000000000000000000000602082015250565b60006151fa602183613724565b91506152058261519e565b604082019050919050565b60006020820190508181036000830152615229816151ed565b9050919050565b7f302b332b455243323020546f6b656e204c6f636b65642b000000000000000000600082015250565b60006152666017836145eb565b915061527182615230565b601782019050919050565b600061528782615259565b915061529282614c5b565b915061529e828961468e565b91506152a982614ca7565b91506152b482614cf3565b91506152c0828861468e565b91506152cb82614ca7565b91506152d682614d3f565b91506152e2828761468e565b91506152ed82614ca7565b91506152f882614d8b565b9150615304828661468e565b915061530f82614ca7565b915061531a82614dd7565b9150615326828561468e565b915061533182614ca7565b915061533c82614e23565b9150615348828461468e565b915061535382614e6f565b9150819050979650505050505050565b7f455243313135353a2073657474696e6720617070726f76616c2073746174757360008201527f20666f722073656c660000000000000000000000000000000000000000000000602082015250565b60006153bf602983613724565b91506153ca82615363565b604082019050919050565b600060208201905081810360008301526153ee816153b2565b9050919050565b7f302b332b455243373231204e4654204c6f636b65642b00000000000000000000600082015250565b600061542b6016836145eb565b9150615436826153f5565b601682019050919050565b600061544c8261541e565b915061545782614c5b565b9150615463828961468e565b915061546e82614ca7565b915061547982615094565b9150615485828861468e565b915061549082614ca7565b915061549b82614cf3565b91506154a7828761468e565b91506154b282614ca7565b91506154bd82614d3f565b91506154c9828661468e565b91506154d482614ca7565b91506154df82614d8b565b91506154eb828561468e565b91506154f682614ca7565b915061550182614e23565b915061550d828461468e565b915061551882614e6f565b9150819050979650505050505050565b7f302b332b546f6b656e205472616e7366657265642b0000000000000000000000600082015250565b600061555e6015836145eb565b915061556982615528565b601582019050919050565b600061557f82615551565b9150819050919050565b600081905092915050565b600061559f82614b29565b6155a98185615589565b93506155b9818560208601613735565b80840191505092915050565b7f7b226f70657261746f72223a2200000000000000000000000000000000000000600082015250565b60006155fb600d836145eb565b9150615606826155c5565b600d82019050919050565b7f222c2266726f6d223a2200000000000000000000000000000000000000000000600082015250565b6000615647600a836145eb565b915061565282615611565b600a82019050919050565b7f222c22746f223a22000000000000000000000000000000000000000000000000600082015250565b60006156936008836145eb565b915061569e8261565d565b600882019050919050565b7f222c22696473223a000000000000000000000000000000000000000000000000600082015250565b60006156df6008836145eb565b91506156ea826156a9565b600882019050919050565b60006157018287615594565b915061570c826155ee565b9150615718828661468e565b91506157238261563a565b915061572f828561468e565b915061573a82615686565b9150615746828461468e565b9150615751826156d2565b915081905095945050505050565b7f5b00000000000000000000000000000000000000000000000000000000000000600082015250565b60006157956001836145eb565b91506157a08261575f565b600182019050919050565b60006157b682615788565b9150819050919050565b7f2200000000000000000000000000000000000000000000000000000000000000600082015250565b60006157f66001836145eb565b9150615801826157c0565b600182019050919050565b60006158188285615594565b9150615823826157e9565b915061582f828461468e565b915061583a826157e9565b91508190509392505050565b7f2c22000000000000000000000000000000000000000000000000000000000000600082015250565b600061587c6002836145eb565b915061588782615846565b600282019050919050565b600061589e8285615594565b91506158a98261586f565b91506158b5828461468e565b91506158c0826157e9565b91508190509392505050565b7f5d2c22616d6f756e7473223a0000000000000000000000000000000000000000600082015250565b6000615902600c836145eb565b915061590d826158cc565b600c82019050919050565b7f5d2c2264617461223a2200000000000000000000000000000000000000000000600082015250565b600061594e600a836145eb565b915061595982615918565b600a82019050919050565b60006159708287615594565b915061597c8286615594565b9150615987826158f5565b91506159938285615594565b915061599e82615941565b91506159aa828461468e565b91506159b582614e6f565b915081905095945050505050565b600060a0820190506159d86000830188613e25565b6159e56020830187613e25565b81810360408301526159f78186613c9f565b90508181036060830152615a0b8185613c9f565b90508181036080830152615a1f8184614b45565b90509695505050505050565b600081519050615a3a8161365d565b92915050565b600060208284031215615a5657615a55613529565b5b6000615a6484828501615a2b565b91505092915050565b60008160e01c9050919050565b600060033d1115615a995760046000803e615a96600051615a6d565b90505b90565b600060443d10615b2957615aae61351f565b60043d036004823e80513d602482011167ffffffffffffffff82111715615ad6575050615b29565b808201805167ffffffffffffffff811115615af45750505050615b29565b80602083010160043d038501811115615b11575050505050615b29565b615b208260200185018661382c565b82955050505050505b90565b7f455243313135353a207472616e7366657220746f206e6f6e204552433131353560008201527f526563656976657220696d706c656d656e746572000000000000000000000000602082015250565b6000615b88603483613724565b9150615b9382615b2c565b604082019050919050565b60006020820190508181036000830152615bb781615b7b565b9050919050565b7f455243313135353a204552433131353552656365697665722072656a6563746560008201527f6420746f6b656e73000000000000000000000000000000000000000000000000602082015250565b6000615c1a602883613724565b9150615c2582615bbe565b604082019050919050565b60006020820190508181036000830152615c4981615c0d565b9050919050565b7f5061757361626c653a206e6f7420706175736564000000000000000000000000600082015250565b6000615c86601483613724565b9150615c9182615c50565b602082019050919050565b60006020820190508181036000830152615cb581615c79565b9050919050565b600060a082019050615cd16000830188613e25565b615cde6020830187613e25565b615ceb6040830186613607565b615cf86060830185613607565b8181036080830152615d0a8184614b45565b90509695505050505050565b600081519050615d258161359b565b92915050565b600060208284031215615d4157615d40613529565b5b6000615d4f84828501615d16565b91505092915050565b7f73656e64657220646f65736e27742068617665204b594320746f6b656e000000600082015250565b6000615d8e601d83613724565b9150615d9982615d58565b602082019050919050565b60006020820190508181036000830152615dbd81615d81565b9050919050565b7f726563697069656e7420646f65736e27742068617665204b594320746f6b656e600082015250565b6000615dfa602083613724565b9150615e0582615dc4565b602082019050919050565b60006020820190508181036000830152615e2981615ded565b9050919050565b6000615e3b82613591565b9150615e4683613591565b9250828202615e5481613591565b91508282048414831517615e6b57615e6a6142df565b5b5092915050565b6000615e7d82613591565b915060008203615e9057615e8f6142df565b5b600182039050919050565b7f537472696e67733a20686578206c656e67746820696e73756666696369656e74600082015250565b6000615ed1602083613724565b9150615edc82615e9b565b602082019050919050565b60006020820190508181036000830152615f0081615ec4565b905091905056fea264697066735822122050208ca7e9b6e3eb21c935f7c6cac909752b7348e1af8cb666b8ead546ffaee864736f6c63430008110033",
  "linkReferences": {},
  "deployedLinkReferences": {}
}