{
  "_format": "hh-sol-artifact-1",
  "contractName": "WrappedToken",
  "sourceName": "contracts/WrappedToken.sol",
  "abi": [
    {
      "inputs": [
        {
          "internalType": "address",
          "name": "kycToken",
          "type": "address"
        }
      ],
      "stateMutability": "nonpayable",
      "type": "constructor"
    },
    {
      "anonymous": false,
      "inputs": [
        {
          "indexed": true,
          "internalType": "address",
          "name": "account",
          "type": "address"
        },
        {
          "indexed": true,
          "internalType": "address",
          "name": "operator",
          "type": "address"
        },
        {
          "indexed": false,
          "internalType": "bool",
          "name": "approved",
          "type": "bool"
        }
      ],
      "name": "ApprovalForAll",
      "type": "event"
    },
    {
      "anonymous": false,
      "inputs": [
        {
          "indexed": false,
          "internalType": "address",
          "name": "tokenAddress",
          "type": "address"
        },
        {
          "indexed": false,
          "internalType": "uint256",
          "name": "erc1155TokenID",
          "type": "uint256"
        },
        {
          "indexed": false,
          "internalType": "address",
          "name": "operator",
          "type": "address"
        },
        {
          "indexed": false,
          "internalType": "address",
          "name": "from",
          "type": "address"
        },
        {
          "indexed": false,
          "internalType": "address",
          "name": "to",
          "type": "address"
        },
        {
          "indexed": false,
          "internalType": "uint256",
          "name": "amount",
          "type": "uint256"
        },
        {
          "indexed": false,
          "internalType": "bytes",
          "name": "data",
          "type": "bytes"
        }
      ],
      "name": "LockedERC20",
      "type": "event"
    },
    {
      "anonymous": false,
      "inputs": [
        {
          "indexed": false,
          "internalType": "address",
          "name": "tokenAddress",
          "type": "address"
        },
        {
          "indexed": false,
          "internalType": "uint256",
          "name": "tokenID",
          "type": "uint256"
        },
        {
          "indexed": false,
          "internalType": "uint256",
          "name": "erc1155TokenID",
          "type": "uint256"
        },
        {
          "indexed": false,
          "internalType": "address",
          "name": "operator",
          "type": "address"
        },
        {
          "indexed": false,
          "internalType": "address",
          "name": "from",
          "type": "address"
        },
        {
          "indexed": false,
          "internalType": "address",
          "name": "to",
          "type": "address"
        },
        {
          "indexed": false,
          "internalType": "bytes",
          "name": "data",
          "type": "bytes"
        }
      ],
      "name": "LockedERC721",
      "type": "event"
    },
    {
      "anonymous": false,
      "inputs": [
        {
          "indexed": true,
          "internalType": "address",
          "name": "previousOwner",
          "type": "address"
        },
        {
          "indexed": true,
          "internalType": "address",
          "name": "newOwner",
          "type": "address"
        }
      ],
      "name": "OwnershipTransferred",
      "type": "event"
    },
    {
      "anonymous": false,
      "inputs": [
        {
          "indexed": false,
          "internalType": "address",
          "name": "account",
          "type": "address"
        }
      ],
      "name": "Paused",
      "type": "event"
    },
    {
      "anonymous": false,
      "inputs": [
        {
          "indexed": false,
          "internalType": "address",
          "name": "tokenAddress",
          "type": "address"
        },
        {
          "indexed": false,
          "internalType": "uint256",
          "name": "erc1155TokenID",
          "type": "uint256"
        },
        {
          "indexed": false,
          "internalType": "address",
          "name": "operator",
          "type": "address"
        },
        {
          "indexed": false,
          "internalType": "address",
          "name": "to",
          "type": "address"
        },
        {
          "indexed": false,
          "internalType": "uint256",
          "name": "amount",
          "type": "uint256"
        },
        {
          "indexed": false,
          "internalType": "bytes",
          "name": "data",
          "type": "bytes"
        }
      ],
      "name": "ReleasedERC20",
      "type": "event"
    },
    {
      "anonymous": false,
      "inputs": [
        {
          "indexed": false,
          "internalType": "address",
          "name": "tokenAddress",
          "type": "address"
        },
        {
          "indexed": false,
          "internalType": "uint256",
          "name": "tokenID",
          "type": "uint256"
        },
        {
          "indexed": false,
          "internalType": "uint256",
          "name": "erc1155TokenId",
          "type": "uint256"
        },
        {
          "indexed": false,
          "internalType": "address",
          "name": "from",
          "type": "address"
        },
        {
          "indexed": false,
          "internalType": "address",
          "name": "to",
          "type": "address"
        },
        {
          "indexed": false,
          "internalType": "bytes",
          "name": "data",
          "type": "bytes"
        }
      ],
      "name": "ReleasedERC721",
      "type": "event"
    },
    {
      "anonymous": false,
      "inputs": [
        {
          "indexed": true,
          "internalType": "address",
          "name": "operator",
          "type": "address"
        },
        {
          "indexed": true,
          "internalType": "address",
          "name": "from",
          "type": "address"
        },
        {
          "indexed": true,
          "internalType": "address",
          "name": "to",
          "type": "address"
        },
        {
          "indexed": false,
          "internalType": "uint256[]",
          "name": "ids",
          "type": "uint256[]"
        },
        {
          "indexed": false,
          "internalType": "uint256[]",
          "name": "values",
          "type": "uint256[]"
        }
      ],
      "name": "TransferBatch",
      "type": "event"
    },
    {
      "anonymous": false,
      "inputs": [
        {
          "indexed": true,
          "internalType": "address",
          "name": "operator",
          "type": "address"
        },
        {
          "indexed": true,
          "internalType": "address",
          "name": "from",
          "type": "address"
        },
        {
          "indexed": true,
          "internalType": "address",
          "name": "to",
          "type": "address"
        },
        {
          "indexed": false,
          "internalType": "uint256",
          "name": "id",
          "type": "uint256"
        },
        {
          "indexed": false,
          "internalType": "uint256",
          "name": "value",
          "type": "uint256"
        }
      ],
      "name": "TransferSingle",
      "type": "event"
    },
    {
      "anonymous": false,
      "inputs": [
        {
          "indexed": false,
          "internalType": "string",
          "name": "value",
          "type": "string"
        },
        {
          "indexed": true,
          "internalType": "uint256",
          "name": "id",
          "type": "uint256"
        }
      ],
      "name": "URI",
      "type": "event"
    },
    {
      "anonymous": false,
      "inputs": [
        {
          "indexed": false,
          "internalType": "address",
          "name": "account",
          "type": "address"
        }
      ],
      "name": "Unpaused",
      "type": "event"
    },
    {
      "inputs": [
        {
          "internalType": "address",
          "name": "account",
          "type": "address"
        },
        {
          "internalType": "uint256",
          "name": "id",
          "type": "uint256"
        }
      ],
      "name": "balanceOf",
      "outputs": [
        {
          "internalType": "uint256",
          "name": "",
          "type": "uint256"
        }
      ],
      "stateMutability": "view",
      "type": "function"
    },
    {
      "inputs": [
        {
          "internalType": "address[]",
          "name": "accounts",
          "type": "address[]"
        },
        {
          "internalType": "uint256[]",
          "name": "ids",
          "type": "uint256[]"
        }
      ],
      "name": "balanceOfBatch",
      "outputs": [
        {
          "internalType": "uint256[]",
          "name": "",
          "type": "uint256[]"
        }
      ],
      "stateMutability": "view",
      "type": "function"
    },
    {
      "inputs": [
        {
          "internalType": "address",
          "name": "tokenAddress",
          "type": "address"
        }
      ],
      "name": "erc20TokenID",
      "outputs": [
        {
          "internalType": "uint256",
          "name": "",
          "type": "uint256"
        }
      ],
      "stateMutability": "view",
      "type": "function"
    },
    {
      "inputs": [
        {
          "internalType": "address",
          "name": "tokenAddress",
          "type": "address"
        },
        {
          "internalType": "uint256",
          "name": "tokenID",
          "type": "uint256"
        }
      ],
      "name": "erc721TokenID",
      "outputs": [
        {
          "internalType": "uint256",
          "name": "",
          "type": "uint256"
        }
      ],
      "stateMutability": "view",
      "type": "function"
    },
    {
      "inputs": [
        {
          "internalType": "address",
          "name": "account",
          "type": "address"
        },
        {
          "internalType": "address",
          "name": "operator",
          "type": "address"
        }
      ],
      "name": "isApprovedForAll",
      "outputs": [
        {
          "internalType": "bool",
          "name": "",
          "type": "bool"
        }
      ],
      "stateMutability": "view",
      "type": "function"
    },
    {
      "inputs": [
        {
          "internalType": "address",
          "name": "tokenAddress",
          "type": "address"
        },
        {
          "internalType": "address",
          "name": "from",
          "type": "address"
        },
        {
          "internalType": "address",
          "name": "to",
          "type": "address"
        },
        {
          "internalType": "uint256",
          "name": "amount",
          "type": "uint256"
        },
        {
          "internalType": "bytes",
          "name": "data",
          "type": "bytes"
        }
      ],
      "name": "lockERC20",
      "outputs": [],
      "stateMutability": "nonpayable",
      "type": "function"
    },
    {
      "inputs": [
        {
          "internalType": "address",
          "name": "tokenAddress",
          "type": "address"
        },
        {
          "internalType": "uint256",
          "name": "tokenID",
          "type": "uint256"
        },
        {
          "internalType": "address",
          "name": "from",
          "type": "address"
        },
        {
          "internalType": "address",
          "name": "to",
          "type": "address"
        },
        {
          "internalType": "bytes",
          "name": "data",
          "type": "bytes"
        }
      ],
      "name": "lockERC721",
      "outputs": [],
      "stateMutability": "nonpayable",
      "type": "function"
    },
    {
      "inputs": [],
      "name": "owner",
      "outputs": [
        {
          "internalType": "address",
          "name": "",
          "type": "address"
        }
      ],
      "stateMutability": "view",
      "type": "function"
    },
    {
      "inputs": [],
      "name": "pause",
      "outputs": [],
      "stateMutability": "nonpayable",
      "type": "function"
    },
    {
      "inputs": [],
      "name": "paused",
      "outputs": [
        {
          "internalType": "bool",
          "name": "",
          "type": "bool"
        }
      ],
      "stateMutability": "view",
      "type": "function"
    },
    {
      "inputs": [
        {
          "internalType": "address",
          "name": "tokenAddress",
          "type": "address"
        },
        {
          "internalType": "address",
          "name": "to",
          "type": "address"
        },
        {
          "internalType": "uint256",
          "name": "amount",
          "type": "uint256"
        },
        {
          "internalType": "bytes",
          "name": "data",
          "type": "bytes"
        }
      ],
      "name": "releaseERC20",
      "outputs": [],
      "stateMutability": "nonpayable",
      "type": "function"
    },
    {
      "inputs": [
        {
          "internalType": "address",
          "name": "tokenAddress",
          "type": "address"
        },
        {
          "internalType": "uint256",
          "name": "tokenID",
          "type": "uint256"
        },
        {
          "internalType": "address",
          "name": "to",
          "type": "address"
        },
        {
          "internalType": "bytes",
          "name": "data",
          "type": "bytes"
        }
      ],
      "name": "releaseERC721",
      "outputs": [],
      "stateMutability": "nonpayable",
      "type": "function"
    },
    {
      "inputs": [],
      "name": "renounceOwnership",
      "outputs": [],
      "stateMutability": "nonpayable",
      "type": "function"
    },
    {
      "inputs": [
        {
          "internalType": "address",
          "name": "from",
          "type": "address"
        },
        {
          "internalType": "address",
          "name": "to",
          "type": "address"
        },
        {
          "internalType": "uint256[]",
          "name": "ids",
          "type": "uint256[]"
        },
        {
          "internalType": "uint256[]",
          "name": "amounts",
          "type": "uint256[]"
        },
        {
          "internalType": "bytes",
          "name": "data",
          "type": "bytes"
        }
      ],
      "name": "safeBatchTransferFrom",
      "outputs": [],
      "stateMutability": "nonpayable",
      "type": "function"
    },
    {
      "inputs": [
        {
          "internalType": "address",
          "name": "from",
          "type": "address"
        },
        {
          "internalType": "address",
          "name": "to",
          "type": "address"
        },
        {
          "internalType": "uint256",
          "name": "id",
          "type": "uint256"
        },
        {
          "internalType": "uint256",
          "name": "amount",
          "type": "uint256"
        },
        {
          "internalType": "bytes",
          "name": "data",
          "type": "bytes"
        }
      ],
      "name": "safeTransferFrom",
      "outputs": [],
      "stateMutability": "nonpayable",
      "type": "function"
    },
    {
      "inputs": [
        {
          "internalType": "address",
          "name": "operator",
          "type": "address"
        },
        {
          "internalType": "bool",
          "name": "approved",
          "type": "bool"
        }
      ],
      "name": "setApprovalForAll",
      "outputs": [],
      "stateMutability": "nonpayable",
      "type": "function"
    },
    {
      "inputs": [
        {
          "internalType": "address",
          "name": "kycToken",
          "type": "address"
        }
      ],
      "name": "setKYCToken",
      "outputs": [],
      "stateMutability": "nonpayable",
      "type": "function"
    },
    {
      "inputs": [
        {
          "internalType": "bytes4",
          "name": "interfaceId",
          "type": "bytes4"
        }
      ],
      "name": "supportsInterface",
      "outputs": [
        {
          "internalType": "bool",
          "name": "",
          "type": "bool"
        }
      ],
      "stateMutability": "view",
      "type": "function"
    },
    {
      "inputs": [
        {
          "internalType": "address",
          "name": "newOwner",
          "type": "address"
        }
      ],
      "name": "transferOwnership",
      "outputs": [],
      "stateMutability": "nonpayable",
      "type": "function"
    },
    {
      "inputs": [],
      "name": "unpause",
      "outputs": [],
      "stateMutability": "nonpayable",
      "type": "function"
    },
    {
      "inputs": [
        {
          "internalType": "uint256",
          "name": "tokenID",
          "type": "uint256"
        }
      ],
      "name": "uri",
      "outputs": [
        {
          "internalType": "string",
          "name": "",
          "type": "string"
        }
      ],
      "stateMutability": "view",
      "type": "function"
    }
  ],
  "bytecode": "0x608060405260405180602001604052806000815250600390816200002491906200045a565b503480156200003257600080fd5b5060405162004878380380620048788339818101604052810190620000589190620005ab565b604051806020016040528060008152506200007981620000fd60201b60201c565b506000600560006101000a81548160ff021916908315150217905550620000b5620000a96200011260201b60201c565b6200011a60201b60201c565b80600660006101000a81548173ffffffffffffffffffffffffffffffffffffffff021916908373ffffffffffffffffffffffffffffffffffffffff16021790555050620005dd565b80600290816200010e91906200045a565b5050565b600033905090565b6000600560019054906101000a900473ffffffffffffffffffffffffffffffffffffffff16905081600560016101000a81548173ffffffffffffffffffffffffffffffffffffffff021916908373ffffffffffffffffffffffffffffffffffffffff1602179055508173ffffffffffffffffffffffffffffffffffffffff168173ffffffffffffffffffffffffffffffffffffffff167f8be0079c531659141344cd1fd0a4f28419497f9722a3daafe3b4186f6b6457e060405160405180910390a35050565b600081519050919050565b7f4e487b7100000000000000000000000000000000000000000000000000000000600052604160045260246000fd5b7f4e487b7100000000000000000000000000000000000000000000000000000000600052602260045260246000fd5b600060028204905060018216806200026257607f821691505b6020821081036200027857620002776200021a565b5b50919050565b60008190508160005260206000209050919050565b60006020601f8301049050919050565b600082821b905092915050565b600060088302620002e27fffffffffffffffffffffffffffffffffffffffffffffffffffffffffffffffff82620002a3565b620002ee8683620002a3565b95508019841693508086168417925050509392505050565b6000819050919050565b6000819050919050565b60006200033b620003356200032f8462000306565b62000310565b62000306565b9050919050565b6000819050919050565b62000357836200031a565b6200036f620003668262000342565b848454620002b0565b825550505050565b600090565b6200038662000377565b620003938184846200034c565b505050565b5b81811015620003bb57620003af6000826200037c565b60018101905062000399565b5050565b601f8211156200040a57620003d4816200027e565b620003df8462000293565b81016020851015620003ef578190505b62000407620003fe8562000293565b83018262000398565b50505b505050565b600082821c905092915050565b60006200042f600019846008026200040f565b1980831691505092915050565b60006200044a83836200041c565b9150826002028217905092915050565b6200046582620001e0565b67ffffffffffffffff811115620004815762000480620001eb565b5b6200048d825462000249565b6200049a828285620003bf565b600060209050601f831160018114620004d25760008415620004bd578287015190505b620004c985826200043c565b86555062000539565b601f198416620004e2866200027e565b60005b828110156200050c57848901518255600182019150602085019450602081019050620004e5565b868310156200052c578489015162000528601f8916826200041c565b8355505b6001600288020188555050505b505050505050565b600080fd5b600073ffffffffffffffffffffffffffffffffffffffff82169050919050565b6000620005738262000546565b9050919050565b620005858162000566565b81146200059157600080fd5b50565b600081519050620005a5816200057a565b92915050565b600060208284031215620005c457620005c362000541565b5b6000620005d48482850162000594565b91505092915050565b61428b80620005ed6000396000f3fe608060405234801561001057600080fd5b50600436106101365760003560e01c8063715018a6116100b8578063a22cb4651161007c578063a22cb46514610325578063a3c1c4a914610341578063ad2edf901461035d578063e985e9c514610379578063f242432a146103a9578063f2fde38b146103c557610136565b8063715018a6146102a75780638456cb59146102b15780638da5cb5b146102bb578063903acbdb146102d957806398b6ca9b146102f557610136565b80633f4ba83a116100ff5780633f4ba83a146102175780634e1273f4146102215780635668c3f4146102515780635c975abb1461026d578063672bf7051461028b57610136565b8062fdd58e1461013b57806301ffc9a71461016b5780630e89341c1461019b57806329d06964146101cb5780632eb2c2d6146101fb575b600080fd5b610155600480360381019061015091906125cb565b6103e1565b604051610162919061261a565b60405180910390f35b6101856004803603810190610180919061268d565b6104a9565b60405161019291906126d5565b60405180910390f35b6101b560048036038101906101b091906126f0565b61058b565b6040516101c291906127ad565b60405180910390f35b6101e560048036038101906101e091906127cf565b61059d565b6040516101f2919061261a565b60405180910390f35b610215600480360381019061021091906129f9565b6105bd565b005b61021f61065e565b005b61023b60048036038101906102369190612b8b565b610670565b6040516102489190612cc1565b60405180910390f35b61026b60048036038101906102669190612ce3565b610789565b005b6102756108ae565b60405161028291906126d5565b60405180910390f35b6102a560048036038101906102a09190612d66565b6108c5565b005b6102af61099e565b005b6102b96109b2565b005b6102c36109c4565b6040516102d09190612df8565b60405180910390f35b6102f360048036038101906102ee9190612e13565b6109ee565b005b61030f600480360381019061030a91906125cb565b610b19565b60405161031c919061261a565b60405180910390f35b61033f600480360381019061033a9190612ed6565b610b4f565b005b61035b600480360381019061035691906127cf565b610b65565b005b61037760048036038101906103729190612f16565b610bb1565b005b610393600480360381019061038e9190612fad565b610c8e565b6040516103a091906126d5565b60405180910390f35b6103c360048036038101906103be9190612fed565b610d22565b005b6103df60048036038101906103da91906127cf565b610dc3565b005b60008073ffffffffffffffffffffffffffffffffffffffff168373ffffffffffffffffffffffffffffffffffffffff1603610451576040517f08c379a0000000000000000000000000000000000000000000000000000000008152600401610448906130f6565b60405180910390fd5b60008083815260200190815260200160002060008473ffffffffffffffffffffffffffffffffffffffff1673ffffffffffffffffffffffffffffffffffffffff16815260200190815260200160002054905092915050565b60007fd9b67a26000000000000000000000000000000000000000000000000000000007bffffffffffffffffffffffffffffffffffffffffffffffffffffffff1916827bffffffffffffffffffffffffffffffffffffffffffffffffffffffff1916148061057457507f0e89341c000000000000000000000000000000000000000000000000000000007bffffffffffffffffffffffffffffffffffffffffffffffffffffffff1916827bffffffffffffffffffffffffffffffffffffffffffffffffffffffff1916145b80610584575061058382610e46565b5b9050919050565b606061059682610eb0565b9050919050565b60008173ffffffffffffffffffffffffffffffffffffffff169050919050565b6105c5610f95565b73ffffffffffffffffffffffffffffffffffffffff168573ffffffffffffffffffffffffffffffffffffffff16148061060b575061060a85610605610f95565b610c8e565b5b61064a576040517f08c379a000000000000000000000000000000000000000000000000000000000815260040161064190613188565b60405180910390fd5b6106578585858585610f9d565b5050505050565b6106666112be565b61066e61133c565b565b606081518351146106b6576040517f08c379a00000000000000000000000000000000000000000000000000000000081526004016106ad9061321a565b60405180910390fd5b6000835167ffffffffffffffff8111156106d3576106d2612801565b5b6040519080825280602002602001820160405280156107015781602001602082028036833780820191505090505b50905060005b845181101561077e5761074e8582815181106107265761072561323a565b5b60200260200101518583815181106107415761074061323a565b5b60200260200101516103e1565b8282815181106107615761076061323a565b5b6020026020010181815250508061077790613298565b9050610707565b508091505092915050565b61079161139f565b600061079c8561059d565b90506107a93382856113e9565b8473ffffffffffffffffffffffffffffffffffffffff1663a9059cbb85856040518363ffffffff1660e01b81526004016107e49291906132e0565b6020604051808303816000875af1158015610803573d6000803e3d6000fd5b505050506040513d601f19601f82011682018060405250810190610827919061331e565b610866576040517f08c379a000000000000000000000000000000000000000000000000000000000815260040161085d90613397565b60405180910390fd5b7fb7271e758ff408b37ddd718b846580fe18138146a5efcd28d0d6a74979e2a1f285823387878760405161089f9695949392919061340c565b60405180910390a15050505050565b6000600560009054906101000a900460ff16905090565b6108cd61139f565b60006108d98585610b19565b90506108e7338260016113e9565b8473ffffffffffffffffffffffffffffffffffffffff166323b872dd3085876040518463ffffffff1660e01b815260040161092493929190613474565b600060405180830381600087803b15801561093e57600080fd5b505af1158015610952573d6000803e3d6000fd5b505050507ff6d170c2e977a15f6f88d5821ecf488aca751382e5add9230c224655a92cdeb585858333878760405161098f969594939291906134ab565b60405180910390a15050505050565b6109a66112be565b6109b0600061162f565b565b6109ba6112be565b6109c26116f5565b565b6000600560019054906101000a900473ffffffffffffffffffffffffffffffffffffffff16905090565b6109f661139f565b6000610a018661059d565b9050610a0f84828585611758565b8573ffffffffffffffffffffffffffffffffffffffff166323b872dd8630866040518463ffffffff1660e01b8152600401610a4c93929190613474565b6020604051808303816000875af1158015610a6b573d6000803e3d6000fd5b505050506040513d601f19601f82011682018060405250810190610a8f919061331e565b610ace576040517f08c379a0000000000000000000000000000000000000000000000000000000008152600401610ac590613397565b60405180910390fd5b7fc154887847a962fc24a9a7ef5e8278ac58b3bc8154089af27a9f9474e112562486823388888888604051610b099796959493929190613513565b60405180910390a1505050505050565b60008282604051602001610b2e9291906135f2565b6040516020818303038152906040528051906020012060001c905092915050565b610b61610b5a610f95565b8383611908565b5050565b610b6d6112be565b80600660006101000a81548173ffffffffffffffffffffffffffffffffffffffff021916908373ffffffffffffffffffffffffffffffffffffffff16021790555050565b610bb961139f565b6000610bc58686610b19565b9050610bd48382600185611758565b8573ffffffffffffffffffffffffffffffffffffffff166323b872dd8530886040518463ffffffff1660e01b8152600401610c1193929190613474565b600060405180830381600087803b158015610c2b57600080fd5b505af1158015610c3f573d6000803e3d6000fd5b505050507fe3b71fc24bed78e084eb3bb0d43e15670e44d90f119e8b43e28c31419ebe458186868333888888604051610c7e979695949392919061361e565b60405180910390a1505050505050565b6000600160008473ffffffffffffffffffffffffffffffffffffffff1673ffffffffffffffffffffffffffffffffffffffff16815260200190815260200160002060008373ffffffffffffffffffffffffffffffffffffffff1673ffffffffffffffffffffffffffffffffffffffff16815260200190815260200160002060009054906101000a900460ff16905092915050565b610d2a610f95565b73ffffffffffffffffffffffffffffffffffffffff168573ffffffffffffffffffffffffffffffffffffffff161480610d705750610d6f85610d6a610f95565b610c8e565b5b610daf576040517f08c379a0000000000000000000000000000000000000000000000000000000008152600401610da690613188565b60405180910390fd5b610dbc8585858585611a74565b5050505050565b610dcb6112be565b600073ffffffffffffffffffffffffffffffffffffffff168173ffffffffffffffffffffffffffffffffffffffff1603610e3a576040517f08c379a0000000000000000000000000000000000000000000000000000000008152600401610e3190613706565b60405180910390fd5b610e438161162f565b50565b60007f01ffc9a7000000000000000000000000000000000000000000000000000000007bffffffffffffffffffffffffffffffffffffffffffffffffffffffff1916827bffffffffffffffffffffffffffffffffffffffffffffffffffffffff1916149050919050565b60606000600460008481526020019081526020016000208054610ed290613755565b80601f0160208091040260200160405190810160405280929190818152602001828054610efe90613755565b8015610f4b5780601f10610f2057610100808354040283529160200191610f4b565b820191906000526020600020905b815481529060010190602001808311610f2e57829003601f168201915b505050505090506000815111610f6957610f6483611d0f565b610f8d565b600381604051602001610f7d92919061385a565b6040516020818303038152906040525b915050919050565b600033905090565b8151835114610fe1576040517f08c379a0000000000000000000000000000000000000000000000000000000008152600401610fd8906138f0565b60405180910390fd5b600073ffffffffffffffffffffffffffffffffffffffff168473ffffffffffffffffffffffffffffffffffffffff1603611050576040517f08c379a000000000000000000000000000000000000000000000000000000000815260040161104790613982565b60405180910390fd5b600061105a610f95565b905061106a818787878787611da3565b60005b845181101561121b57600085828151811061108b5761108a61323a565b5b6020026020010151905060008583815181106110aa576110a961323a565b5b60200260200101519050600080600084815260200190815260200160002060008b73ffffffffffffffffffffffffffffffffffffffff1673ffffffffffffffffffffffffffffffffffffffff1681526020019081526020016000205490508181101561114b576040517f08c379a000000000000000000000000000000000000000000000000000000000815260040161114290613a14565b60405180910390fd5b81810360008085815260200190815260200160002060008c73ffffffffffffffffffffffffffffffffffffffff1673ffffffffffffffffffffffffffffffffffffffff168152602001908152602001600020819055508160008085815260200190815260200160002060008b73ffffffffffffffffffffffffffffffffffffffff1673ffffffffffffffffffffffffffffffffffffffff16815260200190815260200160002060008282546112009190613a34565b925050819055505050508061121490613298565b905061106d565b508473ffffffffffffffffffffffffffffffffffffffff168673ffffffffffffffffffffffffffffffffffffffff168273ffffffffffffffffffffffffffffffffffffffff167f4a39dc06d4c0dbc64b70af90fd698a233a518aa5d07e595d983b8c0526c8f7fb8787604051611292929190613a68565b60405180910390a46112a8818787878787612087565b6112b681878787878761208f565b505050505050565b6112c6610f95565b73ffffffffffffffffffffffffffffffffffffffff166112e46109c4565b73ffffffffffffffffffffffffffffffffffffffff161461133a576040517f08c379a000000000000000000000000000000000000000000000000000000000815260040161133190613aeb565b60405180910390fd5b565b611344612266565b6000600560006101000a81548160ff0219169083151502179055507f5db9ee0a495bf2e6ff9c91a7834c1ba4fdd244a5e8aa4e537bd38aeae4b073aa611388610f95565b6040516113959190612df8565b60405180910390a1565b6113a76108ae565b156113e7576040517f08c379a00000000000000000000000000000000000000000000000000000000081526004016113de90613b57565b60405180910390fd5b565b600073ffffffffffffffffffffffffffffffffffffffff168373ffffffffffffffffffffffffffffffffffffffff1603611458576040517f08c379a000000000000000000000000000000000000000000000000000000000815260040161144f90613be9565b60405180910390fd5b6000611462610f95565b9050600061146f846122af565b9050600061147c846122af565b905061149c83876000858560405180602001604052806000815250611da3565b600080600087815260200190815260200160002060008873ffffffffffffffffffffffffffffffffffffffff1673ffffffffffffffffffffffffffffffffffffffff16815260200190815260200160002054905084811015611533576040517f08c379a000000000000000000000000000000000000000000000000000000000815260040161152a90613c7b565b60405180910390fd5b84810360008088815260200190815260200160002060008973ffffffffffffffffffffffffffffffffffffffff1673ffffffffffffffffffffffffffffffffffffffff16815260200190815260200160002081905550600073ffffffffffffffffffffffffffffffffffffffff168773ffffffffffffffffffffffffffffffffffffffff168573ffffffffffffffffffffffffffffffffffffffff167fc3d58168c5ae7397731d063d5bbf3d657854427343f4c083240f7aacaa2d0f628989604051611600929190613c9b565b60405180910390a461162684886000868660405180602001604052806000815250612087565b50505050505050565b6000600560019054906101000a900473ffffffffffffffffffffffffffffffffffffffff16905081600560016101000a81548173ffffffffffffffffffffffffffffffffffffffff021916908373ffffffffffffffffffffffffffffffffffffffff1602179055508173ffffffffffffffffffffffffffffffffffffffff168173ffffffffffffffffffffffffffffffffffffffff167f8be0079c531659141344cd1fd0a4f28419497f9722a3daafe3b4186f6b6457e060405160405180910390a35050565b6116fd61139f565b6001600560006101000a81548160ff0219169083151502179055507f62e78cea01bee320cd4e420270b5ea74000d11b0c9f74754ebdbfc544b05a258611741610f95565b60405161174e9190612df8565b60405180910390a1565b600073ffffffffffffffffffffffffffffffffffffffff168473ffffffffffffffffffffffffffffffffffffffff16036117c7576040517f08c379a00000000000000000000000000000000000000000000000000000000081526004016117be90613d36565b60405180910390fd5b60006117d1610f95565b905060006117de856122af565b905060006117eb856122af565b90506117fc83600089858589611da3565b8460008088815260200190815260200160002060008973ffffffffffffffffffffffffffffffffffffffff1673ffffffffffffffffffffffffffffffffffffffff168152602001908152602001600020600082825461185b9190613a34565b925050819055508673ffffffffffffffffffffffffffffffffffffffff16600073ffffffffffffffffffffffffffffffffffffffff168473ffffffffffffffffffffffffffffffffffffffff167fc3d58168c5ae7397731d063d5bbf3d657854427343f4c083240f7aacaa2d0f6289896040516118d9929190613c9b565b60405180910390a46118f083600089858589612087565b6118ff83600089898989612329565b50505050505050565b8173ffffffffffffffffffffffffffffffffffffffff168373ffffffffffffffffffffffffffffffffffffffff1603611976576040517f08c379a000000000000000000000000000000000000000000000000000000000815260040161196d90613dc8565b60405180910390fd5b80600160008573ffffffffffffffffffffffffffffffffffffffff1673ffffffffffffffffffffffffffffffffffffffff16815260200190815260200160002060008473ffffffffffffffffffffffffffffffffffffffff1673ffffffffffffffffffffffffffffffffffffffff16815260200190815260200160002060006101000a81548160ff0219169083151502179055508173ffffffffffffffffffffffffffffffffffffffff168373ffffffffffffffffffffffffffffffffffffffff167f17307eab39ab6107e8899845ad3d59bd9653f200f220920489ca2b5937696c3183604051611a6791906126d5565b60405180910390a3505050565b600073ffffffffffffffffffffffffffffffffffffffff168473ffffffffffffffffffffffffffffffffffffffff1603611ae3576040517f08c379a0000000000000000000000000000000000000000000000000000000008152600401611ada90613982565b60405180910390fd5b6000611aed610f95565b90506000611afa856122af565b90506000611b07856122af565b9050611b17838989858589611da3565b600080600088815260200190815260200160002060008a73ffffffffffffffffffffffffffffffffffffffff1673ffffffffffffffffffffffffffffffffffffffff16815260200190815260200160002054905085811015611bae576040517f08c379a0000000000000000000000000000000000000000000000000000000008152600401611ba590613a14565b60405180910390fd5b85810360008089815260200190815260200160002060008b73ffffffffffffffffffffffffffffffffffffffff1673ffffffffffffffffffffffffffffffffffffffff168152602001908152602001600020819055508560008089815260200190815260200160002060008a73ffffffffffffffffffffffffffffffffffffffff1673ffffffffffffffffffffffffffffffffffffffff1681526020019081526020016000206000828254611c639190613a34565b925050819055508773ffffffffffffffffffffffffffffffffffffffff168973ffffffffffffffffffffffffffffffffffffffff168573ffffffffffffffffffffffffffffffffffffffff167fc3d58168c5ae7397731d063d5bbf3d657854427343f4c083240f7aacaa2d0f628a8a604051611ce0929190613c9b565b60405180910390a4611cf6848a8a86868a612087565b611d04848a8a8a8a8a612329565b505050505050505050565b606060028054611d1e90613755565b80601f0160208091040260200160405190810160405280929190818152602001828054611d4a90613755565b8015611d975780601f10611d6c57610100808354040283529160200191611d97565b820191906000526020600020905b815481529060010190602001808311611d7a57829003601f168201915b50505050509050919050565b600073ffffffffffffffffffffffffffffffffffffffff168573ffffffffffffffffffffffffffffffffffffffff161480611e2c5750600073ffffffffffffffffffffffffffffffffffffffff16600660009054906101000a900473ffffffffffffffffffffffffffffffffffffffff1673ffffffffffffffffffffffffffffffffffffffff16145b80611ed257506000600660009054906101000a900473ffffffffffffffffffffffffffffffffffffffff1673ffffffffffffffffffffffffffffffffffffffff166370a08231876040518263ffffffff1660e01b8152600401611e8f9190612df8565b602060405180830381865afa158015611eac573d6000803e3d6000fd5b505050506040513d601f19601f82011682018060405250810190611ed09190613dfd565b115b611f11576040517f08c379a0000000000000000000000000000000000000000000000000000000008152600401611f0890613e76565b60405180910390fd5b600073ffffffffffffffffffffffffffffffffffffffff168473ffffffffffffffffffffffffffffffffffffffff161480611f9a5750600073ffffffffffffffffffffffffffffffffffffffff16600660009054906101000a900473ffffffffffffffffffffffffffffffffffffffff1673ffffffffffffffffffffffffffffffffffffffff16145b8061204057506000600660009054906101000a900473ffffffffffffffffffffffffffffffffffffffff1673ffffffffffffffffffffffffffffffffffffffff166370a08231866040518263ffffffff1660e01b8152600401611ffd9190612df8565b602060405180830381865afa15801561201a573d6000803e3d6000fd5b505050506040513d601f19601f8201168201806040525081019061203e9190613dfd565b115b61207f576040517f08c379a000000000000000000000000000000000000000000000000000000000815260040161207690613ee2565b60405180910390fd5b505050505050565b505050505050565b6120ae8473ffffffffffffffffffffffffffffffffffffffff16612500565b1561225e578373ffffffffffffffffffffffffffffffffffffffff1663bc197c8187878686866040518663ffffffff1660e01b81526004016120f4959493929190613f02565b6020604051808303816000875af192505050801561213057506040513d601f19601f8201168201806040525081019061212d9190613f7f565b60015b6121d55761213c613fb9565b806308c379a0036121985750612150613fdb565b8061215b575061219a565b806040517f08c379a000000000000000000000000000000000000000000000000000000000815260040161218f91906127ad565b60405180910390fd5b505b6040517f08c379a00000000000000000000000000000000000000000000000000000000081526004016121cc906140dd565b60405180910390fd5b63bc197c8160e01b7bffffffffffffffffffffffffffffffffffffffffffffffffffffffff1916817bffffffffffffffffffffffffffffffffffffffffffffffffffffffff19161461225c576040517f08c379a00000000000000000000000000000000000000000000000000000000081526004016122539061416f565b60405180910390fd5b505b505050505050565b61226e6108ae565b6122ad576040517f08c379a00000000000000000000000000000000000000000000000000000000081526004016122a4906141db565b60405180910390fd5b565b60606000600167ffffffffffffffff8111156122ce576122cd612801565b5b6040519080825280602002602001820160405280156122fc5781602001602082028036833780820191505090505b50905082816000815181106123145761231361323a565b5b60200260200101818152505080915050919050565b6123488473ffffffffffffffffffffffffffffffffffffffff16612500565b156124f8578373ffffffffffffffffffffffffffffffffffffffff1663f23a6e6187878686866040518663ffffffff1660e01b815260040161238e9594939291906141fb565b6020604051808303816000875af19250505080156123ca57506040513d601f19601f820116820180604052508101906123c79190613f7f565b60015b61246f576123d6613fb9565b806308c379a00361243257506123ea613fdb565b806123f55750612434565b806040517f08c379a000000000000000000000000000000000000000000000000000000000815260040161242991906127ad565b60405180910390fd5b505b6040517f08c379a0000000000000000000000000000000000000000000000000000000008152600401612466906140dd565b60405180910390fd5b63f23a6e6160e01b7bffffffffffffffffffffffffffffffffffffffffffffffffffffffff1916817bffffffffffffffffffffffffffffffffffffffffffffffffffffffff1916146124f6576040517f08c379a00000000000000000000000000000000000000000000000000000000081526004016124ed9061416f565b60405180910390fd5b505b505050505050565b6000808273ffffffffffffffffffffffffffffffffffffffff163b119050919050565b6000604051905090565b600080fd5b600080fd5b600073ffffffffffffffffffffffffffffffffffffffff82169050919050565b600061256282612537565b9050919050565b61257281612557565b811461257d57600080fd5b50565b60008135905061258f81612569565b92915050565b6000819050919050565b6125a881612595565b81146125b357600080fd5b50565b6000813590506125c58161259f565b92915050565b600080604083850312156125e2576125e161252d565b5b60006125f085828601612580565b9250506020612601858286016125b6565b9150509250929050565b61261481612595565b82525050565b600060208201905061262f600083018461260b565b92915050565b60007fffffffff0000000000000000000000000000000000000000000000000000000082169050919050565b61266a81612635565b811461267557600080fd5b50565b60008135905061268781612661565b92915050565b6000602082840312156126a3576126a261252d565b5b60006126b184828501612678565b91505092915050565b60008115159050919050565b6126cf816126ba565b82525050565b60006020820190506126ea60008301846126c6565b92915050565b6000602082840312156127065761270561252d565b5b6000612714848285016125b6565b91505092915050565b600081519050919050565b600082825260208201905092915050565b60005b8381101561275757808201518184015260208101905061273c565b60008484015250505050565b6000601f19601f8301169050919050565b600061277f8261271d565b6127898185612728565b9350612799818560208601612739565b6127a281612763565b840191505092915050565b600060208201905081810360008301526127c78184612774565b905092915050565b6000602082840312156127e5576127e461252d565b5b60006127f384828501612580565b91505092915050565b600080fd5b7f4e487b7100000000000000000000000000000000000000000000000000000000600052604160045260246000fd5b61283982612763565b810181811067ffffffffffffffff8211171561285857612857612801565b5b80604052505050565b600061286b612523565b90506128778282612830565b919050565b600067ffffffffffffffff82111561289757612896612801565b5b602082029050602081019050919050565b600080fd5b60006128c06128bb8461287c565b612861565b905080838252602082019050602084028301858111156128e3576128e26128a8565b5b835b8181101561290c57806128f888826125b6565b8452602084019350506020810190506128e5565b5050509392505050565b600082601f83011261292b5761292a6127fc565b5b813561293b8482602086016128ad565b91505092915050565b600080fd5b600067ffffffffffffffff82111561296457612963612801565b5b61296d82612763565b9050602081019050919050565b82818337600083830152505050565b600061299c61299784612949565b612861565b9050828152602081018484840111156129b8576129b7612944565b5b6129c384828561297a565b509392505050565b600082601f8301126129e0576129df6127fc565b5b81356129f0848260208601612989565b91505092915050565b600080600080600060a08688031215612a1557612a1461252d565b5b6000612a2388828901612580565b9550506020612a3488828901612580565b945050604086013567ffffffffffffffff811115612a5557612a54612532565b5b612a6188828901612916565b935050606086013567ffffffffffffffff811115612a8257612a81612532565b5b612a8e88828901612916565b925050608086013567ffffffffffffffff811115612aaf57612aae612532565b5b612abb888289016129cb565b9150509295509295909350565b600067ffffffffffffffff821115612ae357612ae2612801565b5b602082029050602081019050919050565b6000612b07612b0284612ac8565b612861565b90508083825260208201905060208402830185811115612b2a57612b296128a8565b5b835b81811015612b535780612b3f8882612580565b845260208401935050602081019050612b2c565b5050509392505050565b600082601f830112612b7257612b716127fc565b5b8135612b82848260208601612af4565b91505092915050565b60008060408385031215612ba257612ba161252d565b5b600083013567ffffffffffffffff811115612bc057612bbf612532565b5b612bcc85828601612b5d565b925050602083013567ffffffffffffffff811115612bed57612bec612532565b5b612bf985828601612916565b9150509250929050565b600081519050919050565b600082825260208201905092915050565b6000819050602082019050919050565b612c3881612595565b82525050565b6000612c4a8383612c2f565b60208301905092915050565b6000602082019050919050565b6000612c6e82612c03565b612c788185612c0e565b9350612c8383612c1f565b8060005b83811015612cb4578151612c9b8882612c3e565b9750612ca683612c56565b925050600181019050612c87565b5085935050505092915050565b60006020820190508181036000830152612cdb8184612c63565b905092915050565b60008060008060808587031215612cfd57612cfc61252d565b5b6000612d0b87828801612580565b9450506020612d1c87828801612580565b9350506040612d2d878288016125b6565b925050606085013567ffffffffffffffff811115612d4e57612d4d612532565b5b612d5a878288016129cb565b91505092959194509250565b60008060008060808587031215612d8057612d7f61252d565b5b6000612d8e87828801612580565b9450506020612d9f878288016125b6565b9350506040612db087828801612580565b925050606085013567ffffffffffffffff811115612dd157612dd0612532565b5b612ddd878288016129cb565b91505092959194509250565b612df281612557565b82525050565b6000602082019050612e0d6000830184612de9565b92915050565b600080600080600060a08688031215612e2f57612e2e61252d565b5b6000612e3d88828901612580565b9550506020612e4e88828901612580565b9450506040612e5f88828901612580565b9350506060612e70888289016125b6565b925050608086013567ffffffffffffffff811115612e9157612e90612532565b5b612e9d888289016129cb565b9150509295509295909350565b612eb3816126ba565b8114612ebe57600080fd5b50565b600081359050612ed081612eaa565b92915050565b60008060408385031215612eed57612eec61252d565b5b6000612efb85828601612580565b9250506020612f0c85828601612ec1565b9150509250929050565b600080600080600060a08688031215612f3257612f3161252d565b5b6000612f4088828901612580565b9550506020612f51888289016125b6565b9450506040612f6288828901612580565b9350506060612f7388828901612580565b925050608086013567ffffffffffffffff811115612f9457612f93612532565b5b612fa0888289016129cb565b9150509295509295909350565b60008060408385031215612fc457612fc361252d565b5b6000612fd285828601612580565b9250506020612fe385828601612580565b9150509250929050565b600080600080600060a086880312156130095761300861252d565b5b600061301788828901612580565b955050602061302888828901612580565b9450506040613039888289016125b6565b935050606061304a888289016125b6565b925050608086013567ffffffffffffffff81111561306b5761306a612532565b5b613077888289016129cb565b9150509295509295909350565b7f455243313135353a2061646472657373207a65726f206973206e6f742061207660008201527f616c6964206f776e657200000000000000000000000000000000000000000000602082015250565b60006130e0602a83612728565b91506130eb82613084565b604082019050919050565b6000602082019050818103600083015261310f816130d3565b9050919050565b7f455243313135353a2063616c6c6572206973206e6f7420746f6b656e206f776e60008201527f6572206e6f7220617070726f7665640000000000000000000000000000000000602082015250565b6000613172602f83612728565b915061317d82613116565b604082019050919050565b600060208201905081810360008301526131a181613165565b9050919050565b7f455243313135353a206163636f756e747320616e6420696473206c656e67746860008201527f206d69736d617463680000000000000000000000000000000000000000000000602082015250565b6000613204602983612728565b915061320f826131a8565b604082019050919050565b60006020820190508181036000830152613233816131f7565b9050919050565b7f4e487b7100000000000000000000000000000000000000000000000000000000600052603260045260246000fd5b7f4e487b7100000000000000000000000000000000000000000000000000000000600052601160045260246000fd5b60006132a382612595565b91507fffffffffffffffffffffffffffffffffffffffffffffffffffffffffffffffff82036132d5576132d4613269565b5b600182019050919050565b60006040820190506132f56000830185612de9565b613302602083018461260b565b9392505050565b60008151905061331881612eaa565b92915050565b6000602082840312156133345761333361252d565b5b600061334284828501613309565b91505092915050565b7f63616e2774207472616e73666572000000000000000000000000000000000000600082015250565b6000613381600e83612728565b915061338c8261334b565b602082019050919050565b600060208201905081810360008301526133b081613374565b9050919050565b600081519050919050565b600082825260208201905092915050565b60006133de826133b7565b6133e881856133c2565b93506133f8818560208601612739565b61340181612763565b840191505092915050565b600060c0820190506134216000830189612de9565b61342e602083018861260b565b61343b6040830187612de9565b6134486060830186612de9565b613455608083018561260b565b81810360a083015261346781846133d3565b9050979650505050505050565b60006060820190506134896000830186612de9565b6134966020830185612de9565b6134a3604083018461260b565b949350505050565b600060c0820190506134c06000830189612de9565b6134cd602083018861260b565b6134da604083018761260b565b6134e76060830186612de9565b6134f46080830185612de9565b81810360a083015261350681846133d3565b9050979650505050505050565b600060e082019050613528600083018a612de9565b613535602083018961260b565b6135426040830188612de9565b61354f6060830187612de9565b61355c6080830186612de9565b61356960a083018561260b565b81810360c083015261357b81846133d3565b905098975050505050505050565b60008160601b9050919050565b60006135a182613589565b9050919050565b60006135b382613596565b9050919050565b6135cb6135c682612557565b6135a8565b82525050565b6000819050919050565b6135ec6135e782612595565b6135d1565b82525050565b60006135fe82856135ba565b60148201915061360e82846135db565b6020820191508190509392505050565b600060e082019050613633600083018a612de9565b613640602083018961260b565b61364d604083018861260b565b61365a6060830187612de9565b6136676080830186612de9565b61367460a0830185612de9565b81810360c083015261368681846133d3565b905098975050505050505050565b7f4f776e61626c653a206e6577206f776e657220697320746865207a65726f206160008201527f6464726573730000000000000000000000000000000000000000000000000000602082015250565b60006136f0602683612728565b91506136fb82613694565b604082019050919050565b6000602082019050818103600083015261371f816136e3565b9050919050565b7f4e487b7100000000000000000000000000000000000000000000000000000000600052602260045260246000fd5b6000600282049050600182168061376d57607f821691505b6020821081036137805761377f613726565b5b50919050565b600081905092915050565b60008190508160005260206000209050919050565b600081546137b381613755565b6137bd8186613786565b945060018216600081146137d857600181146137ed57613820565b60ff1983168652811515820286019350613820565b6137f685613791565b60005b83811015613818578154818901526001820191506020810190506137f9565b838801955050505b50505092915050565b60006138348261271d565b61383e8185613786565b935061384e818560208601612739565b80840191505092915050565b600061386682856137a6565b91506138728284613829565b91508190509392505050565b7f455243313135353a2069647320616e6420616d6f756e7473206c656e6774682060008201527f6d69736d61746368000000000000000000000000000000000000000000000000602082015250565b60006138da602883612728565b91506138e58261387e565b604082019050919050565b60006020820190508181036000830152613909816138cd565b9050919050565b7f455243313135353a207472616e7366657220746f20746865207a65726f20616460008201527f6472657373000000000000000000000000000000000000000000000000000000602082015250565b600061396c602583612728565b915061397782613910565b604082019050919050565b6000602082019050818103600083015261399b8161395f565b9050919050565b7f455243313135353a20696e73756666696369656e742062616c616e636520666f60008201527f72207472616e7366657200000000000000000000000000000000000000000000602082015250565b60006139fe602a83612728565b9150613a09826139a2565b604082019050919050565b60006020820190508181036000830152613a2d816139f1565b9050919050565b6000613a3f82612595565b9150613a4a83612595565b9250828201905080821115613a6257613a61613269565b5b92915050565b60006040820190508181036000830152613a828185612c63565b90508181036020830152613a968184612c63565b90509392505050565b7f4f776e61626c653a2063616c6c6572206973206e6f7420746865206f776e6572600082015250565b6000613ad5602083612728565b9150613ae082613a9f565b602082019050919050565b60006020820190508181036000830152613b0481613ac8565b9050919050565b7f5061757361626c653a2070617573656400000000000000000000000000000000600082015250565b6000613b41601083612728565b9150613b4c82613b0b565b602082019050919050565b60006020820190508181036000830152613b7081613b34565b9050919050565b7f455243313135353a206275726e2066726f6d20746865207a65726f206164647260008201527f6573730000000000000000000000000000000000000000000000000000000000602082015250565b6000613bd3602383612728565b9150613bde82613b77565b604082019050919050565b60006020820190508181036000830152613c0281613bc6565b9050919050565b7f455243313135353a206275726e20616d6f756e7420657863656564732062616c60008201527f616e636500000000000000000000000000000000000000000000000000000000602082015250565b6000613c65602483612728565b9150613c7082613c09565b604082019050919050565b60006020820190508181036000830152613c9481613c58565b9050919050565b6000604082019050613cb0600083018561260b565b613cbd602083018461260b565b9392505050565b7f455243313135353a206d696e7420746f20746865207a65726f2061646472657360008201527f7300000000000000000000000000000000000000000000000000000000000000602082015250565b6000613d20602183612728565b9150613d2b82613cc4565b604082019050919050565b60006020820190508181036000830152613d4f81613d13565b9050919050565b7f455243313135353a2073657474696e6720617070726f76616c2073746174757360008201527f20666f722073656c660000000000000000000000000000000000000000000000602082015250565b6000613db2602983612728565b9150613dbd82613d56565b604082019050919050565b60006020820190508181036000830152613de181613da5565b9050919050565b600081519050613df78161259f565b92915050565b600060208284031215613e1357613e1261252d565b5b6000613e2184828501613de8565b91505092915050565b7f73656e64657220646f65736e27742068617665204b594320746f6b656e000000600082015250565b6000613e60601d83612728565b9150613e6b82613e2a565b602082019050919050565b60006020820190508181036000830152613e8f81613e53565b9050919050565b7f726563697069656e7420646f65736e27742068617665204b594320746f6b656e600082015250565b6000613ecc602083612728565b9150613ed782613e96565b602082019050919050565b60006020820190508181036000830152613efb81613ebf565b9050919050565b600060a082019050613f176000830188612de9565b613f246020830187612de9565b8181036040830152613f368186612c63565b90508181036060830152613f4a8185612c63565b90508181036080830152613f5e81846133d3565b90509695505050505050565b600081519050613f7981612661565b92915050565b600060208284031215613f9557613f9461252d565b5b6000613fa384828501613f6a565b91505092915050565b60008160e01c9050919050565b600060033d1115613fd85760046000803e613fd5600051613fac565b90505b90565b600060443d1061406857613fed612523565b60043d036004823e80513d602482011167ffffffffffffffff82111715614015575050614068565b808201805167ffffffffffffffff8111156140335750505050614068565b80602083010160043d038501811115614050575050505050614068565b61405f82602001850186612830565b82955050505050505b90565b7f455243313135353a207472616e7366657220746f206e6f6e204552433131353560008201527f526563656976657220696d706c656d656e746572000000000000000000000000602082015250565b60006140c7603483612728565b91506140d28261406b565b604082019050919050565b600060208201905081810360008301526140f6816140ba565b9050919050565b7f455243313135353a204552433131353552656365697665722072656a6563746560008201527f6420746f6b656e73000000000000000000000000000000000000000000000000602082015250565b6000614159602883612728565b9150614164826140fd565b604082019050919050565b600060208201905081810360008301526141888161414c565b9050919050565b7f5061757361626c653a206e6f7420706175736564000000000000000000000000600082015250565b60006141c5601483612728565b91506141d08261418f565b602082019050919050565b600060208201905081810360008301526141f4816141b8565b9050919050565b600060a0820190506142106000830188612de9565b61421d6020830187612de9565b61422a604083018661260b565b614237606083018561260b565b818103608083015261424981846133d3565b9050969550505050505056fea2646970667358221220ad71bb7d161d9bd517220ac501a39c76eb24138367b40d71de848a300ddc4e7a64736f6c63430008110033",
  "linkReferences": {},
  "deployedLinkReferences": {}
}