{
  "_format": "hh-sol-artifact-1",
  "contractName": "MockNFT",
  "sourceName": "contracts/mock/MockNFT.sol",
  "abi": [
    {
      "inputs": [
        {
          "internalType": "string",
          "name": "name",
          "type": "string"
        },
        {
          "internalType": "string",
          "name": "symbol",
          "type": "string"
        }
      ],
      "stateMutability": "nonpayable",
      "type": "constructor"
    },
    {
      "anonymous": false,
      "inputs": [
        {
          "indexed": true,
          "internalType": "address",
          "name": "owner",
          "type": "address"
        },
        {
          "indexed": true,
          "internalType": "address",
          "name": "approved",
          "type": "address"
        },
        {
          "indexed": true,
          "internalType": "uint256",
          "name": "tokenId",
          "type": "uint256"
        }
      ],
      "name": "Approval",
      "type": "event"
    },
    {
      "anonymous": false,
      "inputs": [
        {
          "indexed": true,
          "internalType": "address",
          "name": "owner",
          "type": "address"
        },
        {
          "indexed": true,
          "internalType": "address",
          "name": "operator",
          "type": "address"
        },
        {
          "indexed": false,
          "internalType": "bool",
          "name": "approved",
          "type": "bool"
        }
      ],
      "name": "ApprovalForAll",
      "type": "event"
    },
    {
      "anonymous": false,
      "inputs": [
        {
          "indexed": true,
          "internalType": "address",
          "name": "from",
          "type": "address"
        },
        {
          "indexed": true,
          "internalType": "address",
          "name": "to",
          "type": "address"
        },
        {
          "indexed": true,
          "internalType": "uint256",
          "name": "tokenId",
          "type": "uint256"
        }
      ],
      "name": "Transfer",
      "type": "event"
    },
    {
      "inputs": [
        {
          "internalType": "address",
          "name": "to",
          "type": "address"
        },
        {
          "internalType": "uint256",
          "name": "tokenId",
          "type": "uint256"
        }
      ],
      "name": "approve",
      "outputs": [],
      "stateMutability": "nonpayable",
      "type": "function"
    },
    {
      "inputs": [
        {
          "internalType": "address",
          "name": "owner",
          "type": "address"
        }
      ],
      "name": "balanceOf",
      "outputs": [
        {
          "internalType": "uint256",
          "name": "",
          "type": "uint256"
        }
      ],
      "stateMutability": "view",
      "type": "function"
    },
    {
      "inputs": [
        {
          "internalType": "uint256",
          "name": "tokenId",
          "type": "uint256"
        }
      ],
      "name": "getApproved",
      "outputs": [
        {
          "internalType": "address",
          "name": "",
          "type": "address"
        }
      ],
      "stateMutability": "view",
      "type": "function"
    },
    {
      "inputs": [
        {
          "internalType": "address",
          "name": "owner",
          "type": "address"
        },
        {
          "internalType": "address",
          "name": "operator",
          "type": "address"
        }
      ],
      "name": "isApprovedForAll",
      "outputs": [
        {
          "internalType": "bool",
          "name": "",
          "type": "bool"
        }
      ],
      "stateMutability": "view",
      "type": "function"
    },
    {
      "inputs": [
        {
          "internalType": "address",
          "name": "to",
          "type": "address"
        },
        {
          "internalType": "uint256",
          "name": "tokenID",
          "type": "uint256"
        }
      ],
      "name": "mint",
      "outputs": [],
      "stateMutability": "nonpayable",
      "type": "function"
    },
    {
      "inputs": [],
      "name": "name",
      "outputs": [
        {
          "internalType": "string",
          "name": "",
          "type": "string"
        }
      ],
      "stateMutability": "view",
      "type": "function"
    },
    {
      "inputs": [
        {
          "internalType": "uint256",
          "name": "tokenId",
          "type": "uint256"
        }
      ],
      "name": "ownerOf",
      "outputs": [
        {
          "internalType": "address",
          "name": "",
          "type": "address"
        }
      ],
      "stateMutability": "view",
      "type": "function"
    },
    {
      "inputs": [
        {
          "internalType": "address",
          "name": "from",
          "type": "address"
        },
        {
          "internalType": "address",
          "name": "to",
          "type": "address"
        },
        {
          "internalType": "uint256",
          "name": "tokenId",
          "type": "uint256"
        }
      ],
      "name": "safeTransferFrom",
      "outputs": [],
      "stateMutability": "nonpayable",
      "type": "function"
    },
    {
      "inputs": [
        {
          "internalType": "address",
          "name": "from",
          "type": "address"
        },
        {
          "internalType": "address",
          "name": "to",
          "type": "address"
        },
        {
          "internalType": "uint256",
          "name": "tokenId",
          "type": "uint256"
        },
        {
          "internalType": "bytes",
          "name": "data",
          "type": "bytes"
        }
      ],
      "name": "safeTransferFrom",
      "outputs": [],
      "stateMutability": "nonpayable",
      "type": "function"
    },
    {
      "inputs": [
        {
          "internalType": "address",
          "name": "operator",
          "type": "address"
        },
        {
          "internalType": "bool",
          "name": "approved",
          "type": "bool"
        }
      ],
      "name": "setApprovalForAll",
      "outputs": [],
      "stateMutability": "nonpayable",
      "type": "function"
    },
    {
      "inputs": [
        {
          "internalType": "bytes4",
          "name": "interfaceId",
          "type": "bytes4"
        }
      ],
      "name": "supportsInterface",
      "outputs": [
        {
          "internalType": "bool",
          "name": "",
          "type": "bool"
        }
      ],
      "stateMutability": "view",
      "type": "function"
    },
    {
      "inputs": [],
      "name": "symbol",
      "outputs": [
        {
          "internalType": "string",
          "name": "",
          "type": "string"
        }
      ],
      "stateMutability": "view",
      "type": "function"
    },
    {
      "inputs": [
        {
          "internalType": "uint256",
          "name": "tokenId",
          "type": "uint256"
        }
      ],
      "name": "tokenURI",
      "outputs": [
        {
          "internalType": "string",
          "name": "",
          "type": "string"
        }
      ],
      "stateMutability": "view",
      "type": "function"
    },
    {
      "inputs": [
        {
          "internalType": "address",
          "name": "from",
          "type": "address"
        },
        {
          "internalType": "address",
          "name": "to",
          "type": "address"
        },
        {
          "internalType": "uint256",
          "name": "tokenId",
          "type": "uint256"
        }
      ],
      "name": "transferFrom",
      "outputs": [],
      "stateMutability": "nonpayable",
      "type": "function"
    }
  ],
  "bytecode": "0x60806040523480156200001157600080fd5b5060405162002a0a38038062002a0a8339818101604052810190620000379190620001fa565b818181600090816200004a9190620004ca565b5080600190816200005c9190620004ca565b5050505050620005b1565b6000604051905090565b600080fd5b600080fd5b600080fd5b600080fd5b6000601f19601f8301169050919050565b7f4e487b7100000000000000000000000000000000000000000000000000000000600052604160045260246000fd5b620000d08262000085565b810181811067ffffffffffffffff82111715620000f257620000f162000096565b5b80604052505050565b60006200010762000067565b9050620001158282620000c5565b919050565b600067ffffffffffffffff82111562000138576200013762000096565b5b620001438262000085565b9050602081019050919050565b60005b838110156200017057808201518184015260208101905062000153565b60008484015250505050565b6000620001936200018d846200011a565b620000fb565b905082815260208101848484011115620001b257620001b162000080565b5b620001bf84828562000150565b509392505050565b600082601f830112620001df57620001de6200007b565b5b8151620001f18482602086016200017c565b91505092915050565b6000806040838503121562000214576200021362000071565b5b600083015167ffffffffffffffff81111562000235576200023462000076565b5b6200024385828601620001c7565b925050602083015167ffffffffffffffff81111562000267576200026662000076565b5b6200027585828601620001c7565b9150509250929050565b600081519050919050565b7f4e487b7100000000000000000000000000000000000000000000000000000000600052602260045260246000fd5b60006002820490506001821680620002d257607f821691505b602082108103620002e857620002e76200028a565b5b50919050565b60008190508160005260206000209050919050565b60006020601f8301049050919050565b600082821b905092915050565b600060088302620003527fffffffffffffffffffffffffffffffffffffffffffffffffffffffffffffffff8262000313565b6200035e868362000313565b95508019841693508086168417925050509392505050565b6000819050919050565b6000819050919050565b6000620003ab620003a56200039f8462000376565b62000380565b62000376565b9050919050565b6000819050919050565b620003c7836200038a565b620003df620003d682620003b2565b84845462000320565b825550505050565b600090565b620003f6620003e7565b62000403818484620003bc565b505050565b5b818110156200042b576200041f600082620003ec565b60018101905062000409565b5050565b601f8211156200047a576200044481620002ee565b6200044f8462000303565b810160208510156200045f578190505b620004776200046e8562000303565b83018262000408565b50505b505050565b600082821c905092915050565b60006200049f600019846008026200047f565b1980831691505092915050565b6000620004ba83836200048c565b9150826002028217905092915050565b620004d5826200027f565b67ffffffffffffffff811115620004f157620004f062000096565b5b620004fd8254620002b9565b6200050a8282856200042f565b600060209050601f8311600181146200054257600084156200052d578287015190505b620005398582620004ac565b865550620005a9565b601f1984166200055286620002ee565b60005b828110156200057c5784890151825560018201915060208501945060208101905062000555565b868310156200059c578489015162000598601f8916826200048c565b8355505b6001600288020188555050505b505050505050565b61244980620005c16000396000f3fe608060405234801561001057600080fd5b50600436106100ea5760003560e01c80636352211e1161008c578063a22cb46511610066578063a22cb4651461025b578063b88d4fde14610277578063c87b56dd14610293578063e985e9c5146102c3576100ea565b80636352211e146101dd57806370a082311461020d57806395d89b411461023d576100ea565b8063095ea7b3116100c8578063095ea7b31461016d57806323b872dd1461018957806340c10f19146101a557806342842e0e146101c1576100ea565b806301ffc9a7146100ef57806306fdde031461011f578063081812fc1461013d575b600080fd5b610109600480360381019061010491906115d5565b6102f3565b604051610116919061161d565b60405180910390f35b6101276103d5565b60405161013491906116c8565b60405180910390f35b61015760048036038101906101529190611720565b610467565b604051610164919061178e565b60405180910390f35b610187600480360381019061018291906117d5565b6104ad565b005b6101a3600480360381019061019e9190611815565b6105c4565b005b6101bf60048036038101906101ba91906117d5565b610624565b005b6101db60048036038101906101d69190611815565b610632565b005b6101f760048036038101906101f29190611720565b610652565b604051610204919061178e565b60405180910390f35b61022760048036038101906102229190611868565b610703565b60405161023491906118a4565b60405180910390f35b6102456107ba565b60405161025291906116c8565b60405180910390f35b610275600480360381019061027091906118eb565b61084c565b005b610291600480360381019061028c9190611a60565b610862565b005b6102ad60048036038101906102a89190611720565b6108c4565b6040516102ba91906116c8565b60405180910390f35b6102dd60048036038101906102d89190611ae3565b61092c565b6040516102ea919061161d565b60405180910390f35b60007f80ac58cd000000000000000000000000000000000000000000000000000000007bffffffffffffffffffffffffffffffffffffffffffffffffffffffff1916827bffffffffffffffffffffffffffffffffffffffffffffffffffffffff191614806103be57507f5b5e139f000000000000000000000000000000000000000000000000000000007bffffffffffffffffffffffffffffffffffffffffffffffffffffffff1916827bffffffffffffffffffffffffffffffffffffffffffffffffffffffff1916145b806103ce57506103cd826109c0565b5b9050919050565b6060600080546103e490611b52565b80601f016020809104026020016040519081016040528092919081815260200182805461041090611b52565b801561045d5780601f106104325761010080835404028352916020019161045d565b820191906000526020600020905b81548152906001019060200180831161044057829003601f168201915b5050505050905090565b600061047282610a2a565b6004600083815260200190815260200160002060009054906101000a900473ffffffffffffffffffffffffffffffffffffffff169050919050565b60006104b882610652565b90508073ffffffffffffffffffffffffffffffffffffffff168373ffffffffffffffffffffffffffffffffffffffff1603610528576040517f08c379a000000000000000000000000000000000000000000000000000000000815260040161051f90611bf5565b60405180910390fd5b8073ffffffffffffffffffffffffffffffffffffffff16610547610a75565b73ffffffffffffffffffffffffffffffffffffffff161480610576575061057581610570610a75565b61092c565b5b6105b5576040517f08c379a00000000000000000000000000000000000000000000000000000000081526004016105ac90611c87565b60405180910390fd5b6105bf8383610a7d565b505050565b6105d56105cf610a75565b82610b36565b610614576040517f08c379a000000000000000000000000000000000000000000000000000000000815260040161060b90611d19565b60405180910390fd5b61061f838383610bcb565b505050565b61062e8282610e31565b5050565b61064d83838360405180602001604052806000815250610862565b505050565b6000806002600084815260200190815260200160002060009054906101000a900473ffffffffffffffffffffffffffffffffffffffff169050600073ffffffffffffffffffffffffffffffffffffffff168173ffffffffffffffffffffffffffffffffffffffff16036106fa576040517f08c379a00000000000000000000000000000000000000000000000000000000081526004016106f190611d85565b60405180910390fd5b80915050919050565b60008073ffffffffffffffffffffffffffffffffffffffff168273ffffffffffffffffffffffffffffffffffffffff1603610773576040517f08c379a000000000000000000000000000000000000000000000000000000000815260040161076a90611e17565b60405180910390fd5b600360008373ffffffffffffffffffffffffffffffffffffffff1673ffffffffffffffffffffffffffffffffffffffff168152602001908152602001600020549050919050565b6060600180546107c990611b52565b80601f01602080910402602001604051908101604052809291908181526020018280546107f590611b52565b80156108425780601f1061081757610100808354040283529160200191610842565b820191906000526020600020905b81548152906001019060200180831161082557829003601f168201915b5050505050905090565b61085e610857610a75565b838361100a565b5050565b61087361086d610a75565b83610b36565b6108b2576040517f08c379a00000000000000000000000000000000000000000000000000000000081526004016108a990611d19565b60405180910390fd5b6108be84848484611176565b50505050565b60606108cf82610a2a565b60006108d96111d2565b905060008151116108f95760405180602001604052806000815250610924565b80610903846111e9565b604051602001610914929190611e73565b6040516020818303038152906040525b915050919050565b6000600560008473ffffffffffffffffffffffffffffffffffffffff1673ffffffffffffffffffffffffffffffffffffffff16815260200190815260200160002060008373ffffffffffffffffffffffffffffffffffffffff1673ffffffffffffffffffffffffffffffffffffffff16815260200190815260200160002060009054906101000a900460ff16905092915050565b60007f01ffc9a7000000000000000000000000000000000000000000000000000000007bffffffffffffffffffffffffffffffffffffffffffffffffffffffff1916827bffffffffffffffffffffffffffffffffffffffffffffffffffffffff1916149050919050565b610a3381611349565b610a72576040517f08c379a0000000000000000000000000000000000000000000000000000000008152600401610a6990611d85565b60405180910390fd5b50565b600033905090565b816004600083815260200190815260200160002060006101000a81548173ffffffffffffffffffffffffffffffffffffffff021916908373ffffffffffffffffffffffffffffffffffffffff160217905550808273ffffffffffffffffffffffffffffffffffffffff16610af083610652565b73ffffffffffffffffffffffffffffffffffffffff167f8c5be1e5ebec7d5bd14f71427d1e84f3dd0314c0f7b2291e5b200ac8c7c3b92560405160405180910390a45050565b600080610b4283610652565b90508073ffffffffffffffffffffffffffffffffffffffff168473ffffffffffffffffffffffffffffffffffffffff161480610b845750610b83818561092c565b5b80610bc257508373ffffffffffffffffffffffffffffffffffffffff16610baa84610467565b73ffffffffffffffffffffffffffffffffffffffff16145b91505092915050565b8273ffffffffffffffffffffffffffffffffffffffff16610beb82610652565b73ffffffffffffffffffffffffffffffffffffffff1614610c41576040517f08c379a0000000000000000000000000000000000000000000000000000000008152600401610c3890611f09565b60405180910390fd5b600073ffffffffffffffffffffffffffffffffffffffff168273ffffffffffffffffffffffffffffffffffffffff1603610cb0576040517f08c379a0000000000000000000000000000000000000000000000000000000008152600401610ca790611f9b565b60405180910390fd5b610cbb8383836113b5565b610cc6600082610a7d565b6001600360008573ffffffffffffffffffffffffffffffffffffffff1673ffffffffffffffffffffffffffffffffffffffff1681526020019081526020016000206000828254610d169190611fea565b925050819055506001600360008473ffffffffffffffffffffffffffffffffffffffff1673ffffffffffffffffffffffffffffffffffffffff1681526020019081526020016000206000828254610d6d919061201e565b92505081905550816002600083815260200190815260200160002060006101000a81548173ffffffffffffffffffffffffffffffffffffffff021916908373ffffffffffffffffffffffffffffffffffffffff160217905550808273ffffffffffffffffffffffffffffffffffffffff168473ffffffffffffffffffffffffffffffffffffffff167fddf252ad1be2c89b69c2b068fc378daa952ba7f163c4a11628f55a4df523b3ef60405160405180910390a4610e2c8383836113ba565b505050565b600073ffffffffffffffffffffffffffffffffffffffff168273ffffffffffffffffffffffffffffffffffffffff1603610ea0576040517f08c379a0000000000000000000000000000000000000000000000000000000008152600401610e979061209e565b60405180910390fd5b610ea981611349565b15610ee9576040517f08c379a0000000000000000000000000000000000000000000000000000000008152600401610ee09061210a565b60405180910390fd5b610ef5600083836113b5565b6001600360008473ffffffffffffffffffffffffffffffffffffffff1673ffffffffffffffffffffffffffffffffffffffff1681526020019081526020016000206000828254610f45919061201e565b92505081905550816002600083815260200190815260200160002060006101000a81548173ffffffffffffffffffffffffffffffffffffffff021916908373ffffffffffffffffffffffffffffffffffffffff160217905550808273ffffffffffffffffffffffffffffffffffffffff16600073ffffffffffffffffffffffffffffffffffffffff167fddf252ad1be2c89b69c2b068fc378daa952ba7f163c4a11628f55a4df523b3ef60405160405180910390a4611006600083836113ba565b5050565b8173ffffffffffffffffffffffffffffffffffffffff168373ffffffffffffffffffffffffffffffffffffffff1603611078576040517f08c379a000000000000000000000000000000000000000000000000000000000815260040161106f90612176565b60405180910390fd5b80600560008573ffffffffffffffffffffffffffffffffffffffff1673ffffffffffffffffffffffffffffffffffffffff16815260200190815260200160002060008473ffffffffffffffffffffffffffffffffffffffff1673ffffffffffffffffffffffffffffffffffffffff16815260200190815260200160002060006101000a81548160ff0219169083151502179055508173ffffffffffffffffffffffffffffffffffffffff168373ffffffffffffffffffffffffffffffffffffffff167f17307eab39ab6107e8899845ad3d59bd9653f200f220920489ca2b5937696c3183604051611169919061161d565b60405180910390a3505050565b611181848484610bcb565b61118d848484846113bf565b6111cc576040517f08c379a00000000000000000000000000000000000000000000000000000000081526004016111c390612208565b60405180910390fd5b50505050565b606060405180602001604052806000815250905090565b606060008203611230576040518060400160405280600181526020017f30000000000000000000000000000000000000000000000000000000000000008152509050611344565b600082905060005b6000821461126257808061124b90612228565b915050600a8261125b919061229f565b9150611238565b60008167ffffffffffffffff81111561127e5761127d611935565b5b6040519080825280601f01601f1916602001820160405280156112b05781602001600182028036833780820191505090505b5090505b6000851461133d576001826112c99190611fea565b9150600a856112d891906122d0565b60306112e4919061201e565b60f81b8183815181106112fa576112f9612301565b5b60200101907effffffffffffffffffffffffffffffffffffffffffffffffffffffffffffff1916908160001a905350600a85611336919061229f565b94506112b4565b8093505050505b919050565b60008073ffffffffffffffffffffffffffffffffffffffff166002600084815260200190815260200160002060009054906101000a900473ffffffffffffffffffffffffffffffffffffffff1673ffffffffffffffffffffffffffffffffffffffff1614159050919050565b505050565b505050565b60006113e08473ffffffffffffffffffffffffffffffffffffffff16611546565b15611539578373ffffffffffffffffffffffffffffffffffffffff1663150b7a02611409610a75565b8786866040518563ffffffff1660e01b815260040161142b9493929190612385565b6020604051808303816000875af192505050801561146757506040513d601f19601f8201168201806040525081019061146491906123e6565b60015b6114e9573d8060008114611497576040519150601f19603f3d011682016040523d82523d6000602084013e61149c565b606091505b5060008151036114e1576040517f08c379a00000000000000000000000000000000000000000000000000000000081526004016114d890612208565b60405180910390fd5b805181602001fd5b63150b7a0260e01b7bffffffffffffffffffffffffffffffffffffffffffffffffffffffff1916817bffffffffffffffffffffffffffffffffffffffffffffffffffffffff19161491505061153e565b600190505b949350505050565b6000808273ffffffffffffffffffffffffffffffffffffffff163b119050919050565b6000604051905090565b600080fd5b600080fd5b60007fffffffff0000000000000000000000000000000000000000000000000000000082169050919050565b6115b28161157d565b81146115bd57600080fd5b50565b6000813590506115cf816115a9565b92915050565b6000602082840312156115eb576115ea611573565b5b60006115f9848285016115c0565b91505092915050565b60008115159050919050565b61161781611602565b82525050565b6000602082019050611632600083018461160e565b92915050565b600081519050919050565b600082825260208201905092915050565b60005b83811015611672578082015181840152602081019050611657565b60008484015250505050565b6000601f19601f8301169050919050565b600061169a82611638565b6116a48185611643565b93506116b4818560208601611654565b6116bd8161167e565b840191505092915050565b600060208201905081810360008301526116e2818461168f565b905092915050565b6000819050919050565b6116fd816116ea565b811461170857600080fd5b50565b60008135905061171a816116f4565b92915050565b60006020828403121561173657611735611573565b5b60006117448482850161170b565b91505092915050565b600073ffffffffffffffffffffffffffffffffffffffff82169050919050565b60006117788261174d565b9050919050565b6117888161176d565b82525050565b60006020820190506117a3600083018461177f565b92915050565b6117b28161176d565b81146117bd57600080fd5b50565b6000813590506117cf816117a9565b92915050565b600080604083850312156117ec576117eb611573565b5b60006117fa858286016117c0565b925050602061180b8582860161170b565b9150509250929050565b60008060006060848603121561182e5761182d611573565b5b600061183c868287016117c0565b935050602061184d868287016117c0565b925050604061185e8682870161170b565b9150509250925092565b60006020828403121561187e5761187d611573565b5b600061188c848285016117c0565b91505092915050565b61189e816116ea565b82525050565b60006020820190506118b96000830184611895565b92915050565b6118c881611602565b81146118d357600080fd5b50565b6000813590506118e5816118bf565b92915050565b6000806040838503121561190257611901611573565b5b6000611910858286016117c0565b9250506020611921858286016118d6565b9150509250929050565b600080fd5b600080fd5b7f4e487b7100000000000000000000000000000000000000000000000000000000600052604160045260246000fd5b61196d8261167e565b810181811067ffffffffffffffff8211171561198c5761198b611935565b5b80604052505050565b600061199f611569565b90506119ab8282611964565b919050565b600067ffffffffffffffff8211156119cb576119ca611935565b5b6119d48261167e565b9050602081019050919050565b82818337600083830152505050565b6000611a036119fe846119b0565b611995565b905082815260208101848484011115611a1f57611a1e611930565b5b611a2a8482856119e1565b509392505050565b600082601f830112611a4757611a4661192b565b5b8135611a578482602086016119f0565b91505092915050565b60008060008060808587031215611a7a57611a79611573565b5b6000611a88878288016117c0565b9450506020611a99878288016117c0565b9350506040611aaa8782880161170b565b925050606085013567ffffffffffffffff811115611acb57611aca611578565b5b611ad787828801611a32565b91505092959194509250565b60008060408385031215611afa57611af9611573565b5b6000611b08858286016117c0565b9250506020611b19858286016117c0565b9150509250929050565b7f4e487b7100000000000000000000000000000000000000000000000000000000600052602260045260246000fd5b60006002820490506001821680611b6a57607f821691505b602082108103611b7d57611b7c611b23565b5b50919050565b7f4552433732313a20617070726f76616c20746f2063757272656e74206f776e6560008201527f7200000000000000000000000000000000000000000000000000000000000000602082015250565b6000611bdf602183611643565b9150611bea82611b83565b604082019050919050565b60006020820190508181036000830152611c0e81611bd2565b9050919050565b7f4552433732313a20617070726f76652063616c6c6572206973206e6f7420746f60008201527f6b656e206f776e6572206e6f7220617070726f76656420666f7220616c6c0000602082015250565b6000611c71603e83611643565b9150611c7c82611c15565b604082019050919050565b60006020820190508181036000830152611ca081611c64565b9050919050565b7f4552433732313a2063616c6c6572206973206e6f7420746f6b656e206f776e6560008201527f72206e6f7220617070726f766564000000000000000000000000000000000000602082015250565b6000611d03602e83611643565b9150611d0e82611ca7565b604082019050919050565b60006020820190508181036000830152611d3281611cf6565b9050919050565b7f4552433732313a20696e76616c696420746f6b656e2049440000000000000000600082015250565b6000611d6f601883611643565b9150611d7a82611d39565b602082019050919050565b60006020820190508181036000830152611d9e81611d62565b9050919050565b7f4552433732313a2061646472657373207a65726f206973206e6f74206120766160008201527f6c6964206f776e65720000000000000000000000000000000000000000000000602082015250565b6000611e01602983611643565b9150611e0c82611da5565b604082019050919050565b60006020820190508181036000830152611e3081611df4565b9050919050565b600081905092915050565b6000611e4d82611638565b611e578185611e37565b9350611e67818560208601611654565b80840191505092915050565b6000611e7f8285611e42565b9150611e8b8284611e42565b91508190509392505050565b7f4552433732313a207472616e736665722066726f6d20696e636f72726563742060008201527f6f776e6572000000000000000000000000000000000000000000000000000000602082015250565b6000611ef3602583611643565b9150611efe82611e97565b604082019050919050565b60006020820190508181036000830152611f2281611ee6565b9050919050565b7f4552433732313a207472616e7366657220746f20746865207a65726f2061646460008201527f7265737300000000000000000000000000000000000000000000000000000000602082015250565b6000611f85602483611643565b9150611f9082611f29565b604082019050919050565b60006020820190508181036000830152611fb481611f78565b9050919050565b7f4e487b7100000000000000000000000000000000000000000000000000000000600052601160045260246000fd5b6000611ff5826116ea565b9150612000836116ea565b925082820390508181111561201857612017611fbb565b5b92915050565b6000612029826116ea565b9150612034836116ea565b925082820190508082111561204c5761204b611fbb565b5b92915050565b7f4552433732313a206d696e7420746f20746865207a65726f2061646472657373600082015250565b6000612088602083611643565b915061209382612052565b602082019050919050565b600060208201905081810360008301526120b78161207b565b9050919050565b7f4552433732313a20746f6b656e20616c7265616479206d696e74656400000000600082015250565b60006120f4601c83611643565b91506120ff826120be565b602082019050919050565b60006020820190508181036000830152612123816120e7565b9050919050565b7f4552433732313a20617070726f766520746f2063616c6c657200000000000000600082015250565b6000612160601983611643565b915061216b8261212a565b602082019050919050565b6000602082019050818103600083015261218f81612153565b9050919050565b7f4552433732313a207472616e7366657220746f206e6f6e20455243373231526560008201527f63656976657220696d706c656d656e7465720000000000000000000000000000602082015250565b60006121f2603283611643565b91506121fd82612196565b604082019050919050565b60006020820190508181036000830152612221816121e5565b9050919050565b6000612233826116ea565b91507fffffffffffffffffffffffffffffffffffffffffffffffffffffffffffffffff820361226557612264611fbb565b5b600182019050919050565b7f4e487b7100000000000000000000000000000000000000000000000000000000600052601260045260246000fd5b60006122aa826116ea565b91506122b5836116ea565b9250826122c5576122c4612270565b5b828204905092915050565b60006122db826116ea565b91506122e6836116ea565b9250826122f6576122f5612270565b5b828206905092915050565b7f4e487b7100000000000000000000000000000000000000000000000000000000600052603260045260246000fd5b600081519050919050565b600082825260208201905092915050565b600061235782612330565b612361818561233b565b9350612371818560208601611654565b61237a8161167e565b840191505092915050565b600060808201905061239a600083018761177f565b6123a7602083018661177f565b6123b46040830185611895565b81810360608301526123c6818461234c565b905095945050505050565b6000815190506123e0816115a9565b92915050565b6000602082840312156123fc576123fb611573565b5b600061240a848285016123d1565b9150509291505056fea2646970667358221220e9389d6c858acceec6813414802397a02a5577a72e8cfe800f0eb5d7ae40f1d264736f6c63430008110033",
  "linkReferences": {},
  "deployedLinkReferences": {}
}