{
  "_format": "hh-sol-artifact-1",
  "contractName": "KYCERC721Votes",
  "sourceName": "contracts/KYCERC721Votes.sol",
  "abi": [
    {
      "inputs": [
        {
          "internalType": "contract IERC721Metadata",
          "name": "oldERC721",
          "type": "address"
        },
        {
          "internalType": "contract IBalanceOf",
          "name": "kycToken",
          "type": "address"
        }
      ],
      "stateMutability": "nonpayable",
      "type": "constructor"
    },
    {
      "anonymous": false,
      "inputs": [
        {
          "indexed": true,
          "internalType": "address",
          "name": "owner",
          "type": "address"
        },
        {
          "indexed": true,
          "internalType": "address",
          "name": "approved",
          "type": "address"
        },
        {
          "indexed": true,
          "internalType": "uint256",
          "name": "tokenId",
          "type": "uint256"
        }
      ],
      "name": "Approval",
      "type": "event"
    },
    {
      "anonymous": false,
      "inputs": [
        {
          "indexed": true,
          "internalType": "address",
          "name": "owner",
          "type": "address"
        },
        {
          "indexed": true,
          "internalType": "address",
          "name": "operator",
          "type": "address"
        },
        {
          "indexed": false,
          "internalType": "bool",
          "name": "approved",
          "type": "bool"
        }
      ],
      "name": "ApprovalForAll",
      "type": "event"
    },
    {
      "anonymous": false,
      "inputs": [
        {
          "indexed": true,
          "internalType": "address",
          "name": "delegator",
          "type": "address"
        },
        {
          "indexed": true,
          "internalType": "address",
          "name": "fromDelegate",
          "type": "address"
        },
        {
          "indexed": true,
          "internalType": "address",
          "name": "toDelegate",
          "type": "address"
        }
      ],
      "name": "DelegateChanged",
      "type": "event"
    },
    {
      "anonymous": false,
      "inputs": [
        {
          "indexed": true,
          "internalType": "address",
          "name": "delegate",
          "type": "address"
        },
        {
          "indexed": false,
          "internalType": "uint256",
          "name": "previousBalance",
          "type": "uint256"
        },
        {
          "indexed": false,
          "internalType": "uint256",
          "name": "newBalance",
          "type": "uint256"
        }
      ],
      "name": "DelegateVotesChanged",
      "type": "event"
    },
    {
      "anonymous": false,
      "inputs": [
        {
          "indexed": true,
          "internalType": "address",
          "name": "from",
          "type": "address"
        },
        {
          "indexed": true,
          "internalType": "address",
          "name": "to",
          "type": "address"
        },
        {
          "indexed": true,
          "internalType": "uint256",
          "name": "tokenId",
          "type": "uint256"
        }
      ],
      "name": "Transfer",
      "type": "event"
    },
    {
      "inputs": [],
      "name": "DOMAIN_SEPARATOR",
      "outputs": [
        {
          "internalType": "bytes32",
          "name": "",
          "type": "bytes32"
        }
      ],
      "stateMutability": "view",
      "type": "function"
    },
    {
      "inputs": [],
      "name": "_oldERC721",
      "outputs": [
        {
          "internalType": "contract IERC721Metadata",
          "name": "",
          "type": "address"
        }
      ],
      "stateMutability": "view",
      "type": "function"
    },
    {
      "inputs": [
        {
          "internalType": "address",
          "name": "to",
          "type": "address"
        },
        {
          "internalType": "uint256",
          "name": "tokenId",
          "type": "uint256"
        }
      ],
      "name": "approve",
      "outputs": [],
      "stateMutability": "nonpayable",
      "type": "function"
    },
    {
      "inputs": [
        {
          "internalType": "address",
          "name": "owner",
          "type": "address"
        }
      ],
      "name": "balanceOf",
      "outputs": [
        {
          "internalType": "uint256",
          "name": "",
          "type": "uint256"
        }
      ],
      "stateMutability": "view",
      "type": "function"
    },
    {
      "inputs": [
        {
          "internalType": "address",
          "name": "delegatee",
          "type": "address"
        }
      ],
      "name": "delegate",
      "outputs": [],
      "stateMutability": "nonpayable",
      "type": "function"
    },
    {
      "inputs": [
        {
          "internalType": "address",
          "name": "delegatee",
          "type": "address"
        },
        {
          "internalType": "uint256",
          "name": "nonce",
          "type": "uint256"
        },
        {
          "internalType": "uint256",
          "name": "expiry",
          "type": "uint256"
        },
        {
          "internalType": "uint8",
          "name": "v",
          "type": "uint8"
        },
        {
          "internalType": "bytes32",
          "name": "r",
          "type": "bytes32"
        },
        {
          "internalType": "bytes32",
          "name": "s",
          "type": "bytes32"
        }
      ],
      "name": "delegateBySig",
      "outputs": [],
      "stateMutability": "nonpayable",
      "type": "function"
    },
    {
      "inputs": [
        {
          "internalType": "address",
          "name": "account",
          "type": "address"
        }
      ],
      "name": "delegates",
      "outputs": [
        {
          "internalType": "address",
          "name": "",
          "type": "address"
        }
      ],
      "stateMutability": "view",
      "type": "function"
    },
    {
      "inputs": [
        {
          "internalType": "uint256",
          "name": "tokenId",
          "type": "uint256"
        }
      ],
      "name": "getApproved",
      "outputs": [
        {
          "internalType": "address",
          "name": "",
          "type": "address"
        }
      ],
      "stateMutability": "view",
      "type": "function"
    },
    {
      "inputs": [
        {
          "internalType": "uint256",
          "name": "blockNumber",
          "type": "uint256"
        }
      ],
      "name": "getPastTotalSupply",
      "outputs": [
        {
          "internalType": "uint256",
          "name": "",
          "type": "uint256"
        }
      ],
      "stateMutability": "view",
      "type": "function"
    },
    {
      "inputs": [
        {
          "internalType": "address",
          "name": "account",
          "type": "address"
        },
        {
          "internalType": "uint256",
          "name": "blockNumber",
          "type": "uint256"
        }
      ],
      "name": "getPastVotes",
      "outputs": [
        {
          "internalType": "uint256",
          "name": "",
          "type": "uint256"
        }
      ],
      "stateMutability": "view",
      "type": "function"
    },
    {
      "inputs": [
        {
          "internalType": "address",
          "name": "account",
          "type": "address"
        }
      ],
      "name": "getVotes",
      "outputs": [
        {
          "internalType": "uint256",
          "name": "",
          "type": "uint256"
        }
      ],
      "stateMutability": "view",
      "type": "function"
    },
    {
      "inputs": [
        {
          "internalType": "address",
          "name": "owner",
          "type": "address"
        },
        {
          "internalType": "address",
          "name": "operator",
          "type": "address"
        }
      ],
      "name": "isApprovedForAll",
      "outputs": [
        {
          "internalType": "bool",
          "name": "",
          "type": "bool"
        }
      ],
      "stateMutability": "view",
      "type": "function"
    },
    {
      "inputs": [
        {
          "internalType": "uint256",
          "name": "tokenID",
          "type": "uint256"
        }
      ],
      "name": "lock",
      "outputs": [],
      "stateMutability": "nonpayable",
      "type": "function"
    },
    {
      "inputs": [],
      "name": "name",
      "outputs": [
        {
          "internalType": "string",
          "name": "",
          "type": "string"
        }
      ],
      "stateMutability": "view",
      "type": "function"
    },
    {
      "inputs": [
        {
          "internalType": "address",
          "name": "owner",
          "type": "address"
        }
      ],
      "name": "nonces",
      "outputs": [
        {
          "internalType": "uint256",
          "name": "",
          "type": "uint256"
        }
      ],
      "stateMutability": "view",
      "type": "function"
    },
    {
      "inputs": [
        {
          "internalType": "uint256",
          "name": "tokenId",
          "type": "uint256"
        }
      ],
      "name": "ownerOf",
      "outputs": [
        {
          "internalType": "address",
          "name": "",
          "type": "address"
        }
      ],
      "stateMutability": "view",
      "type": "function"
    },
    {
      "inputs": [
        {
          "internalType": "uint256",
          "name": "tokenID",
          "type": "uint256"
        }
      ],
      "name": "release",
      "outputs": [],
      "stateMutability": "nonpayable",
      "type": "function"
    },
    {
      "inputs": [
        {
          "internalType": "address",
          "name": "from",
          "type": "address"
        },
        {
          "internalType": "address",
          "name": "to",
          "type": "address"
        },
        {
          "internalType": "uint256",
          "name": "tokenId",
          "type": "uint256"
        }
      ],
      "name": "safeTransferFrom",
      "outputs": [],
      "stateMutability": "nonpayable",
      "type": "function"
    },
    {
      "inputs": [
        {
          "internalType": "address",
          "name": "from",
          "type": "address"
        },
        {
          "internalType": "address",
          "name": "to",
          "type": "address"
        },
        {
          "internalType": "uint256",
          "name": "tokenId",
          "type": "uint256"
        },
        {
          "internalType": "bytes",
          "name": "data",
          "type": "bytes"
        }
      ],
      "name": "safeTransferFrom",
      "outputs": [],
      "stateMutability": "nonpayable",
      "type": "function"
    },
    {
      "inputs": [
        {
          "internalType": "address",
          "name": "operator",
          "type": "address"
        },
        {
          "internalType": "bool",
          "name": "approved",
          "type": "bool"
        }
      ],
      "name": "setApprovalForAll",
      "outputs": [],
      "stateMutability": "nonpayable",
      "type": "function"
    },
    {
      "inputs": [
        {
          "internalType": "bytes4",
          "name": "interfaceId",
          "type": "bytes4"
        }
      ],
      "name": "supportsInterface",
      "outputs": [
        {
          "internalType": "bool",
          "name": "",
          "type": "bool"
        }
      ],
      "stateMutability": "view",
      "type": "function"
    },
    {
      "inputs": [],
      "name": "symbol",
      "outputs": [
        {
          "internalType": "string",
          "name": "",
          "type": "string"
        }
      ],
      "stateMutability": "view",
      "type": "function"
    },
    {
      "inputs": [
        {
          "internalType": "uint256",
          "name": "tokenId",
          "type": "uint256"
        }
      ],
      "name": "tokenURI",
      "outputs": [
        {
          "internalType": "string",
          "name": "",
          "type": "string"
        }
      ],
      "stateMutability": "view",
      "type": "function"
    },
    {
      "inputs": [
        {
          "internalType": "address",
          "name": "from",
          "type": "address"
        },
        {
          "internalType": "address",
          "name": "to",
          "type": "address"
        },
        {
          "internalType": "uint256",
          "name": "tokenId",
          "type": "uint256"
        }
      ],
      "name": "transferFrom",
      "outputs": [],
      "stateMutability": "nonpayable",
      "type": "function"
    }
  ],
  "bytecode": "0x6101406040523480156200001257600080fd5b5060405162002a0038038062002a00833981016040819052620000359162000285565b80826001600160a01b03166306fdde036040518163ffffffff1660e01b8152600401600060405180830381865afa15801562000075573d6000803e3d6000fd5b505050506040513d6000823e601f3d908101601f191682016040526200009f9190810190620002da565b604051806040016040528060018152602001603160f81b815250846001600160a01b03166306fdde036040518163ffffffff1660e01b8152600401600060405180830381865afa158015620000f8573d6000803e3d6000fd5b505050506040513d6000823e601f3d908101601f19168201604052620001229190810190620002da565b856001600160a01b03166395d89b416040518163ffffffff1660e01b8152600401600060405180830381865afa15801562000161573d6000803e3d6000fd5b505050506040513d6000823e601f3d908101601f191682016040526200018b9190810190620002da565b60006200019983826200043e565b506001620001a882826200043e565b5050825160209384012082519284019290922060e08390526101008190524660a0818152604080517f8b73c3c69bb8fe3d512ecc4cf759cc79239f7b179b0ffacaa9a75d522b39400f818901819052818301979097526060810194909452608080850193909352308483018190528151808603909301835260c094850190915281519190960120905292909252610120525050600a8054600b80546001600160a01b03199081166001600160a01b039687161790915516919092161790556200050a565b6001600160a01b03811681146200028257600080fd5b50565b600080604083850312156200029957600080fd5b8251620002a6816200026c565b6020840151909250620002b9816200026c565b809150509250929050565b634e487b7160e01b600052604160045260246000fd5b60006020808385031215620002ee57600080fd5b82516001600160401b03808211156200030657600080fd5b818501915085601f8301126200031b57600080fd5b815181811115620003305762000330620002c4565b604051601f8201601f19908116603f011681019083821181831017156200035b576200035b620002c4565b8160405282815288868487010111156200037457600080fd5b600093505b8284101562000398578484018601518185018701529285019262000379565b600086848301015280965050505050505092915050565b600181811c90821680620003c457607f821691505b602082108103620003e557634e487b7160e01b600052602260045260246000fd5b50919050565b601f8211156200043957600081815260208120601f850160051c81016020861015620004145750805b601f850160051c820191505b81811015620004355782815560010162000420565b5050505b505050565b81516001600160401b038111156200045a576200045a620002c4565b62000472816200046b8454620003af565b84620003eb565b602080601f831160018114620004aa5760008415620004915750858301515b600019600386901b1c1916600185901b17855562000435565b600085815260208120601f198616915b82811015620004db57888601518255948401946001909101908401620004ba565b5085821015620004fa5787850151600019600388901b60f8161c191681555b5050505050600190811b01905550565b60805160a05160c05160e05161010051610120516124a66200055a6000396000610e2b01526000610e7a01526000610e5501526000610dae01526000610dd801526000610e0201526124a66000f3fe608060405234801561001057600080fd5b50600436106101585760003560e01c806370a08231116100c3578063a22cb4651161007c578063a22cb465146102f5578063b88d4fde14610308578063c3cda5201461031b578063c87b56dd1461032e578063dd46706414610341578063e985e9c51461035457600080fd5b806370a082311461028e5780637ecebe00146102a15780638e539e8c146102b457806395d89b41146102c75780639ab24eb0146102cf5780639c6d0f21146102e257600080fd5b806337bdc99b1161011557806337bdc99b146102035780633a46b1a81461021657806342842e0e14610229578063587cde1e1461023c5780635c19a95c146102685780636352211e1461027b57600080fd5b806301ffc9a71461015d57806306fdde0314610185578063081812fc1461019a578063095ea7b3146101c557806323b872dd146101da5780633644e515146101ed575b600080fd5b61017061016b366004611f44565b610390565b60405190151581526020015b60405180910390f35b61018d6103e2565b60405161017c9190611fb1565b6101ad6101a8366004611fc4565b610474565b6040516001600160a01b03909116815260200161017c565b6101d86101d3366004611ff9565b61049b565b005b6101d86101e8366004612023565b6105b5565b6101f56105e6565b60405190815260200161017c565b6101d8610211366004611fc4565b6105f5565b6101f5610224366004611ff9565b61066b565b6101d8610237366004612023565b610694565b6101ad61024a36600461205f565b6001600160a01b039081166000908152600660205260409020541690565b6101d861027636600461205f565b6106af565b6101ad610289366004611fc4565b6106be565b6101f561029c36600461205f565b61071e565b6101f56102af36600461205f565b6107a4565b6101f56102c2366004611fc4565b6107c2565b61018d61081e565b6101f56102dd36600461205f565b61082d565b600b546101ad906001600160a01b031681565b6101d861030336600461207a565b61084e565b6101d86103163660046120cc565b610859565b6101d86103293660046121a8565b610891565b61018d61033c366004611fc4565b6109be565b6101d861034f366004611fc4565b610a31565b610170610362366004612208565b6001600160a01b03918216600090815260056020908152604080832093909416825291909152205460ff1690565b60006001600160e01b031982166380ac58cd60e01b14806103c157506001600160e01b03198216635b5e139f60e01b145b806103dc57506301ffc9a760e01b6001600160e01b03198316145b92915050565b6060600080546103f19061223b565b80601f016020809104026020016040519081016040528092919081815260200182805461041d9061223b565b801561046a5780601f1061043f5761010080835404028352916020019161046a565b820191906000526020600020905b81548152906001019060200180831161044d57829003601f168201915b5050505050905090565b600061047f82610aa8565b506000908152600460205260409020546001600160a01b031690565b60006104a6826106be565b9050806001600160a01b0316836001600160a01b0316036105185760405162461bcd60e51b815260206004820152602160248201527f4552433732313a20617070726f76616c20746f2063757272656e74206f776e656044820152603960f91b60648201526084015b60405180910390fd5b336001600160a01b038216148061053457506105348133610362565b6105a65760405162461bcd60e51b815260206004820152603e60248201527f4552433732313a20617070726f76652063616c6c6572206973206e6f7420746f60448201527f6b656e206f776e6572206e6f7220617070726f76656420666f7220616c6c0000606482015260840161050f565b6105b08383610b07565b505050565b6105bf3382610b75565b6105db5760405162461bcd60e51b815260040161050f9061226f565b6105b0838383610bf4565b60006105f0610da1565b905090565b6105fe81610ec8565b600b54604051632142170760e11b8152306004820152336024820152604481018390526001600160a01b03909116906342842e0e90606401600060405180830381600087803b15801561065057600080fd5b505af1158015610664573d6000803e3d6000fd5b5050505050565b6001600160a01b038216600090815260076020526040812061068d9083610f77565b9392505050565b6105b083838360405180602001604052806000815250610859565b336106ba8183611086565b5050565b6000818152600260205260408120546001600160a01b0316806103dc5760405162461bcd60e51b8152602060048201526018602482015277115490cdcc8c4e881a5b9d985b1a59081d1bdad95b88125160421b604482015260640161050f565b60006001600160a01b0382166107885760405162461bcd60e51b815260206004820152602960248201527f4552433732313a2061646472657373207a65726f206973206e6f7420612076616044820152683634b21037bbb732b960b91b606482015260840161050f565b506001600160a01b031660009081526003602052604090205490565b6001600160a01b0381166000908152600960205260408120546103dc565b60004382106108135760405162461bcd60e51b815260206004820152601a60248201527f566f7465733a20626c6f636b206e6f7420796574206d696e6564000000000000604482015260640161050f565b6103dc600883610f77565b6060600180546103f19061223b565b6001600160a01b03811660009081526007602052604081206103dc906110f8565b6106ba338383611154565b6108633383610b75565b61087f5760405162461bcd60e51b815260040161050f9061226f565b61088b84848484611222565b50505050565b834211156108e15760405162461bcd60e51b815260206004820152601860248201527f566f7465733a207369676e617475726520657870697265640000000000000000604482015260640161050f565b604080517fe48329057bfd03d55e49b547132e39cffd9c1820ad7b9d4c5307691425d15adf60208201526001600160a01b03881691810191909152606081018690526080810185905260009061095b906109539060a00160405160208183030381529060405280519060200120611255565b8585856112a3565b9050610966816112cb565b86146109ab5760405162461bcd60e51b8152602060048201526014602482015273566f7465733a20696e76616c6964206e6f6e636560601b604482015260640161050f565b6109b58188611086565b50505050505050565b60606109c982610aa8565b60006109e060408051602081019091526000815290565b90506000815111610a00576040518060200160405280600081525061068d565b80610a0a846112f3565b604051602001610a1b9291906122bd565b6040516020818303038152906040529392505050565b600b54604051632142170760e11b8152336004820152306024820152604481018390526001600160a01b03909116906342842e0e90606401600060405180830381600087803b158015610a8357600080fd5b505af1158015610a97573d6000803e3d6000fd5b50505050610aa533826113f4565b50565b6000818152600260205260409020546001600160a01b0316610aa55760405162461bcd60e51b8152602060048201526018602482015277115490cdcc8c4e881a5b9d985b1a59081d1bdad95b88125160421b604482015260640161050f565b600081815260046020526040902080546001600160a01b0319166001600160a01b0384169081179091558190610b3c826106be565b6001600160a01b03167f8c5be1e5ebec7d5bd14f71427d1e84f3dd0314c0f7b2291e5b200ac8c7c3b92560405160405180910390a45050565b600080610b81836106be565b9050806001600160a01b0316846001600160a01b03161480610bc857506001600160a01b0380821660009081526005602090815260408083209388168352929052205460ff165b80610bec5750836001600160a01b0316610be184610474565b6001600160a01b0316145b949350505050565b826001600160a01b0316610c07826106be565b6001600160a01b031614610c6b5760405162461bcd60e51b815260206004820152602560248201527f4552433732313a207472616e736665722066726f6d20696e636f72726563742060448201526437bbb732b960d91b606482015260840161050f565b6001600160a01b038216610ccd5760405162461bcd60e51b8152602060048201526024808201527f4552433732313a207472616e7366657220746f20746865207a65726f206164646044820152637265737360e01b606482015260840161050f565b610cd883838361140e565b610ce3600082610b07565b6001600160a01b0383166000908152600360205260408120805460019290610d0c908490612302565b90915550506001600160a01b0382166000908152600360205260408120805460019290610d3a908490612315565b909155505060008181526002602052604080822080546001600160a01b0319166001600160a01b0386811691821790925591518493918716917fddf252ad1be2c89b69c2b068fc378daa952ba7f163c4a11628f55a4df523b3ef91a46105b0838383611418565b6000306001600160a01b037f000000000000000000000000000000000000000000000000000000000000000016148015610dfa57507f000000000000000000000000000000000000000000000000000000000000000046145b15610e2457507f000000000000000000000000000000000000000000000000000000000000000090565b50604080517f00000000000000000000000000000000000000000000000000000000000000006020808301919091527f0000000000000000000000000000000000000000000000000000000000000000828401527f000000000000000000000000000000000000000000000000000000000000000060608301524660808301523060a0808401919091528351808403909101815260c0909201909252805191012090565b6000610ed3826106be565b9050610ee18160008461140e565b610eec600083610b07565b6001600160a01b0381166000908152600360205260408120805460019290610f15908490612302565b909155505060008281526002602052604080822080546001600160a01b0319169055518391906001600160a01b038416907fddf252ad1be2c89b69c2b068fc378daa952ba7f163c4a11628f55a4df523b3ef908390a46106ba81600084611418565b6000438210610fc85760405162461bcd60e51b815260206004820181905260248201527f436865636b706f696e74733a20626c6f636b206e6f7420796574206d696e6564604482015260640161050f565b825460005b8181101561102d576000610fe18284611423565b905084866000018281548110610ff957610ff9612328565b60009182526020909120015463ffffffff16111561101957809250611027565b611024816001612315565b91505b50610fcd565b8115611071578461103f600184612302565b8154811061104f5761104f612328565b60009182526020909120015464010000000090046001600160e01b0316611074565b60005b6001600160e01b031695945050505050565b6001600160a01b0382811660008181526006602052604080822080548686166001600160a01b0319821681179092559151919094169392849290917f3134e8a2e6d97e929a7e54011ea5485d7d196dd5f0ba4d4ef95803e8e3fc257f9190a46105b081836110f38661143e565b611449565b80546000908015611141578261110f600183612302565b8154811061111f5761111f612328565b60009182526020909120015464010000000090046001600160e01b0316611144565b60005b6001600160e01b03169392505050565b816001600160a01b0316836001600160a01b0316036111b55760405162461bcd60e51b815260206004820152601960248201527f4552433732313a20617070726f766520746f2063616c6c657200000000000000604482015260640161050f565b6001600160a01b03838116600081815260056020908152604080832094871680845294825291829020805460ff191686151590811790915591519182527f17307eab39ab6107e8899845ad3d59bd9653f200f220920489ca2b5937696c31910160405180910390a3505050565b61122d848484610bf4565b61123984848484611586565b61088b5760405162461bcd60e51b815260040161050f9061233e565b60006103dc611262610da1565b8360405161190160f01b6020820152602281018390526042810182905260009060620160405160208183030381529060405280519060200120905092915050565b60008060006112b487878787611684565b915091506112c181611771565b5095945050505050565b6001600160a01b03811660009081526009602052604090208054600181018255905b50919050565b60608160000361131a5750506040805180820190915260018152600360fc1b602082015290565b8160005b8115611344578061132e81612390565b915061133d9050600a836123bf565b915061131e565b60008167ffffffffffffffff81111561135f5761135f6120b6565b6040519080825280601f01601f191660200182016040528015611389576020820181803683370190505b5090505b8415610bec5761139e600183612302565b91506113ab600a866123d3565b6113b6906030612315565b60f81b8183815181106113cb576113cb612328565b60200101906001600160f81b031916908160001a9053506113ed600a866123bf565b945061138d565b6106ba828260405180602001604052806000815250611927565b6105b0838361195a565b6105b0838383611b1e565b600061143260028484186123bf565b61068d90848416612315565b60006103dc8261071e565b816001600160a01b0316836001600160a01b03161415801561146b5750600081115b156105b0576001600160a01b038316156114f9576001600160a01b038316600090815260076020526040812081906114a690611b2a85611b36565b91509150846001600160a01b03167fdec2bacdd2f05b59de34da9b523dff8be42e5e38e818c82fdb0bae774387a72483836040516114ee929190918252602082015260400190565b60405180910390a250505b6001600160a01b038216156105b0576001600160a01b0382166000908152600760205260408120819061152f90611b6485611b36565b91509150836001600160a01b03167fdec2bacdd2f05b59de34da9b523dff8be42e5e38e818c82fdb0bae774387a7248383604051611577929190918252602082015260400190565b60405180910390a25050505050565b60006001600160a01b0384163b1561167c57604051630a85bd0160e11b81526001600160a01b0385169063150b7a02906115ca9033908990889088906004016123e7565b6020604051808303816000875af1925050508015611605575060408051601f3d908101601f1916820190925261160291810190612424565b60015b611662573d808015611633576040519150601f19603f3d011682016040523d82523d6000602084013e611638565b606091505b50805160000361165a5760405162461bcd60e51b815260040161050f9061233e565b805181602001fd5b6001600160e01b031916630a85bd0160e11b149050610bec565b506001610bec565b6000807f7fffffffffffffffffffffffffffffff5d576e7357a4501ddfe92f46681b20a08311156116bb5750600090506003611768565b8460ff16601b141580156116d357508460ff16601c14155b156116e45750600090506004611768565b6040805160008082526020820180845289905260ff881692820192909252606081018690526080810185905260019060a0016020604051602081039080840390855afa158015611738573d6000803e3d6000fd5b5050604051601f1901519150506001600160a01b03811661176157600060019250925050611768565b9150600090505b94509492505050565b600081600481111561178557611785612441565b0361178d5750565b60018160048111156117a1576117a1612441565b036117ee5760405162461bcd60e51b815260206004820152601860248201527f45434453413a20696e76616c6964207369676e61747572650000000000000000604482015260640161050f565b600281600481111561180257611802612441565b0361184f5760405162461bcd60e51b815260206004820152601f60248201527f45434453413a20696e76616c6964207369676e6174757265206c656e67746800604482015260640161050f565b600381600481111561186357611863612441565b036118bb5760405162461bcd60e51b815260206004820152602260248201527f45434453413a20696e76616c6964207369676e6174757265202773272076616c604482015261756560f01b606482015260840161050f565b60048160048111156118cf576118cf612441565b03610aa55760405162461bcd60e51b815260206004820152602260248201527f45434453413a20696e76616c6964207369676e6174757265202776272076616c604482015261756560f01b606482015260840161050f565b6119318383611b70565b61193e6000848484611586565b6105b05760405162461bcd60e51b815260040161050f9061233e565b6001600160a01b03821615806119795750600a546001600160a01b0316155b806119f05750600a546040516370a0823160e01b81526001600160a01b03848116600483015260009216906370a0823190602401602060405180830381865afa1580156119ca573d6000803e3d6000fd5b505050506040513d601f19601f820116820180604052508101906119ee9190612457565b115b611a3c5760405162461bcd60e51b815260206004820152601d60248201527f73656e64657220646f65736e27742068617665204b594320746f6b656e000000604482015260640161050f565b6001600160a01b0381161580611a5b5750600a546001600160a01b0316155b80611ad25750600a546040516370a0823160e01b81526001600160a01b03838116600483015260009216906370a0823190602401602060405180830381865afa158015611aac573d6000803e3d6000fd5b505050506040513d601f19601f82011682018060405250810190611ad09190612457565b115b6106ba5760405162461bcd60e51b815260206004820181905260248201527f726563697069656e7420646f65736e27742068617665204b594320746f6b656e604482015260640161050f565b6105b083836001611cc6565b600061068d8284612302565b600080611b5885611b53611b49886110f8565b868863ffffffff16565b611d36565b91509150935093915050565b600061068d8284612315565b6001600160a01b038216611bc65760405162461bcd60e51b815260206004820181905260248201527f4552433732313a206d696e7420746f20746865207a65726f2061646472657373604482015260640161050f565b6000818152600260205260409020546001600160a01b031615611c2b5760405162461bcd60e51b815260206004820152601c60248201527f4552433732313a20746f6b656e20616c7265616479206d696e74656400000000604482015260640161050f565b611c376000838361140e565b6001600160a01b0382166000908152600360205260408120805460019290611c60908490612315565b909155505060008181526002602052604080822080546001600160a01b0319166001600160a01b03861690811790915590518392907fddf252ad1be2c89b69c2b068fc378daa952ba7f163c4a11628f55a4df523b3ef908290a46106ba60008383611418565b6001600160a01b038316611ce557611ce26008611b6483611b36565b50505b6001600160a01b038216611d0457611d016008611b2a83611b36565b50505b6001600160a01b038381166000908152600660205260408082205485841683529120546105b092918216911683611449565b8154600090819081611d47866110f8565b9050600082118015611d8557504386611d61600185612302565b81548110611d7157611d71612328565b60009182526020909120015463ffffffff16145b15611de557611d9385611e5c565b86611d9f600185612302565b81548110611daf57611daf612328565b9060005260206000200160000160046101000a8154816001600160e01b0302191690836001600160e01b03160217905550611e53565b856000016040518060400160405280611dfd43611ec9565b63ffffffff168152602001611e1188611e5c565b6001600160e01b0390811690915282546001810184556000938452602093849020835194909301519091166401000000000263ffffffff909316929092179101555b95939450505050565b60006001600160e01b03821115611ec55760405162461bcd60e51b815260206004820152602760248201527f53616665436173743a2076616c756520646f65736e27742066697420696e20326044820152663234206269747360c81b606482015260840161050f565b5090565b600063ffffffff821115611ec55760405162461bcd60e51b815260206004820152602660248201527f53616665436173743a2076616c756520646f65736e27742066697420696e203360448201526532206269747360d01b606482015260840161050f565b6001600160e01b031981168114610aa557600080fd5b600060208284031215611f5657600080fd5b813561068d81611f2e565b60005b83811015611f7c578181015183820152602001611f64565b50506000910152565b60008151808452611f9d816020860160208601611f61565b601f01601f19169290920160200192915050565b60208152600061068d6020830184611f85565b600060208284031215611fd657600080fd5b5035919050565b80356001600160a01b0381168114611ff457600080fd5b919050565b6000806040838503121561200c57600080fd5b61201583611fdd565b946020939093013593505050565b60008060006060848603121561203857600080fd5b61204184611fdd565b925061204f60208501611fdd565b9150604084013590509250925092565b60006020828403121561207157600080fd5b61068d82611fdd565b6000806040838503121561208d57600080fd5b61209683611fdd565b9150602083013580151581146120ab57600080fd5b809150509250929050565b634e487b7160e01b600052604160045260246000fd5b600080600080608085870312156120e257600080fd5b6120eb85611fdd565b93506120f960208601611fdd565b925060408501359150606085013567ffffffffffffffff8082111561211d57600080fd5b818701915087601f83011261213157600080fd5b813581811115612143576121436120b6565b604051601f8201601f19908116603f0116810190838211818310171561216b5761216b6120b6565b816040528281528a602084870101111561218457600080fd5b82602086016020830137600060208483010152809550505050505092959194509250565b60008060008060008060c087890312156121c157600080fd5b6121ca87611fdd565b95506020870135945060408701359350606087013560ff811681146121ee57600080fd5b9598949750929560808101359460a0909101359350915050565b6000806040838503121561221b57600080fd5b61222483611fdd565b915061223260208401611fdd565b90509250929050565b600181811c9082168061224f57607f821691505b6020821081036112ed57634e487b7160e01b600052602260045260246000fd5b6020808252602e908201527f4552433732313a2063616c6c6572206973206e6f7420746f6b656e206f776e6560408201526d1c881b9bdc88185c1c1c9bdd995960921b606082015260800190565b600083516122cf818460208801611f61565b8351908301906122e3818360208801611f61565b01949350505050565b634e487b7160e01b600052601160045260246000fd5b818103818111156103dc576103dc6122ec565b808201808211156103dc576103dc6122ec565b634e487b7160e01b600052603260045260246000fd5b60208082526032908201527f4552433732313a207472616e7366657220746f206e6f6e20455243373231526560408201527131b2b4bb32b91034b6b83632b6b2b73a32b960711b606082015260800190565b6000600182016123a2576123a26122ec565b5060010190565b634e487b7160e01b600052601260045260246000fd5b6000826123ce576123ce6123a9565b500490565b6000826123e2576123e26123a9565b500690565b6001600160a01b038581168252841660208201526040810183905260806060820181905260009061241a90830184611f85565b9695505050505050565b60006020828403121561243657600080fd5b815161068d81611f2e565b634e487b7160e01b600052602160045260246000fd5b60006020828403121561246957600080fd5b505191905056fea2646970667358221220a8989540940ee0b7c95a294db1db1ba04fa0ab8ff59c367909db3c9ca7c1517c64736f6c63430008110033",
  "linkReferences": {},
  "deployedLinkReferences": {}
}