{
  "_format": "hh-sol-artifact-1",
  "contractName": "KYCERC20Votes",
  "sourceName": "contracts/KYCERC20Votes.sol",
  "abi": [
    {
      "inputs": [
        {
          "internalType": "contract IERC20Metadata",
          "name": "oldErc20",
          "type": "address"
        },
        {
          "internalType": "contract IBalanceOf",
          "name": "kycToken",
          "type": "address"
        }
      ],
      "stateMutability": "nonpayable",
      "type": "constructor"
    },
    {
      "anonymous": false,
      "inputs": [
        {
          "indexed": true,
          "internalType": "address",
          "name": "owner",
          "type": "address"
        },
        {
          "indexed": true,
          "internalType": "address",
          "name": "spender",
          "type": "address"
        },
        {
          "indexed": false,
          "internalType": "uint256",
          "name": "value",
          "type": "uint256"
        }
      ],
      "name": "Approval",
      "type": "event"
    },
    {
      "anonymous": false,
      "inputs": [
        {
          "indexed": true,
          "internalType": "address",
          "name": "delegator",
          "type": "address"
        },
        {
          "indexed": true,
          "internalType": "address",
          "name": "fromDelegate",
          "type": "address"
        },
        {
          "indexed": true,
          "internalType": "address",
          "name": "toDelegate",
          "type": "address"
        }
      ],
      "name": "DelegateChanged",
      "type": "event"
    },
    {
      "anonymous": false,
      "inputs": [
        {
          "indexed": true,
          "internalType": "address",
          "name": "delegate",
          "type": "address"
        },
        {
          "indexed": false,
          "internalType": "uint256",
          "name": "previousBalance",
          "type": "uint256"
        },
        {
          "indexed": false,
          "internalType": "uint256",
          "name": "newBalance",
          "type": "uint256"
        }
      ],
      "name": "DelegateVotesChanged",
      "type": "event"
    },
    {
      "anonymous": false,
      "inputs": [
        {
          "indexed": true,
          "internalType": "address",
          "name": "from",
          "type": "address"
        },
        {
          "indexed": true,
          "internalType": "address",
          "name": "to",
          "type": "address"
        },
        {
          "indexed": false,
          "internalType": "uint256",
          "name": "value",
          "type": "uint256"
        }
      ],
      "name": "Transfer",
      "type": "event"
    },
    {
      "inputs": [],
      "name": "DOMAIN_SEPARATOR",
      "outputs": [
        {
          "internalType": "bytes32",
          "name": "",
          "type": "bytes32"
        }
      ],
      "stateMutability": "view",
      "type": "function"
    },
    {
      "inputs": [],
      "name": "_oldERC20",
      "outputs": [
        {
          "internalType": "contract IERC20",
          "name": "",
          "type": "address"
        }
      ],
      "stateMutability": "view",
      "type": "function"
    },
    {
      "inputs": [
        {
          "internalType": "address",
          "name": "owner",
          "type": "address"
        },
        {
          "internalType": "address",
          "name": "spender",
          "type": "address"
        }
      ],
      "name": "allowance",
      "outputs": [
        {
          "internalType": "uint256",
          "name": "",
          "type": "uint256"
        }
      ],
      "stateMutability": "view",
      "type": "function"
    },
    {
      "inputs": [
        {
          "internalType": "address",
          "name": "spender",
          "type": "address"
        },
        {
          "internalType": "uint256",
          "name": "amount",
          "type": "uint256"
        }
      ],
      "name": "approve",
      "outputs": [
        {
          "internalType": "bool",
          "name": "",
          "type": "bool"
        }
      ],
      "stateMutability": "nonpayable",
      "type": "function"
    },
    {
      "inputs": [
        {
          "internalType": "address",
          "name": "account",
          "type": "address"
        }
      ],
      "name": "balanceOf",
      "outputs": [
        {
          "internalType": "uint256",
          "name": "",
          "type": "uint256"
        }
      ],
      "stateMutability": "view",
      "type": "function"
    },
    {
      "inputs": [
        {
          "internalType": "address",
          "name": "account",
          "type": "address"
        },
        {
          "internalType": "uint32",
          "name": "pos",
          "type": "uint32"
        }
      ],
      "name": "checkpoints",
      "outputs": [
        {
          "components": [
            {
              "internalType": "uint32",
              "name": "fromBlock",
              "type": "uint32"
            },
            {
              "internalType": "uint224",
              "name": "votes",
              "type": "uint224"
            }
          ],
          "internalType": "struct ERC20Votes.Checkpoint",
          "name": "",
          "type": "tuple"
        }
      ],
      "stateMutability": "view",
      "type": "function"
    },
    {
      "inputs": [],
      "name": "decimals",
      "outputs": [
        {
          "internalType": "uint8",
          "name": "",
          "type": "uint8"
        }
      ],
      "stateMutability": "view",
      "type": "function"
    },
    {
      "inputs": [
        {
          "internalType": "address",
          "name": "spender",
          "type": "address"
        },
        {
          "internalType": "uint256",
          "name": "subtractedValue",
          "type": "uint256"
        }
      ],
      "name": "decreaseAllowance",
      "outputs": [
        {
          "internalType": "bool",
          "name": "",
          "type": "bool"
        }
      ],
      "stateMutability": "nonpayable",
      "type": "function"
    },
    {
      "inputs": [
        {
          "internalType": "address",
          "name": "delegatee",
          "type": "address"
        }
      ],
      "name": "delegate",
      "outputs": [],
      "stateMutability": "nonpayable",
      "type": "function"
    },
    {
      "inputs": [
        {
          "internalType": "address",
          "name": "delegatee",
          "type": "address"
        },
        {
          "internalType": "uint256",
          "name": "nonce",
          "type": "uint256"
        },
        {
          "internalType": "uint256",
          "name": "expiry",
          "type": "uint256"
        },
        {
          "internalType": "uint8",
          "name": "v",
          "type": "uint8"
        },
        {
          "internalType": "bytes32",
          "name": "r",
          "type": "bytes32"
        },
        {
          "internalType": "bytes32",
          "name": "s",
          "type": "bytes32"
        }
      ],
      "name": "delegateBySig",
      "outputs": [],
      "stateMutability": "nonpayable",
      "type": "function"
    },
    {
      "inputs": [
        {
          "internalType": "address",
          "name": "account",
          "type": "address"
        }
      ],
      "name": "delegates",
      "outputs": [
        {
          "internalType": "address",
          "name": "",
          "type": "address"
        }
      ],
      "stateMutability": "view",
      "type": "function"
    },
    {
      "inputs": [
        {
          "internalType": "uint256",
          "name": "blockNumber",
          "type": "uint256"
        }
      ],
      "name": "getPastTotalSupply",
      "outputs": [
        {
          "internalType": "uint256",
          "name": "",
          "type": "uint256"
        }
      ],
      "stateMutability": "view",
      "type": "function"
    },
    {
      "inputs": [
        {
          "internalType": "address",
          "name": "account",
          "type": "address"
        },
        {
          "internalType": "uint256",
          "name": "blockNumber",
          "type": "uint256"
        }
      ],
      "name": "getPastVotes",
      "outputs": [
        {
          "internalType": "uint256",
          "name": "",
          "type": "uint256"
        }
      ],
      "stateMutability": "view",
      "type": "function"
    },
    {
      "inputs": [
        {
          "internalType": "address",
          "name": "account",
          "type": "address"
        }
      ],
      "name": "getVotes",
      "outputs": [
        {
          "internalType": "uint256",
          "name": "",
          "type": "uint256"
        }
      ],
      "stateMutability": "view",
      "type": "function"
    },
    {
      "inputs": [
        {
          "internalType": "address",
          "name": "spender",
          "type": "address"
        },
        {
          "internalType": "uint256",
          "name": "addedValue",
          "type": "uint256"
        }
      ],
      "name": "increaseAllowance",
      "outputs": [
        {
          "internalType": "bool",
          "name": "",
          "type": "bool"
        }
      ],
      "stateMutability": "nonpayable",
      "type": "function"
    },
    {
      "inputs": [
        {
          "internalType": "uint256",
          "name": "amount",
          "type": "uint256"
        }
      ],
      "name": "lock",
      "outputs": [],
      "stateMutability": "nonpayable",
      "type": "function"
    },
    {
      "inputs": [],
      "name": "name",
      "outputs": [
        {
          "internalType": "string",
          "name": "",
          "type": "string"
        }
      ],
      "stateMutability": "view",
      "type": "function"
    },
    {
      "inputs": [
        {
          "internalType": "address",
          "name": "owner",
          "type": "address"
        }
      ],
      "name": "nonces",
      "outputs": [
        {
          "internalType": "uint256",
          "name": "",
          "type": "uint256"
        }
      ],
      "stateMutability": "view",
      "type": "function"
    },
    {
      "inputs": [
        {
          "internalType": "address",
          "name": "account",
          "type": "address"
        }
      ],
      "name": "numCheckpoints",
      "outputs": [
        {
          "internalType": "uint32",
          "name": "",
          "type": "uint32"
        }
      ],
      "stateMutability": "view",
      "type": "function"
    },
    {
      "inputs": [
        {
          "internalType": "address",
          "name": "owner",
          "type": "address"
        },
        {
          "internalType": "address",
          "name": "spender",
          "type": "address"
        },
        {
          "internalType": "uint256",
          "name": "value",
          "type": "uint256"
        },
        {
          "internalType": "uint256",
          "name": "deadline",
          "type": "uint256"
        },
        {
          "internalType": "uint8",
          "name": "v",
          "type": "uint8"
        },
        {
          "internalType": "bytes32",
          "name": "r",
          "type": "bytes32"
        },
        {
          "internalType": "bytes32",
          "name": "s",
          "type": "bytes32"
        }
      ],
      "name": "permit",
      "outputs": [],
      "stateMutability": "nonpayable",
      "type": "function"
    },
    {
      "inputs": [
        {
          "internalType": "uint256",
          "name": "amount",
          "type": "uint256"
        }
      ],
      "name": "release",
      "outputs": [],
      "stateMutability": "nonpayable",
      "type": "function"
    },
    {
      "inputs": [],
      "name": "symbol",
      "outputs": [
        {
          "internalType": "string",
          "name": "",
          "type": "string"
        }
      ],
      "stateMutability": "view",
      "type": "function"
    },
    {
      "inputs": [],
      "name": "totalSupply",
      "outputs": [
        {
          "internalType": "uint256",
          "name": "",
          "type": "uint256"
        }
      ],
      "stateMutability": "view",
      "type": "function"
    },
    {
      "inputs": [
        {
          "internalType": "address",
          "name": "to",
          "type": "address"
        },
        {
          "internalType": "uint256",
          "name": "amount",
          "type": "uint256"
        }
      ],
      "name": "transfer",
      "outputs": [
        {
          "internalType": "bool",
          "name": "",
          "type": "bool"
        }
      ],
      "stateMutability": "nonpayable",
      "type": "function"
    },
    {
      "inputs": [
        {
          "internalType": "address",
          "name": "from",
          "type": "address"
        },
        {
          "internalType": "address",
          "name": "to",
          "type": "address"
        },
        {
          "internalType": "uint256",
          "name": "amount",
          "type": "uint256"
        }
      ],
      "name": "transferFrom",
      "outputs": [
        {
          "internalType": "bool",
          "name": "",
          "type": "bool"
        }
      ],
      "stateMutability": "nonpayable",
      "type": "function"
    }
  ],
  "bytecode": "0x6101406040523480156200001257600080fd5b5060405162004c0e38038062004c0e833981810160405281019062000038919062000488565b808273ffffffffffffffffffffffffffffffffffffffff166306fdde036040518163ffffffff1660e01b8152600401600060405180830381865afa15801562000085573d6000803e3d6000fd5b505050506040513d6000823e3d601f19601f82011682018060405250810190620000b091906200064e565b806040518060400160405280600181526020017f31000000000000000000000000000000000000000000000000000000000000008152508573ffffffffffffffffffffffffffffffffffffffff166306fdde036040518163ffffffff1660e01b8152600401600060405180830381865afa15801562000133573d6000803e3d6000fd5b505050506040513d6000823e3d601f19601f820116820180604052508101906200015e91906200064e565b8673ffffffffffffffffffffffffffffffffffffffff166395d89b416040518163ffffffff1660e01b8152600401600060405180830381865afa158015620001aa573d6000803e3d6000fd5b505050506040513d6000823e3d601f19601f82011682018060405250810190620001d591906200064e565b8160039081620001e69190620008ea565b508060049081620001f89190620008ea565b50505060008280519060200120905060008280519060200120905060007f8b73c3c69bb8fe3d512ecc4cf759cc79239f7b179b0ffacaa9a75d522b39400f90508260e081815250508161010081815250504660a08181525050620002648184846200037a60201b60201c565b608081815250503073ffffffffffffffffffffffffffffffffffffffff1660c08173ffffffffffffffffffffffffffffffffffffffff168152505080610120818152505050505050505080600a60006101000a81548173ffffffffffffffffffffffffffffffffffffffff021916908373ffffffffffffffffffffffffffffffffffffffff1602179055505081600b60006101000a81548173ffffffffffffffffffffffffffffffffffffffff021916908373ffffffffffffffffffffffffffffffffffffffff16021790555080600a60006101000a81548173ffffffffffffffffffffffffffffffffffffffff021916908373ffffffffffffffffffffffffffffffffffffffff160217905550505062000a6b565b600083838346306040516020016200039795949392919062000a0e565b6040516020818303038152906040528051906020012090509392505050565b6000604051905090565b600080fd5b600080fd5b600073ffffffffffffffffffffffffffffffffffffffff82169050919050565b6000620003f782620003ca565b9050919050565b60006200040b82620003ea565b9050919050565b6200041d81620003fe565b81146200042957600080fd5b50565b6000815190506200043d8162000412565b92915050565b60006200045082620003ea565b9050919050565b620004628162000443565b81146200046e57600080fd5b50565b600081519050620004828162000457565b92915050565b60008060408385031215620004a257620004a1620003c0565b5b6000620004b2858286016200042c565b9250506020620004c58582860162000471565b9150509250929050565b600080fd5b600080fd5b6000601f19601f8301169050919050565b7f4e487b7100000000000000000000000000000000000000000000000000000000600052604160045260246000fd5b6200052482620004d9565b810181811067ffffffffffffffff82111715620005465762000545620004ea565b5b80604052505050565b60006200055b620003b6565b905062000569828262000519565b919050565b600067ffffffffffffffff8211156200058c576200058b620004ea565b5b6200059782620004d9565b9050602081019050919050565b60005b83811015620005c4578082015181840152602081019050620005a7565b60008484015250505050565b6000620005e7620005e1846200056e565b6200054f565b905082815260208101848484011115620006065762000605620004d4565b5b62000613848285620005a4565b509392505050565b600082601f830112620006335762000632620004cf565b5b815162000645848260208601620005d0565b91505092915050565b600060208284031215620006675762000666620003c0565b5b600082015167ffffffffffffffff811115620006885762000687620003c5565b5b62000696848285016200061b565b91505092915050565b600081519050919050565b7f4e487b7100000000000000000000000000000000000000000000000000000000600052602260045260246000fd5b60006002820490506001821680620006f257607f821691505b602082108103620007085762000707620006aa565b5b50919050565b60008190508160005260206000209050919050565b60006020601f8301049050919050565b600082821b905092915050565b600060088302620007727fffffffffffffffffffffffffffffffffffffffffffffffffffffffffffffffff8262000733565b6200077e868362000733565b95508019841693508086168417925050509392505050565b6000819050919050565b6000819050919050565b6000620007cb620007c5620007bf8462000796565b620007a0565b62000796565b9050919050565b6000819050919050565b620007e783620007aa565b620007ff620007f682620007d2565b84845462000740565b825550505050565b600090565b6200081662000807565b62000823818484620007dc565b505050565b5b818110156200084b576200083f6000826200080c565b60018101905062000829565b5050565b601f8211156200089a5762000864816200070e565b6200086f8462000723565b810160208510156200087f578190505b620008976200088e8562000723565b83018262000828565b50505b505050565b600082821c905092915050565b6000620008bf600019846008026200089f565b1980831691505092915050565b6000620008da8383620008ac565b9150826002028217905092915050565b620008f5826200069f565b67ffffffffffffffff811115620009115762000910620004ea565b5b6200091d8254620006d9565b6200092a8282856200084f565b600060209050601f8311600181146200096257600084156200094d578287015190505b620009598582620008cc565b865550620009c9565b601f19841662000972866200070e565b60005b828110156200099c5784890151825560018201915060208501945060208101905062000975565b86831015620009bc5784890151620009b8601f891682620008ac565b8355505b6001600288020188555050505b505050505050565b6000819050919050565b620009e681620009d1565b82525050565b620009f78162000796565b82525050565b62000a0881620003ea565b82525050565b600060a08201905062000a256000830188620009db565b62000a346020830187620009db565b62000a436040830186620009db565b62000a526060830185620009ec565b62000a616080830184620009fd565b9695505050505050565b60805160a05160c05160e051610100516101205161415362000abb6000396000611612015260006116540152600061163301526000611568015260006115be015260006115e701526141536000f3fe608060405234801561001057600080fd5b50600436106101735760003560e01c80636fcfff45116100de578063a457c2d711610097578063d505accf11610071578063d505accf146104c0578063dd467064146104dc578063dd62ed3e146104f8578063f1127ed81461052857610173565b8063a457c2d714610444578063a9059cbb14610474578063c3cda520146104a457610173565b80636fcfff451461033657806370a08231146103665780637ecebe00146103965780638e539e8c146103c657806395d89b41146103f65780639ab24eb01461041457610173565b80633644e515116101305780633644e5151461025057806337bdc99b1461026e578063395093511461028a5780633a46b1a8146102ba578063587cde1e146102ea5780635c19a95c1461031a57610173565b806306fdde0314610178578063095ea7b31461019657806318160ddd146101c657806323b872dd146101e45780632af6b17f14610214578063313ce56714610232575b600080fd5b610180610558565b60405161018d9190612a5e565b60405180910390f35b6101b060048036038101906101ab9190612b19565b6105ea565b6040516101bd9190612b74565b60405180910390f35b6101ce61060d565b6040516101db9190612b9e565b60405180910390f35b6101fe60048036038101906101f99190612bb9565b610617565b60405161020b9190612b74565b60405180910390f35b61021c610646565b6040516102299190612c6b565b60405180910390f35b61023a61066c565b6040516102479190612ca2565b60405180910390f35b610258610675565b6040516102659190612cd6565b60405180910390f35b61028860048036038101906102839190612cf1565b610684565b005b6102a4600480360381019061029f9190612b19565b610734565b6040516102b19190612b74565b60405180910390f35b6102d460048036038101906102cf9190612b19565b61076b565b6040516102e19190612b9e565b60405180910390f35b61030460048036038101906102ff9190612d1e565b6107ff565b6040516103119190612d5a565b60405180910390f35b610334600480360381019061032f9190612d1e565b610868565b005b610350600480360381019061034b9190612d1e565b61087c565b60405161035d9190612d94565b60405180910390f35b610380600480360381019061037b9190612d1e565b6108d0565b60405161038d9190612b9e565b60405180910390f35b6103b060048036038101906103ab9190612d1e565b610918565b6040516103bd9190612b9e565b60405180910390f35b6103e060048036038101906103db9190612cf1565b610968565b6040516103ed9190612b9e565b60405180910390f35b6103fe6109be565b60405161040b9190612a5e565b60405180910390f35b61042e60048036038101906104299190612d1e565b610a50565b60405161043b9190612b9e565b60405180910390f35b61045e60048036038101906104599190612b19565b610b61565b60405161046b9190612b74565b60405180910390f35b61048e60048036038101906104899190612b19565b610bd8565b60405161049b9190612b74565b60405180910390f35b6104be60048036038101906104b99190612e07565b610bfb565b005b6104da60048036038101906104d59190612e94565b610cff565b005b6104f660048036038101906104f19190612cf1565b610e41565b005b610512600480360381019061050d9190612f36565b610ef1565b60405161051f9190612b9e565b60405180910390f35b610542600480360381019061053d9190612fa2565b610f78565b60405161054f9190613057565b60405180910390f35b606060038054610567906130a1565b80601f0160208091040260200160405190810160405280929190818152602001828054610593906130a1565b80156105e05780601f106105b5576101008083540402835291602001916105e0565b820191906000526020600020905b8154815290600101906020018083116105c357829003601f168201915b5050505050905090565b6000806105f5611088565b9050610602818585611090565b600191505092915050565b6000600254905090565b600080610622611088565b905061062f858285611259565b61063a8585856112e5565b60019150509392505050565b600b60009054906101000a900473ffffffffffffffffffffffffffffffffffffffff1681565b60006012905090565b600061067f611564565b905090565b61068e338261167e565b600b60009054906101000a900473ffffffffffffffffffffffffffffffffffffffff1673ffffffffffffffffffffffffffffffffffffffff166323b872dd3033846040518463ffffffff1660e01b81526004016106ed939291906130d2565b6020604051808303816000875af115801561070c573d6000803e3d6000fd5b505050506040513d601f19601f820116820180604052508101906107309190613135565b5050565b60008061073f611088565b90506107608185856107518589610ef1565b61075b9190613191565b611090565b600191505092915050565b60004382106107af576040517f08c379a00000000000000000000000000000000000000000000000000000000081526004016107a690613211565b60405180910390fd5b6107f7600860008573ffffffffffffffffffffffffffffffffffffffff1673ffffffffffffffffffffffffffffffffffffffff1681526020019081526020016000208361168c565b905092915050565b6000600760008373ffffffffffffffffffffffffffffffffffffffff1673ffffffffffffffffffffffffffffffffffffffff16815260200190815260200160002060009054906101000a900473ffffffffffffffffffffffffffffffffffffffff169050919050565b610879610873611088565b82611798565b50565b60006108c9600860008473ffffffffffffffffffffffffffffffffffffffff1673ffffffffffffffffffffffffffffffffffffffff168152602001908152602001600020805490506118b2565b9050919050565b60008060008373ffffffffffffffffffffffffffffffffffffffff1673ffffffffffffffffffffffffffffffffffffffff168152602001908152602001600020549050919050565b6000610961600560008473ffffffffffffffffffffffffffffffffffffffff1673ffffffffffffffffffffffffffffffffffffffff168152602001908152602001600020611905565b9050919050565b60004382106109ac576040517f08c379a00000000000000000000000000000000000000000000000000000000081526004016109a390613211565b60405180910390fd5b6109b760098361168c565b9050919050565b6060600480546109cd906130a1565b80601f01602080910402602001604051908101604052809291908181526020018280546109f9906130a1565b8015610a465780601f10610a1b57610100808354040283529160200191610a46565b820191906000526020600020905b815481529060010190602001808311610a2957829003601f168201915b5050505050905090565b600080600860008473ffffffffffffffffffffffffffffffffffffffff1673ffffffffffffffffffffffffffffffffffffffff16815260200190815260200160002080549050905060008114610b3857600860008473ffffffffffffffffffffffffffffffffffffffff1673ffffffffffffffffffffffffffffffffffffffff168152602001908152602001600020600182610aec9190613231565b81548110610afd57610afc613265565b5b9060005260206000200160000160049054906101000a90047bffffffffffffffffffffffffffffffffffffffffffffffffffffffff16610b3b565b60005b7bffffffffffffffffffffffffffffffffffffffffffffffffffffffff16915050919050565b600080610b6c611088565b90506000610b7a8286610ef1565b905083811015610bbf576040517f08c379a0000000000000000000000000000000000000000000000000000000008152600401610bb690613306565b60405180910390fd5b610bcc8286868403611090565b60019250505092915050565b600080610be3611088565b9050610bf08185856112e5565b600191505092915050565b83421115610c3e576040517f08c379a0000000000000000000000000000000000000000000000000000000008152600401610c3590613372565b60405180910390fd5b6000610ca0610c987fe48329057bfd03d55e49b547132e39cffd9c1820ad7b9d4c5307691425d15adf898989604051602001610c7d9493929190613392565b60405160208183030381529060405280519060200120611913565b85858561192d565b9050610cab81611958565b8614610cec576040517f08c379a0000000000000000000000000000000000000000000000000000000008152600401610ce390613423565b60405180910390fd5b610cf68188611798565b50505050505050565b83421115610d42576040517f08c379a0000000000000000000000000000000000000000000000000000000008152600401610d399061348f565b60405180910390fd5b60007f6e71edae12b1b97f4d1f60370fef10105fa2faae0126114a169c64845d6126c9888888610d718c611958565b89604051602001610d87969594939291906134af565b6040516020818303038152906040528051906020012090506000610daa82611913565b90506000610dba8287878761192d565b90508973ffffffffffffffffffffffffffffffffffffffff168173ffffffffffffffffffffffffffffffffffffffff1614610e2a576040517f08c379a0000000000000000000000000000000000000000000000000000000008152600401610e219061355c565b60405180910390fd5b610e358a8a8a611090565b50505050505050505050565b600b60009054906101000a900473ffffffffffffffffffffffffffffffffffffffff1673ffffffffffffffffffffffffffffffffffffffff166323b872dd3330846040518463ffffffff1660e01b8152600401610ea0939291906130d2565b6020604051808303816000875af1158015610ebf573d6000803e3d6000fd5b505050506040513d601f19601f82011682018060405250810190610ee39190613135565b50610eee33826119b6565b50565b6000600160008473ffffffffffffffffffffffffffffffffffffffff1673ffffffffffffffffffffffffffffffffffffffff16815260200190815260200160002060008373ffffffffffffffffffffffffffffffffffffffff1673ffffffffffffffffffffffffffffffffffffffff16815260200190815260200160002054905092915050565b610f80612990565b600860008473ffffffffffffffffffffffffffffffffffffffff1673ffffffffffffffffffffffffffffffffffffffff1681526020019081526020016000208263ffffffff1681548110610fd757610fd6613265565b5b906000526020600020016040518060400160405290816000820160009054906101000a900463ffffffff1663ffffffff1663ffffffff1681526020016000820160049054906101000a90047bffffffffffffffffffffffffffffffffffffffffffffffffffffffff167bffffffffffffffffffffffffffffffffffffffffffffffffffffffff167bffffffffffffffffffffffffffffffffffffffffffffffffffffffff1681525050905092915050565b600033905090565b600073ffffffffffffffffffffffffffffffffffffffff168373ffffffffffffffffffffffffffffffffffffffff16036110ff576040517f08c379a00000000000000000000000000000000000000000000000000000000081526004016110f6906135ee565b60405180910390fd5b600073ffffffffffffffffffffffffffffffffffffffff168273ffffffffffffffffffffffffffffffffffffffff160361116e576040517f08c379a000000000000000000000000000000000000000000000000000000000815260040161116590613680565b60405180910390fd5b80600160008573ffffffffffffffffffffffffffffffffffffffff1673ffffffffffffffffffffffffffffffffffffffff16815260200190815260200160002060008473ffffffffffffffffffffffffffffffffffffffff1673ffffffffffffffffffffffffffffffffffffffff168152602001908152602001600020819055508173ffffffffffffffffffffffffffffffffffffffff168373ffffffffffffffffffffffffffffffffffffffff167f8c5be1e5ebec7d5bd14f71427d1e84f3dd0314c0f7b2291e5b200ac8c7c3b9258360405161124c9190612b9e565b60405180910390a3505050565b60006112658484610ef1565b90507fffffffffffffffffffffffffffffffffffffffffffffffffffffffffffffffff81146112df57818110156112d1576040517f08c379a00000000000000000000000000000000000000000000000000000000081526004016112c8906136ec565b60405180910390fd5b6112de8484848403611090565b5b50505050565b600073ffffffffffffffffffffffffffffffffffffffff168373ffffffffffffffffffffffffffffffffffffffff1603611354576040517f08c379a000000000000000000000000000000000000000000000000000000000815260040161134b9061377e565b60405180910390fd5b600073ffffffffffffffffffffffffffffffffffffffff168273ffffffffffffffffffffffffffffffffffffffff16036113c3576040517f08c379a00000000000000000000000000000000000000000000000000000000081526004016113ba90613810565b60405180910390fd5b6113ce8383836119c4565b60008060008573ffffffffffffffffffffffffffffffffffffffff1673ffffffffffffffffffffffffffffffffffffffff16815260200190815260200160002054905081811015611454576040517f08c379a000000000000000000000000000000000000000000000000000000000815260040161144b906138a2565b60405180910390fd5b8181036000808673ffffffffffffffffffffffffffffffffffffffff1673ffffffffffffffffffffffffffffffffffffffff16815260200190815260200160002081905550816000808573ffffffffffffffffffffffffffffffffffffffff1673ffffffffffffffffffffffffffffffffffffffff16815260200190815260200160002060008282546114e79190613191565b925050819055508273ffffffffffffffffffffffffffffffffffffffff168473ffffffffffffffffffffffffffffffffffffffff167fddf252ad1be2c89b69c2b068fc378daa952ba7f163c4a11628f55a4df523b3ef8460405161154b9190612b9e565b60405180910390a361155e8484846119de565b50505050565b60007f000000000000000000000000000000000000000000000000000000000000000073ffffffffffffffffffffffffffffffffffffffff163073ffffffffffffffffffffffffffffffffffffffff161480156115e057507f000000000000000000000000000000000000000000000000000000000000000046145b1561160d577f0000000000000000000000000000000000000000000000000000000000000000905061167b565b6116787f00000000000000000000000000000000000000000000000000000000000000007f00000000000000000000000000000000000000000000000000000000000000007f00000000000000000000000000000000000000000000000000000000000000006119ee565b90505b90565b6116888282611a28565b5050565b6000808380549050905060005b8181101561170b5760006116ad8284611a46565b9050848682815481106116c3576116c2613265565b5b9060005260206000200160000160009054906101000a900463ffffffff1663ffffffff1611156116f557809250611705565b6001816117029190613191565b91505b50611699565b6000821461176d57846001836117219190613231565b8154811061173257611731613265565b5b9060005260206000200160000160049054906101000a90047bffffffffffffffffffffffffffffffffffffffffffffffffffffffff16611770565b60005b7bffffffffffffffffffffffffffffffffffffffffffffffffffffffff169250505092915050565b60006117a3836107ff565b905060006117b0846108d0565b905082600760008673ffffffffffffffffffffffffffffffffffffffff1673ffffffffffffffffffffffffffffffffffffffff16815260200190815260200160002060006101000a81548173ffffffffffffffffffffffffffffffffffffffff021916908373ffffffffffffffffffffffffffffffffffffffff1602179055508273ffffffffffffffffffffffffffffffffffffffff168273ffffffffffffffffffffffffffffffffffffffff168573ffffffffffffffffffffffffffffffffffffffff167f3134e8a2e6d97e929a7e54011ea5485d7d196dd5f0ba4d4ef95803e8e3fc257f60405160405180910390a46118ac828483611a6c565b50505050565b600063ffffffff80168211156118fd576040517f08c379a00000000000000000000000000000000000000000000000000000000081526004016118f490613934565b60405180910390fd5b819050919050565b600081600001549050919050565b6000611926611920611564565b83611c65565b9050919050565b600080600061193e87878787611c98565b9150915061194b81611da4565b8192505050949350505050565b600080600560008473ffffffffffffffffffffffffffffffffffffffff1673ffffffffffffffffffffffffffffffffffffffff16815260200190815260200160002090506119a581611905565b91506119b081611f70565b50919050565b6119c08282611f86565b5050565b6119ce8383612013565b6119d98383836122f3565b505050565b6119e98383836122f8565b505050565b60008383834630604051602001611a09959493929190613954565b6040516020818303038152906040528051906020012090509392505050565b611a328282612323565b611a4060096124f98361250f565b50505050565b60006002828418611a5791906139d6565b828416611a649190613191565b905092915050565b8173ffffffffffffffffffffffffffffffffffffffff168373ffffffffffffffffffffffffffffffffffffffff1614158015611aa85750600081115b15611c6057600073ffffffffffffffffffffffffffffffffffffffff168373ffffffffffffffffffffffffffffffffffffffff1614611b8657600080611b2f600860008773ffffffffffffffffffffffffffffffffffffffff1673ffffffffffffffffffffffffffffffffffffffff1681526020019081526020016000206124f98561250f565b915091508473ffffffffffffffffffffffffffffffffffffffff167fdec2bacdd2f05b59de34da9b523dff8be42e5e38e818c82fdb0bae774387a7248383604051611b7b929190613a07565b60405180910390a250505b600073ffffffffffffffffffffffffffffffffffffffff168273ffffffffffffffffffffffffffffffffffffffff1614611c5f57600080611c08600860008673ffffffffffffffffffffffffffffffffffffffff1673ffffffffffffffffffffffffffffffffffffffff1681526020019081526020016000206127878561250f565b915091508373ffffffffffffffffffffffffffffffffffffffff167fdec2bacdd2f05b59de34da9b523dff8be42e5e38e818c82fdb0bae774387a7248383604051611c54929190613a07565b60405180910390a250505b5b505050565b60008282604051602001611c7a929190613aa8565b60405160208183030381529060405280519060200120905092915050565b6000807f7fffffffffffffffffffffffffffffff5d576e7357a4501ddfe92f46681b20a08360001c1115611cd3576000600391509150611d9b565b601b8560ff1614158015611ceb5750601c8560ff1614155b15611cfd576000600491509150611d9b565b600060018787878760405160008152602001604052604051611d229493929190613adf565b6020604051602081039080840390855afa158015611d44573d6000803e3d6000fd5b505050602060405103519050600073ffffffffffffffffffffffffffffffffffffffff168173ffffffffffffffffffffffffffffffffffffffff1603611d9257600060019250925050611d9b565b80600092509250505b94509492505050565b60006004811115611db857611db7613b24565b5b816004811115611dcb57611dca613b24565b5b0315611f6d5760016004811115611de557611de4613b24565b5b816004811115611df857611df7613b24565b5b03611e38576040517f08c379a0000000000000000000000000000000000000000000000000000000008152600401611e2f90613b9f565b60405180910390fd5b60026004811115611e4c57611e4b613b24565b5b816004811115611e5f57611e5e613b24565b5b03611e9f576040517f08c379a0000000000000000000000000000000000000000000000000000000008152600401611e9690613c0b565b60405180910390fd5b60036004811115611eb357611eb2613b24565b5b816004811115611ec657611ec5613b24565b5b03611f06576040517f08c379a0000000000000000000000000000000000000000000000000000000008152600401611efd90613c9d565b60405180910390fd5b600480811115611f1957611f18613b24565b5b816004811115611f2c57611f2b613b24565b5b03611f6c576040517f08c379a0000000000000000000000000000000000000000000000000000000008152600401611f6390613d2f565b60405180910390fd5b5b50565b6001816000016000828254019250508190555050565b611f90828261279d565b611f986128fc565b7bffffffffffffffffffffffffffffffffffffffffffffffffffffffff16611fbe61060d565b1115611fff576040517f08c379a0000000000000000000000000000000000000000000000000000000008152600401611ff690613dc1565b60405180910390fd5b61200d60096127878361250f565b50505050565b600073ffffffffffffffffffffffffffffffffffffffff168273ffffffffffffffffffffffffffffffffffffffff16148061209c5750600073ffffffffffffffffffffffffffffffffffffffff16600a60009054906101000a900473ffffffffffffffffffffffffffffffffffffffff1673ffffffffffffffffffffffffffffffffffffffff16145b8061214257506000600a60009054906101000a900473ffffffffffffffffffffffffffffffffffffffff1673ffffffffffffffffffffffffffffffffffffffff166370a08231846040518263ffffffff1660e01b81526004016120ff9190612d5a565b602060405180830381865afa15801561211c573d6000803e3d6000fd5b505050506040513d601f19601f820116820180604052508101906121409190613df6565b115b612181576040517f08c379a000000000000000000000000000000000000000000000000000000000815260040161217890613e6f565b60405180910390fd5b600073ffffffffffffffffffffffffffffffffffffffff168173ffffffffffffffffffffffffffffffffffffffff16148061220a5750600073ffffffffffffffffffffffffffffffffffffffff16600a60009054906101000a900473ffffffffffffffffffffffffffffffffffffffff1673ffffffffffffffffffffffffffffffffffffffff16145b806122b057506000600a60009054906101000a900473ffffffffffffffffffffffffffffffffffffffff1673ffffffffffffffffffffffffffffffffffffffff166370a08231836040518263ffffffff1660e01b815260040161226d9190612d5a565b602060405180830381865afa15801561228a573d6000803e3d6000fd5b505050506040513d601f19601f820116820180604052508101906122ae9190613df6565b115b6122ef576040517f08c379a00000000000000000000000000000000000000000000000000000000081526004016122e690613edb565b60405180910390fd5b5050565b505050565b612303838383612920565b61231e61230f846107ff565b612318846107ff565b83611a6c565b505050565b600073ffffffffffffffffffffffffffffffffffffffff168273ffffffffffffffffffffffffffffffffffffffff1603612392576040517f08c379a000000000000000000000000000000000000000000000000000000000815260040161238990613f6d565b60405180910390fd5b61239e826000836119c4565b60008060008473ffffffffffffffffffffffffffffffffffffffff1673ffffffffffffffffffffffffffffffffffffffff16815260200190815260200160002054905081811015612424576040517f08c379a000000000000000000000000000000000000000000000000000000000815260040161241b90613fff565b60405180910390fd5b8181036000808573ffffffffffffffffffffffffffffffffffffffff1673ffffffffffffffffffffffffffffffffffffffff16815260200190815260200160002081905550816002600082825461247b9190613231565b92505081905550600073ffffffffffffffffffffffffffffffffffffffff168373ffffffffffffffffffffffffffffffffffffffff167fddf252ad1be2c89b69c2b068fc378daa952ba7f163c4a11628f55a4df523b3ef846040516124e09190612b9e565b60405180910390a36124f4836000846119de565b505050565b600081836125079190613231565b905092915050565b6000806000858054905090506000811461257d57856001826125319190613231565b8154811061254257612541613265565b5b9060005260206000200160000160049054906101000a90047bffffffffffffffffffffffffffffffffffffffffffffffffffffffff16612580565b60005b7bffffffffffffffffffffffffffffffffffffffffffffffffffffffff1692506125ae83858763ffffffff16565b9150600081118015612601575043866001836125ca9190613231565b815481106125db576125da613265565b5b9060005260206000200160000160009054906101000a900463ffffffff1663ffffffff16145b1561268e5761260f82612925565b8660018361261d9190613231565b8154811061262e5761262d613265565b5b9060005260206000200160000160046101000a8154817bffffffffffffffffffffffffffffffffffffffffffffffffffffffff02191690837bffffffffffffffffffffffffffffffffffffffffffffffffffffffff16021790555061277e565b8560405180604001604052806126a3436118b2565b63ffffffff1681526020016126b785612925565b7bffffffffffffffffffffffffffffffffffffffffffffffffffffffff168152509080600181540180825580915050600190039060005260206000200160009091909190915060008201518160000160006101000a81548163ffffffff021916908363ffffffff16021790555060208201518160000160046101000a8154817bffffffffffffffffffffffffffffffffffffffffffffffffffffffff02191690837bffffffffffffffffffffffffffffffffffffffffffffffffffffffff16021790555050505b50935093915050565b600081836127959190613191565b905092915050565b600073ffffffffffffffffffffffffffffffffffffffff168273ffffffffffffffffffffffffffffffffffffffff160361280c576040517f08c379a00000000000000000000000000000000000000000000000000000000081526004016128039061406b565b60405180910390fd5b612818600083836119c4565b806002600082825461282a9190613191565b92505081905550806000808473ffffffffffffffffffffffffffffffffffffffff1673ffffffffffffffffffffffffffffffffffffffff168152602001908152602001600020600082825461287f9190613191565b925050819055508173ffffffffffffffffffffffffffffffffffffffff16600073ffffffffffffffffffffffffffffffffffffffff167fddf252ad1be2c89b69c2b068fc378daa952ba7f163c4a11628f55a4df523b3ef836040516128e49190612b9e565b60405180910390a36128f8600083836119de565b5050565b60007bffffffffffffffffffffffffffffffffffffffffffffffffffffffff905090565b505050565b60007bffffffffffffffffffffffffffffffffffffffffffffffffffffffff8016821115612988576040517f08c379a000000000000000000000000000000000000000000000000000000000815260040161297f906140fd565b60405180910390fd5b819050919050565b6040518060400160405280600063ffffffff16815260200160007bffffffffffffffffffffffffffffffffffffffffffffffffffffffff1681525090565b600081519050919050565b600082825260208201905092915050565b60005b83811015612a085780820151818401526020810190506129ed565b60008484015250505050565b6000601f19601f8301169050919050565b6000612a30826129ce565b612a3a81856129d9565b9350612a4a8185602086016129ea565b612a5381612a14565b840191505092915050565b60006020820190508181036000830152612a788184612a25565b905092915050565b600080fd5b600073ffffffffffffffffffffffffffffffffffffffff82169050919050565b6000612ab082612a85565b9050919050565b612ac081612aa5565b8114612acb57600080fd5b50565b600081359050612add81612ab7565b92915050565b6000819050919050565b612af681612ae3565b8114612b0157600080fd5b50565b600081359050612b1381612aed565b92915050565b60008060408385031215612b3057612b2f612a80565b5b6000612b3e85828601612ace565b9250506020612b4f85828601612b04565b9150509250929050565b60008115159050919050565b612b6e81612b59565b82525050565b6000602082019050612b896000830184612b65565b92915050565b612b9881612ae3565b82525050565b6000602082019050612bb36000830184612b8f565b92915050565b600080600060608486031215612bd257612bd1612a80565b5b6000612be086828701612ace565b9350506020612bf186828701612ace565b9250506040612c0286828701612b04565b9150509250925092565b6000819050919050565b6000612c31612c2c612c2784612a85565b612c0c565b612a85565b9050919050565b6000612c4382612c16565b9050919050565b6000612c5582612c38565b9050919050565b612c6581612c4a565b82525050565b6000602082019050612c806000830184612c5c565b92915050565b600060ff82169050919050565b612c9c81612c86565b82525050565b6000602082019050612cb76000830184612c93565b92915050565b6000819050919050565b612cd081612cbd565b82525050565b6000602082019050612ceb6000830184612cc7565b92915050565b600060208284031215612d0757612d06612a80565b5b6000612d1584828501612b04565b91505092915050565b600060208284031215612d3457612d33612a80565b5b6000612d4284828501612ace565b91505092915050565b612d5481612aa5565b82525050565b6000602082019050612d6f6000830184612d4b565b92915050565b600063ffffffff82169050919050565b612d8e81612d75565b82525050565b6000602082019050612da96000830184612d85565b92915050565b612db881612c86565b8114612dc357600080fd5b50565b600081359050612dd581612daf565b92915050565b612de481612cbd565b8114612def57600080fd5b50565b600081359050612e0181612ddb565b92915050565b60008060008060008060c08789031215612e2457612e23612a80565b5b6000612e3289828a01612ace565b9650506020612e4389828a01612b04565b9550506040612e5489828a01612b04565b9450506060612e6589828a01612dc6565b9350506080612e7689828a01612df2565b92505060a0612e8789828a01612df2565b9150509295509295509295565b600080600080600080600060e0888a031215612eb357612eb2612a80565b5b6000612ec18a828b01612ace565b9750506020612ed28a828b01612ace565b9650506040612ee38a828b01612b04565b9550506060612ef48a828b01612b04565b9450506080612f058a828b01612dc6565b93505060a0612f168a828b01612df2565b92505060c0612f278a828b01612df2565b91505092959891949750929550565b60008060408385031215612f4d57612f4c612a80565b5b6000612f5b85828601612ace565b9250506020612f6c85828601612ace565b9150509250929050565b612f7f81612d75565b8114612f8a57600080fd5b50565b600081359050612f9c81612f76565b92915050565b60008060408385031215612fb957612fb8612a80565b5b6000612fc785828601612ace565b9250506020612fd885828601612f8d565b9150509250929050565b612feb81612d75565b82525050565b60007bffffffffffffffffffffffffffffffffffffffffffffffffffffffff82169050919050565b61302281612ff1565b82525050565b60408201600082015161303e6000850182612fe2565b5060208201516130516020850182613019565b50505050565b600060408201905061306c6000830184613028565b92915050565b7f4e487b7100000000000000000000000000000000000000000000000000000000600052602260045260246000fd5b600060028204905060018216806130b957607f821691505b6020821081036130cc576130cb613072565b5b50919050565b60006060820190506130e76000830186612d4b565b6130f46020830185612d4b565b6131016040830184612b8f565b949350505050565b61311281612b59565b811461311d57600080fd5b50565b60008151905061312f81613109565b92915050565b60006020828403121561314b5761314a612a80565b5b600061315984828501613120565b91505092915050565b7f4e487b7100000000000000000000000000000000000000000000000000000000600052601160045260246000fd5b600061319c82612ae3565b91506131a783612ae3565b92508282019050808211156131bf576131be613162565b5b92915050565b7f4552433230566f7465733a20626c6f636b206e6f7420796574206d696e656400600082015250565b60006131fb601f836129d9565b9150613206826131c5565b602082019050919050565b6000602082019050818103600083015261322a816131ee565b9050919050565b600061323c82612ae3565b915061324783612ae3565b925082820390508181111561325f5761325e613162565b5b92915050565b7f4e487b7100000000000000000000000000000000000000000000000000000000600052603260045260246000fd5b7f45524332303a2064656372656173656420616c6c6f77616e63652062656c6f7760008201527f207a65726f000000000000000000000000000000000000000000000000000000602082015250565b60006132f06025836129d9565b91506132fb82613294565b604082019050919050565b6000602082019050818103600083015261331f816132e3565b9050919050565b7f4552433230566f7465733a207369676e61747572652065787069726564000000600082015250565b600061335c601d836129d9565b915061336782613326565b602082019050919050565b6000602082019050818103600083015261338b8161334f565b9050919050565b60006080820190506133a76000830187612cc7565b6133b46020830186612d4b565b6133c16040830185612b8f565b6133ce6060830184612b8f565b95945050505050565b7f4552433230566f7465733a20696e76616c6964206e6f6e636500000000000000600082015250565b600061340d6019836129d9565b9150613418826133d7565b602082019050919050565b6000602082019050818103600083015261343c81613400565b9050919050565b7f45524332305065726d69743a206578706972656420646561646c696e65000000600082015250565b6000613479601d836129d9565b915061348482613443565b602082019050919050565b600060208201905081810360008301526134a88161346c565b9050919050565b600060c0820190506134c46000830189612cc7565b6134d16020830188612d4b565b6134de6040830187612d4b565b6134eb6060830186612b8f565b6134f86080830185612b8f565b61350560a0830184612b8f565b979650505050505050565b7f45524332305065726d69743a20696e76616c6964207369676e61747572650000600082015250565b6000613546601e836129d9565b915061355182613510565b602082019050919050565b6000602082019050818103600083015261357581613539565b9050919050565b7f45524332303a20617070726f76652066726f6d20746865207a65726f2061646460008201527f7265737300000000000000000000000000000000000000000000000000000000602082015250565b60006135d86024836129d9565b91506135e38261357c565b604082019050919050565b60006020820190508181036000830152613607816135cb565b9050919050565b7f45524332303a20617070726f766520746f20746865207a65726f20616464726560008201527f7373000000000000000000000000000000000000000000000000000000000000602082015250565b600061366a6022836129d9565b91506136758261360e565b604082019050919050565b600060208201905081810360008301526136998161365d565b9050919050565b7f45524332303a20696e73756666696369656e7420616c6c6f77616e6365000000600082015250565b60006136d6601d836129d9565b91506136e1826136a0565b602082019050919050565b60006020820190508181036000830152613705816136c9565b9050919050565b7f45524332303a207472616e736665722066726f6d20746865207a65726f20616460008201527f6472657373000000000000000000000000000000000000000000000000000000602082015250565b60006137686025836129d9565b91506137738261370c565b604082019050919050565b600060208201905081810360008301526137978161375b565b9050919050565b7f45524332303a207472616e7366657220746f20746865207a65726f206164647260008201527f6573730000000000000000000000000000000000000000000000000000000000602082015250565b60006137fa6023836129d9565b91506138058261379e565b604082019050919050565b60006020820190508181036000830152613829816137ed565b9050919050565b7f45524332303a207472616e7366657220616d6f756e742065786365656473206260008201527f616c616e63650000000000000000000000000000000000000000000000000000602082015250565b600061388c6026836129d9565b915061389782613830565b604082019050919050565b600060208201905081810360008301526138bb8161387f565b9050919050565b7f53616665436173743a2076616c756520646f65736e27742066697420696e203360008201527f3220626974730000000000000000000000000000000000000000000000000000602082015250565b600061391e6026836129d9565b9150613929826138c2565b604082019050919050565b6000602082019050818103600083015261394d81613911565b9050919050565b600060a0820190506139696000830188612cc7565b6139766020830187612cc7565b6139836040830186612cc7565b6139906060830185612b8f565b61399d6080830184612d4b565b9695505050505050565b7f4e487b7100000000000000000000000000000000000000000000000000000000600052601260045260246000fd5b60006139e182612ae3565b91506139ec83612ae3565b9250826139fc576139fb6139a7565b5b828204905092915050565b6000604082019050613a1c6000830185612b8f565b613a296020830184612b8f565b9392505050565b600081905092915050565b7f1901000000000000000000000000000000000000000000000000000000000000600082015250565b6000613a71600283613a30565b9150613a7c82613a3b565b600282019050919050565b6000819050919050565b613aa2613a9d82612cbd565b613a87565b82525050565b6000613ab382613a64565b9150613abf8285613a91565b602082019150613acf8284613a91565b6020820191508190509392505050565b6000608082019050613af46000830187612cc7565b613b016020830186612c93565b613b0e6040830185612cc7565b613b1b6060830184612cc7565b95945050505050565b7f4e487b7100000000000000000000000000000000000000000000000000000000600052602160045260246000fd5b7f45434453413a20696e76616c6964207369676e61747572650000000000000000600082015250565b6000613b896018836129d9565b9150613b9482613b53565b602082019050919050565b60006020820190508181036000830152613bb881613b7c565b9050919050565b7f45434453413a20696e76616c6964207369676e6174757265206c656e67746800600082015250565b6000613bf5601f836129d9565b9150613c0082613bbf565b602082019050919050565b60006020820190508181036000830152613c2481613be8565b9050919050565b7f45434453413a20696e76616c6964207369676e6174757265202773272076616c60008201527f7565000000000000000000000000000000000000000000000000000000000000602082015250565b6000613c876022836129d9565b9150613c9282613c2b565b604082019050919050565b60006020820190508181036000830152613cb681613c7a565b9050919050565b7f45434453413a20696e76616c6964207369676e6174757265202776272076616c60008201527f7565000000000000000000000000000000000000000000000000000000000000602082015250565b6000613d196022836129d9565b9150613d2482613cbd565b604082019050919050565b60006020820190508181036000830152613d4881613d0c565b9050919050565b7f4552433230566f7465733a20746f74616c20737570706c79207269736b73206f60008201527f766572666c6f77696e6720766f74657300000000000000000000000000000000602082015250565b6000613dab6030836129d9565b9150613db682613d4f565b604082019050919050565b60006020820190508181036000830152613dda81613d9e565b9050919050565b600081519050613df081612aed565b92915050565b600060208284031215613e0c57613e0b612a80565b5b6000613e1a84828501613de1565b91505092915050565b7f73656e64657220646f65736e27742068617665204b594320746f6b656e000000600082015250565b6000613e59601d836129d9565b9150613e6482613e23565b602082019050919050565b60006020820190508181036000830152613e8881613e4c565b9050919050565b7f726563697069656e7420646f65736e27742068617665204b594320746f6b656e600082015250565b6000613ec56020836129d9565b9150613ed082613e8f565b602082019050919050565b60006020820190508181036000830152613ef481613eb8565b9050919050565b7f45524332303a206275726e2066726f6d20746865207a65726f2061646472657360008201527f7300000000000000000000000000000000000000000000000000000000000000602082015250565b6000613f576021836129d9565b9150613f6282613efb565b604082019050919050565b60006020820190508181036000830152613f8681613f4a565b9050919050565b7f45524332303a206275726e20616d6f756e7420657863656564732062616c616e60008201527f6365000000000000000000000000000000000000000000000000000000000000602082015250565b6000613fe96022836129d9565b9150613ff482613f8d565b604082019050919050565b6000602082019050818103600083015261401881613fdc565b9050919050565b7f45524332303a206d696e7420746f20746865207a65726f206164647265737300600082015250565b6000614055601f836129d9565b91506140608261401f565b602082019050919050565b6000602082019050818103600083015261408481614048565b9050919050565b7f53616665436173743a2076616c756520646f65736e27742066697420696e203260008201527f3234206269747300000000000000000000000000000000000000000000000000602082015250565b60006140e76027836129d9565b91506140f28261408b565b604082019050919050565b60006020820190508181036000830152614116816140da565b905091905056fea2646970667358221220bcce37e1f38982707d7253cf44fe24ba42d9777241281dc3f741c7b16606c17164736f6c63430008110033",
  "linkReferences": {},
  "deployedLinkReferences": {}
}