{"contracts/WrappedToken.sol":{"WrappedToken":{"abi":[{"inputs":[{"internalType":"address","name":"kycToken","type":"address"},{"internalType":"address","name":"pushComm","type":"address"},{"internalType":"address","name":"channelAddress","type":"address"}],"stateMutability":"nonpayable","type":"constructor"},{"anonymous":false,"inputs":[{"indexed":true,"internalType":"address","name":"account","type":"address"},{"indexed":true,"internalType":"address","name":"operator","type":"address"},{"indexed":false,"internalType":"bool","name":"approved","type":"bool"}],"name":"ApprovalForAll","type":"event"},{"anonymous":false,"inputs":[{"indexed":false,"internalType":"address","name":"tokenAddress","type":"address"},{"indexed":false,"internalType":"uint256","name":"erc1155TokenID","type":"uint256"},{"indexed":false,"internalType":"address","name":"from","type":"address"},{"indexed":false,"internalType":"address","name":"to","type":"address"},{"indexed":false,"internalType":"uint256","name":"amount","type":"uint256"},{"indexed":false,"internalType":"bytes","name":"data","type":"bytes"}],"name":"LockedERC20","type":"event"},{"anonymous":false,"inputs":[{"indexed":false,"internalType":"address","name":"tokenAddress","type":"address"},{"indexed":false,"internalType":"uint256","name":"tokenID","type":"uint256"},{"indexed":false,"internalType":"uint256","name":"erc1155TokenID","type":"uint256"},{"indexed":false,"internalType":"address","name":"from","type":"address"},{"indexed":false,"internalType":"address","name":"to","type":"address"},{"indexed":false,"internalType":"bytes","name":"data","type":"bytes"}],"name":"LockedERC721","type":"event"},{"anonymous":false,"inputs":[{"indexed":true,"internalType":"address","name":"previousOwner","type":"address"},{"indexed":true,"internalType":"address","name":"newOwner","type":"address"}],"name":"OwnershipTransferred","type":"event"},{"anonymous":false,"inputs":[{"indexed":false,"internalType":"address","name":"account","type":"address"}],"name":"Paused","type":"event"},{"anonymous":false,"inputs":[{"indexed":false,"internalType":"address","name":"tokenAddress","type":"address"},{"indexed":false,"internalType":"uint256","name":"erc1155TokenID","type":"uint256"},{"indexed":false,"internalType":"address","name":"operator","type":"address"},{"indexed":false,"internalType":"address","name":"to","type":"address"},{"indexed":false,"internalType":"uint256","name":"amount","type":"uint256"},{"indexed":false,"internalType":"bytes","name":"data","type":"bytes"}],"name":"ReleasedERC20","type":"event"},{"anonymous":false,"inputs":[{"indexed":false,"internalType":"address","name":"tokenAddress","type":"address"},{"indexed":false,"internalType":"uint256","name":"tokenID","type":"uint256"},{"indexed":false,"internalType":"uint256","name":"erc1155TokenId","type":"uint256"},{"indexed":false,"internalType":"address","name":"from","type":"address"},{"indexed":false,"internalType":"address","name":"to","type":"address"},{"indexed":false,"internalType":"bytes","name":"data","type":"bytes"}],"name":"ReleasedERC721","type":"event"},{"anonymous":false,"inputs":[{"indexed":true,"internalType":"address","name":"operator","type":"address"},{"indexed":true,"internalType":"address","name":"from","type":"address"},{"indexed":true,"internalType":"address","name":"to","type":"address"},{"indexed":false,"internalType":"uint256[]","name":"ids","type":"uint256[]"},{"indexed":false,"internalType":"uint256[]","name":"values","type":"uint256[]"}],"name":"TransferBatch","type":"event"},{"anonymous":false,"inputs":[{"indexed":true,"internalType":"address","name":"operator","type":"address"},{"indexed":true,"internalType":"address","name":"from","type":"address"},{"indexed":true,"internalType":"address","name":"to","type":"address"},{"indexed":false,"internalType":"uint256","name":"id","type":"uint256"},{"indexed":false,"internalType":"uint256","name":"value","type":"uint256"}],"name":"TransferSingle","type":"event"},{"anonymous":false,"inputs":[{"indexed":false,"internalType":"string","name":"value","type":"string"},{"indexed":true,"internalType":"uint256","name":"id","type":"uint256"}],"name":"URI","type":"event"},{"anonymous":false,"inputs":[{"indexed":false,"internalType":"address","name":"account","type":"address"}],"name":"Unpaused","type":"event"},{"inputs":[],"name":"_channelAddress","outputs":[{"internalType":"address","name":"","type":"address"}],"stateMutability":"view","type":"function"},{"inputs":[],"name":"_kycToken","outputs":[{"internalType":"contract IBalanceOf","name":"","type":"address"}],"stateMutability":"view","type":"function"},{"inputs":[],"name":"_push","outputs":[{"internalType":"contract IPUSHCommInterface","name":"","type":"address"}],"stateMutability":"view","type":"function"},{"inputs":[{"internalType":"address","name":"account","type":"address"},{"internalType":"uint256","name":"id","type":"uint256"}],"name":"balanceOf","outputs":[{"internalType":"uint256","name":"","type":"uint256"}],"stateMutability":"view","type":"function"},{"inputs":[{"internalType":"address[]","name":"accounts","type":"address[]"},{"internalType":"uint256[]","name":"ids","type":"uint256[]"}],"name":"balanceOfBatch","outputs":[{"internalType":"uint256[]","name":"","type":"uint256[]"}],"stateMutability":"view","type":"function"},{"inputs":[{"internalType":"address","name":"tokenAddress","type":"address"}],"name":"erc20TokenID","outputs":[{"internalType":"uint256","name":"","type":"uint256"}],"stateMutability":"view","type":"function"},{"inputs":[{"internalType":"address","name":"tokenAddress","type":"address"},{"internalType":"uint256","name":"tokenID","type":"uint256"}],"name":"erc721TokenID","outputs":[{"internalType":"uint256","name":"","type":"uint256"}],"stateMutability":"view","type":"function"},{"inputs":[{"internalType":"address","name":"account","type":"address"},{"internalType":"address","name":"operator","type":"address"}],"name":"isApprovedForAll","outputs":[{"internalType":"bool","name":"","type":"bool"}],"stateMutability":"view","type":"function"},{"inputs":[{"internalType":"address","name":"tokenAddress","type":"address"},{"internalType":"address","name":"from","type":"address"},{"internalType":"address","name":"to","type":"address"},{"internalType":"uint256","name":"amount","type":"uint256"},{"internalType":"bytes","name":"data","type":"bytes"}],"name":"lockERC20","outputs":[],"stateMutability":"nonpayable","type":"function"},{"inputs":[{"internalType":"address","name":"tokenAddress","type":"address"},{"internalType":"uint256","name":"tokenID","type":"uint256"},{"internalType":"address","name":"from","type":"address"},{"internalType":"address","name":"to","type":"address"},{"internalType":"bytes","name":"data","type":"bytes"}],"name":"lockERC721","outputs":[],"stateMutability":"nonpayable","type":"function"},{"inputs":[],"name":"owner","outputs":[{"internalType":"address","name":"","type":"address"}],"stateMutability":"view","type":"function"},{"inputs":[],"name":"pause","outputs":[],"stateMutability":"nonpayable","type":"function"},{"inputs":[],"name":"paused","outputs":[{"internalType":"bool","name":"","type":"bool"}],"stateMutability":"view","type":"function"},{"inputs":[{"internalType":"address","name":"tokenAddress","type":"address"},{"internalType":"address","name":"to","type":"address"},{"internalType":"uint256","name":"amount","type":"uint256"},{"internalType":"bytes","name":"data","type":"bytes"}],"name":"releaseERC20","outputs":[],"stateMutability":"nonpayable","type":"function"},{"inputs":[{"internalType":"address","name":"tokenAddress","type":"address"},{"internalType":"uint256","name":"tokenID","type":"uint256"},{"internalType":"address","name":"to","type":"address"},{"internalType":"bytes","name":"data","type":"bytes"}],"name":"releaseERC721","outputs":[],"stateMutability":"nonpayable","type":"function"},{"inputs":[],"name":"renounceOwnership","outputs":[],"stateMutability":"nonpayable","type":"function"},{"inputs":[{"internalType":"address","name":"from","type":"address"},{"internalType":"address","name":"to","type":"address"},{"internalType":"uint256[]","name":"ids","type":"uint256[]"},{"internalType":"uint256[]","name":"amounts","type":"uint256[]"},{"internalType":"bytes","name":"data","type":"bytes"}],"name":"safeBatchTransferFrom","outputs":[],"stateMutability":"nonpayable","type":"function"},{"inputs":[{"internalType":"address","name":"from","type":"address"},{"internalType":"address","name":"to","type":"address"},{"internalType":"uint256","name":"id","type":"uint256"},{"internalType":"uint256","name":"amount","type":"uint256"},{"internalType":"bytes","name":"data","type":"bytes"}],"name":"safeTransferFrom","outputs":[],"stateMutability":"nonpayable","type":"function"},{"inputs":[{"internalType":"address","name":"operator","type":"address"},{"internalType":"bool","name":"approved","type":"bool"}],"name":"setApprovalForAll","outputs":[],"stateMutability":"nonpayable","type":"function"},{"inputs":[{"internalType":"address","name":"kycToken","type":"address"}],"name":"setKYCToken","outputs":[],"stateMutability":"nonpayable","type":"function"},{"inputs":[{"internalType":"address","name":"pushComm","type":"address"},{"internalType":"address","name":"channelAddress","type":"address"}],"name":"setPushProtocol","outputs":[],"stateMutability":"nonpayable","type":"function"},{"inputs":[{"internalType":"bytes4","name":"interfaceId","type":"bytes4"}],"name":"supportsInterface","outputs":[{"internalType":"bool","name":"","type":"bool"}],"stateMutability":"view","type":"function"},{"inputs":[{"internalType":"address","name":"newOwner","type":"address"}],"name":"transferOwnership","outputs":[],"stateMutability":"nonpayable","type":"function"},{"inputs":[],"name":"unpause","outputs":[],"stateMutability":"nonpayable","type":"function"},{"inputs":[{"internalType":"uint256","name":"tokenID","type":"uint256"}],"name":"uri","outputs":[{"internalType":"string","name":"","type":"string"}],"stateMutability":"view","type":"function"}],"evm":{"bytecode":{"linkReferences":{},"object":"60806040526040518060200160405280600081525060039081620000249190620004de565b503480156200003257600080fd5b50604051620066593803806200665983398181016040528101906200005891906200062f565b6040518060200160405280600081525062000079816200018160201b60201c565b506000600560006101000a81548160ff021916908315150217905550620000b5620000a96200019660201b60201c565b6200019e60201b60201c565b82600660006101000a81548173ffffffffffffffffffffffffffffffffffffffff021916908373ffffffffffffffffffffffffffffffffffffffff16021790555081600760006101000a81548173ffffffffffffffffffffffffffffffffffffffff021916908373ffffffffffffffffffffffffffffffffffffffff16021790555080600860006101000a81548173ffffffffffffffffffffffffffffffffffffffff021916908373ffffffffffffffffffffffffffffffffffffffff1602179055505050506200068b565b8060029081620001929190620004de565b5050565b600033905090565b6000600560019054906101000a900473ffffffffffffffffffffffffffffffffffffffff16905081600560016101000a81548173ffffffffffffffffffffffffffffffffffffffff021916908373ffffffffffffffffffffffffffffffffffffffff1602179055508173ffffffffffffffffffffffffffffffffffffffff168173ffffffffffffffffffffffffffffffffffffffff167f8be0079c531659141344cd1fd0a4f28419497f9722a3daafe3b4186f6b6457e060405160405180910390a35050565b600081519050919050565b7f4e487b7100000000000000000000000000000000000000000000000000000000600052604160045260246000fd5b7f4e487b7100000000000000000000000000000000000000000000000000000000600052602260045260246000fd5b60006002820490506001821680620002e657607f821691505b602082108103620002fc57620002fb6200029e565b5b50919050565b60008190508160005260206000209050919050565b60006020601f8301049050919050565b600082821b905092915050565b600060088302620003667fffffffffffffffffffffffffffffffffffffffffffffffffffffffffffffffff8262000327565b62000372868362000327565b95508019841693508086168417925050509392505050565b6000819050919050565b6000819050919050565b6000620003bf620003b9620003b3846200038a565b62000394565b6200038a565b9050919050565b6000819050919050565b620003db836200039e565b620003f3620003ea82620003c6565b84845462000334565b825550505050565b600090565b6200040a620003fb565b62000417818484620003d0565b505050565b5b818110156200043f576200043360008262000400565b6001810190506200041d565b5050565b601f8211156200048e57620004588162000302565b620004638462000317565b8101602085101562000473578190505b6200048b620004828562000317565b8301826200041c565b50505b505050565b600082821c905092915050565b6000620004b36000198460080262000493565b1980831691505092915050565b6000620004ce8383620004a0565b9150826002028217905092915050565b620004e98262000264565b67ffffffffffffffff8111156200050557620005046200026f565b5b620005118254620002cd565b6200051e82828562000443565b600060209050601f83116001811462000556576000841562000541578287015190505b6200054d8582620004c0565b865550620005bd565b601f198416620005668662000302565b60005b82811015620005905784890151825560018201915060208501945060208101905062000569565b86831015620005b05784890151620005ac601f891682620004a0565b8355505b6001600288020188555050505b505050505050565b600080fd5b600073ffffffffffffffffffffffffffffffffffffffff82169050919050565b6000620005f782620005ca565b9050919050565b6200060981620005ea565b81146200061557600080fd5b50565b6000815190506200062981620005fe565b92915050565b6000806000606084860312156200064b576200064a620005c5565b5b60006200065b8682870162000618565b93505060206200066e8682870162000618565b9250506040620006818682870162000618565b9150509250925092565b615fbe806200069b6000396000f3fe608060405234801561001057600080fd5b50600436106101725760003560e01c80638456cb59116100de578063ad2edf9011610097578063e985e9c511610071578063e985e9c51461040d578063f242432a1461043d578063f2fde38b14610459578063f45529821461047557610172565b8063ad2edf90146103b5578063dee3a00b146103d1578063dfc40e31146103ef57610172565b80638456cb59146103095780638da5cb5b14610313578063903acbdb1461033157806398b6ca9b1461034d578063a22cb4651461037d578063a3c1c4a91461039957610172565b80633f4ba83a116101305780633f4ba83a1461026f5780634e1273f4146102795780635668c3f4146102a95780635c975abb146102c5578063672bf705146102e3578063715018a6146102ff57610172565b8062fdd58e1461017757806301ffc9a7146101a75780630e89341c146101d757806329d06964146102075780632eb2c2d61461023757806337e4b0c214610253575b600080fd5b610191600480360381019061018c919061360c565b610493565b60405161019e919061365b565b60405180910390f35b6101c160048036038101906101bc91906136ce565b61055b565b6040516101ce9190613716565b60405180910390f35b6101f160048036038101906101ec9190613731565b61063d565b6040516101fe91906137ee565b60405180910390f35b610221600480360381019061021c9190613810565b61064f565b60405161022e919061365b565b60405180910390f35b610251600480360381019061024c9190613a3a565b61066f565b005b61026d60048036038101906102689190613b09565b610710565b005b61027761079e565b005b610293600480360381019061028e9190613c0c565b6107b0565b6040516102a09190613d42565b60405180910390f35b6102c360048036038101906102be9190613d64565b6108c9565b005b6102cd6109bb565b6040516102da9190613716565b60405180910390f35b6102fd60048036038101906102f89190613de7565b6109d2565b005b610307610a78565b005b610311610a8c565b005b61031b610a9e565b6040516103289190613e79565b60405180910390f35b61034b60048036038101906103469190613e94565b610ac8565b005b6103676004803603810190610362919061360c565b610bbe565b604051610374919061365b565b60405180910390f35b61039760048036038101906103929190613f57565b610bf4565b005b6103b360048036038101906103ae9190613810565b610c0a565b005b6103cf60048036038101906103ca9190613f97565b610c56565b005b6103d9610cfe565b6040516103e6919061408d565b60405180910390f35b6103f7610d24565b60405161040491906140c9565b60405180910390f35b61042760048036038101906104229190613b09565b610d4a565b6040516104349190613716565b60405180910390f35b610457600480360381019061045291906140e4565b610dde565b005b610473600480360381019061046e9190613810565b610e7f565b005b61047d610f02565b60405161048a9190613e79565b60405180910390f35b60008073ffffffffffffffffffffffffffffffffffffffff168373ffffffffffffffffffffffffffffffffffffffff1603610503576040517f08c379a00000000000000000000000000000000000000000000000000000000081526004016104fa906141ed565b60405180910390fd5b60008083815260200190815260200160002060008473ffffffffffffffffffffffffffffffffffffffff1673ffffffffffffffffffffffffffffffffffffffff16815260200190815260200160002054905092915050565b60007fd9b67a26000000000000000000000000000000000000000000000000000000007bffffffffffffffffffffffffffffffffffffffffffffffffffffffff1916827bffffffffffffffffffffffffffffffffffffffffffffffffffffffff1916148061062657507f0e89341c000000000000000000000000000000000000000000000000000000007bffffffffffffffffffffffffffffffffffffffffffffffffffffffff1916827bffffffffffffffffffffffffffffffffffffffffffffffffffffffff1916145b80610636575061063582610f28565b5b9050919050565b606061064882610f92565b9050919050565b60008173ffffffffffffffffffffffffffffffffffffffff169050919050565b610677611077565b73ffffffffffffffffffffffffffffffffffffffff168573ffffffffffffffffffffffffffffffffffffffff1614806106bd57506106bc856106b7611077565b610d4a565b5b6106fc576040517f08c379a00000000000000000000000000000000000000000000000000000000081526004016106f39061427f565b60405180910390fd5b610709858585858561107f565b5050505050565b6107186113a0565b81600760006101000a81548173ffffffffffffffffffffffffffffffffffffffff021916908373ffffffffffffffffffffffffffffffffffffffff16021790555080600860006101000a81548173ffffffffffffffffffffffffffffffffffffffff021916908373ffffffffffffffffffffffffffffffffffffffff1602179055505050565b6107a66113a0565b6107ae61141e565b565b606081518351146107f6576040517f08c379a00000000000000000000000000000000000000000000000000000000081526004016107ed90614311565b60405180910390fd5b6000835167ffffffffffffffff81111561081357610812613842565b5b6040519080825280602002602001820160405280156108415781602001602082028036833780820191505090505b50905060005b84518110156108be5761088e85828151811061086657610865614331565b5b602002602001015185838151811061088157610880614331565b5b6020026020010151610493565b8282815181106108a1576108a0614331565b5b602002602001018181525050806108b79061438f565b9050610847565b508091505092915050565b6108d1611481565b60006108dc8561064f565b90506108e93382856114cb565b8473ffffffffffffffffffffffffffffffffffffffff1663a9059cbb85856040518363ffffffff1660e01b81526004016109249291906143d7565b6020604051808303816000875af1158015610943573d6000803e3d6000fd5b505050506040513d601f19601f820116820180604052508101906109679190614415565b6109a6576040517f08c379a000000000000000000000000000000000000000000000000000000000815260040161099d9061448e565b60405180910390fd5b6109b4858233878787611711565b5050505050565b6000600560009054906101000a900460ff16905090565b6109da611481565b60006109e68585610bbe565b90506109f4338260016114cb565b8473ffffffffffffffffffffffffffffffffffffffff166323b872dd3085876040518463ffffffff1660e01b8152600401610a31939291906144ae565b600060405180830381600087803b158015610a4b57600080fd5b505af1158015610a5f573d6000803e3d6000fd5b50505050610a71858583338787611950565b5050505050565b610a806113a0565b610a8a6000611b8f565b565b610a946113a0565b610a9c611c55565b565b6000600560019054906101000a900473ffffffffffffffffffffffffffffffffffffffff16905090565b610ad0611481565b6000610adb8661064f565b90508573ffffffffffffffffffffffffffffffffffffffff166323b872dd8630866040518463ffffffff1660e01b8152600401610b1a939291906144ae565b6020604051808303816000875af1158015610b39573d6000803e3d6000fd5b505050506040513d601f19601f82011682018060405250810190610b5d9190614415565b610b9c576040517f08c379a0000000000000000000000000000000000000000000000000000000008152600401610b939061448e565b60405180910390fd5b610ba884828585611cb8565b610bb6868233878787611e68565b505050505050565b60008282604051602001610bd392919061454e565b6040516020818303038152906040528051906020012060001c905092915050565b610c06610bff611077565b83836120a7565b5050565b610c126113a0565b80600660006101000a81548173ffffffffffffffffffffffffffffffffffffffff021916908373ffffffffffffffffffffffffffffffffffffffff16021790555050565b610c5e611481565b6000610c6a8686610bbe565b90508573ffffffffffffffffffffffffffffffffffffffff166323b872dd8530886040518463ffffffff1660e01b8152600401610ca9939291906144ae565b600060405180830381600087803b158015610cc357600080fd5b505af1158015610cd7573d6000803e3d6000fd5b50505050610ce88382600185611cb8565b610cf6868683878787612213565b505050505050565b600660009054906101000a900473ffffffffffffffffffffffffffffffffffffffff1681565b600760009054906101000a900473ffffffffffffffffffffffffffffffffffffffff1681565b6000600160008473ffffffffffffffffffffffffffffffffffffffff1673ffffffffffffffffffffffffffffffffffffffff16815260200190815260200160002060008373ffffffffffffffffffffffffffffffffffffffff1673ffffffffffffffffffffffffffffffffffffffff16815260200190815260200160002060009054906101000a900460ff16905092915050565b610de6611077565b73ffffffffffffffffffffffffffffffffffffffff168573ffffffffffffffffffffffffffffffffffffffff161480610e2c5750610e2b85610e26611077565b610d4a565b5b610e6b576040517f08c379a0000000000000000000000000000000000000000000000000000000008152600401610e629061427f565b60405180910390fd5b610e788585858585612452565b5050505050565b610e876113a0565b600073ffffffffffffffffffffffffffffffffffffffff168173ffffffffffffffffffffffffffffffffffffffff1603610ef6576040517f08c379a0000000000000000000000000000000000000000000000000000000008152600401610eed906145ec565b60405180910390fd5b610eff81611b8f565b50565b600860009054906101000a900473ffffffffffffffffffffffffffffffffffffffff1681565b60007f01ffc9a7000000000000000000000000000000000000000000000000000000007bffffffffffffffffffffffffffffffffffffffffffffffffffffffff1916827bffffffffffffffffffffffffffffffffffffffffffffffffffffffff1916149050919050565b60606000600460008481526020019081526020016000208054610fb49061463b565b80601f0160208091040260200160405190810160405280929190818152602001828054610fe09061463b565b801561102d5780601f106110025761010080835404028352916020019161102d565b820191906000526020600020905b81548152906001019060200180831161101057829003601f168201915b50505050509050600081511161104b57611046836126ed565b61106f565b60038160405160200161105f929190614740565b6040516020818303038152906040525b915050919050565b600033905090565b81518351146110c3576040517f08c379a00000000000000000000000000000000000000000000000000000000081526004016110ba906147d6565b60405180910390fd5b600073ffffffffffffffffffffffffffffffffffffffff168473ffffffffffffffffffffffffffffffffffffffff1603611132576040517f08c379a000000000000000000000000000000000000000000000000000000000815260040161112990614868565b60405180910390fd5b600061113c611077565b905061114c818787878787612781565b60005b84518110156112fd57600085828151811061116d5761116c614331565b5b60200260200101519050600085838151811061118c5761118b614331565b5b60200260200101519050600080600084815260200190815260200160002060008b73ffffffffffffffffffffffffffffffffffffffff1673ffffffffffffffffffffffffffffffffffffffff1681526020019081526020016000205490508181101561122d576040517f08c379a0000000000000000000000000000000000000000000000000000000008152600401611224906148fa565b60405180910390fd5b81810360008085815260200190815260200160002060008c73ffffffffffffffffffffffffffffffffffffffff1673ffffffffffffffffffffffffffffffffffffffff168152602001908152602001600020819055508160008085815260200190815260200160002060008b73ffffffffffffffffffffffffffffffffffffffff1673ffffffffffffffffffffffffffffffffffffffff16815260200190815260200160002060008282546112e2919061491a565b92505081905550505050806112f69061438f565b905061114f565b508473ffffffffffffffffffffffffffffffffffffffff168673ffffffffffffffffffffffffffffffffffffffff168273ffffffffffffffffffffffffffffffffffffffff167f4a39dc06d4c0dbc64b70af90fd698a233a518aa5d07e595d983b8c0526c8f7fb878760405161137492919061494e565b60405180910390a461138a818787878787612a65565b611398818787878787612de2565b505050505050565b6113a8611077565b73ffffffffffffffffffffffffffffffffffffffff166113c6610a9e565b73ffffffffffffffffffffffffffffffffffffffff161461141c576040517f08c379a0000000000000000000000000000000000000000000000000000000008152600401611413906149d1565b60405180910390fd5b565b611426612fb9565b6000600560006101000a81548160ff0219169083151502179055507f5db9ee0a495bf2e6ff9c91a7834c1ba4fdd244a5e8aa4e537bd38aeae4b073aa61146a611077565b6040516114779190613e79565b60405180910390a1565b6114896109bb565b156114c9576040517f08c379a00000000000000000000000000000000000000000000000000000000081526004016114c090614a3d565b60405180910390fd5b565b600073ffffffffffffffffffffffffffffffffffffffff168373ffffffffffffffffffffffffffffffffffffffff160361153a576040517f08c379a000000000000000000000000000000000000000000000000000000000815260040161153190614acf565b60405180910390fd5b6000611544611077565b9050600061155184613002565b9050600061155e84613002565b905061157e83876000858560405180602001604052806000815250612781565b600080600087815260200190815260200160002060008873ffffffffffffffffffffffffffffffffffffffff1673ffffffffffffffffffffffffffffffffffffffff16815260200190815260200160002054905084811015611615576040517f08c379a000000000000000000000000000000000000000000000000000000000815260040161160c90614b61565b60405180910390fd5b84810360008088815260200190815260200160002060008973ffffffffffffffffffffffffffffffffffffffff1673ffffffffffffffffffffffffffffffffffffffff16815260200190815260200160002081905550600073ffffffffffffffffffffffffffffffffffffffff168773ffffffffffffffffffffffffffffffffffffffff168573ffffffffffffffffffffffffffffffffffffffff167fc3d58168c5ae7397731d063d5bbf3d657854427343f4c083240f7aacaa2d0f6289896040516116e2929190614b81565b60405180910390a461170884886000868660405180602001604052806000815250612a65565b50505050505050565b7fb7271e758ff408b37ddd718b846580fe18138146a5efcd28d0d6a74979e2a1f286868686868660405161174a96959493929190614bff565b60405180910390a1600073ffffffffffffffffffffffffffffffffffffffff16600760009054906101000a900473ffffffffffffffffffffffffffffffffffffffff1673ffffffffffffffffffffffffffffffffffffffff1614806117fd5750600073ffffffffffffffffffffffffffffffffffffffff16600860009054906101000a900473ffffffffffffffffffffffffffffffffffffffff1673ffffffffffffffffffffffffffffffffffffffff16145b61194857600760009054906101000a900473ffffffffffffffffffffffffffffffffffffffff1673ffffffffffffffffffffffffffffffffffffffff1663ba3d69d7600860009054906101000a900473ffffffffffffffffffffffffffffffffffffffff16866118828a73ffffffffffffffffffffffffffffffffffffffff1661307c565b61188b8a6130a9565b6118aa8a73ffffffffffffffffffffffffffffffffffffffff1661307c565b6118c98a73ffffffffffffffffffffffffffffffffffffffff1661307c565b6118d28a6130a9565b896040516020016118e896959493929190614f13565b6040516020818303038152906040526040518463ffffffff1660e01b815260040161191593929190614ffa565b600060405180830381600087803b15801561192f57600080fd5b505af1158015611943573d6000803e3d6000fd5b505050505b505050505050565b7ff6d170c2e977a15f6f88d5821ecf488aca751382e5add9230c224655a92cdeb586868686868660405161198996959493929190615038565b60405180910390a1600073ffffffffffffffffffffffffffffffffffffffff16600760009054906101000a900473ffffffffffffffffffffffffffffffffffffffff1673ffffffffffffffffffffffffffffffffffffffff161480611a3c5750600073ffffffffffffffffffffffffffffffffffffffff16600860009054906101000a900473ffffffffffffffffffffffffffffffffffffffff1673ffffffffffffffffffffffffffffffffffffffff16145b611b8757600760009054906101000a900473ffffffffffffffffffffffffffffffffffffffff1673ffffffffffffffffffffffffffffffffffffffff1663ba3d69d7600860009054906101000a900473ffffffffffffffffffffffffffffffffffffffff1685611ac18a73ffffffffffffffffffffffffffffffffffffffff1661307c565b611aca8a6130a9565b611ad38a6130a9565b611af28a73ffffffffffffffffffffffffffffffffffffffff1661307c565b611b118a73ffffffffffffffffffffffffffffffffffffffff1661307c565b89604051602001611b2796959493929190615138565b6040516020818303038152906040526040518463ffffffff1660e01b8152600401611b5493929190614ffa565b600060405180830381600087803b158015611b6e57600080fd5b505af1158015611b82573d6000803e3d6000fd5b505050505b505050505050565b6000600560019054906101000a900473ffffffffffffffffffffffffffffffffffffffff16905081600560016101000a81548173ffffffffffffffffffffffffffffffffffffffff021916908373ffffffffffffffffffffffffffffffffffffffff1602179055508173ffffffffffffffffffffffffffffffffffffffff168173ffffffffffffffffffffffffffffffffffffffff167f8be0079c531659141344cd1fd0a4f28419497f9722a3daafe3b4186f6b6457e060405160405180910390a35050565b611c5d611481565b6001600560006101000a81548160ff0219169083151502179055507f62e78cea01bee320cd4e420270b5ea74000d11b0c9f74754ebdbfc544b05a258611ca1611077565b604051611cae9190613e79565b60405180910390a1565b600073ffffffffffffffffffffffffffffffffffffffff168473ffffffffffffffffffffffffffffffffffffffff1603611d27576040517f08c379a0000000000000000000000000000000000000000000000000000000008152600401611d1e90615291565b60405180910390fd5b6000611d31611077565b90506000611d3e85613002565b90506000611d4b85613002565b9050611d5c83600089858589612781565b8460008088815260200190815260200160002060008973ffffffffffffffffffffffffffffffffffffffff1673ffffffffffffffffffffffffffffffffffffffff1681526020019081526020016000206000828254611dbb919061491a565b925050819055508673ffffffffffffffffffffffffffffffffffffffff16600073ffffffffffffffffffffffffffffffffffffffff168473ffffffffffffffffffffffffffffffffffffffff167fc3d58168c5ae7397731d063d5bbf3d657854427343f4c083240f7aacaa2d0f628989604051611e39929190614b81565b60405180910390a4611e5083600089858589612a65565b611e5f8360008989898961312e565b50505050505050565b7fac867b0c94ce6505841ee92fa0e1daf2d34d549ddf3bd7f6a4e4656604c81dd5868686868686604051611ea196959493929190614bff565b60405180910390a1600073ffffffffffffffffffffffffffffffffffffffff16600760009054906101000a900473ffffffffffffffffffffffffffffffffffffffff1673ffffffffffffffffffffffffffffffffffffffff161480611f545750600073ffffffffffffffffffffffffffffffffffffffff16600860009054906101000a900473ffffffffffffffffffffffffffffffffffffffff1673ffffffffffffffffffffffffffffffffffffffff16145b61209f57600760009054906101000a900473ffffffffffffffffffffffffffffffffffffffff1673ffffffffffffffffffffffffffffffffffffffff1663ba3d69d7600860009054906101000a900473ffffffffffffffffffffffffffffffffffffffff1686611fd98a73ffffffffffffffffffffffffffffffffffffffff1661307c565b611fe28a6130a9565b6120018a73ffffffffffffffffffffffffffffffffffffffff1661307c565b6120208a73ffffffffffffffffffffffffffffffffffffffff1661307c565b6120298a6130a9565b8960405160200161203f969594939291906152fd565b6040516020818303038152906040526040518463ffffffff1660e01b815260040161206c93929190614ffa565b600060405180830381600087803b15801561208657600080fd5b505af115801561209a573d6000803e3d6000fd5b505050505b505050505050565b8173ffffffffffffffffffffffffffffffffffffffff168373ffffffffffffffffffffffffffffffffffffffff1603612115576040517f08c379a000000000000000000000000000000000000000000000000000000000815260040161210c90615456565b60405180910390fd5b80600160008573ffffffffffffffffffffffffffffffffffffffff1673ffffffffffffffffffffffffffffffffffffffff16815260200190815260200160002060008473ffffffffffffffffffffffffffffffffffffffff1673ffffffffffffffffffffffffffffffffffffffff16815260200190815260200160002060006101000a81548160ff0219169083151502179055508173ffffffffffffffffffffffffffffffffffffffff168373ffffffffffffffffffffffffffffffffffffffff167f17307eab39ab6107e8899845ad3d59bd9653f200f220920489ca2b5937696c31836040516122069190613716565b60405180910390a3505050565b7faf6985cd85c6236f5219a3e4d053464810cadb35dc8ba7ecfbd8f25bdbffe60d86868686868660405161224c96959493929190615038565b60405180910390a1600073ffffffffffffffffffffffffffffffffffffffff16600760009054906101000a900473ffffffffffffffffffffffffffffffffffffffff1673ffffffffffffffffffffffffffffffffffffffff1614806122ff5750600073ffffffffffffffffffffffffffffffffffffffff16600860009054906101000a900473ffffffffffffffffffffffffffffffffffffffff1673ffffffffffffffffffffffffffffffffffffffff16145b61244a57600760009054906101000a900473ffffffffffffffffffffffffffffffffffffffff1673ffffffffffffffffffffffffffffffffffffffff1663ba3d69d7600860009054906101000a900473ffffffffffffffffffffffffffffffffffffffff16856123848a73ffffffffffffffffffffffffffffffffffffffff1661307c565b61238d8a6130a9565b6123968a6130a9565b6123b58a73ffffffffffffffffffffffffffffffffffffffff1661307c565b6123d48a73ffffffffffffffffffffffffffffffffffffffff1661307c565b896040516020016123ea969594939291906154c2565b6040516020818303038152906040526040518463ffffffff1660e01b815260040161241793929190614ffa565b600060405180830381600087803b15801561243157600080fd5b505af1158015612445573d6000803e3d6000fd5b505050505b505050505050565b600073ffffffffffffffffffffffffffffffffffffffff168473ffffffffffffffffffffffffffffffffffffffff16036124c1576040517f08c379a00000000000000000000000000000000000000000000000000000000081526004016124b890614868565b60405180910390fd5b60006124cb611077565b905060006124d885613002565b905060006124e585613002565b90506124f5838989858589612781565b600080600088815260200190815260200160002060008a73ffffffffffffffffffffffffffffffffffffffff1673ffffffffffffffffffffffffffffffffffffffff1681526020019081526020016000205490508581101561258c576040517f08c379a0000000000000000000000000000000000000000000000000000000008152600401612583906148fa565b60405180910390fd5b85810360008089815260200190815260200160002060008b73ffffffffffffffffffffffffffffffffffffffff1673ffffffffffffffffffffffffffffffffffffffff168152602001908152602001600020819055508560008089815260200190815260200160002060008a73ffffffffffffffffffffffffffffffffffffffff1673ffffffffffffffffffffffffffffffffffffffff1681526020019081526020016000206000828254612641919061491a565b925050819055508773ffffffffffffffffffffffffffffffffffffffff168973ffffffffffffffffffffffffffffffffffffffff168573ffffffffffffffffffffffffffffffffffffffff167fc3d58168c5ae7397731d063d5bbf3d657854427343f4c083240f7aacaa2d0f628a8a6040516126be929190614b81565b60405180910390a46126d4848a8a86868a612a65565b6126e2848a8a8a8a8a61312e565b505050505050505050565b6060600280546126fc9061463b565b80601f01602080910402602001604051908101604052809291908181526020018280546127289061463b565b80156127755780601f1061274a57610100808354040283529160200191612775565b820191906000526020600020905b81548152906001019060200180831161275857829003601f168201915b50505050509050919050565b600073ffffffffffffffffffffffffffffffffffffffff168573ffffffffffffffffffffffffffffffffffffffff16148061280a5750600073ffffffffffffffffffffffffffffffffffffffff16600660009054906101000a900473ffffffffffffffffffffffffffffffffffffffff1673ffffffffffffffffffffffffffffffffffffffff16145b806128b057506000600660009054906101000a900473ffffffffffffffffffffffffffffffffffffffff1673ffffffffffffffffffffffffffffffffffffffff166370a08231876040518263ffffffff1660e01b815260040161286d9190613e79565b602060405180830381865afa15801561288a573d6000803e3d6000fd5b505050506040513d601f19601f820116820180604052508101906128ae91906155be565b115b6128ef576040517f08c379a00000000000000000000000000000000000000000000000000000000081526004016128e690615637565b60405180910390fd5b600073ffffffffffffffffffffffffffffffffffffffff168473ffffffffffffffffffffffffffffffffffffffff1614806129785750600073ffffffffffffffffffffffffffffffffffffffff16600660009054906101000a900473ffffffffffffffffffffffffffffffffffffffff1673ffffffffffffffffffffffffffffffffffffffff16145b80612a1e57506000600660009054906101000a900473ffffffffffffffffffffffffffffffffffffffff1673ffffffffffffffffffffffffffffffffffffffff166370a08231866040518263ffffffff1660e01b81526004016129db9190613e79565b602060405180830381865afa1580156129f8573d6000803e3d6000fd5b505050506040513d601f19601f82011682018060405250810190612a1c91906155be565b115b612a5d576040517f08c379a0000000000000000000000000000000000000000000000000000000008152600401612a54906156a3565b60405180910390fd5b505050505050565b600073ffffffffffffffffffffffffffffffffffffffff168573ffffffffffffffffffffffffffffffffffffffff161480612acc5750600073ffffffffffffffffffffffffffffffffffffffff168473ffffffffffffffffffffffffffffffffffffffff16145b612dda576000604051602001612ae19061570f565b604051602081830303815290604052905080612b128873ffffffffffffffffffffffffffffffffffffffff1661307c565b612b318873ffffffffffffffffffffffffffffffffffffffff1661307c565b612b508873ffffffffffffffffffffffffffffffffffffffff1661307c565b604051602001612b639493929190615890565b60405160208183030381529060405290506000604051602001612b8590615946565b60405160208183030381529060405290506000604051602001612ba790615946565b604051602081830303815290604052905060005b8651811015612cfd5760008103612c5d5782612bf0888381518110612be357612be2614331565b5b60200260200101516130a9565b604051602001612c019291906159a7565b604051602081830303815290604052925081612c36878381518110612c2957612c28614331565b5b60200260200101516130a9565b604051602001612c479291906159a7565b6040516020818303038152906040529150612cea565b82612c81888381518110612c7457612c73614331565b5b60200260200101516130a9565b604051602001612c92929190615a2d565b604051602081830303815290604052925081612cc7878381518110612cba57612cb9614331565b5b60200260200101516130a9565b604051602001612cd8929190615a2d565b60405160208183030381529060405291505b8080612cf59061438f565b915050612bbb565b50600760009054906101000a900473ffffffffffffffffffffffffffffffffffffffff1673ffffffffffffffffffffffffffffffffffffffff1663ba3d69d7600860009054906101000a900473ffffffffffffffffffffffffffffffffffffffff168a8686868a604051602001612d779493929190615aff565b6040516020818303038152906040526040518463ffffffff1660e01b8152600401612da493929190614ffa565b600060405180830381600087803b158015612dbe57600080fd5b505af1158015612dd2573d6000803e3d6000fd5b505050505050505b505050505050565b612e018473ffffffffffffffffffffffffffffffffffffffff16613305565b15612fb1578373ffffffffffffffffffffffffffffffffffffffff1663bc197c8187878686866040518663ffffffff1660e01b8152600401612e47959493929190615b5e565b6020604051808303816000875af1925050508015612e8357506040513d601f19601f82011682018060405250810190612e809190615bdb565b60015b612f2857612e8f615c15565b806308c379a003612eeb5750612ea3615c37565b80612eae5750612eed565b806040517f08c379a0000000000000000000000000000000000000000000000000000000008152600401612ee291906137ee565b60405180910390fd5b505b6040517f08c379a0000000000000000000000000000000000000000000000000000000008152600401612f1f90615d39565b60405180910390fd5b63bc197c8160e01b7bffffffffffffffffffffffffffffffffffffffffffffffffffffffff1916817bffffffffffffffffffffffffffffffffffffffffffffffffffffffff191614612faf576040517f08c379a0000000000000000000000000000000000000000000000000000000008152600401612fa690615dcb565b60405180910390fd5b505b505050505050565b612fc16109bb565b613000576040517f08c379a0000000000000000000000000000000000000000000000000000000008152600401612ff790615e37565b60405180910390fd5b565b60606000600167ffffffffffffffff81111561302157613020613842565b5b60405190808252806020026020018201604052801561304f5781602001602082028036833780820191505090505b509050828160008151811061306757613066614331565b5b60200260200101818152505080915050919050565b60606130a28273ffffffffffffffffffffffffffffffffffffffff16601460ff16613328565b9050919050565b6060600082036130f0576040518060400160405280600481526020017f30783030000000000000000000000000000000000000000000000000000000008152509050613129565b600082905060005b6000821461311a57808061310b9061438f565b915050600882901c91506130f8565b6131248482613328565b925050505b919050565b61314d8473ffffffffffffffffffffffffffffffffffffffff16613305565b156132fd578373ffffffffffffffffffffffffffffffffffffffff1663f23a6e6187878686866040518663ffffffff1660e01b8152600401613193959493929190615e57565b6020604051808303816000875af19250505080156131cf57506040513d601f19601f820116820180604052508101906131cc9190615bdb565b60015b613274576131db615c15565b806308c379a00361323757506131ef615c37565b806131fa5750613239565b806040517f08c379a000000000000000000000000000000000000000000000000000000000815260040161322e91906137ee565b60405180910390fd5b505b6040517f08c379a000000000000000000000000000000000000000000000000000000000815260040161326b90615d39565b60405180910390fd5b63f23a6e6160e01b7bffffffffffffffffffffffffffffffffffffffffffffffffffffffff1916817bffffffffffffffffffffffffffffffffffffffffffffffffffffffff1916146132fb576040517f08c379a00000000000000000000000000000000000000000000000000000000081526004016132f290615dcb565b60405180910390fd5b505b505050505050565b6000808273ffffffffffffffffffffffffffffffffffffffff163b119050919050565b60606000600283600261333b9190615eb1565b613345919061491a565b67ffffffffffffffff81111561335e5761335d613842565b5b6040519080825280601f01601f1916602001820160405280156133905781602001600182028036833780820191505090505b5090507f3000000000000000000000000000000000000000000000000000000000000000816000815181106133c8576133c7614331565b5b60200101907effffffffffffffffffffffffffffffffffffffffffffffffffffffffffffff1916908160001a9053507f78000000000000000000000000000000000000000000000000000000000000008160018151811061342c5761342b614331565b5b60200101907effffffffffffffffffffffffffffffffffffffffffffffffffffffffffffff1916908160001a9053506000600184600261346c9190615eb1565b613476919061491a565b90505b6001811115613516577f3031323334353637383961626364656600000000000000000000000000000000600f8616601081106134b8576134b7614331565b5b1a60f81b8282815181106134cf576134ce614331565b5b60200101907effffffffffffffffffffffffffffffffffffffffffffffffffffffffffffff1916908160001a905350600485901c94508061350f90615ef3565b9050613479565b506000841461355a576040517f08c379a000000000000000000000000000000000000000000000000000000000815260040161355190615f68565b60405180910390fd5b8091505092915050565b6000604051905090565b600080fd5b600080fd5b600073ffffffffffffffffffffffffffffffffffffffff82169050919050565b60006135a382613578565b9050919050565b6135b381613598565b81146135be57600080fd5b50565b6000813590506135d0816135aa565b92915050565b6000819050919050565b6135e9816135d6565b81146135f457600080fd5b50565b600081359050613606816135e0565b92915050565b600080604083850312156136235761362261356e565b5b6000613631858286016135c1565b9250506020613642858286016135f7565b9150509250929050565b613655816135d6565b82525050565b6000602082019050613670600083018461364c565b92915050565b60007fffffffff0000000000000000000000000000000000000000000000000000000082169050919050565b6136ab81613676565b81146136b657600080fd5b50565b6000813590506136c8816136a2565b92915050565b6000602082840312156136e4576136e361356e565b5b60006136f2848285016136b9565b91505092915050565b60008115159050919050565b613710816136fb565b82525050565b600060208201905061372b6000830184613707565b92915050565b6000602082840312156137475761374661356e565b5b6000613755848285016135f7565b91505092915050565b600081519050919050565b600082825260208201905092915050565b60005b8381101561379857808201518184015260208101905061377d565b60008484015250505050565b6000601f19601f8301169050919050565b60006137c08261375e565b6137ca8185613769565b93506137da81856020860161377a565b6137e3816137a4565b840191505092915050565b6000602082019050818103600083015261380881846137b5565b905092915050565b6000602082840312156138265761382561356e565b5b6000613834848285016135c1565b91505092915050565b600080fd5b7f4e487b7100000000000000000000000000000000000000000000000000000000600052604160045260246000fd5b61387a826137a4565b810181811067ffffffffffffffff8211171561389957613898613842565b5b80604052505050565b60006138ac613564565b90506138b88282613871565b919050565b600067ffffffffffffffff8211156138d8576138d7613842565b5b602082029050602081019050919050565b600080fd5b60006139016138fc846138bd565b6138a2565b90508083825260208201905060208402830185811115613924576139236138e9565b5b835b8181101561394d578061393988826135f7565b845260208401935050602081019050613926565b5050509392505050565b600082601f83011261396c5761396b61383d565b5b813561397c8482602086016138ee565b91505092915050565b600080fd5b600067ffffffffffffffff8211156139a5576139a4613842565b5b6139ae826137a4565b9050602081019050919050565b82818337600083830152505050565b60006139dd6139d88461398a565b6138a2565b9050828152602081018484840111156139f9576139f8613985565b5b613a048482856139bb565b509392505050565b600082601f830112613a2157613a2061383d565b5b8135613a318482602086016139ca565b91505092915050565b600080600080600060a08688031215613a5657613a5561356e565b5b6000613a64888289016135c1565b9550506020613a75888289016135c1565b945050604086013567ffffffffffffffff811115613a9657613a95613573565b5b613aa288828901613957565b935050606086013567ffffffffffffffff811115613ac357613ac2613573565b5b613acf88828901613957565b925050608086013567ffffffffffffffff811115613af057613aef613573565b5b613afc88828901613a0c565b9150509295509295909350565b60008060408385031215613b2057613b1f61356e565b5b6000613b2e858286016135c1565b9250506020613b3f858286016135c1565b9150509250929050565b600067ffffffffffffffff821115613b6457613b63613842565b5b602082029050602081019050919050565b6000613b88613b8384613b49565b6138a2565b90508083825260208201905060208402830185811115613bab57613baa6138e9565b5b835b81811015613bd45780613bc088826135c1565b845260208401935050602081019050613bad565b5050509392505050565b600082601f830112613bf357613bf261383d565b5b8135613c03848260208601613b75565b91505092915050565b60008060408385031215613c2357613c2261356e565b5b600083013567ffffffffffffffff811115613c4157613c40613573565b5b613c4d85828601613bde565b925050602083013567ffffffffffffffff811115613c6e57613c6d613573565b5b613c7a85828601613957565b9150509250929050565b600081519050919050565b600082825260208201905092915050565b6000819050602082019050919050565b613cb9816135d6565b82525050565b6000613ccb8383613cb0565b60208301905092915050565b6000602082019050919050565b6000613cef82613c84565b613cf98185613c8f565b9350613d0483613ca0565b8060005b83811015613d35578151613d1c8882613cbf565b9750613d2783613cd7565b925050600181019050613d08565b5085935050505092915050565b60006020820190508181036000830152613d5c8184613ce4565b905092915050565b60008060008060808587031215613d7e57613d7d61356e565b5b6000613d8c878288016135c1565b9450506020613d9d878288016135c1565b9350506040613dae878288016135f7565b925050606085013567ffffffffffffffff811115613dcf57613dce613573565b5b613ddb87828801613a0c565b91505092959194509250565b60008060008060808587031215613e0157613e0061356e565b5b6000613e0f878288016135c1565b9450506020613e20878288016135f7565b9350506040613e31878288016135c1565b925050606085013567ffffffffffffffff811115613e5257613e51613573565b5b613e5e87828801613a0c565b91505092959194509250565b613e7381613598565b82525050565b6000602082019050613e8e6000830184613e6a565b92915050565b600080600080600060a08688031215613eb057613eaf61356e565b5b6000613ebe888289016135c1565b9550506020613ecf888289016135c1565b9450506040613ee0888289016135c1565b9350506060613ef1888289016135f7565b925050608086013567ffffffffffffffff811115613f1257613f11613573565b5b613f1e88828901613a0c565b9150509295509295909350565b613f34816136fb565b8114613f3f57600080fd5b50565b600081359050613f5181613f2b565b92915050565b60008060408385031215613f6e57613f6d61356e565b5b6000613f7c858286016135c1565b9250506020613f8d85828601613f42565b9150509250929050565b600080600080600060a08688031215613fb357613fb261356e565b5b6000613fc1888289016135c1565b9550506020613fd2888289016135f7565b9450506040613fe3888289016135c1565b9350506060613ff4888289016135c1565b925050608086013567ffffffffffffffff81111561401557614014613573565b5b61402188828901613a0c565b9150509295509295909350565b6000819050919050565b600061405361404e61404984613578565b61402e565b613578565b9050919050565b600061406582614038565b9050919050565b60006140778261405a565b9050919050565b6140878161406c565b82525050565b60006020820190506140a2600083018461407e565b92915050565b60006140b38261405a565b9050919050565b6140c3816140a8565b82525050565b60006020820190506140de60008301846140ba565b92915050565b600080600080600060a08688031215614100576140ff61356e565b5b600061410e888289016135c1565b955050602061411f888289016135c1565b9450506040614130888289016135f7565b9350506060614141888289016135f7565b925050608086013567ffffffffffffffff81111561416257614161613573565b5b61416e88828901613a0c565b9150509295509295909350565b7f455243313135353a2061646472657373207a65726f206973206e6f742061207660008201527f616c6964206f776e657200000000000000000000000000000000000000000000602082015250565b60006141d7602a83613769565b91506141e28261417b565b604082019050919050565b60006020820190508181036000830152614206816141ca565b9050919050565b7f455243313135353a2063616c6c6572206973206e6f7420746f6b656e206f776e60008201527f6572206e6f7220617070726f7665640000000000000000000000000000000000602082015250565b6000614269602f83613769565b91506142748261420d565b604082019050919050565b600060208201905081810360008301526142988161425c565b9050919050565b7f455243313135353a206163636f756e747320616e6420696473206c656e67746860008201527f206d69736d617463680000000000000000000000000000000000000000000000602082015250565b60006142fb602983613769565b91506143068261429f565b604082019050919050565b6000602082019050818103600083015261432a816142ee565b9050919050565b7f4e487b7100000000000000000000000000000000000000000000000000000000600052603260045260246000fd5b7f4e487b7100000000000000000000000000000000000000000000000000000000600052601160045260246000fd5b600061439a826135d6565b91507fffffffffffffffffffffffffffffffffffffffffffffffffffffffffffffffff82036143cc576143cb614360565b5b600182019050919050565b60006040820190506143ec6000830185613e6a565b6143f9602083018461364c565b9392505050565b60008151905061440f81613f2b565b92915050565b60006020828403121561442b5761442a61356e565b5b600061443984828501614400565b91505092915050565b7f63616e2774207472616e73666572000000000000000000000000000000000000600082015250565b6000614478600e83613769565b915061448382614442565b602082019050919050565b600060208201905081810360008301526144a78161446b565b9050919050565b60006060820190506144c36000830186613e6a565b6144d06020830185613e6a565b6144dd604083018461364c565b949350505050565b60008160601b9050919050565b60006144fd826144e5565b9050919050565b600061450f826144f2565b9050919050565b61452761452282613598565b614504565b82525050565b6000819050919050565b614548614543826135d6565b61452d565b82525050565b600061455a8285614516565b60148201915061456a8284614537565b6020820191508190509392505050565b7f4f776e61626c653a206e6577206f776e657220697320746865207a65726f206160008201527f6464726573730000000000000000000000000000000000000000000000000000602082015250565b60006145d6602683613769565b91506145e18261457a565b604082019050919050565b60006020820190508181036000830152614605816145c9565b9050919050565b7f4e487b7100000000000000000000000000000000000000000000000000000000600052602260045260246000fd5b6000600282049050600182168061465357607f821691505b6020821081036146665761466561460c565b5b50919050565b600081905092915050565b60008190508160005260206000209050919050565b600081546146998161463b565b6146a3818661466c565b945060018216600081146146be57600181146146d357614706565b60ff1983168652811515820286019350614706565b6146dc85614677565b60005b838110156146fe578154818901526001820191506020810190506146df565b838801955050505b50505092915050565b600061471a8261375e565b614724818561466c565b935061473481856020860161377a565b80840191505092915050565b600061474c828561468c565b9150614758828461470f565b91508190509392505050565b7f455243313135353a2069647320616e6420616d6f756e7473206c656e6774682060008201527f6d69736d61746368000000000000000000000000000000000000000000000000602082015250565b60006147c0602883613769565b91506147cb82614764565b604082019050919050565b600060208201905081810360008301526147ef816147b3565b9050919050565b7f455243313135353a207472616e7366657220746f20746865207a65726f20616460008201527f6472657373000000000000000000000000000000000000000000000000000000602082015250565b6000614852602583613769565b915061485d826147f6565b604082019050919050565b6000602082019050818103600083015261488181614845565b9050919050565b7f455243313135353a20696e73756666696369656e742062616c616e636520666f60008201527f72207472616e7366657200000000000000000000000000000000000000000000602082015250565b60006148e4602a83613769565b91506148ef82614888565b604082019050919050565b60006020820190508181036000830152614913816148d7565b9050919050565b6000614925826135d6565b9150614930836135d6565b925082820190508082111561494857614947614360565b5b92915050565b600060408201905081810360008301526149688185613ce4565b9050818103602083015261497c8184613ce4565b90509392505050565b7f4f776e61626c653a2063616c6c6572206973206e6f7420746865206f776e6572600082015250565b60006149bb602083613769565b91506149c682614985565b602082019050919050565b600060208201905081810360008301526149ea816149ae565b9050919050565b7f5061757361626c653a2070617573656400000000000000000000000000000000600082015250565b6000614a27601083613769565b9150614a32826149f1565b602082019050919050565b60006020820190508181036000830152614a5681614a1a565b9050919050565b7f455243313135353a206275726e2066726f6d20746865207a65726f206164647260008201527f6573730000000000000000000000000000000000000000000000000000000000602082015250565b6000614ab9602383613769565b9150614ac482614a5d565b604082019050919050565b60006020820190508181036000830152614ae881614aac565b9050919050565b7f455243313135353a206275726e20616d6f756e7420657863656564732062616c60008201527f616e636500000000000000000000000000000000000000000000000000000000602082015250565b6000614b4b602483613769565b9150614b5682614aef565b604082019050919050565b60006020820190508181036000830152614b7a81614b3e565b9050919050565b6000604082019050614b96600083018561364c565b614ba3602083018461364c565b9392505050565b600081519050919050565b600082825260208201905092915050565b6000614bd182614baa565b614bdb8185614bb5565b9350614beb81856020860161377a565b614bf4816137a4565b840191505092915050565b600060c082019050614c146000830189613e6a565b614c21602083018861364c565b614c2e6040830187613e6a565b614c3b6060830186613e6a565b614c48608083018561364c565b81810360a0830152614c5a8184614bc6565b9050979650505050505050565b7f302b332b455243323020546f6b656e2052656c65617365642b00000000000000600082015250565b6000614c9d60198361466c565b9150614ca882614c67565b601982019050919050565b7f7b22746f6b656e223a2200000000000000000000000000000000000000000000600082015250565b6000614ce9600a8361466c565b9150614cf482614cb3565b600a82019050919050565b7f222c000000000000000000000000000000000000000000000000000000000000600082015250565b6000614d3560028361466c565b9150614d4082614cff565b600282019050919050565b7f22777261707065645f746f6b656e5f6964223a22000000000000000000000000600082015250565b6000614d8160148361466c565b9150614d8c82614d4b565b601482019050919050565b7f2266726f6d223a22000000000000000000000000000000000000000000000000600082015250565b6000614dcd60088361466c565b9150614dd882614d97565b600882019050919050565b7f22746f223a220000000000000000000000000000000000000000000000000000600082015250565b6000614e1960068361466c565b9150614e2482614de3565b600682019050919050565b7f22616d6f756e74223a2200000000000000000000000000000000000000000000600082015250565b6000614e65600a8361466c565b9150614e7082614e2f565b600a82019050919050565b7f2264617461223a22000000000000000000000000000000000000000000000000600082015250565b6000614eb160088361466c565b9150614ebc82614e7b565b600882019050919050565b7f227d000000000000000000000000000000000000000000000000000000000000600082015250565b6000614efd60028361466c565b9150614f0882614ec7565b600282019050919050565b6000614f1e82614c90565b9150614f2982614cdc565b9150614f35828961470f565b9150614f4082614d28565b9150614f4b82614d74565b9150614f57828861470f565b9150614f6282614d28565b9150614f6d82614dc0565b9150614f79828761470f565b9150614f8482614d28565b9150614f8f82614e0c565b9150614f9b828661470f565b9150614fa682614d28565b9150614fb182614e58565b9150614fbd828561470f565b9150614fc882614d28565b9150614fd382614ea4565b9150614fdf828461470f565b9150614fea82614ef0565b9150819050979650505050505050565b600060608201905061500f6000830186613e6a565b61501c6020830185613e6a565b818103604083015261502e8184614bc6565b9050949350505050565b600060c08201905061504d6000830189613e6a565b61505a602083018861364c565b615067604083018761364c565b6150746060830186613e6a565b6150816080830185613e6a565b81810360a08301526150938184614bc6565b9050979650505050505050565b7f302b332b455243373231204e46542052656c65617365642b0000000000000000600082015250565b60006150d660188361466c565b91506150e1826150a0565b601882019050919050565b7f226964223a220000000000000000000000000000000000000000000000000000600082015250565b600061512260068361466c565b915061512d826150ec565b600682019050919050565b6000615143826150c9565b915061514e82614cdc565b915061515a828961470f565b915061516582614d28565b915061517082615115565b915061517c828861470f565b915061518782614d28565b915061519282614d74565b915061519e828761470f565b91506151a982614d28565b91506151b482614dc0565b91506151c0828661470f565b91506151cb82614d28565b91506151d682614e0c565b91506151e2828561470f565b91506151ed82614d28565b91506151f882614ea4565b9150615204828461470f565b915061520f82614ef0565b9150819050979650505050505050565b7f455243313135353a206d696e7420746f20746865207a65726f2061646472657360008201527f7300000000000000000000000000000000000000000000000000000000000000602082015250565b600061527b602183613769565b91506152868261521f565b604082019050919050565b600060208201905081810360008301526152aa8161526e565b9050919050565b7f302b332b455243323020546f6b656e204c6f636b65642b000000000000000000600082015250565b60006152e760178361466c565b91506152f2826152b1565b601782019050919050565b6000615308826152da565b915061531382614cdc565b915061531f828961470f565b915061532a82614d28565b915061533582614d74565b9150615341828861470f565b915061534c82614d28565b915061535782614dc0565b9150615363828761470f565b915061536e82614d28565b915061537982614e0c565b9150615385828661470f565b915061539082614d28565b915061539b82614e58565b91506153a7828561470f565b91506153b282614d28565b91506153bd82614ea4565b91506153c9828461470f565b91506153d482614ef0565b9150819050979650505050505050565b7f455243313135353a2073657474696e6720617070726f76616c2073746174757360008201527f20666f722073656c660000000000000000000000000000000000000000000000602082015250565b6000615440602983613769565b915061544b826153e4565b604082019050919050565b6000602082019050818103600083015261546f81615433565b9050919050565b7f302b332b455243373231204e4654204c6f636b65642b00000000000000000000600082015250565b60006154ac60168361466c565b91506154b782615476565b601682019050919050565b60006154cd8261549f565b91506154d882614cdc565b91506154e4828961470f565b91506154ef82614d28565b91506154fa82615115565b9150615506828861470f565b915061551182614d28565b915061551c82614d74565b9150615528828761470f565b915061553382614d28565b915061553e82614dc0565b915061554a828661470f565b915061555582614d28565b915061556082614e0c565b915061556c828561470f565b915061557782614d28565b915061558282614ea4565b915061558e828461470f565b915061559982614ef0565b9150819050979650505050505050565b6000815190506155b8816135e0565b92915050565b6000602082840312156155d4576155d361356e565b5b60006155e2848285016155a9565b91505092915050565b7f73656e64657220646f65736e27742068617665204b594320746f6b656e000000600082015250565b6000615621601d83613769565b915061562c826155eb565b602082019050919050565b6000602082019050818103600083015261565081615614565b9050919050565b7f726563697069656e7420646f65736e27742068617665204b594320746f6b656e600082015250565b600061568d602083613769565b915061569882615657565b602082019050919050565b600060208201905081810360008301526156bc81615680565b9050919050565b7f302b332b546f6b656e205472616e7366657265642b0000000000000000000000600082015250565b60006156f960158361466c565b9150615704826156c3565b601582019050919050565b600061571a826156ec565b9150819050919050565b600081905092915050565b600061573a82614baa565b6157448185615724565b935061575481856020860161377a565b80840191505092915050565b7f7b226f70657261746f72223a2200000000000000000000000000000000000000600082015250565b6000615796600d8361466c565b91506157a182615760565b600d82019050919050565b7f222c2266726f6d223a2200000000000000000000000000000000000000000000600082015250565b60006157e2600a8361466c565b91506157ed826157ac565b600a82019050919050565b7f222c22746f223a22000000000000000000000000000000000000000000000000600082015250565b600061582e60088361466c565b9150615839826157f8565b600882019050919050565b7f222c22696473223a000000000000000000000000000000000000000000000000600082015250565b600061587a60088361466c565b915061588582615844565b600882019050919050565b600061589c828761572f565b91506158a782615789565b91506158b3828661470f565b91506158be826157d5565b91506158ca828561470f565b91506158d582615821565b91506158e1828461470f565b91506158ec8261586d565b915081905095945050505050565b7f5b00000000000000000000000000000000000000000000000000000000000000600082015250565b600061593060018361466c565b915061593b826158fa565b600182019050919050565b600061595182615923565b9150819050919050565b7f2200000000000000000000000000000000000000000000000000000000000000600082015250565b600061599160018361466c565b915061599c8261595b565b600182019050919050565b60006159b3828561572f565b91506159be82615984565b91506159ca828461470f565b91506159d582615984565b91508190509392505050565b7f2c22000000000000000000000000000000000000000000000000000000000000600082015250565b6000615a1760028361466c565b9150615a22826159e1565b600282019050919050565b6000615a39828561572f565b9150615a4482615a0a565b9150615a50828461470f565b9150615a5b82615984565b91508190509392505050565b7f5d2c22616d6f756e7473223a5b00000000000000000000000000000000000000600082015250565b6000615a9d600d8361466c565b9150615aa882615a67565b600d82019050919050565b7f5d2c2264617461223a2200000000000000000000000000000000000000000000600082015250565b6000615ae9600a8361466c565b9150615af482615ab3565b600a82019050919050565b6000615b0b828761572f565b9150615b17828661572f565b9150615b2282615a90565b9150615b2e828561572f565b9150615b3982615adc565b9150615b45828461470f565b9150615b5082614ef0565b915081905095945050505050565b600060a082019050615b736000830188613e6a565b615b806020830187613e6a565b8181036040830152615b928186613ce4565b90508181036060830152615ba68185613ce4565b90508181036080830152615bba8184614bc6565b90509695505050505050565b600081519050615bd5816136a2565b92915050565b600060208284031215615bf157615bf061356e565b5b6000615bff84828501615bc6565b91505092915050565b60008160e01c9050919050565b600060033d1115615c345760046000803e615c31600051615c08565b90505b90565b600060443d10615cc457615c49613564565b60043d036004823e80513d602482011167ffffffffffffffff82111715615c71575050615cc4565b808201805167ffffffffffffffff811115615c8f5750505050615cc4565b80602083010160043d038501811115615cac575050505050615cc4565b615cbb82602001850186613871565b82955050505050505b90565b7f455243313135353a207472616e7366657220746f206e6f6e204552433131353560008201527f526563656976657220696d706c656d656e746572000000000000000000000000602082015250565b6000615d23603483613769565b9150615d2e82615cc7565b604082019050919050565b60006020820190508181036000830152615d5281615d16565b9050919050565b7f455243313135353a204552433131353552656365697665722072656a6563746560008201527f6420746f6b656e73000000000000000000000000000000000000000000000000602082015250565b6000615db5602883613769565b9150615dc082615d59565b604082019050919050565b60006020820190508181036000830152615de481615da8565b9050919050565b7f5061757361626c653a206e6f7420706175736564000000000000000000000000600082015250565b6000615e21601483613769565b9150615e2c82615deb565b602082019050919050565b60006020820190508181036000830152615e5081615e14565b9050919050565b600060a082019050615e6c6000830188613e6a565b615e796020830187613e6a565b615e86604083018661364c565b615e93606083018561364c565b8181036080830152615ea58184614bc6565b90509695505050505050565b6000615ebc826135d6565b9150615ec7836135d6565b9250828202615ed5816135d6565b91508282048414831517615eec57615eeb614360565b5b5092915050565b6000615efe826135d6565b915060008203615f1157615f10614360565b5b600182039050919050565b7f537472696e67733a20686578206c656e67746820696e73756666696369656e74600082015250565b6000615f52602083613769565b9150615f5d82615f1c565b602082019050919050565b60006020820190508181036000830152615f8181615f45565b905091905056fea26469706673582212209b0e5a979ec90af5961551e2e8596f7593293019e5c949ca7795bb84f62c6d8d64736f6c63430008110033","opcodes":"PUSH1 0x80 PUSH1 0x40 MSTORE PUSH1 0x40 MLOAD DUP1 PUSH1 0x20 ADD PUSH1 0x40 MSTORE DUP1 PUSH1 0x0 DUP2 MSTORE POP PUSH1 0x3 SWAP1 DUP2 PUSH3 0x24 SWAP2 SWAP1 PUSH3 0x4DE JUMP JUMPDEST POP CALLVALUE DUP1 ISZERO PUSH3 0x32 JUMPI PUSH1 0x0 DUP1 REVERT JUMPDEST POP PUSH1 0x40 MLOAD PUSH3 0x6659 CODESIZE SUB DUP1 PUSH3 0x6659 DUP4 CODECOPY DUP2 DUP2 ADD PUSH1 0x40 MSTORE DUP2 ADD SWAP1 PUSH3 0x58 SWAP2 SWAP1 PUSH3 0x62F JUMP JUMPDEST PUSH1 0x40 MLOAD DUP1 PUSH1 0x20 ADD PUSH1 0x40 MSTORE DUP1 PUSH1 0x0 DUP2 MSTORE POP PUSH3 0x79 DUP2 PUSH3 0x181 PUSH1 0x20 SHL PUSH1 0x20 SHR JUMP JUMPDEST POP PUSH1 0x0 PUSH1 0x5 PUSH1 0x0 PUSH2 0x100 EXP DUP2 SLOAD DUP2 PUSH1 0xFF MUL NOT AND SWAP1 DUP4 ISZERO ISZERO MUL OR SWAP1 SSTORE POP PUSH3 0xB5 PUSH3 0xA9 PUSH3 0x196 PUSH1 0x20 SHL PUSH1 0x20 SHR JUMP JUMPDEST PUSH3 0x19E PUSH1 0x20 SHL PUSH1 0x20 SHR JUMP JUMPDEST DUP3 PUSH1 0x6 PUSH1 0x0 PUSH2 0x100 EXP DUP2 SLOAD DUP2 PUSH20 0xFFFFFFFFFFFFFFFFFFFFFFFFFFFFFFFFFFFFFFFF MUL NOT AND SWAP1 DUP4 PUSH20 0xFFFFFFFFFFFFFFFFFFFFFFFFFFFFFFFFFFFFFFFF AND MUL OR SWAP1 SSTORE POP DUP2 PUSH1 0x7 PUSH1 0x0 PUSH2 0x100 EXP DUP2 SLOAD DUP2 PUSH20 0xFFFFFFFFFFFFFFFFFFFFFFFFFFFFFFFFFFFFFFFF MUL NOT AND SWAP1 DUP4 PUSH20 0xFFFFFFFFFFFFFFFFFFFFFFFFFFFFFFFFFFFFFFFF AND MUL OR SWAP1 SSTORE POP DUP1 PUSH1 0x8 PUSH1 0x0 PUSH2 0x100 EXP DUP2 SLOAD DUP2 PUSH20 0xFFFFFFFFFFFFFFFFFFFFFFFFFFFFFFFFFFFFFFFF MUL NOT AND SWAP1 DUP4 PUSH20 0xFFFFFFFFFFFFFFFFFFFFFFFFFFFFFFFFFFFFFFFF AND MUL OR SWAP1 SSTORE POP POP POP POP PUSH3 0x68B JUMP JUMPDEST DUP1 PUSH1 0x2 SWAP1 DUP2 PUSH3 0x192 SWAP2 SWAP1 PUSH3 0x4DE JUMP JUMPDEST POP POP JUMP JUMPDEST PUSH1 0x0 CALLER SWAP1 POP SWAP1 JUMP JUMPDEST PUSH1 0x0 PUSH1 0x5 PUSH1 0x1 SWAP1 SLOAD SWAP1 PUSH2 0x100 EXP SWAP1 DIV PUSH20 0xFFFFFFFFFFFFFFFFFFFFFFFFFFFFFFFFFFFFFFFF AND SWAP1 POP DUP2 PUSH1 0x5 PUSH1 0x1 PUSH2 0x100 EXP DUP2 SLOAD DUP2 PUSH20 0xFFFFFFFFFFFFFFFFFFFFFFFFFFFFFFFFFFFFFFFF MUL NOT AND SWAP1 DUP4 PUSH20 0xFFFFFFFFFFFFFFFFFFFFFFFFFFFFFFFFFFFFFFFF AND MUL OR SWAP1 SSTORE POP DUP2 PUSH20 0xFFFFFFFFFFFFFFFFFFFFFFFFFFFFFFFFFFFFFFFF AND DUP2 PUSH20 0xFFFFFFFFFFFFFFFFFFFFFFFFFFFFFFFFFFFFFFFF AND PUSH32 0x8BE0079C531659141344CD1FD0A4F28419497F9722A3DAAFE3B4186F6B6457E0 PUSH1 0x40 MLOAD PUSH1 0x40 MLOAD DUP1 SWAP2 SUB SWAP1 LOG3 POP POP JUMP JUMPDEST PUSH1 0x0 DUP2 MLOAD SWAP1 POP SWAP2 SWAP1 POP JUMP JUMPDEST PUSH32 0x4E487B7100000000000000000000000000000000000000000000000000000000 PUSH1 0x0 MSTORE PUSH1 0x41 PUSH1 0x4 MSTORE PUSH1 0x24 PUSH1 0x0 REVERT JUMPDEST PUSH32 0x4E487B7100000000000000000000000000000000000000000000000000000000 PUSH1 0x0 MSTORE PUSH1 0x22 PUSH1 0x4 MSTORE PUSH1 0x24 PUSH1 0x0 REVERT JUMPDEST PUSH1 0x0 PUSH1 0x2 DUP3 DIV SWAP1 POP PUSH1 0x1 DUP3 AND DUP1 PUSH3 0x2E6 JUMPI PUSH1 0x7F DUP3 AND SWAP2 POP JUMPDEST PUSH1 0x20 DUP3 LT DUP2 SUB PUSH3 0x2FC JUMPI PUSH3 0x2FB PUSH3 0x29E JUMP JUMPDEST JUMPDEST POP SWAP2 SWAP1 POP JUMP JUMPDEST PUSH1 0x0 DUP2 SWAP1 POP DUP2 PUSH1 0x0 MSTORE PUSH1 0x20 PUSH1 0x0 KECCAK256 SWAP1 POP SWAP2 SWAP1 POP JUMP JUMPDEST PUSH1 0x0 PUSH1 0x20 PUSH1 0x1F DUP4 ADD DIV SWAP1 POP SWAP2 SWAP1 POP JUMP JUMPDEST PUSH1 0x0 DUP3 DUP3 SHL SWAP1 POP SWAP3 SWAP2 POP POP JUMP JUMPDEST PUSH1 0x0 PUSH1 0x8 DUP4 MUL PUSH3 0x366 PUSH32 0xFFFFFFFFFFFFFFFFFFFFFFFFFFFFFFFFFFFFFFFFFFFFFFFFFFFFFFFFFFFFFFFF DUP3 PUSH3 0x327 JUMP JUMPDEST PUSH3 0x372 DUP7 DUP4 PUSH3 0x327 JUMP JUMPDEST SWAP6 POP DUP1 NOT DUP5 AND SWAP4 POP DUP1 DUP7 AND DUP5 OR SWAP3 POP POP POP SWAP4 SWAP3 POP POP POP JUMP JUMPDEST PUSH1 0x0 DUP2 SWAP1 POP SWAP2 SWAP1 POP JUMP JUMPDEST PUSH1 0x0 DUP2 SWAP1 POP SWAP2 SWAP1 POP JUMP JUMPDEST PUSH1 0x0 PUSH3 0x3BF PUSH3 0x3B9 PUSH3 0x3B3 DUP5 PUSH3 0x38A JUMP JUMPDEST PUSH3 0x394 JUMP JUMPDEST PUSH3 0x38A JUMP JUMPDEST SWAP1 POP SWAP2 SWAP1 POP JUMP JUMPDEST PUSH1 0x0 DUP2 SWAP1 POP SWAP2 SWAP1 POP JUMP JUMPDEST PUSH3 0x3DB DUP4 PUSH3 0x39E JUMP JUMPDEST PUSH3 0x3F3 PUSH3 0x3EA DUP3 PUSH3 0x3C6 JUMP JUMPDEST DUP5 DUP5 SLOAD PUSH3 0x334 JUMP JUMPDEST DUP3 SSTORE POP POP POP POP JUMP JUMPDEST PUSH1 0x0 SWAP1 JUMP JUMPDEST PUSH3 0x40A PUSH3 0x3FB JUMP JUMPDEST PUSH3 0x417 DUP2 DUP5 DUP5 PUSH3 0x3D0 JUMP JUMPDEST POP POP POP JUMP JUMPDEST JUMPDEST DUP2 DUP2 LT ISZERO PUSH3 0x43F JUMPI PUSH3 0x433 PUSH1 0x0 DUP3 PUSH3 0x400 JUMP JUMPDEST PUSH1 0x1 DUP2 ADD SWAP1 POP PUSH3 0x41D JUMP JUMPDEST POP POP JUMP JUMPDEST PUSH1 0x1F DUP3 GT ISZERO PUSH3 0x48E JUMPI PUSH3 0x458 DUP2 PUSH3 0x302 JUMP JUMPDEST PUSH3 0x463 DUP5 PUSH3 0x317 JUMP JUMPDEST DUP2 ADD PUSH1 0x20 DUP6 LT ISZERO PUSH3 0x473 JUMPI DUP2 SWAP1 POP JUMPDEST PUSH3 0x48B PUSH3 0x482 DUP6 PUSH3 0x317 JUMP JUMPDEST DUP4 ADD DUP3 PUSH3 0x41C JUMP JUMPDEST POP POP JUMPDEST POP POP POP JUMP JUMPDEST PUSH1 0x0 DUP3 DUP3 SHR SWAP1 POP SWAP3 SWAP2 POP POP JUMP JUMPDEST PUSH1 0x0 PUSH3 0x4B3 PUSH1 0x0 NOT DUP5 PUSH1 0x8 MUL PUSH3 0x493 JUMP JUMPDEST NOT DUP1 DUP4 AND SWAP2 POP POP SWAP3 SWAP2 POP POP JUMP JUMPDEST PUSH1 0x0 PUSH3 0x4CE DUP4 DUP4 PUSH3 0x4A0 JUMP JUMPDEST SWAP2 POP DUP3 PUSH1 0x2 MUL DUP3 OR SWAP1 POP SWAP3 SWAP2 POP POP JUMP JUMPDEST PUSH3 0x4E9 DUP3 PUSH3 0x264 JUMP JUMPDEST PUSH8 0xFFFFFFFFFFFFFFFF DUP2 GT ISZERO PUSH3 0x505 JUMPI PUSH3 0x504 PUSH3 0x26F JUMP JUMPDEST JUMPDEST PUSH3 0x511 DUP3 SLOAD PUSH3 0x2CD JUMP JUMPDEST PUSH3 0x51E DUP3 DUP3 DUP6 PUSH3 0x443 JUMP JUMPDEST PUSH1 0x0 PUSH1 0x20 SWAP1 POP PUSH1 0x1F DUP4 GT PUSH1 0x1 DUP2 EQ PUSH3 0x556 JUMPI PUSH1 0x0 DUP5 ISZERO PUSH3 0x541 JUMPI DUP3 DUP8 ADD MLOAD SWAP1 POP JUMPDEST PUSH3 0x54D DUP6 DUP3 PUSH3 0x4C0 JUMP JUMPDEST DUP7 SSTORE POP PUSH3 0x5BD JUMP JUMPDEST PUSH1 0x1F NOT DUP5 AND PUSH3 0x566 DUP7 PUSH3 0x302 JUMP JUMPDEST PUSH1 0x0 JUMPDEST DUP3 DUP2 LT ISZERO PUSH3 0x590 JUMPI DUP5 DUP10 ADD MLOAD DUP3 SSTORE PUSH1 0x1 DUP3 ADD SWAP2 POP PUSH1 0x20 DUP6 ADD SWAP5 POP PUSH1 0x20 DUP2 ADD SWAP1 POP PUSH3 0x569 JUMP JUMPDEST DUP7 DUP4 LT ISZERO PUSH3 0x5B0 JUMPI DUP5 DUP10 ADD MLOAD PUSH3 0x5AC PUSH1 0x1F DUP10 AND DUP3 PUSH3 0x4A0 JUMP JUMPDEST DUP4 SSTORE POP JUMPDEST PUSH1 0x1 PUSH1 0x2 DUP9 MUL ADD DUP9 SSTORE POP POP POP JUMPDEST POP POP POP POP POP POP JUMP JUMPDEST PUSH1 0x0 DUP1 REVERT JUMPDEST PUSH1 0x0 PUSH20 0xFFFFFFFFFFFFFFFFFFFFFFFFFFFFFFFFFFFFFFFF DUP3 AND SWAP1 POP SWAP2 SWAP1 POP JUMP JUMPDEST PUSH1 0x0 PUSH3 0x5F7 DUP3 PUSH3 0x5CA JUMP JUMPDEST SWAP1 POP SWAP2 SWAP1 POP JUMP JUMPDEST PUSH3 0x609 DUP2 PUSH3 0x5EA JUMP JUMPDEST DUP2 EQ PUSH3 0x615 JUMPI PUSH1 0x0 DUP1 REVERT JUMPDEST POP JUMP JUMPDEST PUSH1 0x0 DUP2 MLOAD SWAP1 POP PUSH3 0x629 DUP2 PUSH3 0x5FE JUMP JUMPDEST SWAP3 SWAP2 POP POP JUMP JUMPDEST PUSH1 0x0 DUP1 PUSH1 0x0 PUSH1 0x60 DUP5 DUP7 SUB SLT ISZERO PUSH3 0x64B JUMPI PUSH3 0x64A PUSH3 0x5C5 JUMP JUMPDEST JUMPDEST PUSH1 0x0 PUSH3 0x65B DUP7 DUP3 DUP8 ADD PUSH3 0x618 JUMP JUMPDEST SWAP4 POP POP PUSH1 0x20 PUSH3 0x66E DUP7 DUP3 DUP8 ADD PUSH3 0x618 JUMP JUMPDEST SWAP3 POP POP PUSH1 0x40 PUSH3 0x681 DUP7 DUP3 DUP8 ADD PUSH3 0x618 JUMP JUMPDEST SWAP2 POP POP SWAP3 POP SWAP3 POP SWAP3 JUMP JUMPDEST PUSH2 0x5FBE DUP1 PUSH3 0x69B PUSH1 0x0 CODECOPY PUSH1 0x0 RETURN INVALID PUSH1 0x80 PUSH1 0x40 MSTORE CALLVALUE DUP1 ISZERO PUSH2 0x10 JUMPI PUSH1 0x0 DUP1 REVERT JUMPDEST POP PUSH1 0x4 CALLDATASIZE LT PUSH2 0x172 JUMPI PUSH1 0x0 CALLDATALOAD PUSH1 0xE0 SHR DUP1 PUSH4 0x8456CB59 GT PUSH2 0xDE JUMPI DUP1 PUSH4 0xAD2EDF90 GT PUSH2 0x97 JUMPI DUP1 PUSH4 0xE985E9C5 GT PUSH2 0x71 JUMPI DUP1 PUSH4 0xE985E9C5 EQ PUSH2 0x40D JUMPI DUP1 PUSH4 0xF242432A EQ PUSH2 0x43D JUMPI DUP1 PUSH4 0xF2FDE38B EQ PUSH2 0x459 JUMPI DUP1 PUSH4 0xF4552982 EQ PUSH2 0x475 JUMPI PUSH2 0x172 JUMP JUMPDEST DUP1 PUSH4 0xAD2EDF90 EQ PUSH2 0x3B5 JUMPI DUP1 PUSH4 0xDEE3A00B EQ PUSH2 0x3D1 JUMPI DUP1 PUSH4 0xDFC40E31 EQ PUSH2 0x3EF JUMPI PUSH2 0x172 JUMP JUMPDEST DUP1 PUSH4 0x8456CB59 EQ PUSH2 0x309 JUMPI DUP1 PUSH4 0x8DA5CB5B EQ PUSH2 0x313 JUMPI DUP1 PUSH4 0x903ACBDB EQ PUSH2 0x331 JUMPI DUP1 PUSH4 0x98B6CA9B EQ PUSH2 0x34D JUMPI DUP1 PUSH4 0xA22CB465 EQ PUSH2 0x37D JUMPI DUP1 PUSH4 0xA3C1C4A9 EQ PUSH2 0x399 JUMPI PUSH2 0x172 JUMP JUMPDEST DUP1 PUSH4 0x3F4BA83A GT PUSH2 0x130 JUMPI DUP1 PUSH4 0x3F4BA83A EQ PUSH2 0x26F JUMPI DUP1 PUSH4 0x4E1273F4 EQ PUSH2 0x279 JUMPI DUP1 PUSH4 0x5668C3F4 EQ PUSH2 0x2A9 JUMPI DUP1 PUSH4 0x5C975ABB EQ PUSH2 0x2C5 JUMPI DUP1 PUSH4 0x672BF705 EQ PUSH2 0x2E3 JUMPI DUP1 PUSH4 0x715018A6 EQ PUSH2 0x2FF JUMPI PUSH2 0x172 JUMP JUMPDEST DUP1 PUSH3 0xFDD58E EQ PUSH2 0x177 JUMPI DUP1 PUSH4 0x1FFC9A7 EQ PUSH2 0x1A7 JUMPI DUP1 PUSH4 0xE89341C EQ PUSH2 0x1D7 JUMPI DUP1 PUSH4 0x29D06964 EQ PUSH2 0x207 JUMPI DUP1 PUSH4 0x2EB2C2D6 EQ PUSH2 0x237 JUMPI DUP1 PUSH4 0x37E4B0C2 EQ PUSH2 0x253 JUMPI JUMPDEST PUSH1 0x0 DUP1 REVERT JUMPDEST PUSH2 0x191 PUSH1 0x4 DUP1 CALLDATASIZE SUB DUP2 ADD SWAP1 PUSH2 0x18C SWAP2 SWAP1 PUSH2 0x360C JUMP JUMPDEST PUSH2 0x493 JUMP JUMPDEST PUSH1 0x40 MLOAD PUSH2 0x19E SWAP2 SWAP1 PUSH2 0x365B JUMP JUMPDEST PUSH1 0x40 MLOAD DUP1 SWAP2 SUB SWAP1 RETURN JUMPDEST PUSH2 0x1C1 PUSH1 0x4 DUP1 CALLDATASIZE SUB DUP2 ADD SWAP1 PUSH2 0x1BC SWAP2 SWAP1 PUSH2 0x36CE JUMP JUMPDEST PUSH2 0x55B JUMP JUMPDEST PUSH1 0x40 MLOAD PUSH2 0x1CE SWAP2 SWAP1 PUSH2 0x3716 JUMP JUMPDEST PUSH1 0x40 MLOAD DUP1 SWAP2 SUB SWAP1 RETURN JUMPDEST PUSH2 0x1F1 PUSH1 0x4 DUP1 CALLDATASIZE SUB DUP2 ADD SWAP1 PUSH2 0x1EC SWAP2 SWAP1 PUSH2 0x3731 JUMP JUMPDEST PUSH2 0x63D JUMP JUMPDEST PUSH1 0x40 MLOAD PUSH2 0x1FE SWAP2 SWAP1 PUSH2 0x37EE JUMP JUMPDEST PUSH1 0x40 MLOAD DUP1 SWAP2 SUB SWAP1 RETURN JUMPDEST PUSH2 0x221 PUSH1 0x4 DUP1 CALLDATASIZE SUB DUP2 ADD SWAP1 PUSH2 0x21C SWAP2 SWAP1 PUSH2 0x3810 JUMP JUMPDEST PUSH2 0x64F JUMP JUMPDEST PUSH1 0x40 MLOAD PUSH2 0x22E SWAP2 SWAP1 PUSH2 0x365B JUMP JUMPDEST PUSH1 0x40 MLOAD DUP1 SWAP2 SUB SWAP1 RETURN JUMPDEST PUSH2 0x251 PUSH1 0x4 DUP1 CALLDATASIZE SUB DUP2 ADD SWAP1 PUSH2 0x24C SWAP2 SWAP1 PUSH2 0x3A3A JUMP JUMPDEST PUSH2 0x66F JUMP JUMPDEST STOP JUMPDEST PUSH2 0x26D PUSH1 0x4 DUP1 CALLDATASIZE SUB DUP2 ADD SWAP1 PUSH2 0x268 SWAP2 SWAP1 PUSH2 0x3B09 JUMP JUMPDEST PUSH2 0x710 JUMP JUMPDEST STOP JUMPDEST PUSH2 0x277 PUSH2 0x79E JUMP JUMPDEST STOP JUMPDEST PUSH2 0x293 PUSH1 0x4 DUP1 CALLDATASIZE SUB DUP2 ADD SWAP1 PUSH2 0x28E SWAP2 SWAP1 PUSH2 0x3C0C JUMP JUMPDEST PUSH2 0x7B0 JUMP JUMPDEST PUSH1 0x40 MLOAD PUSH2 0x2A0 SWAP2 SWAP1 PUSH2 0x3D42 JUMP JUMPDEST PUSH1 0x40 MLOAD DUP1 SWAP2 SUB SWAP1 RETURN JUMPDEST PUSH2 0x2C3 PUSH1 0x4 DUP1 CALLDATASIZE SUB DUP2 ADD SWAP1 PUSH2 0x2BE SWAP2 SWAP1 PUSH2 0x3D64 JUMP JUMPDEST PUSH2 0x8C9 JUMP JUMPDEST STOP JUMPDEST PUSH2 0x2CD PUSH2 0x9BB JUMP JUMPDEST PUSH1 0x40 MLOAD PUSH2 0x2DA SWAP2 SWAP1 PUSH2 0x3716 JUMP JUMPDEST PUSH1 0x40 MLOAD DUP1 SWAP2 SUB SWAP1 RETURN JUMPDEST PUSH2 0x2FD PUSH1 0x4 DUP1 CALLDATASIZE SUB DUP2 ADD SWAP1 PUSH2 0x2F8 SWAP2 SWAP1 PUSH2 0x3DE7 JUMP JUMPDEST PUSH2 0x9D2 JUMP JUMPDEST STOP JUMPDEST PUSH2 0x307 PUSH2 0xA78 JUMP JUMPDEST STOP JUMPDEST PUSH2 0x311 PUSH2 0xA8C JUMP JUMPDEST STOP JUMPDEST PUSH2 0x31B PUSH2 0xA9E JUMP JUMPDEST PUSH1 0x40 MLOAD PUSH2 0x328 SWAP2 SWAP1 PUSH2 0x3E79 JUMP JUMPDEST PUSH1 0x40 MLOAD DUP1 SWAP2 SUB SWAP1 RETURN JUMPDEST PUSH2 0x34B PUSH1 0x4 DUP1 CALLDATASIZE SUB DUP2 ADD SWAP1 PUSH2 0x346 SWAP2 SWAP1 PUSH2 0x3E94 JUMP JUMPDEST PUSH2 0xAC8 JUMP JUMPDEST STOP JUMPDEST PUSH2 0x367 PUSH1 0x4 DUP1 CALLDATASIZE SUB DUP2 ADD SWAP1 PUSH2 0x362 SWAP2 SWAP1 PUSH2 0x360C JUMP JUMPDEST PUSH2 0xBBE JUMP JUMPDEST PUSH1 0x40 MLOAD PUSH2 0x374 SWAP2 SWAP1 PUSH2 0x365B JUMP JUMPDEST PUSH1 0x40 MLOAD DUP1 SWAP2 SUB SWAP1 RETURN JUMPDEST PUSH2 0x397 PUSH1 0x4 DUP1 CALLDATASIZE SUB DUP2 ADD SWAP1 PUSH2 0x392 SWAP2 SWAP1 PUSH2 0x3F57 JUMP JUMPDEST PUSH2 0xBF4 JUMP JUMPDEST STOP JUMPDEST PUSH2 0x3B3 PUSH1 0x4 DUP1 CALLDATASIZE SUB DUP2 ADD SWAP1 PUSH2 0x3AE SWAP2 SWAP1 PUSH2 0x3810 JUMP JUMPDEST PUSH2 0xC0A JUMP JUMPDEST STOP JUMPDEST PUSH2 0x3CF PUSH1 0x4 DUP1 CALLDATASIZE SUB DUP2 ADD SWAP1 PUSH2 0x3CA SWAP2 SWAP1 PUSH2 0x3F97 JUMP JUMPDEST PUSH2 0xC56 JUMP JUMPDEST STOP JUMPDEST PUSH2 0x3D9 PUSH2 0xCFE JUMP JUMPDEST PUSH1 0x40 MLOAD PUSH2 0x3E6 SWAP2 SWAP1 PUSH2 0x408D JUMP JUMPDEST PUSH1 0x40 MLOAD DUP1 SWAP2 SUB SWAP1 RETURN JUMPDEST PUSH2 0x3F7 PUSH2 0xD24 JUMP JUMPDEST PUSH1 0x40 MLOAD PUSH2 0x404 SWAP2 SWAP1 PUSH2 0x40C9 JUMP JUMPDEST PUSH1 0x40 MLOAD DUP1 SWAP2 SUB SWAP1 RETURN JUMPDEST PUSH2 0x427 PUSH1 0x4 DUP1 CALLDATASIZE SUB DUP2 ADD SWAP1 PUSH2 0x422 SWAP2 SWAP1 PUSH2 0x3B09 JUMP JUMPDEST PUSH2 0xD4A JUMP JUMPDEST PUSH1 0x40 MLOAD PUSH2 0x434 SWAP2 SWAP1 PUSH2 0x3716 JUMP JUMPDEST PUSH1 0x40 MLOAD DUP1 SWAP2 SUB SWAP1 RETURN JUMPDEST PUSH2 0x457 PUSH1 0x4 DUP1 CALLDATASIZE SUB DUP2 ADD SWAP1 PUSH2 0x452 SWAP2 SWAP1 PUSH2 0x40E4 JUMP JUMPDEST PUSH2 0xDDE JUMP JUMPDEST STOP JUMPDEST PUSH2 0x473 PUSH1 0x4 DUP1 CALLDATASIZE SUB DUP2 ADD SWAP1 PUSH2 0x46E SWAP2 SWAP1 PUSH2 0x3810 JUMP JUMPDEST PUSH2 0xE7F JUMP JUMPDEST STOP JUMPDEST PUSH2 0x47D PUSH2 0xF02 JUMP JUMPDEST PUSH1 0x40 MLOAD PUSH2 0x48A SWAP2 SWAP1 PUSH2 0x3E79 JUMP JUMPDEST PUSH1 0x40 MLOAD DUP1 SWAP2 SUB SWAP1 RETURN JUMPDEST PUSH1 0x0 DUP1 PUSH20 0xFFFFFFFFFFFFFFFFFFFFFFFFFFFFFFFFFFFFFFFF AND DUP4 PUSH20 0xFFFFFFFFFFFFFFFFFFFFFFFFFFFFFFFFFFFFFFFF AND SUB PUSH2 0x503 JUMPI PUSH1 0x40 MLOAD PUSH32 0x8C379A000000000000000000000000000000000000000000000000000000000 DUP2 MSTORE PUSH1 0x4 ADD PUSH2 0x4FA SWAP1 PUSH2 0x41ED JUMP JUMPDEST PUSH1 0x40 MLOAD DUP1 SWAP2 SUB SWAP1 REVERT JUMPDEST PUSH1 0x0 DUP1 DUP4 DUP2 MSTORE PUSH1 0x20 ADD SWAP1 DUP2 MSTORE PUSH1 0x20 ADD PUSH1 0x0 KECCAK256 PUSH1 0x0 DUP5 PUSH20 0xFFFFFFFFFFFFFFFFFFFFFFFFFFFFFFFFFFFFFFFF AND PUSH20 0xFFFFFFFFFFFFFFFFFFFFFFFFFFFFFFFFFFFFFFFF AND DUP2 MSTORE PUSH1 0x20 ADD SWAP1 DUP2 MSTORE PUSH1 0x20 ADD PUSH1 0x0 KECCAK256 SLOAD SWAP1 POP SWAP3 SWAP2 POP POP JUMP JUMPDEST PUSH1 0x0 PUSH32 0xD9B67A2600000000000000000000000000000000000000000000000000000000 PUSH28 0xFFFFFFFFFFFFFFFFFFFFFFFFFFFFFFFFFFFFFFFFFFFFFFFFFFFFFFFF NOT AND DUP3 PUSH28 0xFFFFFFFFFFFFFFFFFFFFFFFFFFFFFFFFFFFFFFFFFFFFFFFFFFFFFFFF NOT AND EQ DUP1 PUSH2 0x626 JUMPI POP PUSH32 0xE89341C00000000000000000000000000000000000000000000000000000000 PUSH28 0xFFFFFFFFFFFFFFFFFFFFFFFFFFFFFFFFFFFFFFFFFFFFFFFFFFFFFFFF NOT AND DUP3 PUSH28 0xFFFFFFFFFFFFFFFFFFFFFFFFFFFFFFFFFFFFFFFFFFFFFFFFFFFFFFFF NOT AND EQ JUMPDEST DUP1 PUSH2 0x636 JUMPI POP PUSH2 0x635 DUP3 PUSH2 0xF28 JUMP JUMPDEST JUMPDEST SWAP1 POP SWAP2 SWAP1 POP JUMP JUMPDEST PUSH1 0x60 PUSH2 0x648 DUP3 PUSH2 0xF92 JUMP JUMPDEST SWAP1 POP SWAP2 SWAP1 POP JUMP JUMPDEST PUSH1 0x0 DUP2 PUSH20 0xFFFFFFFFFFFFFFFFFFFFFFFFFFFFFFFFFFFFFFFF AND SWAP1 POP SWAP2 SWAP1 POP JUMP JUMPDEST PUSH2 0x677 PUSH2 0x1077 JUMP JUMPDEST PUSH20 0xFFFFFFFFFFFFFFFFFFFFFFFFFFFFFFFFFFFFFFFF AND DUP6 PUSH20 0xFFFFFFFFFFFFFFFFFFFFFFFFFFFFFFFFFFFFFFFF AND EQ DUP1 PUSH2 0x6BD JUMPI POP PUSH2 0x6BC DUP6 PUSH2 0x6B7 PUSH2 0x1077 JUMP JUMPDEST PUSH2 0xD4A JUMP JUMPDEST JUMPDEST PUSH2 0x6FC JUMPI PUSH1 0x40 MLOAD PUSH32 0x8C379A000000000000000000000000000000000000000000000000000000000 DUP2 MSTORE PUSH1 0x4 ADD PUSH2 0x6F3 SWAP1 PUSH2 0x427F JUMP JUMPDEST PUSH1 0x40 MLOAD DUP1 SWAP2 SUB SWAP1 REVERT JUMPDEST PUSH2 0x709 DUP6 DUP6 DUP6 DUP6 DUP6 PUSH2 0x107F JUMP JUMPDEST POP POP POP POP POP JUMP JUMPDEST PUSH2 0x718 PUSH2 0x13A0 JUMP JUMPDEST DUP2 PUSH1 0x7 PUSH1 0x0 PUSH2 0x100 EXP DUP2 SLOAD DUP2 PUSH20 0xFFFFFFFFFFFFFFFFFFFFFFFFFFFFFFFFFFFFFFFF MUL NOT AND SWAP1 DUP4 PUSH20 0xFFFFFFFFFFFFFFFFFFFFFFFFFFFFFFFFFFFFFFFF AND MUL OR SWAP1 SSTORE POP DUP1 PUSH1 0x8 PUSH1 0x0 PUSH2 0x100 EXP DUP2 SLOAD DUP2 PUSH20 0xFFFFFFFFFFFFFFFFFFFFFFFFFFFFFFFFFFFFFFFF MUL NOT AND SWAP1 DUP4 PUSH20 0xFFFFFFFFFFFFFFFFFFFFFFFFFFFFFFFFFFFFFFFF AND MUL OR SWAP1 SSTORE POP POP POP JUMP JUMPDEST PUSH2 0x7A6 PUSH2 0x13A0 JUMP JUMPDEST PUSH2 0x7AE PUSH2 0x141E JUMP JUMPDEST JUMP JUMPDEST PUSH1 0x60 DUP2 MLOAD DUP4 MLOAD EQ PUSH2 0x7F6 JUMPI PUSH1 0x40 MLOAD PUSH32 0x8C379A000000000000000000000000000000000000000000000000000000000 DUP2 MSTORE PUSH1 0x4 ADD PUSH2 0x7ED SWAP1 PUSH2 0x4311 JUMP JUMPDEST PUSH1 0x40 MLOAD DUP1 SWAP2 SUB SWAP1 REVERT JUMPDEST PUSH1 0x0 DUP4 MLOAD PUSH8 0xFFFFFFFFFFFFFFFF DUP2 GT ISZERO PUSH2 0x813 JUMPI PUSH2 0x812 PUSH2 0x3842 JUMP JUMPDEST JUMPDEST PUSH1 0x40 MLOAD SWAP1 DUP1 DUP3 MSTORE DUP1 PUSH1 0x20 MUL PUSH1 0x20 ADD DUP3 ADD PUSH1 0x40 MSTORE DUP1 ISZERO PUSH2 0x841 JUMPI DUP2 PUSH1 0x20 ADD PUSH1 0x20 DUP3 MUL DUP1 CALLDATASIZE DUP4 CALLDATACOPY DUP1 DUP3 ADD SWAP2 POP POP SWAP1 POP JUMPDEST POP SWAP1 POP PUSH1 0x0 JUMPDEST DUP5 MLOAD DUP2 LT ISZERO PUSH2 0x8BE JUMPI PUSH2 0x88E DUP6 DUP3 DUP2 MLOAD DUP2 LT PUSH2 0x866 JUMPI PUSH2 0x865 PUSH2 0x4331 JUMP JUMPDEST JUMPDEST PUSH1 0x20 MUL PUSH1 0x20 ADD ADD MLOAD DUP6 DUP4 DUP2 MLOAD DUP2 LT PUSH2 0x881 JUMPI PUSH2 0x880 PUSH2 0x4331 JUMP JUMPDEST JUMPDEST PUSH1 0x20 MUL PUSH1 0x20 ADD ADD MLOAD PUSH2 0x493 JUMP JUMPDEST DUP3 DUP3 DUP2 MLOAD DUP2 LT PUSH2 0x8A1 JUMPI PUSH2 0x8A0 PUSH2 0x4331 JUMP JUMPDEST JUMPDEST PUSH1 0x20 MUL PUSH1 0x20 ADD ADD DUP2 DUP2 MSTORE POP POP DUP1 PUSH2 0x8B7 SWAP1 PUSH2 0x438F JUMP JUMPDEST SWAP1 POP PUSH2 0x847 JUMP JUMPDEST POP DUP1 SWAP2 POP POP SWAP3 SWAP2 POP POP JUMP JUMPDEST PUSH2 0x8D1 PUSH2 0x1481 JUMP JUMPDEST PUSH1 0x0 PUSH2 0x8DC DUP6 PUSH2 0x64F JUMP JUMPDEST SWAP1 POP PUSH2 0x8E9 CALLER DUP3 DUP6 PUSH2 0x14CB JUMP JUMPDEST DUP5 PUSH20 0xFFFFFFFFFFFFFFFFFFFFFFFFFFFFFFFFFFFFFFFF AND PUSH4 0xA9059CBB DUP6 DUP6 PUSH1 0x40 MLOAD DUP4 PUSH4 0xFFFFFFFF AND PUSH1 0xE0 SHL DUP2 MSTORE PUSH1 0x4 ADD PUSH2 0x924 SWAP3 SWAP2 SWAP1 PUSH2 0x43D7 JUMP JUMPDEST PUSH1 0x20 PUSH1 0x40 MLOAD DUP1 DUP4 SUB DUP2 PUSH1 0x0 DUP8 GAS CALL ISZERO DUP1 ISZERO PUSH2 0x943 JUMPI RETURNDATASIZE PUSH1 0x0 DUP1 RETURNDATACOPY RETURNDATASIZE PUSH1 0x0 REVERT JUMPDEST POP POP POP POP PUSH1 0x40 MLOAD RETURNDATASIZE PUSH1 0x1F NOT PUSH1 0x1F DUP3 ADD AND DUP3 ADD DUP1 PUSH1 0x40 MSTORE POP DUP2 ADD SWAP1 PUSH2 0x967 SWAP2 SWAP1 PUSH2 0x4415 JUMP JUMPDEST PUSH2 0x9A6 JUMPI PUSH1 0x40 MLOAD PUSH32 0x8C379A000000000000000000000000000000000000000000000000000000000 DUP2 MSTORE PUSH1 0x4 ADD PUSH2 0x99D SWAP1 PUSH2 0x448E JUMP JUMPDEST PUSH1 0x40 MLOAD DUP1 SWAP2 SUB SWAP1 REVERT JUMPDEST PUSH2 0x9B4 DUP6 DUP3 CALLER DUP8 DUP8 DUP8 PUSH2 0x1711 JUMP JUMPDEST POP POP POP POP POP JUMP JUMPDEST PUSH1 0x0 PUSH1 0x5 PUSH1 0x0 SWAP1 SLOAD SWAP1 PUSH2 0x100 EXP SWAP1 DIV PUSH1 0xFF AND SWAP1 POP SWAP1 JUMP JUMPDEST PUSH2 0x9DA PUSH2 0x1481 JUMP JUMPDEST PUSH1 0x0 PUSH2 0x9E6 DUP6 DUP6 PUSH2 0xBBE JUMP JUMPDEST SWAP1 POP PUSH2 0x9F4 CALLER DUP3 PUSH1 0x1 PUSH2 0x14CB JUMP JUMPDEST DUP5 PUSH20 0xFFFFFFFFFFFFFFFFFFFFFFFFFFFFFFFFFFFFFFFF AND PUSH4 0x23B872DD ADDRESS DUP6 DUP8 PUSH1 0x40 MLOAD DUP5 PUSH4 0xFFFFFFFF AND PUSH1 0xE0 SHL DUP2 MSTORE PUSH1 0x4 ADD PUSH2 0xA31 SWAP4 SWAP3 SWAP2 SWAP1 PUSH2 0x44AE JUMP JUMPDEST PUSH1 0x0 PUSH1 0x40 MLOAD DUP1 DUP4 SUB DUP2 PUSH1 0x0 DUP8 DUP1 EXTCODESIZE ISZERO DUP1 ISZERO PUSH2 0xA4B JUMPI PUSH1 0x0 DUP1 REVERT JUMPDEST POP GAS CALL ISZERO DUP1 ISZERO PUSH2 0xA5F JUMPI RETURNDATASIZE PUSH1 0x0 DUP1 RETURNDATACOPY RETURNDATASIZE PUSH1 0x0 REVERT JUMPDEST POP POP POP POP PUSH2 0xA71 DUP6 DUP6 DUP4 CALLER DUP8 DUP8 PUSH2 0x1950 JUMP JUMPDEST POP POP POP POP POP JUMP JUMPDEST PUSH2 0xA80 PUSH2 0x13A0 JUMP JUMPDEST PUSH2 0xA8A PUSH1 0x0 PUSH2 0x1B8F JUMP JUMPDEST JUMP JUMPDEST PUSH2 0xA94 PUSH2 0x13A0 JUMP JUMPDEST PUSH2 0xA9C PUSH2 0x1C55 JUMP JUMPDEST JUMP JUMPDEST PUSH1 0x0 PUSH1 0x5 PUSH1 0x1 SWAP1 SLOAD SWAP1 PUSH2 0x100 EXP SWAP1 DIV PUSH20 0xFFFFFFFFFFFFFFFFFFFFFFFFFFFFFFFFFFFFFFFF AND SWAP1 POP SWAP1 JUMP JUMPDEST PUSH2 0xAD0 PUSH2 0x1481 JUMP JUMPDEST PUSH1 0x0 PUSH2 0xADB DUP7 PUSH2 0x64F JUMP JUMPDEST SWAP1 POP DUP6 PUSH20 0xFFFFFFFFFFFFFFFFFFFFFFFFFFFFFFFFFFFFFFFF AND PUSH4 0x23B872DD DUP7 ADDRESS DUP7 PUSH1 0x40 MLOAD DUP5 PUSH4 0xFFFFFFFF AND PUSH1 0xE0 SHL DUP2 MSTORE PUSH1 0x4 ADD PUSH2 0xB1A SWAP4 SWAP3 SWAP2 SWAP1 PUSH2 0x44AE JUMP JUMPDEST PUSH1 0x20 PUSH1 0x40 MLOAD DUP1 DUP4 SUB DUP2 PUSH1 0x0 DUP8 GAS CALL ISZERO DUP1 ISZERO PUSH2 0xB39 JUMPI RETURNDATASIZE PUSH1 0x0 DUP1 RETURNDATACOPY RETURNDATASIZE PUSH1 0x0 REVERT JUMPDEST POP POP POP POP PUSH1 0x40 MLOAD RETURNDATASIZE PUSH1 0x1F NOT PUSH1 0x1F DUP3 ADD AND DUP3 ADD DUP1 PUSH1 0x40 MSTORE POP DUP2 ADD SWAP1 PUSH2 0xB5D SWAP2 SWAP1 PUSH2 0x4415 JUMP JUMPDEST PUSH2 0xB9C JUMPI PUSH1 0x40 MLOAD PUSH32 0x8C379A000000000000000000000000000000000000000000000000000000000 DUP2 MSTORE PUSH1 0x4 ADD PUSH2 0xB93 SWAP1 PUSH2 0x448E JUMP JUMPDEST PUSH1 0x40 MLOAD DUP1 SWAP2 SUB SWAP1 REVERT JUMPDEST PUSH2 0xBA8 DUP5 DUP3 DUP6 DUP6 PUSH2 0x1CB8 JUMP JUMPDEST PUSH2 0xBB6 DUP7 DUP3 CALLER DUP8 DUP8 DUP8 PUSH2 0x1E68 JUMP JUMPDEST POP POP POP POP POP POP JUMP JUMPDEST PUSH1 0x0 DUP3 DUP3 PUSH1 0x40 MLOAD PUSH1 0x20 ADD PUSH2 0xBD3 SWAP3 SWAP2 SWAP1 PUSH2 0x454E JUMP JUMPDEST PUSH1 0x40 MLOAD PUSH1 0x20 DUP2 DUP4 SUB SUB DUP2 MSTORE SWAP1 PUSH1 0x40 MSTORE DUP1 MLOAD SWAP1 PUSH1 0x20 ADD KECCAK256 PUSH1 0x0 SHR SWAP1 POP SWAP3 SWAP2 POP POP JUMP JUMPDEST PUSH2 0xC06 PUSH2 0xBFF PUSH2 0x1077 JUMP JUMPDEST DUP4 DUP4 PUSH2 0x20A7 JUMP JUMPDEST POP POP JUMP JUMPDEST PUSH2 0xC12 PUSH2 0x13A0 JUMP JUMPDEST DUP1 PUSH1 0x6 PUSH1 0x0 PUSH2 0x100 EXP DUP2 SLOAD DUP2 PUSH20 0xFFFFFFFFFFFFFFFFFFFFFFFFFFFFFFFFFFFFFFFF MUL NOT AND SWAP1 DUP4 PUSH20 0xFFFFFFFFFFFFFFFFFFFFFFFFFFFFFFFFFFFFFFFF AND MUL OR SWAP1 SSTORE POP POP JUMP JUMPDEST PUSH2 0xC5E PUSH2 0x1481 JUMP JUMPDEST PUSH1 0x0 PUSH2 0xC6A DUP7 DUP7 PUSH2 0xBBE JUMP JUMPDEST SWAP1 POP DUP6 PUSH20 0xFFFFFFFFFFFFFFFFFFFFFFFFFFFFFFFFFFFFFFFF AND PUSH4 0x23B872DD DUP6 ADDRESS DUP9 PUSH1 0x40 MLOAD DUP5 PUSH4 0xFFFFFFFF AND PUSH1 0xE0 SHL DUP2 MSTORE PUSH1 0x4 ADD PUSH2 0xCA9 SWAP4 SWAP3 SWAP2 SWAP1 PUSH2 0x44AE JUMP JUMPDEST PUSH1 0x0 PUSH1 0x40 MLOAD DUP1 DUP4 SUB DUP2 PUSH1 0x0 DUP8 DUP1 EXTCODESIZE ISZERO DUP1 ISZERO PUSH2 0xCC3 JUMPI PUSH1 0x0 DUP1 REVERT JUMPDEST POP GAS CALL ISZERO DUP1 ISZERO PUSH2 0xCD7 JUMPI RETURNDATASIZE PUSH1 0x0 DUP1 RETURNDATACOPY RETURNDATASIZE PUSH1 0x0 REVERT JUMPDEST POP POP POP POP PUSH2 0xCE8 DUP4 DUP3 PUSH1 0x1 DUP6 PUSH2 0x1CB8 JUMP JUMPDEST PUSH2 0xCF6 DUP7 DUP7 DUP4 DUP8 DUP8 DUP8 PUSH2 0x2213 JUMP JUMPDEST POP POP POP POP POP POP JUMP JUMPDEST PUSH1 0x6 PUSH1 0x0 SWAP1 SLOAD SWAP1 PUSH2 0x100 EXP SWAP1 DIV PUSH20 0xFFFFFFFFFFFFFFFFFFFFFFFFFFFFFFFFFFFFFFFF AND DUP2 JUMP JUMPDEST PUSH1 0x7 PUSH1 0x0 SWAP1 SLOAD SWAP1 PUSH2 0x100 EXP SWAP1 DIV PUSH20 0xFFFFFFFFFFFFFFFFFFFFFFFFFFFFFFFFFFFFFFFF AND DUP2 JUMP JUMPDEST PUSH1 0x0 PUSH1 0x1 PUSH1 0x0 DUP5 PUSH20 0xFFFFFFFFFFFFFFFFFFFFFFFFFFFFFFFFFFFFFFFF AND PUSH20 0xFFFFFFFFFFFFFFFFFFFFFFFFFFFFFFFFFFFFFFFF AND DUP2 MSTORE PUSH1 0x20 ADD SWAP1 DUP2 MSTORE PUSH1 0x20 ADD PUSH1 0x0 KECCAK256 PUSH1 0x0 DUP4 PUSH20 0xFFFFFFFFFFFFFFFFFFFFFFFFFFFFFFFFFFFFFFFF AND PUSH20 0xFFFFFFFFFFFFFFFFFFFFFFFFFFFFFFFFFFFFFFFF AND DUP2 MSTORE PUSH1 0x20 ADD SWAP1 DUP2 MSTORE PUSH1 0x20 ADD PUSH1 0x0 KECCAK256 PUSH1 0x0 SWAP1 SLOAD SWAP1 PUSH2 0x100 EXP SWAP1 DIV PUSH1 0xFF AND SWAP1 POP SWAP3 SWAP2 POP POP JUMP JUMPDEST PUSH2 0xDE6 PUSH2 0x1077 JUMP JUMPDEST PUSH20 0xFFFFFFFFFFFFFFFFFFFFFFFFFFFFFFFFFFFFFFFF AND DUP6 PUSH20 0xFFFFFFFFFFFFFFFFFFFFFFFFFFFFFFFFFFFFFFFF AND EQ DUP1 PUSH2 0xE2C JUMPI POP PUSH2 0xE2B DUP6 PUSH2 0xE26 PUSH2 0x1077 JUMP JUMPDEST PUSH2 0xD4A JUMP JUMPDEST JUMPDEST PUSH2 0xE6B JUMPI PUSH1 0x40 MLOAD PUSH32 0x8C379A000000000000000000000000000000000000000000000000000000000 DUP2 MSTORE PUSH1 0x4 ADD PUSH2 0xE62 SWAP1 PUSH2 0x427F JUMP JUMPDEST PUSH1 0x40 MLOAD DUP1 SWAP2 SUB SWAP1 REVERT JUMPDEST PUSH2 0xE78 DUP6 DUP6 DUP6 DUP6 DUP6 PUSH2 0x2452 JUMP JUMPDEST POP POP POP POP POP JUMP JUMPDEST PUSH2 0xE87 PUSH2 0x13A0 JUMP JUMPDEST PUSH1 0x0 PUSH20 0xFFFFFFFFFFFFFFFFFFFFFFFFFFFFFFFFFFFFFFFF AND DUP2 PUSH20 0xFFFFFFFFFFFFFFFFFFFFFFFFFFFFFFFFFFFFFFFF AND SUB PUSH2 0xEF6 JUMPI PUSH1 0x40 MLOAD PUSH32 0x8C379A000000000000000000000000000000000000000000000000000000000 DUP2 MSTORE PUSH1 0x4 ADD PUSH2 0xEED SWAP1 PUSH2 0x45EC JUMP JUMPDEST PUSH1 0x40 MLOAD DUP1 SWAP2 SUB SWAP1 REVERT JUMPDEST PUSH2 0xEFF DUP2 PUSH2 0x1B8F JUMP JUMPDEST POP JUMP JUMPDEST PUSH1 0x8 PUSH1 0x0 SWAP1 SLOAD SWAP1 PUSH2 0x100 EXP SWAP1 DIV PUSH20 0xFFFFFFFFFFFFFFFFFFFFFFFFFFFFFFFFFFFFFFFF AND DUP2 JUMP JUMPDEST PUSH1 0x0 PUSH32 0x1FFC9A700000000000000000000000000000000000000000000000000000000 PUSH28 0xFFFFFFFFFFFFFFFFFFFFFFFFFFFFFFFFFFFFFFFFFFFFFFFFFFFFFFFF NOT AND DUP3 PUSH28 0xFFFFFFFFFFFFFFFFFFFFFFFFFFFFFFFFFFFFFFFFFFFFFFFFFFFFFFFF NOT AND EQ SWAP1 POP SWAP2 SWAP1 POP JUMP JUMPDEST PUSH1 0x60 PUSH1 0x0 PUSH1 0x4 PUSH1 0x0 DUP5 DUP2 MSTORE PUSH1 0x20 ADD SWAP1 DUP2 MSTORE PUSH1 0x20 ADD PUSH1 0x0 KECCAK256 DUP1 SLOAD PUSH2 0xFB4 SWAP1 PUSH2 0x463B JUMP JUMPDEST DUP1 PUSH1 0x1F ADD PUSH1 0x20 DUP1 SWAP2 DIV MUL PUSH1 0x20 ADD PUSH1 0x40 MLOAD SWAP1 DUP2 ADD PUSH1 0x40 MSTORE DUP1 SWAP3 SWAP2 SWAP1 DUP2 DUP2 MSTORE PUSH1 0x20 ADD DUP3 DUP1 SLOAD PUSH2 0xFE0 SWAP1 PUSH2 0x463B JUMP JUMPDEST DUP1 ISZERO PUSH2 0x102D JUMPI DUP1 PUSH1 0x1F LT PUSH2 0x1002 JUMPI PUSH2 0x100 DUP1 DUP4 SLOAD DIV MUL DUP4 MSTORE SWAP2 PUSH1 0x20 ADD SWAP2 PUSH2 0x102D JUMP JUMPDEST DUP3 ADD SWAP2 SWAP1 PUSH1 0x0 MSTORE PUSH1 0x20 PUSH1 0x0 KECCAK256 SWAP1 JUMPDEST DUP2 SLOAD DUP2 MSTORE SWAP1 PUSH1 0x1 ADD SWAP1 PUSH1 0x20 ADD DUP1 DUP4 GT PUSH2 0x1010 JUMPI DUP3 SWAP1 SUB PUSH1 0x1F AND DUP3 ADD SWAP2 JUMPDEST POP POP POP POP POP SWAP1 POP PUSH1 0x0 DUP2 MLOAD GT PUSH2 0x104B JUMPI PUSH2 0x1046 DUP4 PUSH2 0x26ED JUMP JUMPDEST PUSH2 0x106F JUMP JUMPDEST PUSH1 0x3 DUP2 PUSH1 0x40 MLOAD PUSH1 0x20 ADD PUSH2 0x105F SWAP3 SWAP2 SWAP1 PUSH2 0x4740 JUMP JUMPDEST PUSH1 0x40 MLOAD PUSH1 0x20 DUP2 DUP4 SUB SUB DUP2 MSTORE SWAP1 PUSH1 0x40 MSTORE JUMPDEST SWAP2 POP POP SWAP2 SWAP1 POP JUMP JUMPDEST PUSH1 0x0 CALLER SWAP1 POP SWAP1 JUMP JUMPDEST DUP2 MLOAD DUP4 MLOAD EQ PUSH2 0x10C3 JUMPI PUSH1 0x40 MLOAD PUSH32 0x8C379A000000000000000000000000000000000000000000000000000000000 DUP2 MSTORE PUSH1 0x4 ADD PUSH2 0x10BA SWAP1 PUSH2 0x47D6 JUMP JUMPDEST PUSH1 0x40 MLOAD DUP1 SWAP2 SUB SWAP1 REVERT JUMPDEST PUSH1 0x0 PUSH20 0xFFFFFFFFFFFFFFFFFFFFFFFFFFFFFFFFFFFFFFFF AND DUP5 PUSH20 0xFFFFFFFFFFFFFFFFFFFFFFFFFFFFFFFFFFFFFFFF AND SUB PUSH2 0x1132 JUMPI PUSH1 0x40 MLOAD PUSH32 0x8C379A000000000000000000000000000000000000000000000000000000000 DUP2 MSTORE PUSH1 0x4 ADD PUSH2 0x1129 SWAP1 PUSH2 0x4868 JUMP JUMPDEST PUSH1 0x40 MLOAD DUP1 SWAP2 SUB SWAP1 REVERT JUMPDEST PUSH1 0x0 PUSH2 0x113C PUSH2 0x1077 JUMP JUMPDEST SWAP1 POP PUSH2 0x114C DUP2 DUP8 DUP8 DUP8 DUP8 DUP8 PUSH2 0x2781 JUMP JUMPDEST PUSH1 0x0 JUMPDEST DUP5 MLOAD DUP2 LT ISZERO PUSH2 0x12FD JUMPI PUSH1 0x0 DUP6 DUP3 DUP2 MLOAD DUP2 LT PUSH2 0x116D JUMPI PUSH2 0x116C PUSH2 0x4331 JUMP JUMPDEST JUMPDEST PUSH1 0x20 MUL PUSH1 0x20 ADD ADD MLOAD SWAP1 POP PUSH1 0x0 DUP6 DUP4 DUP2 MLOAD DUP2 LT PUSH2 0x118C JUMPI PUSH2 0x118B PUSH2 0x4331 JUMP JUMPDEST JUMPDEST PUSH1 0x20 MUL PUSH1 0x20 ADD ADD MLOAD SWAP1 POP PUSH1 0x0 DUP1 PUSH1 0x0 DUP5 DUP2 MSTORE PUSH1 0x20 ADD SWAP1 DUP2 MSTORE PUSH1 0x20 ADD PUSH1 0x0 KECCAK256 PUSH1 0x0 DUP12 PUSH20 0xFFFFFFFFFFFFFFFFFFFFFFFFFFFFFFFFFFFFFFFF AND PUSH20 0xFFFFFFFFFFFFFFFFFFFFFFFFFFFFFFFFFFFFFFFF AND DUP2 MSTORE PUSH1 0x20 ADD SWAP1 DUP2 MSTORE PUSH1 0x20 ADD PUSH1 0x0 KECCAK256 SLOAD SWAP1 POP DUP2 DUP2 LT ISZERO PUSH2 0x122D JUMPI PUSH1 0x40 MLOAD PUSH32 0x8C379A000000000000000000000000000000000000000000000000000000000 DUP2 MSTORE PUSH1 0x4 ADD PUSH2 0x1224 SWAP1 PUSH2 0x48FA JUMP JUMPDEST PUSH1 0x40 MLOAD DUP1 SWAP2 SUB SWAP1 REVERT JUMPDEST DUP2 DUP2 SUB PUSH1 0x0 DUP1 DUP6 DUP2 MSTORE PUSH1 0x20 ADD SWAP1 DUP2 MSTORE PUSH1 0x20 ADD PUSH1 0x0 KECCAK256 PUSH1 0x0 DUP13 PUSH20 0xFFFFFFFFFFFFFFFFFFFFFFFFFFFFFFFFFFFFFFFF AND PUSH20 0xFFFFFFFFFFFFFFFFFFFFFFFFFFFFFFFFFFFFFFFF AND DUP2 MSTORE PUSH1 0x20 ADD SWAP1 DUP2 MSTORE PUSH1 0x20 ADD PUSH1 0x0 KECCAK256 DUP2 SWAP1 SSTORE POP DUP2 PUSH1 0x0 DUP1 DUP6 DUP2 MSTORE PUSH1 0x20 ADD SWAP1 DUP2 MSTORE PUSH1 0x20 ADD PUSH1 0x0 KECCAK256 PUSH1 0x0 DUP12 PUSH20 0xFFFFFFFFFFFFFFFFFFFFFFFFFFFFFFFFFFFFFFFF AND PUSH20 0xFFFFFFFFFFFFFFFFFFFFFFFFFFFFFFFFFFFFFFFF AND DUP2 MSTORE PUSH1 0x20 ADD SWAP1 DUP2 MSTORE PUSH1 0x20 ADD PUSH1 0x0 KECCAK256 PUSH1 0x0 DUP3 DUP3 SLOAD PUSH2 0x12E2 SWAP2 SWAP1 PUSH2 0x491A JUMP JUMPDEST SWAP3 POP POP DUP2 SWAP1 SSTORE POP POP POP POP DUP1 PUSH2 0x12F6 SWAP1 PUSH2 0x438F JUMP JUMPDEST SWAP1 POP PUSH2 0x114F JUMP JUMPDEST POP DUP5 PUSH20 0xFFFFFFFFFFFFFFFFFFFFFFFFFFFFFFFFFFFFFFFF AND DUP7 PUSH20 0xFFFFFFFFFFFFFFFFFFFFFFFFFFFFFFFFFFFFFFFF AND DUP3 PUSH20 0xFFFFFFFFFFFFFFFFFFFFFFFFFFFFFFFFFFFFFFFF AND PUSH32 0x4A39DC06D4C0DBC64B70AF90FD698A233A518AA5D07E595D983B8C0526C8F7FB DUP8 DUP8 PUSH1 0x40 MLOAD PUSH2 0x1374 SWAP3 SWAP2 SWAP1 PUSH2 0x494E JUMP JUMPDEST PUSH1 0x40 MLOAD DUP1 SWAP2 SUB SWAP1 LOG4 PUSH2 0x138A DUP2 DUP8 DUP8 DUP8 DUP8 DUP8 PUSH2 0x2A65 JUMP JUMPDEST PUSH2 0x1398 DUP2 DUP8 DUP8 DUP8 DUP8 DUP8 PUSH2 0x2DE2 JUMP JUMPDEST POP POP POP POP POP POP JUMP JUMPDEST PUSH2 0x13A8 PUSH2 0x1077 JUMP JUMPDEST PUSH20 0xFFFFFFFFFFFFFFFFFFFFFFFFFFFFFFFFFFFFFFFF AND PUSH2 0x13C6 PUSH2 0xA9E JUMP JUMPDEST PUSH20 0xFFFFFFFFFFFFFFFFFFFFFFFFFFFFFFFFFFFFFFFF AND EQ PUSH2 0x141C JUMPI PUSH1 0x40 MLOAD PUSH32 0x8C379A000000000000000000000000000000000000000000000000000000000 DUP2 MSTORE PUSH1 0x4 ADD PUSH2 0x1413 SWAP1 PUSH2 0x49D1 JUMP JUMPDEST PUSH1 0x40 MLOAD DUP1 SWAP2 SUB SWAP1 REVERT JUMPDEST JUMP JUMPDEST PUSH2 0x1426 PUSH2 0x2FB9 JUMP JUMPDEST PUSH1 0x0 PUSH1 0x5 PUSH1 0x0 PUSH2 0x100 EXP DUP2 SLOAD DUP2 PUSH1 0xFF MUL NOT AND SWAP1 DUP4 ISZERO ISZERO MUL OR SWAP1 SSTORE POP PUSH32 0x5DB9EE0A495BF2E6FF9C91A7834C1BA4FDD244A5E8AA4E537BD38AEAE4B073AA PUSH2 0x146A PUSH2 0x1077 JUMP JUMPDEST PUSH1 0x40 MLOAD PUSH2 0x1477 SWAP2 SWAP1 PUSH2 0x3E79 JUMP JUMPDEST PUSH1 0x40 MLOAD DUP1 SWAP2 SUB SWAP1 LOG1 JUMP JUMPDEST PUSH2 0x1489 PUSH2 0x9BB JUMP JUMPDEST ISZERO PUSH2 0x14C9 JUMPI PUSH1 0x40 MLOAD PUSH32 0x8C379A000000000000000000000000000000000000000000000000000000000 DUP2 MSTORE PUSH1 0x4 ADD PUSH2 0x14C0 SWAP1 PUSH2 0x4A3D JUMP JUMPDEST PUSH1 0x40 MLOAD DUP1 SWAP2 SUB SWAP1 REVERT JUMPDEST JUMP JUMPDEST PUSH1 0x0 PUSH20 0xFFFFFFFFFFFFFFFFFFFFFFFFFFFFFFFFFFFFFFFF AND DUP4 PUSH20 0xFFFFFFFFFFFFFFFFFFFFFFFFFFFFFFFFFFFFFFFF AND SUB PUSH2 0x153A JUMPI PUSH1 0x40 MLOAD PUSH32 0x8C379A000000000000000000000000000000000000000000000000000000000 DUP2 MSTORE PUSH1 0x4 ADD PUSH2 0x1531 SWAP1 PUSH2 0x4ACF JUMP JUMPDEST PUSH1 0x40 MLOAD DUP1 SWAP2 SUB SWAP1 REVERT JUMPDEST PUSH1 0x0 PUSH2 0x1544 PUSH2 0x1077 JUMP JUMPDEST SWAP1 POP PUSH1 0x0 PUSH2 0x1551 DUP5 PUSH2 0x3002 JUMP JUMPDEST SWAP1 POP PUSH1 0x0 PUSH2 0x155E DUP5 PUSH2 0x3002 JUMP JUMPDEST SWAP1 POP PUSH2 0x157E DUP4 DUP8 PUSH1 0x0 DUP6 DUP6 PUSH1 0x40 MLOAD DUP1 PUSH1 0x20 ADD PUSH1 0x40 MSTORE DUP1 PUSH1 0x0 DUP2 MSTORE POP PUSH2 0x2781 JUMP JUMPDEST PUSH1 0x0 DUP1 PUSH1 0x0 DUP8 DUP2 MSTORE PUSH1 0x20 ADD SWAP1 DUP2 MSTORE PUSH1 0x20 ADD PUSH1 0x0 KECCAK256 PUSH1 0x0 DUP9 PUSH20 0xFFFFFFFFFFFFFFFFFFFFFFFFFFFFFFFFFFFFFFFF AND PUSH20 0xFFFFFFFFFFFFFFFFFFFFFFFFFFFFFFFFFFFFFFFF AND DUP2 MSTORE PUSH1 0x20 ADD SWAP1 DUP2 MSTORE PUSH1 0x20 ADD PUSH1 0x0 KECCAK256 SLOAD SWAP1 POP DUP5 DUP2 LT ISZERO PUSH2 0x1615 JUMPI PUSH1 0x40 MLOAD PUSH32 0x8C379A000000000000000000000000000000000000000000000000000000000 DUP2 MSTORE PUSH1 0x4 ADD PUSH2 0x160C SWAP1 PUSH2 0x4B61 JUMP JUMPDEST PUSH1 0x40 MLOAD DUP1 SWAP2 SUB SWAP1 REVERT JUMPDEST DUP5 DUP2 SUB PUSH1 0x0 DUP1 DUP9 DUP2 MSTORE PUSH1 0x20 ADD SWAP1 DUP2 MSTORE PUSH1 0x20 ADD PUSH1 0x0 KECCAK256 PUSH1 0x0 DUP10 PUSH20 0xFFFFFFFFFFFFFFFFFFFFFFFFFFFFFFFFFFFFFFFF AND PUSH20 0xFFFFFFFFFFFFFFFFFFFFFFFFFFFFFFFFFFFFFFFF AND DUP2 MSTORE PUSH1 0x20 ADD SWAP1 DUP2 MSTORE PUSH1 0x20 ADD PUSH1 0x0 KECCAK256 DUP2 SWAP1 SSTORE POP PUSH1 0x0 PUSH20 0xFFFFFFFFFFFFFFFFFFFFFFFFFFFFFFFFFFFFFFFF AND DUP8 PUSH20 0xFFFFFFFFFFFFFFFFFFFFFFFFFFFFFFFFFFFFFFFF AND DUP6 PUSH20 0xFFFFFFFFFFFFFFFFFFFFFFFFFFFFFFFFFFFFFFFF AND PUSH32 0xC3D58168C5AE7397731D063D5BBF3D657854427343F4C083240F7AACAA2D0F62 DUP10 DUP10 PUSH1 0x40 MLOAD PUSH2 0x16E2 SWAP3 SWAP2 SWAP1 PUSH2 0x4B81 JUMP JUMPDEST PUSH1 0x40 MLOAD DUP1 SWAP2 SUB SWAP1 LOG4 PUSH2 0x1708 DUP5 DUP9 PUSH1 0x0 DUP7 DUP7 PUSH1 0x40 MLOAD DUP1 PUSH1 0x20 ADD PUSH1 0x40 MSTORE DUP1 PUSH1 0x0 DUP2 MSTORE POP PUSH2 0x2A65 JUMP JUMPDEST POP POP POP POP POP POP POP JUMP JUMPDEST PUSH32 0xB7271E758FF408B37DDD718B846580FE18138146A5EFCD28D0D6A74979E2A1F2 DUP7 DUP7 DUP7 DUP7 DUP7 DUP7 PUSH1 0x40 MLOAD PUSH2 0x174A SWAP7 SWAP6 SWAP5 SWAP4 SWAP3 SWAP2 SWAP1 PUSH2 0x4BFF JUMP JUMPDEST PUSH1 0x40 MLOAD DUP1 SWAP2 SUB SWAP1 LOG1 PUSH1 0x0 PUSH20 0xFFFFFFFFFFFFFFFFFFFFFFFFFFFFFFFFFFFFFFFF AND PUSH1 0x7 PUSH1 0x0 SWAP1 SLOAD SWAP1 PUSH2 0x100 EXP SWAP1 DIV PUSH20 0xFFFFFFFFFFFFFFFFFFFFFFFFFFFFFFFFFFFFFFFF AND PUSH20 0xFFFFFFFFFFFFFFFFFFFFFFFFFFFFFFFFFFFFFFFF AND EQ DUP1 PUSH2 0x17FD JUMPI POP PUSH1 0x0 PUSH20 0xFFFFFFFFFFFFFFFFFFFFFFFFFFFFFFFFFFFFFFFF AND PUSH1 0x8 PUSH1 0x0 SWAP1 SLOAD SWAP1 PUSH2 0x100 EXP SWAP1 DIV PUSH20 0xFFFFFFFFFFFFFFFFFFFFFFFFFFFFFFFFFFFFFFFF AND PUSH20 0xFFFFFFFFFFFFFFFFFFFFFFFFFFFFFFFFFFFFFFFF AND EQ JUMPDEST PUSH2 0x1948 JUMPI PUSH1 0x7 PUSH1 0x0 SWAP1 SLOAD SWAP1 PUSH2 0x100 EXP SWAP1 DIV PUSH20 0xFFFFFFFFFFFFFFFFFFFFFFFFFFFFFFFFFFFFFFFF AND PUSH20 0xFFFFFFFFFFFFFFFFFFFFFFFFFFFFFFFFFFFFFFFF AND PUSH4 0xBA3D69D7 PUSH1 0x8 PUSH1 0x0 SWAP1 SLOAD SWAP1 PUSH2 0x100 EXP SWAP1 DIV PUSH20 0xFFFFFFFFFFFFFFFFFFFFFFFFFFFFFFFFFFFFFFFF AND DUP7 PUSH2 0x1882 DUP11 PUSH20 0xFFFFFFFFFFFFFFFFFFFFFFFFFFFFFFFFFFFFFFFF AND PUSH2 0x307C JUMP JUMPDEST PUSH2 0x188B DUP11 PUSH2 0x30A9 JUMP JUMPDEST PUSH2 0x18AA DUP11 PUSH20 0xFFFFFFFFFFFFFFFFFFFFFFFFFFFFFFFFFFFFFFFF AND PUSH2 0x307C JUMP JUMPDEST PUSH2 0x18C9 DUP11 PUSH20 0xFFFFFFFFFFFFFFFFFFFFFFFFFFFFFFFFFFFFFFFF AND PUSH2 0x307C JUMP JUMPDEST PUSH2 0x18D2 DUP11 PUSH2 0x30A9 JUMP JUMPDEST DUP10 PUSH1 0x40 MLOAD PUSH1 0x20 ADD PUSH2 0x18E8 SWAP7 SWAP6 SWAP5 SWAP4 SWAP3 SWAP2 SWAP1 PUSH2 0x4F13 JUMP JUMPDEST PUSH1 0x40 MLOAD PUSH1 0x20 DUP2 DUP4 SUB SUB DUP2 MSTORE SWAP1 PUSH1 0x40 MSTORE PUSH1 0x40 MLOAD DUP5 PUSH4 0xFFFFFFFF AND PUSH1 0xE0 SHL DUP2 MSTORE PUSH1 0x4 ADD PUSH2 0x1915 SWAP4 SWAP3 SWAP2 SWAP1 PUSH2 0x4FFA JUMP JUMPDEST PUSH1 0x0 PUSH1 0x40 MLOAD DUP1 DUP4 SUB DUP2 PUSH1 0x0 DUP8 DUP1 EXTCODESIZE ISZERO DUP1 ISZERO PUSH2 0x192F JUMPI PUSH1 0x0 DUP1 REVERT JUMPDEST POP GAS CALL ISZERO DUP1 ISZERO PUSH2 0x1943 JUMPI RETURNDATASIZE PUSH1 0x0 DUP1 RETURNDATACOPY RETURNDATASIZE PUSH1 0x0 REVERT JUMPDEST POP POP POP POP JUMPDEST POP POP POP POP POP POP JUMP JUMPDEST PUSH32 0xF6D170C2E977A15F6F88D5821ECF488ACA751382E5ADD9230C224655A92CDEB5 DUP7 DUP7 DUP7 DUP7 DUP7 DUP7 PUSH1 0x40 MLOAD PUSH2 0x1989 SWAP7 SWAP6 SWAP5 SWAP4 SWAP3 SWAP2 SWAP1 PUSH2 0x5038 JUMP JUMPDEST PUSH1 0x40 MLOAD DUP1 SWAP2 SUB SWAP1 LOG1 PUSH1 0x0 PUSH20 0xFFFFFFFFFFFFFFFFFFFFFFFFFFFFFFFFFFFFFFFF AND PUSH1 0x7 PUSH1 0x0 SWAP1 SLOAD SWAP1 PUSH2 0x100 EXP SWAP1 DIV PUSH20 0xFFFFFFFFFFFFFFFFFFFFFFFFFFFFFFFFFFFFFFFF AND PUSH20 0xFFFFFFFFFFFFFFFFFFFFFFFFFFFFFFFFFFFFFFFF AND EQ DUP1 PUSH2 0x1A3C JUMPI POP PUSH1 0x0 PUSH20 0xFFFFFFFFFFFFFFFFFFFFFFFFFFFFFFFFFFFFFFFF AND PUSH1 0x8 PUSH1 0x0 SWAP1 SLOAD SWAP1 PUSH2 0x100 EXP SWAP1 DIV PUSH20 0xFFFFFFFFFFFFFFFFFFFFFFFFFFFFFFFFFFFFFFFF AND PUSH20 0xFFFFFFFFFFFFFFFFFFFFFFFFFFFFFFFFFFFFFFFF AND EQ JUMPDEST PUSH2 0x1B87 JUMPI PUSH1 0x7 PUSH1 0x0 SWAP1 SLOAD SWAP1 PUSH2 0x100 EXP SWAP1 DIV PUSH20 0xFFFFFFFFFFFFFFFFFFFFFFFFFFFFFFFFFFFFFFFF AND PUSH20 0xFFFFFFFFFFFFFFFFFFFFFFFFFFFFFFFFFFFFFFFF AND PUSH4 0xBA3D69D7 PUSH1 0x8 PUSH1 0x0 SWAP1 SLOAD SWAP1 PUSH2 0x100 EXP SWAP1 DIV PUSH20 0xFFFFFFFFFFFFFFFFFFFFFFFFFFFFFFFFFFFFFFFF AND DUP6 PUSH2 0x1AC1 DUP11 PUSH20 0xFFFFFFFFFFFFFFFFFFFFFFFFFFFFFFFFFFFFFFFF AND PUSH2 0x307C JUMP JUMPDEST PUSH2 0x1ACA DUP11 PUSH2 0x30A9 JUMP JUMPDEST PUSH2 0x1AD3 DUP11 PUSH2 0x30A9 JUMP JUMPDEST PUSH2 0x1AF2 DUP11 PUSH20 0xFFFFFFFFFFFFFFFFFFFFFFFFFFFFFFFFFFFFFFFF AND PUSH2 0x307C JUMP JUMPDEST PUSH2 0x1B11 DUP11 PUSH20 0xFFFFFFFFFFFFFFFFFFFFFFFFFFFFFFFFFFFFFFFF AND PUSH2 0x307C JUMP JUMPDEST DUP10 PUSH1 0x40 MLOAD PUSH1 0x20 ADD PUSH2 0x1B27 SWAP7 SWAP6 SWAP5 SWAP4 SWAP3 SWAP2 SWAP1 PUSH2 0x5138 JUMP JUMPDEST PUSH1 0x40 MLOAD PUSH1 0x20 DUP2 DUP4 SUB SUB DUP2 MSTORE SWAP1 PUSH1 0x40 MSTORE PUSH1 0x40 MLOAD DUP5 PUSH4 0xFFFFFFFF AND PUSH1 0xE0 SHL DUP2 MSTORE PUSH1 0x4 ADD PUSH2 0x1B54 SWAP4 SWAP3 SWAP2 SWAP1 PUSH2 0x4FFA JUMP JUMPDEST PUSH1 0x0 PUSH1 0x40 MLOAD DUP1 DUP4 SUB DUP2 PUSH1 0x0 DUP8 DUP1 EXTCODESIZE ISZERO DUP1 ISZERO PUSH2 0x1B6E JUMPI PUSH1 0x0 DUP1 REVERT JUMPDEST POP GAS CALL ISZERO DUP1 ISZERO PUSH2 0x1B82 JUMPI RETURNDATASIZE PUSH1 0x0 DUP1 RETURNDATACOPY RETURNDATASIZE PUSH1 0x0 REVERT JUMPDEST POP POP POP POP JUMPDEST POP POP POP POP POP POP JUMP JUMPDEST PUSH1 0x0 PUSH1 0x5 PUSH1 0x1 SWAP1 SLOAD SWAP1 PUSH2 0x100 EXP SWAP1 DIV PUSH20 0xFFFFFFFFFFFFFFFFFFFFFFFFFFFFFFFFFFFFFFFF AND SWAP1 POP DUP2 PUSH1 0x5 PUSH1 0x1 PUSH2 0x100 EXP DUP2 SLOAD DUP2 PUSH20 0xFFFFFFFFFFFFFFFFFFFFFFFFFFFFFFFFFFFFFFFF MUL NOT AND SWAP1 DUP4 PUSH20 0xFFFFFFFFFFFFFFFFFFFFFFFFFFFFFFFFFFFFFFFF AND MUL OR SWAP1 SSTORE POP DUP2 PUSH20 0xFFFFFFFFFFFFFFFFFFFFFFFFFFFFFFFFFFFFFFFF AND DUP2 PUSH20 0xFFFFFFFFFFFFFFFFFFFFFFFFFFFFFFFFFFFFFFFF AND PUSH32 0x8BE0079C531659141344CD1FD0A4F28419497F9722A3DAAFE3B4186F6B6457E0 PUSH1 0x40 MLOAD PUSH1 0x40 MLOAD DUP1 SWAP2 SUB SWAP1 LOG3 POP POP JUMP JUMPDEST PUSH2 0x1C5D PUSH2 0x1481 JUMP JUMPDEST PUSH1 0x1 PUSH1 0x5 PUSH1 0x0 PUSH2 0x100 EXP DUP2 SLOAD DUP2 PUSH1 0xFF MUL NOT AND SWAP1 DUP4 ISZERO ISZERO MUL OR SWAP1 SSTORE POP PUSH32 0x62E78CEA01BEE320CD4E420270B5EA74000D11B0C9F74754EBDBFC544B05A258 PUSH2 0x1CA1 PUSH2 0x1077 JUMP JUMPDEST PUSH1 0x40 MLOAD PUSH2 0x1CAE SWAP2 SWAP1 PUSH2 0x3E79 JUMP JUMPDEST PUSH1 0x40 MLOAD DUP1 SWAP2 SUB SWAP1 LOG1 JUMP JUMPDEST PUSH1 0x0 PUSH20 0xFFFFFFFFFFFFFFFFFFFFFFFFFFFFFFFFFFFFFFFF AND DUP5 PUSH20 0xFFFFFFFFFFFFFFFFFFFFFFFFFFFFFFFFFFFFFFFF AND SUB PUSH2 0x1D27 JUMPI PUSH1 0x40 MLOAD PUSH32 0x8C379A000000000000000000000000000000000000000000000000000000000 DUP2 MSTORE PUSH1 0x4 ADD PUSH2 0x1D1E SWAP1 PUSH2 0x5291 JUMP JUMPDEST PUSH1 0x40 MLOAD DUP1 SWAP2 SUB SWAP1 REVERT JUMPDEST PUSH1 0x0 PUSH2 0x1D31 PUSH2 0x1077 JUMP JUMPDEST SWAP1 POP PUSH1 0x0 PUSH2 0x1D3E DUP6 PUSH2 0x3002 JUMP JUMPDEST SWAP1 POP PUSH1 0x0 PUSH2 0x1D4B DUP6 PUSH2 0x3002 JUMP JUMPDEST SWAP1 POP PUSH2 0x1D5C DUP4 PUSH1 0x0 DUP10 DUP6 DUP6 DUP10 PUSH2 0x2781 JUMP JUMPDEST DUP5 PUSH1 0x0 DUP1 DUP9 DUP2 MSTORE PUSH1 0x20 ADD SWAP1 DUP2 MSTORE PUSH1 0x20 ADD PUSH1 0x0 KECCAK256 PUSH1 0x0 DUP10 PUSH20 0xFFFFFFFFFFFFFFFFFFFFFFFFFFFFFFFFFFFFFFFF AND PUSH20 0xFFFFFFFFFFFFFFFFFFFFFFFFFFFFFFFFFFFFFFFF AND DUP2 MSTORE PUSH1 0x20 ADD SWAP1 DUP2 MSTORE PUSH1 0x20 ADD PUSH1 0x0 KECCAK256 PUSH1 0x0 DUP3 DUP3 SLOAD PUSH2 0x1DBB SWAP2 SWAP1 PUSH2 0x491A JUMP JUMPDEST SWAP3 POP POP DUP2 SWAP1 SSTORE POP DUP7 PUSH20 0xFFFFFFFFFFFFFFFFFFFFFFFFFFFFFFFFFFFFFFFF AND PUSH1 0x0 PUSH20 0xFFFFFFFFFFFFFFFFFFFFFFFFFFFFFFFFFFFFFFFF AND DUP5 PUSH20 0xFFFFFFFFFFFFFFFFFFFFFFFFFFFFFFFFFFFFFFFF AND PUSH32 0xC3D58168C5AE7397731D063D5BBF3D657854427343F4C083240F7AACAA2D0F62 DUP10 DUP10 PUSH1 0x40 MLOAD PUSH2 0x1E39 SWAP3 SWAP2 SWAP1 PUSH2 0x4B81 JUMP JUMPDEST PUSH1 0x40 MLOAD DUP1 SWAP2 SUB SWAP1 LOG4 PUSH2 0x1E50 DUP4 PUSH1 0x0 DUP10 DUP6 DUP6 DUP10 PUSH2 0x2A65 JUMP JUMPDEST PUSH2 0x1E5F DUP4 PUSH1 0x0 DUP10 DUP10 DUP10 DUP10 PUSH2 0x312E JUMP JUMPDEST POP POP POP POP POP POP POP JUMP JUMPDEST PUSH32 0xAC867B0C94CE6505841EE92FA0E1DAF2D34D549DDF3BD7F6A4E4656604C81DD5 DUP7 DUP7 DUP7 DUP7 DUP7 DUP7 PUSH1 0x40 MLOAD PUSH2 0x1EA1 SWAP7 SWAP6 SWAP5 SWAP4 SWAP3 SWAP2 SWAP1 PUSH2 0x4BFF JUMP JUMPDEST PUSH1 0x40 MLOAD DUP1 SWAP2 SUB SWAP1 LOG1 PUSH1 0x0 PUSH20 0xFFFFFFFFFFFFFFFFFFFFFFFFFFFFFFFFFFFFFFFF AND PUSH1 0x7 PUSH1 0x0 SWAP1 SLOAD SWAP1 PUSH2 0x100 EXP SWAP1 DIV PUSH20 0xFFFFFFFFFFFFFFFFFFFFFFFFFFFFFFFFFFFFFFFF AND PUSH20 0xFFFFFFFFFFFFFFFFFFFFFFFFFFFFFFFFFFFFFFFF AND EQ DUP1 PUSH2 0x1F54 JUMPI POP PUSH1 0x0 PUSH20 0xFFFFFFFFFFFFFFFFFFFFFFFFFFFFFFFFFFFFFFFF AND PUSH1 0x8 PUSH1 0x0 SWAP1 SLOAD SWAP1 PUSH2 0x100 EXP SWAP1 DIV PUSH20 0xFFFFFFFFFFFFFFFFFFFFFFFFFFFFFFFFFFFFFFFF AND PUSH20 0xFFFFFFFFFFFFFFFFFFFFFFFFFFFFFFFFFFFFFFFF AND EQ JUMPDEST PUSH2 0x209F JUMPI PUSH1 0x7 PUSH1 0x0 SWAP1 SLOAD SWAP1 PUSH2 0x100 EXP SWAP1 DIV PUSH20 0xFFFFFFFFFFFFFFFFFFFFFFFFFFFFFFFFFFFFFFFF AND PUSH20 0xFFFFFFFFFFFFFFFFFFFFFFFFFFFFFFFFFFFFFFFF AND PUSH4 0xBA3D69D7 PUSH1 0x8 PUSH1 0x0 SWAP1 SLOAD SWAP1 PUSH2 0x100 EXP SWAP1 DIV PUSH20 0xFFFFFFFFFFFFFFFFFFFFFFFFFFFFFFFFFFFFFFFF AND DUP7 PUSH2 0x1FD9 DUP11 PUSH20 0xFFFFFFFFFFFFFFFFFFFFFFFFFFFFFFFFFFFFFFFF AND PUSH2 0x307C JUMP JUMPDEST PUSH2 0x1FE2 DUP11 PUSH2 0x30A9 JUMP JUMPDEST PUSH2 0x2001 DUP11 PUSH20 0xFFFFFFFFFFFFFFFFFFFFFFFFFFFFFFFFFFFFFFFF AND PUSH2 0x307C JUMP JUMPDEST PUSH2 0x2020 DUP11 PUSH20 0xFFFFFFFFFFFFFFFFFFFFFFFFFFFFFFFFFFFFFFFF AND PUSH2 0x307C JUMP JUMPDEST PUSH2 0x2029 DUP11 PUSH2 0x30A9 JUMP JUMPDEST DUP10 PUSH1 0x40 MLOAD PUSH1 0x20 ADD PUSH2 0x203F SWAP7 SWAP6 SWAP5 SWAP4 SWAP3 SWAP2 SWAP1 PUSH2 0x52FD JUMP JUMPDEST PUSH1 0x40 MLOAD PUSH1 0x20 DUP2 DUP4 SUB SUB DUP2 MSTORE SWAP1 PUSH1 0x40 MSTORE PUSH1 0x40 MLOAD DUP5 PUSH4 0xFFFFFFFF AND PUSH1 0xE0 SHL DUP2 MSTORE PUSH1 0x4 ADD PUSH2 0x206C SWAP4 SWAP3 SWAP2 SWAP1 PUSH2 0x4FFA JUMP JUMPDEST PUSH1 0x0 PUSH1 0x40 MLOAD DUP1 DUP4 SUB DUP2 PUSH1 0x0 DUP8 DUP1 EXTCODESIZE ISZERO DUP1 ISZERO PUSH2 0x2086 JUMPI PUSH1 0x0 DUP1 REVERT JUMPDEST POP GAS CALL ISZERO DUP1 ISZERO PUSH2 0x209A JUMPI RETURNDATASIZE PUSH1 0x0 DUP1 RETURNDATACOPY RETURNDATASIZE PUSH1 0x0 REVERT JUMPDEST POP POP POP POP JUMPDEST POP POP POP POP POP POP JUMP JUMPDEST DUP2 PUSH20 0xFFFFFFFFFFFFFFFFFFFFFFFFFFFFFFFFFFFFFFFF AND DUP4 PUSH20 0xFFFFFFFFFFFFFFFFFFFFFFFFFFFFFFFFFFFFFFFF AND SUB PUSH2 0x2115 JUMPI PUSH1 0x40 MLOAD PUSH32 0x8C379A000000000000000000000000000000000000000000000000000000000 DUP2 MSTORE PUSH1 0x4 ADD PUSH2 0x210C SWAP1 PUSH2 0x5456 JUMP JUMPDEST PUSH1 0x40 MLOAD DUP1 SWAP2 SUB SWAP1 REVERT JUMPDEST DUP1 PUSH1 0x1 PUSH1 0x0 DUP6 PUSH20 0xFFFFFFFFFFFFFFFFFFFFFFFFFFFFFFFFFFFFFFFF AND PUSH20 0xFFFFFFFFFFFFFFFFFFFFFFFFFFFFFFFFFFFFFFFF AND DUP2 MSTORE PUSH1 0x20 ADD SWAP1 DUP2 MSTORE PUSH1 0x20 ADD PUSH1 0x0 KECCAK256 PUSH1 0x0 DUP5 PUSH20 0xFFFFFFFFFFFFFFFFFFFFFFFFFFFFFFFFFFFFFFFF AND PUSH20 0xFFFFFFFFFFFFFFFFFFFFFFFFFFFFFFFFFFFFFFFF AND DUP2 MSTORE PUSH1 0x20 ADD SWAP1 DUP2 MSTORE PUSH1 0x20 ADD PUSH1 0x0 KECCAK256 PUSH1 0x0 PUSH2 0x100 EXP DUP2 SLOAD DUP2 PUSH1 0xFF MUL NOT AND SWAP1 DUP4 ISZERO ISZERO MUL OR SWAP1 SSTORE POP DUP2 PUSH20 0xFFFFFFFFFFFFFFFFFFFFFFFFFFFFFFFFFFFFFFFF AND DUP4 PUSH20 0xFFFFFFFFFFFFFFFFFFFFFFFFFFFFFFFFFFFFFFFF AND PUSH32 0x17307EAB39AB6107E8899845AD3D59BD9653F200F220920489CA2B5937696C31 DUP4 PUSH1 0x40 MLOAD PUSH2 0x2206 SWAP2 SWAP1 PUSH2 0x3716 JUMP JUMPDEST PUSH1 0x40 MLOAD DUP1 SWAP2 SUB SWAP1 LOG3 POP POP POP JUMP JUMPDEST PUSH32 0xAF6985CD85C6236F5219A3E4D053464810CADB35DC8BA7ECFBD8F25BDBFFE60D DUP7 DUP7 DUP7 DUP7 DUP7 DUP7 PUSH1 0x40 MLOAD PUSH2 0x224C SWAP7 SWAP6 SWAP5 SWAP4 SWAP3 SWAP2 SWAP1 PUSH2 0x5038 JUMP JUMPDEST PUSH1 0x40 MLOAD DUP1 SWAP2 SUB SWAP1 LOG1 PUSH1 0x0 PUSH20 0xFFFFFFFFFFFFFFFFFFFFFFFFFFFFFFFFFFFFFFFF AND PUSH1 0x7 PUSH1 0x0 SWAP1 SLOAD SWAP1 PUSH2 0x100 EXP SWAP1 DIV PUSH20 0xFFFFFFFFFFFFFFFFFFFFFFFFFFFFFFFFFFFFFFFF AND PUSH20 0xFFFFFFFFFFFFFFFFFFFFFFFFFFFFFFFFFFFFFFFF AND EQ DUP1 PUSH2 0x22FF JUMPI POP PUSH1 0x0 PUSH20 0xFFFFFFFFFFFFFFFFFFFFFFFFFFFFFFFFFFFFFFFF AND PUSH1 0x8 PUSH1 0x0 SWAP1 SLOAD SWAP1 PUSH2 0x100 EXP SWAP1 DIV PUSH20 0xFFFFFFFFFFFFFFFFFFFFFFFFFFFFFFFFFFFFFFFF AND PUSH20 0xFFFFFFFFFFFFFFFFFFFFFFFFFFFFFFFFFFFFFFFF AND EQ JUMPDEST PUSH2 0x244A JUMPI PUSH1 0x7 PUSH1 0x0 SWAP1 SLOAD SWAP1 PUSH2 0x100 EXP SWAP1 DIV PUSH20 0xFFFFFFFFFFFFFFFFFFFFFFFFFFFFFFFFFFFFFFFF AND PUSH20 0xFFFFFFFFFFFFFFFFFFFFFFFFFFFFFFFFFFFFFFFF AND PUSH4 0xBA3D69D7 PUSH1 0x8 PUSH1 0x0 SWAP1 SLOAD SWAP1 PUSH2 0x100 EXP SWAP1 DIV PUSH20 0xFFFFFFFFFFFFFFFFFFFFFFFFFFFFFFFFFFFFFFFF AND DUP6 PUSH2 0x2384 DUP11 PUSH20 0xFFFFFFFFFFFFFFFFFFFFFFFFFFFFFFFFFFFFFFFF AND PUSH2 0x307C JUMP JUMPDEST PUSH2 0x238D DUP11 PUSH2 0x30A9 JUMP JUMPDEST PUSH2 0x2396 DUP11 PUSH2 0x30A9 JUMP JUMPDEST PUSH2 0x23B5 DUP11 PUSH20 0xFFFFFFFFFFFFFFFFFFFFFFFFFFFFFFFFFFFFFFFF AND PUSH2 0x307C JUMP JUMPDEST PUSH2 0x23D4 DUP11 PUSH20 0xFFFFFFFFFFFFFFFFFFFFFFFFFFFFFFFFFFFFFFFF AND PUSH2 0x307C JUMP JUMPDEST DUP10 PUSH1 0x40 MLOAD PUSH1 0x20 ADD PUSH2 0x23EA SWAP7 SWAP6 SWAP5 SWAP4 SWAP3 SWAP2 SWAP1 PUSH2 0x54C2 JUMP JUMPDEST PUSH1 0x40 MLOAD PUSH1 0x20 DUP2 DUP4 SUB SUB DUP2 MSTORE SWAP1 PUSH1 0x40 MSTORE PUSH1 0x40 MLOAD DUP5 PUSH4 0xFFFFFFFF AND PUSH1 0xE0 SHL DUP2 MSTORE PUSH1 0x4 ADD PUSH2 0x2417 SWAP4 SWAP3 SWAP2 SWAP1 PUSH2 0x4FFA JUMP JUMPDEST PUSH1 0x0 PUSH1 0x40 MLOAD DUP1 DUP4 SUB DUP2 PUSH1 0x0 DUP8 DUP1 EXTCODESIZE ISZERO DUP1 ISZERO PUSH2 0x2431 JUMPI PUSH1 0x0 DUP1 REVERT JUMPDEST POP GAS CALL ISZERO DUP1 ISZERO PUSH2 0x2445 JUMPI RETURNDATASIZE PUSH1 0x0 DUP1 RETURNDATACOPY RETURNDATASIZE PUSH1 0x0 REVERT JUMPDEST POP POP POP POP JUMPDEST POP POP POP POP POP POP JUMP JUMPDEST PUSH1 0x0 PUSH20 0xFFFFFFFFFFFFFFFFFFFFFFFFFFFFFFFFFFFFFFFF AND DUP5 PUSH20 0xFFFFFFFFFFFFFFFFFFFFFFFFFFFFFFFFFFFFFFFF AND SUB PUSH2 0x24C1 JUMPI PUSH1 0x40 MLOAD PUSH32 0x8C379A000000000000000000000000000000000000000000000000000000000 DUP2 MSTORE PUSH1 0x4 ADD PUSH2 0x24B8 SWAP1 PUSH2 0x4868 JUMP JUMPDEST PUSH1 0x40 MLOAD DUP1 SWAP2 SUB SWAP1 REVERT JUMPDEST PUSH1 0x0 PUSH2 0x24CB PUSH2 0x1077 JUMP JUMPDEST SWAP1 POP PUSH1 0x0 PUSH2 0x24D8 DUP6 PUSH2 0x3002 JUMP JUMPDEST SWAP1 POP PUSH1 0x0 PUSH2 0x24E5 DUP6 PUSH2 0x3002 JUMP JUMPDEST SWAP1 POP PUSH2 0x24F5 DUP4 DUP10 DUP10 DUP6 DUP6 DUP10 PUSH2 0x2781 JUMP JUMPDEST PUSH1 0x0 DUP1 PUSH1 0x0 DUP9 DUP2 MSTORE PUSH1 0x20 ADD SWAP1 DUP2 MSTORE PUSH1 0x20 ADD PUSH1 0x0 KECCAK256 PUSH1 0x0 DUP11 PUSH20 0xFFFFFFFFFFFFFFFFFFFFFFFFFFFFFFFFFFFFFFFF AND PUSH20 0xFFFFFFFFFFFFFFFFFFFFFFFFFFFFFFFFFFFFFFFF AND DUP2 MSTORE PUSH1 0x20 ADD SWAP1 DUP2 MSTORE PUSH1 0x20 ADD PUSH1 0x0 KECCAK256 SLOAD SWAP1 POP DUP6 DUP2 LT ISZERO PUSH2 0x258C JUMPI PUSH1 0x40 MLOAD PUSH32 0x8C379A000000000000000000000000000000000000000000000000000000000 DUP2 MSTORE PUSH1 0x4 ADD PUSH2 0x2583 SWAP1 PUSH2 0x48FA JUMP JUMPDEST PUSH1 0x40 MLOAD DUP1 SWAP2 SUB SWAP1 REVERT JUMPDEST DUP6 DUP2 SUB PUSH1 0x0 DUP1 DUP10 DUP2 MSTORE PUSH1 0x20 ADD SWAP1 DUP2 MSTORE PUSH1 0x20 ADD PUSH1 0x0 KECCAK256 PUSH1 0x0 DUP12 PUSH20 0xFFFFFFFFFFFFFFFFFFFFFFFFFFFFFFFFFFFFFFFF AND PUSH20 0xFFFFFFFFFFFFFFFFFFFFFFFFFFFFFFFFFFFFFFFF AND DUP2 MSTORE PUSH1 0x20 ADD SWAP1 DUP2 MSTORE PUSH1 0x20 ADD PUSH1 0x0 KECCAK256 DUP2 SWAP1 SSTORE POP DUP6 PUSH1 0x0 DUP1 DUP10 DUP2 MSTORE PUSH1 0x20 ADD SWAP1 DUP2 MSTORE PUSH1 0x20 ADD PUSH1 0x0 KECCAK256 PUSH1 0x0 DUP11 PUSH20 0xFFFFFFFFFFFFFFFFFFFFFFFFFFFFFFFFFFFFFFFF AND PUSH20 0xFFFFFFFFFFFFFFFFFFFFFFFFFFFFFFFFFFFFFFFF AND DUP2 MSTORE PUSH1 0x20 ADD SWAP1 DUP2 MSTORE PUSH1 0x20 ADD PUSH1 0x0 KECCAK256 PUSH1 0x0 DUP3 DUP3 SLOAD PUSH2 0x2641 SWAP2 SWAP1 PUSH2 0x491A JUMP JUMPDEST SWAP3 POP POP DUP2 SWAP1 SSTORE POP DUP8 PUSH20 0xFFFFFFFFFFFFFFFFFFFFFFFFFFFFFFFFFFFFFFFF AND DUP10 PUSH20 0xFFFFFFFFFFFFFFFFFFFFFFFFFFFFFFFFFFFFFFFF AND DUP6 PUSH20 0xFFFFFFFFFFFFFFFFFFFFFFFFFFFFFFFFFFFFFFFF AND PUSH32 0xC3D58168C5AE7397731D063D5BBF3D657854427343F4C083240F7AACAA2D0F62 DUP11 DUP11 PUSH1 0x40 MLOAD PUSH2 0x26BE SWAP3 SWAP2 SWAP1 PUSH2 0x4B81 JUMP JUMPDEST PUSH1 0x40 MLOAD DUP1 SWAP2 SUB SWAP1 LOG4 PUSH2 0x26D4 DUP5 DUP11 DUP11 DUP7 DUP7 DUP11 PUSH2 0x2A65 JUMP JUMPDEST PUSH2 0x26E2 DUP5 DUP11 DUP11 DUP11 DUP11 DUP11 PUSH2 0x312E JUMP JUMPDEST POP POP POP POP POP POP POP POP POP JUMP JUMPDEST PUSH1 0x60 PUSH1 0x2 DUP1 SLOAD PUSH2 0x26FC SWAP1 PUSH2 0x463B JUMP JUMPDEST DUP1 PUSH1 0x1F ADD PUSH1 0x20 DUP1 SWAP2 DIV MUL PUSH1 0x20 ADD PUSH1 0x40 MLOAD SWAP1 DUP2 ADD PUSH1 0x40 MSTORE DUP1 SWAP3 SWAP2 SWAP1 DUP2 DUP2 MSTORE PUSH1 0x20 ADD DUP3 DUP1 SLOAD PUSH2 0x2728 SWAP1 PUSH2 0x463B JUMP JUMPDEST DUP1 ISZERO PUSH2 0x2775 JUMPI DUP1 PUSH1 0x1F LT PUSH2 0x274A JUMPI PUSH2 0x100 DUP1 DUP4 SLOAD DIV MUL DUP4 MSTORE SWAP2 PUSH1 0x20 ADD SWAP2 PUSH2 0x2775 JUMP JUMPDEST DUP3 ADD SWAP2 SWAP1 PUSH1 0x0 MSTORE PUSH1 0x20 PUSH1 0x0 KECCAK256 SWAP1 JUMPDEST DUP2 SLOAD DUP2 MSTORE SWAP1 PUSH1 0x1 ADD SWAP1 PUSH1 0x20 ADD DUP1 DUP4 GT PUSH2 0x2758 JUMPI DUP3 SWAP1 SUB PUSH1 0x1F AND DUP3 ADD SWAP2 JUMPDEST POP POP POP POP POP SWAP1 POP SWAP2 SWAP1 POP JUMP JUMPDEST PUSH1 0x0 PUSH20 0xFFFFFFFFFFFFFFFFFFFFFFFFFFFFFFFFFFFFFFFF AND DUP6 PUSH20 0xFFFFFFFFFFFFFFFFFFFFFFFFFFFFFFFFFFFFFFFF AND EQ DUP1 PUSH2 0x280A JUMPI POP PUSH1 0x0 PUSH20 0xFFFFFFFFFFFFFFFFFFFFFFFFFFFFFFFFFFFFFFFF AND PUSH1 0x6 PUSH1 0x0 SWAP1 SLOAD SWAP1 PUSH2 0x100 EXP SWAP1 DIV PUSH20 0xFFFFFFFFFFFFFFFFFFFFFFFFFFFFFFFFFFFFFFFF AND PUSH20 0xFFFFFFFFFFFFFFFFFFFFFFFFFFFFFFFFFFFFFFFF AND EQ JUMPDEST DUP1 PUSH2 0x28B0 JUMPI POP PUSH1 0x0 PUSH1 0x6 PUSH1 0x0 SWAP1 SLOAD SWAP1 PUSH2 0x100 EXP SWAP1 DIV PUSH20 0xFFFFFFFFFFFFFFFFFFFFFFFFFFFFFFFFFFFFFFFF AND PUSH20 0xFFFFFFFFFFFFFFFFFFFFFFFFFFFFFFFFFFFFFFFF AND PUSH4 0x70A08231 DUP8 PUSH1 0x40 MLOAD DUP3 PUSH4 0xFFFFFFFF AND PUSH1 0xE0 SHL DUP2 MSTORE PUSH1 0x4 ADD PUSH2 0x286D SWAP2 SWAP1 PUSH2 0x3E79 JUMP JUMPDEST PUSH1 0x20 PUSH1 0x40 MLOAD DUP1 DUP4 SUB DUP2 DUP7 GAS STATICCALL ISZERO DUP1 ISZERO PUSH2 0x288A JUMPI RETURNDATASIZE PUSH1 0x0 DUP1 RETURNDATACOPY RETURNDATASIZE PUSH1 0x0 REVERT JUMPDEST POP POP POP POP PUSH1 0x40 MLOAD RETURNDATASIZE PUSH1 0x1F NOT PUSH1 0x1F DUP3 ADD AND DUP3 ADD DUP1 PUSH1 0x40 MSTORE POP DUP2 ADD SWAP1 PUSH2 0x28AE SWAP2 SWAP1 PUSH2 0x55BE JUMP JUMPDEST GT JUMPDEST PUSH2 0x28EF JUMPI PUSH1 0x40 MLOAD PUSH32 0x8C379A000000000000000000000000000000000000000000000000000000000 DUP2 MSTORE PUSH1 0x4 ADD PUSH2 0x28E6 SWAP1 PUSH2 0x5637 JUMP JUMPDEST PUSH1 0x40 MLOAD DUP1 SWAP2 SUB SWAP1 REVERT JUMPDEST PUSH1 0x0 PUSH20 0xFFFFFFFFFFFFFFFFFFFFFFFFFFFFFFFFFFFFFFFF AND DUP5 PUSH20 0xFFFFFFFFFFFFFFFFFFFFFFFFFFFFFFFFFFFFFFFF AND EQ DUP1 PUSH2 0x2978 JUMPI POP PUSH1 0x0 PUSH20 0xFFFFFFFFFFFFFFFFFFFFFFFFFFFFFFFFFFFFFFFF AND PUSH1 0x6 PUSH1 0x0 SWAP1 SLOAD SWAP1 PUSH2 0x100 EXP SWAP1 DIV PUSH20 0xFFFFFFFFFFFFFFFFFFFFFFFFFFFFFFFFFFFFFFFF AND PUSH20 0xFFFFFFFFFFFFFFFFFFFFFFFFFFFFFFFFFFFFFFFF AND EQ JUMPDEST DUP1 PUSH2 0x2A1E JUMPI POP PUSH1 0x0 PUSH1 0x6 PUSH1 0x0 SWAP1 SLOAD SWAP1 PUSH2 0x100 EXP SWAP1 DIV PUSH20 0xFFFFFFFFFFFFFFFFFFFFFFFFFFFFFFFFFFFFFFFF AND PUSH20 0xFFFFFFFFFFFFFFFFFFFFFFFFFFFFFFFFFFFFFFFF AND PUSH4 0x70A08231 DUP7 PUSH1 0x40 MLOAD DUP3 PUSH4 0xFFFFFFFF AND PUSH1 0xE0 SHL DUP2 MSTORE PUSH1 0x4 ADD PUSH2 0x29DB SWAP2 SWAP1 PUSH2 0x3E79 JUMP JUMPDEST PUSH1 0x20 PUSH1 0x40 MLOAD DUP1 DUP4 SUB DUP2 DUP7 GAS STATICCALL ISZERO DUP1 ISZERO PUSH2 0x29F8 JUMPI RETURNDATASIZE PUSH1 0x0 DUP1 RETURNDATACOPY RETURNDATASIZE PUSH1 0x0 REVERT JUMPDEST POP POP POP POP PUSH1 0x40 MLOAD RETURNDATASIZE PUSH1 0x1F NOT PUSH1 0x1F DUP3 ADD AND DUP3 ADD DUP1 PUSH1 0x40 MSTORE POP DUP2 ADD SWAP1 PUSH2 0x2A1C SWAP2 SWAP1 PUSH2 0x55BE JUMP JUMPDEST GT JUMPDEST PUSH2 0x2A5D JUMPI PUSH1 0x40 MLOAD PUSH32 0x8C379A000000000000000000000000000000000000000000000000000000000 DUP2 MSTORE PUSH1 0x4 ADD PUSH2 0x2A54 SWAP1 PUSH2 0x56A3 JUMP JUMPDEST PUSH1 0x40 MLOAD DUP1 SWAP2 SUB SWAP1 REVERT JUMPDEST POP POP POP POP POP POP JUMP JUMPDEST PUSH1 0x0 PUSH20 0xFFFFFFFFFFFFFFFFFFFFFFFFFFFFFFFFFFFFFFFF AND DUP6 PUSH20 0xFFFFFFFFFFFFFFFFFFFFFFFFFFFFFFFFFFFFFFFF AND EQ DUP1 PUSH2 0x2ACC JUMPI POP PUSH1 0x0 PUSH20 0xFFFFFFFFFFFFFFFFFFFFFFFFFFFFFFFFFFFFFFFF AND DUP5 PUSH20 0xFFFFFFFFFFFFFFFFFFFFFFFFFFFFFFFFFFFFFFFF AND EQ JUMPDEST PUSH2 0x2DDA JUMPI PUSH1 0x0 PUSH1 0x40 MLOAD PUSH1 0x20 ADD PUSH2 0x2AE1 SWAP1 PUSH2 0x570F JUMP JUMPDEST PUSH1 0x40 MLOAD PUSH1 0x20 DUP2 DUP4 SUB SUB DUP2 MSTORE SWAP1 PUSH1 0x40 MSTORE SWAP1 POP DUP1 PUSH2 0x2B12 DUP9 PUSH20 0xFFFFFFFFFFFFFFFFFFFFFFFFFFFFFFFFFFFFFFFF AND PUSH2 0x307C JUMP JUMPDEST PUSH2 0x2B31 DUP9 PUSH20 0xFFFFFFFFFFFFFFFFFFFFFFFFFFFFFFFFFFFFFFFF AND PUSH2 0x307C JUMP JUMPDEST PUSH2 0x2B50 DUP9 PUSH20 0xFFFFFFFFFFFFFFFFFFFFFFFFFFFFFFFFFFFFFFFF AND PUSH2 0x307C JUMP JUMPDEST PUSH1 0x40 MLOAD PUSH1 0x20 ADD PUSH2 0x2B63 SWAP5 SWAP4 SWAP3 SWAP2 SWAP1 PUSH2 0x5890 JUMP JUMPDEST PUSH1 0x40 MLOAD PUSH1 0x20 DUP2 DUP4 SUB SUB DUP2 MSTORE SWAP1 PUSH1 0x40 MSTORE SWAP1 POP PUSH1 0x0 PUSH1 0x40 MLOAD PUSH1 0x20 ADD PUSH2 0x2B85 SWAP1 PUSH2 0x5946 JUMP JUMPDEST PUSH1 0x40 MLOAD PUSH1 0x20 DUP2 DUP4 SUB SUB DUP2 MSTORE SWAP1 PUSH1 0x40 MSTORE SWAP1 POP PUSH1 0x0 PUSH1 0x40 MLOAD PUSH1 0x20 ADD PUSH2 0x2BA7 SWAP1 PUSH2 0x5946 JUMP JUMPDEST PUSH1 0x40 MLOAD PUSH1 0x20 DUP2 DUP4 SUB SUB DUP2 MSTORE SWAP1 PUSH1 0x40 MSTORE SWAP1 POP PUSH1 0x0 JUMPDEST DUP7 MLOAD DUP2 LT ISZERO PUSH2 0x2CFD JUMPI PUSH1 0x0 DUP2 SUB PUSH2 0x2C5D JUMPI DUP3 PUSH2 0x2BF0 DUP9 DUP4 DUP2 MLOAD DUP2 LT PUSH2 0x2BE3 JUMPI PUSH2 0x2BE2 PUSH2 0x4331 JUMP JUMPDEST JUMPDEST PUSH1 0x20 MUL PUSH1 0x20 ADD ADD MLOAD PUSH2 0x30A9 JUMP JUMPDEST PUSH1 0x40 MLOAD PUSH1 0x20 ADD PUSH2 0x2C01 SWAP3 SWAP2 SWAP1 PUSH2 0x59A7 JUMP JUMPDEST PUSH1 0x40 MLOAD PUSH1 0x20 DUP2 DUP4 SUB SUB DUP2 MSTORE SWAP1 PUSH1 0x40 MSTORE SWAP3 POP DUP2 PUSH2 0x2C36 DUP8 DUP4 DUP2 MLOAD DUP2 LT PUSH2 0x2C29 JUMPI PUSH2 0x2C28 PUSH2 0x4331 JUMP JUMPDEST JUMPDEST PUSH1 0x20 MUL PUSH1 0x20 ADD ADD MLOAD PUSH2 0x30A9 JUMP JUMPDEST PUSH1 0x40 MLOAD PUSH1 0x20 ADD PUSH2 0x2C47 SWAP3 SWAP2 SWAP1 PUSH2 0x59A7 JUMP JUMPDEST PUSH1 0x40 MLOAD PUSH1 0x20 DUP2 DUP4 SUB SUB DUP2 MSTORE SWAP1 PUSH1 0x40 MSTORE SWAP2 POP PUSH2 0x2CEA JUMP JUMPDEST DUP3 PUSH2 0x2C81 DUP9 DUP4 DUP2 MLOAD DUP2 LT PUSH2 0x2C74 JUMPI PUSH2 0x2C73 PUSH2 0x4331 JUMP JUMPDEST JUMPDEST PUSH1 0x20 MUL PUSH1 0x20 ADD ADD MLOAD PUSH2 0x30A9 JUMP JUMPDEST PUSH1 0x40 MLOAD PUSH1 0x20 ADD PUSH2 0x2C92 SWAP3 SWAP2 SWAP1 PUSH2 0x5A2D JUMP JUMPDEST PUSH1 0x40 MLOAD PUSH1 0x20 DUP2 DUP4 SUB SUB DUP2 MSTORE SWAP1 PUSH1 0x40 MSTORE SWAP3 POP DUP2 PUSH2 0x2CC7 DUP8 DUP4 DUP2 MLOAD DUP2 LT PUSH2 0x2CBA JUMPI PUSH2 0x2CB9 PUSH2 0x4331 JUMP JUMPDEST JUMPDEST PUSH1 0x20 MUL PUSH1 0x20 ADD ADD MLOAD PUSH2 0x30A9 JUMP JUMPDEST PUSH1 0x40 MLOAD PUSH1 0x20 ADD PUSH2 0x2CD8 SWAP3 SWAP2 SWAP1 PUSH2 0x5A2D JUMP JUMPDEST PUSH1 0x40 MLOAD PUSH1 0x20 DUP2 DUP4 SUB SUB DUP2 MSTORE SWAP1 PUSH1 0x40 MSTORE SWAP2 POP JUMPDEST DUP1 DUP1 PUSH2 0x2CF5 SWAP1 PUSH2 0x438F JUMP JUMPDEST SWAP2 POP POP PUSH2 0x2BBB JUMP JUMPDEST POP PUSH1 0x7 PUSH1 0x0 SWAP1 SLOAD SWAP1 PUSH2 0x100 EXP SWAP1 DIV PUSH20 0xFFFFFFFFFFFFFFFFFFFFFFFFFFFFFFFFFFFFFFFF AND PUSH20 0xFFFFFFFFFFFFFFFFFFFFFFFFFFFFFFFFFFFFFFFF AND PUSH4 0xBA3D69D7 PUSH1 0x8 PUSH1 0x0 SWAP1 SLOAD SWAP1 PUSH2 0x100 EXP SWAP1 DIV PUSH20 0xFFFFFFFFFFFFFFFFFFFFFFFFFFFFFFFFFFFFFFFF AND DUP11 DUP7 DUP7 DUP7 DUP11 PUSH1 0x40 MLOAD PUSH1 0x20 ADD PUSH2 0x2D77 SWAP5 SWAP4 SWAP3 SWAP2 SWAP1 PUSH2 0x5AFF JUMP JUMPDEST PUSH1 0x40 MLOAD PUSH1 0x20 DUP2 DUP4 SUB SUB DUP2 MSTORE SWAP1 PUSH1 0x40 MSTORE PUSH1 0x40 MLOAD DUP5 PUSH4 0xFFFFFFFF AND PUSH1 0xE0 SHL DUP2 MSTORE PUSH1 0x4 ADD PUSH2 0x2DA4 SWAP4 SWAP3 SWAP2 SWAP1 PUSH2 0x4FFA JUMP JUMPDEST PUSH1 0x0 PUSH1 0x40 MLOAD DUP1 DUP4 SUB DUP2 PUSH1 0x0 DUP8 DUP1 EXTCODESIZE ISZERO DUP1 ISZERO PUSH2 0x2DBE JUMPI PUSH1 0x0 DUP1 REVERT JUMPDEST POP GAS CALL ISZERO DUP1 ISZERO PUSH2 0x2DD2 JUMPI RETURNDATASIZE PUSH1 0x0 DUP1 RETURNDATACOPY RETURNDATASIZE PUSH1 0x0 REVERT JUMPDEST POP POP POP POP POP POP POP JUMPDEST POP POP POP POP POP POP JUMP JUMPDEST PUSH2 0x2E01 DUP5 PUSH20 0xFFFFFFFFFFFFFFFFFFFFFFFFFFFFFFFFFFFFFFFF AND PUSH2 0x3305 JUMP JUMPDEST ISZERO PUSH2 0x2FB1 JUMPI DUP4 PUSH20 0xFFFFFFFFFFFFFFFFFFFFFFFFFFFFFFFFFFFFFFFF AND PUSH4 0xBC197C81 DUP8 DUP8 DUP7 DUP7 DUP7 PUSH1 0x40 MLOAD DUP7 PUSH4 0xFFFFFFFF AND PUSH1 0xE0 SHL DUP2 MSTORE PUSH1 0x4 ADD PUSH2 0x2E47 SWAP6 SWAP5 SWAP4 SWAP3 SWAP2 SWAP1 PUSH2 0x5B5E JUMP JUMPDEST PUSH1 0x20 PUSH1 0x40 MLOAD DUP1 DUP4 SUB DUP2 PUSH1 0x0 DUP8 GAS CALL SWAP3 POP POP POP DUP1 ISZERO PUSH2 0x2E83 JUMPI POP PUSH1 0x40 MLOAD RETURNDATASIZE PUSH1 0x1F NOT PUSH1 0x1F DUP3 ADD AND DUP3 ADD DUP1 PUSH1 0x40 MSTORE POP DUP2 ADD SWAP1 PUSH2 0x2E80 SWAP2 SWAP1 PUSH2 0x5BDB JUMP JUMPDEST PUSH1 0x1 JUMPDEST PUSH2 0x2F28 JUMPI PUSH2 0x2E8F PUSH2 0x5C15 JUMP JUMPDEST DUP1 PUSH4 0x8C379A0 SUB PUSH2 0x2EEB JUMPI POP PUSH2 0x2EA3 PUSH2 0x5C37 JUMP JUMPDEST DUP1 PUSH2 0x2EAE JUMPI POP PUSH2 0x2EED JUMP JUMPDEST DUP1 PUSH1 0x40 MLOAD PUSH32 0x8C379A000000000000000000000000000000000000000000000000000000000 DUP2 MSTORE PUSH1 0x4 ADD PUSH2 0x2EE2 SWAP2 SWAP1 PUSH2 0x37EE JUMP JUMPDEST PUSH1 0x40 MLOAD DUP1 SWAP2 SUB SWAP1 REVERT JUMPDEST POP JUMPDEST PUSH1 0x40 MLOAD PUSH32 0x8C379A000000000000000000000000000000000000000000000000000000000 DUP2 MSTORE PUSH1 0x4 ADD PUSH2 0x2F1F SWAP1 PUSH2 0x5D39 JUMP JUMPDEST PUSH1 0x40 MLOAD DUP1 SWAP2 SUB SWAP1 REVERT JUMPDEST PUSH4 0xBC197C81 PUSH1 0xE0 SHL PUSH28 0xFFFFFFFFFFFFFFFFFFFFFFFFFFFFFFFFFFFFFFFFFFFFFFFFFFFFFFFF NOT AND DUP2 PUSH28 0xFFFFFFFFFFFFFFFFFFFFFFFFFFFFFFFFFFFFFFFFFFFFFFFFFFFFFFFF NOT AND EQ PUSH2 0x2FAF JUMPI PUSH1 0x40 MLOAD PUSH32 0x8C379A000000000000000000000000000000000000000000000000000000000 DUP2 MSTORE PUSH1 0x4 ADD PUSH2 0x2FA6 SWAP1 PUSH2 0x5DCB JUMP JUMPDEST PUSH1 0x40 MLOAD DUP1 SWAP2 SUB SWAP1 REVERT JUMPDEST POP JUMPDEST POP POP POP POP POP POP JUMP JUMPDEST PUSH2 0x2FC1 PUSH2 0x9BB JUMP JUMPDEST PUSH2 0x3000 JUMPI PUSH1 0x40 MLOAD PUSH32 0x8C379A000000000000000000000000000000000000000000000000000000000 DUP2 MSTORE PUSH1 0x4 ADD PUSH2 0x2FF7 SWAP1 PUSH2 0x5E37 JUMP JUMPDEST PUSH1 0x40 MLOAD DUP1 SWAP2 SUB SWAP1 REVERT JUMPDEST JUMP JUMPDEST PUSH1 0x60 PUSH1 0x0 PUSH1 0x1 PUSH8 0xFFFFFFFFFFFFFFFF DUP2 GT ISZERO PUSH2 0x3021 JUMPI PUSH2 0x3020 PUSH2 0x3842 JUMP JUMPDEST JUMPDEST PUSH1 0x40 MLOAD SWAP1 DUP1 DUP3 MSTORE DUP1 PUSH1 0x20 MUL PUSH1 0x20 ADD DUP3 ADD PUSH1 0x40 MSTORE DUP1 ISZERO PUSH2 0x304F JUMPI DUP2 PUSH1 0x20 ADD PUSH1 0x20 DUP3 MUL DUP1 CALLDATASIZE DUP4 CALLDATACOPY DUP1 DUP3 ADD SWAP2 POP POP SWAP1 POP JUMPDEST POP SWAP1 POP DUP3 DUP2 PUSH1 0x0 DUP2 MLOAD DUP2 LT PUSH2 0x3067 JUMPI PUSH2 0x3066 PUSH2 0x4331 JUMP JUMPDEST JUMPDEST PUSH1 0x20 MUL PUSH1 0x20 ADD ADD DUP2 DUP2 MSTORE POP POP DUP1 SWAP2 POP POP SWAP2 SWAP1 POP JUMP JUMPDEST PUSH1 0x60 PUSH2 0x30A2 DUP3 PUSH20 0xFFFFFFFFFFFFFFFFFFFFFFFFFFFFFFFFFFFFFFFF AND PUSH1 0x14 PUSH1 0xFF AND PUSH2 0x3328 JUMP JUMPDEST SWAP1 POP SWAP2 SWAP1 POP JUMP JUMPDEST PUSH1 0x60 PUSH1 0x0 DUP3 SUB PUSH2 0x30F0 JUMPI PUSH1 0x40 MLOAD DUP1 PUSH1 0x40 ADD PUSH1 0x40 MSTORE DUP1 PUSH1 0x4 DUP2 MSTORE PUSH1 0x20 ADD PUSH32 0x3078303000000000000000000000000000000000000000000000000000000000 DUP2 MSTORE POP SWAP1 POP PUSH2 0x3129 JUMP JUMPDEST PUSH1 0x0 DUP3 SWAP1 POP PUSH1 0x0 JUMPDEST PUSH1 0x0 DUP3 EQ PUSH2 0x311A JUMPI DUP1 DUP1 PUSH2 0x310B SWAP1 PUSH2 0x438F JUMP JUMPDEST SWAP2 POP POP PUSH1 0x8 DUP3 SWAP1 SHR SWAP2 POP PUSH2 0x30F8 JUMP JUMPDEST PUSH2 0x3124 DUP5 DUP3 PUSH2 0x3328 JUMP JUMPDEST SWAP3 POP POP POP JUMPDEST SWAP2 SWAP1 POP JUMP JUMPDEST PUSH2 0x314D DUP5 PUSH20 0xFFFFFFFFFFFFFFFFFFFFFFFFFFFFFFFFFFFFFFFF AND PUSH2 0x3305 JUMP JUMPDEST ISZERO PUSH2 0x32FD JUMPI DUP4 PUSH20 0xFFFFFFFFFFFFFFFFFFFFFFFFFFFFFFFFFFFFFFFF AND PUSH4 0xF23A6E61 DUP8 DUP8 DUP7 DUP7 DUP7 PUSH1 0x40 MLOAD DUP7 PUSH4 0xFFFFFFFF AND PUSH1 0xE0 SHL DUP2 MSTORE PUSH1 0x4 ADD PUSH2 0x3193 SWAP6 SWAP5 SWAP4 SWAP3 SWAP2 SWAP1 PUSH2 0x5E57 JUMP JUMPDEST PUSH1 0x20 PUSH1 0x40 MLOAD DUP1 DUP4 SUB DUP2 PUSH1 0x0 DUP8 GAS CALL SWAP3 POP POP POP DUP1 ISZERO PUSH2 0x31CF JUMPI POP PUSH1 0x40 MLOAD RETURNDATASIZE PUSH1 0x1F NOT PUSH1 0x1F DUP3 ADD AND DUP3 ADD DUP1 PUSH1 0x40 MSTORE POP DUP2 ADD SWAP1 PUSH2 0x31CC SWAP2 SWAP1 PUSH2 0x5BDB JUMP JUMPDEST PUSH1 0x1 JUMPDEST PUSH2 0x3274 JUMPI PUSH2 0x31DB PUSH2 0x5C15 JUMP JUMPDEST DUP1 PUSH4 0x8C379A0 SUB PUSH2 0x3237 JUMPI POP PUSH2 0x31EF PUSH2 0x5C37 JUMP JUMPDEST DUP1 PUSH2 0x31FA JUMPI POP PUSH2 0x3239 JUMP JUMPDEST DUP1 PUSH1 0x40 MLOAD PUSH32 0x8C379A000000000000000000000000000000000000000000000000000000000 DUP2 MSTORE PUSH1 0x4 ADD PUSH2 0x322E SWAP2 SWAP1 PUSH2 0x37EE JUMP JUMPDEST PUSH1 0x40 MLOAD DUP1 SWAP2 SUB SWAP1 REVERT JUMPDEST POP JUMPDEST PUSH1 0x40 MLOAD PUSH32 0x8C379A000000000000000000000000000000000000000000000000000000000 DUP2 MSTORE PUSH1 0x4 ADD PUSH2 0x326B SWAP1 PUSH2 0x5D39 JUMP JUMPDEST PUSH1 0x40 MLOAD DUP1 SWAP2 SUB SWAP1 REVERT JUMPDEST PUSH4 0xF23A6E61 PUSH1 0xE0 SHL PUSH28 0xFFFFFFFFFFFFFFFFFFFFFFFFFFFFFFFFFFFFFFFFFFFFFFFFFFFFFFFF NOT AND DUP2 PUSH28 0xFFFFFFFFFFFFFFFFFFFFFFFFFFFFFFFFFFFFFFFFFFFFFFFFFFFFFFFF NOT AND EQ PUSH2 0x32FB JUMPI PUSH1 0x40 MLOAD PUSH32 0x8C379A000000000000000000000000000000000000000000000000000000000 DUP2 MSTORE PUSH1 0x4 ADD PUSH2 0x32F2 SWAP1 PUSH2 0x5DCB JUMP JUMPDEST PUSH1 0x40 MLOAD DUP1 SWAP2 SUB SWAP1 REVERT JUMPDEST POP JUMPDEST POP POP POP POP POP POP JUMP JUMPDEST PUSH1 0x0 DUP1 DUP3 PUSH20 0xFFFFFFFFFFFFFFFFFFFFFFFFFFFFFFFFFFFFFFFF AND EXTCODESIZE GT SWAP1 POP SWAP2 SWAP1 POP JUMP JUMPDEST PUSH1 0x60 PUSH1 0x0 PUSH1 0x2 DUP4 PUSH1 0x2 PUSH2 0x333B SWAP2 SWAP1 PUSH2 0x5EB1 JUMP JUMPDEST PUSH2 0x3345 SWAP2 SWAP1 PUSH2 0x491A JUMP JUMPDEST PUSH8 0xFFFFFFFFFFFFFFFF DUP2 GT ISZERO PUSH2 0x335E JUMPI PUSH2 0x335D PUSH2 0x3842 JUMP JUMPDEST JUMPDEST PUSH1 0x40 MLOAD SWAP1 DUP1 DUP3 MSTORE DUP1 PUSH1 0x1F ADD PUSH1 0x1F NOT AND PUSH1 0x20 ADD DUP3 ADD PUSH1 0x40 MSTORE DUP1 ISZERO PUSH2 0x3390 JUMPI DUP2 PUSH1 0x20 ADD PUSH1 0x1 DUP3 MUL DUP1 CALLDATASIZE DUP4 CALLDATACOPY DUP1 DUP3 ADD SWAP2 POP POP SWAP1 POP JUMPDEST POP SWAP1 POP PUSH32 0x3000000000000000000000000000000000000000000000000000000000000000 DUP2 PUSH1 0x0 DUP2 MLOAD DUP2 LT PUSH2 0x33C8 JUMPI PUSH2 0x33C7 PUSH2 0x4331 JUMP JUMPDEST JUMPDEST PUSH1 0x20 ADD ADD SWAP1 PUSH31 0xFFFFFFFFFFFFFFFFFFFFFFFFFFFFFFFFFFFFFFFFFFFFFFFFFFFFFFFFFFFFFF NOT AND SWAP1 DUP2 PUSH1 0x0 BYTE SWAP1 MSTORE8 POP PUSH32 0x7800000000000000000000000000000000000000000000000000000000000000 DUP2 PUSH1 0x1 DUP2 MLOAD DUP2 LT PUSH2 0x342C JUMPI PUSH2 0x342B PUSH2 0x4331 JUMP JUMPDEST JUMPDEST PUSH1 0x20 ADD ADD SWAP1 PUSH31 0xFFFFFFFFFFFFFFFFFFFFFFFFFFFFFFFFFFFFFFFFFFFFFFFFFFFFFFFFFFFFFF NOT AND SWAP1 DUP2 PUSH1 0x0 BYTE SWAP1 MSTORE8 POP PUSH1 0x0 PUSH1 0x1 DUP5 PUSH1 0x2 PUSH2 0x346C SWAP2 SWAP1 PUSH2 0x5EB1 JUMP JUMPDEST PUSH2 0x3476 SWAP2 SWAP1 PUSH2 0x491A JUMP JUMPDEST SWAP1 POP JUMPDEST PUSH1 0x1 DUP2 GT ISZERO PUSH2 0x3516 JUMPI PUSH32 0x3031323334353637383961626364656600000000000000000000000000000000 PUSH1 0xF DUP7 AND PUSH1 0x10 DUP2 LT PUSH2 0x34B8 JUMPI PUSH2 0x34B7 PUSH2 0x4331 JUMP JUMPDEST JUMPDEST BYTE PUSH1 0xF8 SHL DUP3 DUP3 DUP2 MLOAD DUP2 LT PUSH2 0x34CF JUMPI PUSH2 0x34CE PUSH2 0x4331 JUMP JUMPDEST JUMPDEST PUSH1 0x20 ADD ADD SWAP1 PUSH31 0xFFFFFFFFFFFFFFFFFFFFFFFFFFFFFFFFFFFFFFFFFFFFFFFFFFFFFFFFFFFFFF NOT AND SWAP1 DUP2 PUSH1 0x0 BYTE SWAP1 MSTORE8 POP PUSH1 0x4 DUP6 SWAP1 SHR SWAP5 POP DUP1 PUSH2 0x350F SWAP1 PUSH2 0x5EF3 JUMP JUMPDEST SWAP1 POP PUSH2 0x3479 JUMP JUMPDEST POP PUSH1 0x0 DUP5 EQ PUSH2 0x355A JUMPI PUSH1 0x40 MLOAD PUSH32 0x8C379A000000000000000000000000000000000000000000000000000000000 DUP2 MSTORE PUSH1 0x4 ADD PUSH2 0x3551 SWAP1 PUSH2 0x5F68 JUMP JUMPDEST PUSH1 0x40 MLOAD DUP1 SWAP2 SUB SWAP1 REVERT JUMPDEST DUP1 SWAP2 POP POP SWAP3 SWAP2 POP POP JUMP JUMPDEST PUSH1 0x0 PUSH1 0x40 MLOAD SWAP1 POP SWAP1 JUMP JUMPDEST PUSH1 0x0 DUP1 REVERT JUMPDEST PUSH1 0x0 DUP1 REVERT JUMPDEST PUSH1 0x0 PUSH20 0xFFFFFFFFFFFFFFFFFFFFFFFFFFFFFFFFFFFFFFFF DUP3 AND SWAP1 POP SWAP2 SWAP1 POP JUMP JUMPDEST PUSH1 0x0 PUSH2 0x35A3 DUP3 PUSH2 0x3578 JUMP JUMPDEST SWAP1 POP SWAP2 SWAP1 POP JUMP JUMPDEST PUSH2 0x35B3 DUP2 PUSH2 0x3598 JUMP JUMPDEST DUP2 EQ PUSH2 0x35BE JUMPI PUSH1 0x0 DUP1 REVERT JUMPDEST POP JUMP JUMPDEST PUSH1 0x0 DUP2 CALLDATALOAD SWAP1 POP PUSH2 0x35D0 DUP2 PUSH2 0x35AA JUMP JUMPDEST SWAP3 SWAP2 POP POP JUMP JUMPDEST PUSH1 0x0 DUP2 SWAP1 POP SWAP2 SWAP1 POP JUMP JUMPDEST PUSH2 0x35E9 DUP2 PUSH2 0x35D6 JUMP JUMPDEST DUP2 EQ PUSH2 0x35F4 JUMPI PUSH1 0x0 DUP1 REVERT JUMPDEST POP JUMP JUMPDEST PUSH1 0x0 DUP2 CALLDATALOAD SWAP1 POP PUSH2 0x3606 DUP2 PUSH2 0x35E0 JUMP JUMPDEST SWAP3 SWAP2 POP POP JUMP JUMPDEST PUSH1 0x0 DUP1 PUSH1 0x40 DUP4 DUP6 SUB SLT ISZERO PUSH2 0x3623 JUMPI PUSH2 0x3622 PUSH2 0x356E JUMP JUMPDEST JUMPDEST PUSH1 0x0 PUSH2 0x3631 DUP6 DUP3 DUP7 ADD PUSH2 0x35C1 JUMP JUMPDEST SWAP3 POP POP PUSH1 0x20 PUSH2 0x3642 DUP6 DUP3 DUP7 ADD PUSH2 0x35F7 JUMP JUMPDEST SWAP2 POP POP SWAP3 POP SWAP3 SWAP1 POP JUMP JUMPDEST PUSH2 0x3655 DUP2 PUSH2 0x35D6 JUMP JUMPDEST DUP3 MSTORE POP POP JUMP JUMPDEST PUSH1 0x0 PUSH1 0x20 DUP3 ADD SWAP1 POP PUSH2 0x3670 PUSH1 0x0 DUP4 ADD DUP5 PUSH2 0x364C JUMP JUMPDEST SWAP3 SWAP2 POP POP JUMP JUMPDEST PUSH1 0x0 PUSH32 0xFFFFFFFF00000000000000000000000000000000000000000000000000000000 DUP3 AND SWAP1 POP SWAP2 SWAP1 POP JUMP JUMPDEST PUSH2 0x36AB DUP2 PUSH2 0x3676 JUMP JUMPDEST DUP2 EQ PUSH2 0x36B6 JUMPI PUSH1 0x0 DUP1 REVERT JUMPDEST POP JUMP JUMPDEST PUSH1 0x0 DUP2 CALLDATALOAD SWAP1 POP PUSH2 0x36C8 DUP2 PUSH2 0x36A2 JUMP JUMPDEST SWAP3 SWAP2 POP POP JUMP JUMPDEST PUSH1 0x0 PUSH1 0x20 DUP3 DUP5 SUB SLT ISZERO PUSH2 0x36E4 JUMPI PUSH2 0x36E3 PUSH2 0x356E JUMP JUMPDEST JUMPDEST PUSH1 0x0 PUSH2 0x36F2 DUP5 DUP3 DUP6 ADD PUSH2 0x36B9 JUMP JUMPDEST SWAP2 POP POP SWAP3 SWAP2 POP POP JUMP JUMPDEST PUSH1 0x0 DUP2 ISZERO ISZERO SWAP1 POP SWAP2 SWAP1 POP JUMP JUMPDEST PUSH2 0x3710 DUP2 PUSH2 0x36FB JUMP JUMPDEST DUP3 MSTORE POP POP JUMP JUMPDEST PUSH1 0x0 PUSH1 0x20 DUP3 ADD SWAP1 POP PUSH2 0x372B PUSH1 0x0 DUP4 ADD DUP5 PUSH2 0x3707 JUMP JUMPDEST SWAP3 SWAP2 POP POP JUMP JUMPDEST PUSH1 0x0 PUSH1 0x20 DUP3 DUP5 SUB SLT ISZERO PUSH2 0x3747 JUMPI PUSH2 0x3746 PUSH2 0x356E JUMP JUMPDEST JUMPDEST PUSH1 0x0 PUSH2 0x3755 DUP5 DUP3 DUP6 ADD PUSH2 0x35F7 JUMP JUMPDEST SWAP2 POP POP SWAP3 SWAP2 POP POP JUMP JUMPDEST PUSH1 0x0 DUP2 MLOAD SWAP1 POP SWAP2 SWAP1 POP JUMP JUMPDEST PUSH1 0x0 DUP3 DUP3 MSTORE PUSH1 0x20 DUP3 ADD SWAP1 POP SWAP3 SWAP2 POP POP JUMP JUMPDEST PUSH1 0x0 JUMPDEST DUP4 DUP2 LT ISZERO PUSH2 0x3798 JUMPI DUP1 DUP3 ADD MLOAD DUP2 DUP5 ADD MSTORE PUSH1 0x20 DUP2 ADD SWAP1 POP PUSH2 0x377D JUMP JUMPDEST PUSH1 0x0 DUP5 DUP5 ADD MSTORE POP POP POP POP JUMP JUMPDEST PUSH1 0x0 PUSH1 0x1F NOT PUSH1 0x1F DUP4 ADD AND SWAP1 POP SWAP2 SWAP1 POP JUMP JUMPDEST PUSH1 0x0 PUSH2 0x37C0 DUP3 PUSH2 0x375E JUMP JUMPDEST PUSH2 0x37CA DUP2 DUP6 PUSH2 0x3769 JUMP JUMPDEST SWAP4 POP PUSH2 0x37DA DUP2 DUP6 PUSH1 0x20 DUP7 ADD PUSH2 0x377A JUMP JUMPDEST PUSH2 0x37E3 DUP2 PUSH2 0x37A4 JUMP JUMPDEST DUP5 ADD SWAP2 POP POP SWAP3 SWAP2 POP POP JUMP JUMPDEST PUSH1 0x0 PUSH1 0x20 DUP3 ADD SWAP1 POP DUP2 DUP2 SUB PUSH1 0x0 DUP4 ADD MSTORE PUSH2 0x3808 DUP2 DUP5 PUSH2 0x37B5 JUMP JUMPDEST SWAP1 POP SWAP3 SWAP2 POP POP JUMP JUMPDEST PUSH1 0x0 PUSH1 0x20 DUP3 DUP5 SUB SLT ISZERO PUSH2 0x3826 JUMPI PUSH2 0x3825 PUSH2 0x356E JUMP JUMPDEST JUMPDEST PUSH1 0x0 PUSH2 0x3834 DUP5 DUP3 DUP6 ADD PUSH2 0x35C1 JUMP JUMPDEST SWAP2 POP POP SWAP3 SWAP2 POP POP JUMP JUMPDEST PUSH1 0x0 DUP1 REVERT JUMPDEST PUSH32 0x4E487B7100000000000000000000000000000000000000000000000000000000 PUSH1 0x0 MSTORE PUSH1 0x41 PUSH1 0x4 MSTORE PUSH1 0x24 PUSH1 0x0 REVERT JUMPDEST PUSH2 0x387A DUP3 PUSH2 0x37A4 JUMP JUMPDEST DUP2 ADD DUP2 DUP2 LT PUSH8 0xFFFFFFFFFFFFFFFF DUP3 GT OR ISZERO PUSH2 0x3899 JUMPI PUSH2 0x3898 PUSH2 0x3842 JUMP JUMPDEST JUMPDEST DUP1 PUSH1 0x40 MSTORE POP POP POP JUMP JUMPDEST PUSH1 0x0 PUSH2 0x38AC PUSH2 0x3564 JUMP JUMPDEST SWAP1 POP PUSH2 0x38B8 DUP3 DUP3 PUSH2 0x3871 JUMP JUMPDEST SWAP2 SWAP1 POP JUMP JUMPDEST PUSH1 0x0 PUSH8 0xFFFFFFFFFFFFFFFF DUP3 GT ISZERO PUSH2 0x38D8 JUMPI PUSH2 0x38D7 PUSH2 0x3842 JUMP JUMPDEST JUMPDEST PUSH1 0x20 DUP3 MUL SWAP1 POP PUSH1 0x20 DUP2 ADD SWAP1 POP SWAP2 SWAP1 POP JUMP JUMPDEST PUSH1 0x0 DUP1 REVERT JUMPDEST PUSH1 0x0 PUSH2 0x3901 PUSH2 0x38FC DUP5 PUSH2 0x38BD JUMP JUMPDEST PUSH2 0x38A2 JUMP JUMPDEST SWAP1 POP DUP1 DUP4 DUP3 MSTORE PUSH1 0x20 DUP3 ADD SWAP1 POP PUSH1 0x20 DUP5 MUL DUP4 ADD DUP6 DUP2 GT ISZERO PUSH2 0x3924 JUMPI PUSH2 0x3923 PUSH2 0x38E9 JUMP JUMPDEST JUMPDEST DUP4 JUMPDEST DUP2 DUP2 LT ISZERO PUSH2 0x394D JUMPI DUP1 PUSH2 0x3939 DUP9 DUP3 PUSH2 0x35F7 JUMP JUMPDEST DUP5 MSTORE PUSH1 0x20 DUP5 ADD SWAP4 POP POP PUSH1 0x20 DUP2 ADD SWAP1 POP PUSH2 0x3926 JUMP JUMPDEST POP POP POP SWAP4 SWAP3 POP POP POP JUMP JUMPDEST PUSH1 0x0 DUP3 PUSH1 0x1F DUP4 ADD SLT PUSH2 0x396C JUMPI PUSH2 0x396B PUSH2 0x383D JUMP JUMPDEST JUMPDEST DUP2 CALLDATALOAD PUSH2 0x397C DUP5 DUP3 PUSH1 0x20 DUP7 ADD PUSH2 0x38EE JUMP JUMPDEST SWAP2 POP POP SWAP3 SWAP2 POP POP JUMP JUMPDEST PUSH1 0x0 DUP1 REVERT JUMPDEST PUSH1 0x0 PUSH8 0xFFFFFFFFFFFFFFFF DUP3 GT ISZERO PUSH2 0x39A5 JUMPI PUSH2 0x39A4 PUSH2 0x3842 JUMP JUMPDEST JUMPDEST PUSH2 0x39AE DUP3 PUSH2 0x37A4 JUMP JUMPDEST SWAP1 POP PUSH1 0x20 DUP2 ADD SWAP1 POP SWAP2 SWAP1 POP JUMP JUMPDEST DUP3 DUP2 DUP4 CALLDATACOPY PUSH1 0x0 DUP4 DUP4 ADD MSTORE POP POP POP JUMP JUMPDEST PUSH1 0x0 PUSH2 0x39DD PUSH2 0x39D8 DUP5 PUSH2 0x398A JUMP JUMPDEST PUSH2 0x38A2 JUMP JUMPDEST SWAP1 POP DUP3 DUP2 MSTORE PUSH1 0x20 DUP2 ADD DUP5 DUP5 DUP5 ADD GT ISZERO PUSH2 0x39F9 JUMPI PUSH2 0x39F8 PUSH2 0x3985 JUMP JUMPDEST JUMPDEST PUSH2 0x3A04 DUP5 DUP3 DUP6 PUSH2 0x39BB JUMP JUMPDEST POP SWAP4 SWAP3 POP POP POP JUMP JUMPDEST PUSH1 0x0 DUP3 PUSH1 0x1F DUP4 ADD SLT PUSH2 0x3A21 JUMPI PUSH2 0x3A20 PUSH2 0x383D JUMP JUMPDEST JUMPDEST DUP2 CALLDATALOAD PUSH2 0x3A31 DUP5 DUP3 PUSH1 0x20 DUP7 ADD PUSH2 0x39CA JUMP JUMPDEST SWAP2 POP POP SWAP3 SWAP2 POP POP JUMP JUMPDEST PUSH1 0x0 DUP1 PUSH1 0x0 DUP1 PUSH1 0x0 PUSH1 0xA0 DUP7 DUP9 SUB SLT ISZERO PUSH2 0x3A56 JUMPI PUSH2 0x3A55 PUSH2 0x356E JUMP JUMPDEST JUMPDEST PUSH1 0x0 PUSH2 0x3A64 DUP9 DUP3 DUP10 ADD PUSH2 0x35C1 JUMP JUMPDEST SWAP6 POP POP PUSH1 0x20 PUSH2 0x3A75 DUP9 DUP3 DUP10 ADD PUSH2 0x35C1 JUMP JUMPDEST SWAP5 POP POP PUSH1 0x40 DUP7 ADD CALLDATALOAD PUSH8 0xFFFFFFFFFFFFFFFF DUP2 GT ISZERO PUSH2 0x3A96 JUMPI PUSH2 0x3A95 PUSH2 0x3573 JUMP JUMPDEST JUMPDEST PUSH2 0x3AA2 DUP9 DUP3 DUP10 ADD PUSH2 0x3957 JUMP JUMPDEST SWAP4 POP POP PUSH1 0x60 DUP7 ADD CALLDATALOAD PUSH8 0xFFFFFFFFFFFFFFFF DUP2 GT ISZERO PUSH2 0x3AC3 JUMPI PUSH2 0x3AC2 PUSH2 0x3573 JUMP JUMPDEST JUMPDEST PUSH2 0x3ACF DUP9 DUP3 DUP10 ADD PUSH2 0x3957 JUMP JUMPDEST SWAP3 POP POP PUSH1 0x80 DUP7 ADD CALLDATALOAD PUSH8 0xFFFFFFFFFFFFFFFF DUP2 GT ISZERO PUSH2 0x3AF0 JUMPI PUSH2 0x3AEF PUSH2 0x3573 JUMP JUMPDEST JUMPDEST PUSH2 0x3AFC DUP9 DUP3 DUP10 ADD PUSH2 0x3A0C JUMP JUMPDEST SWAP2 POP POP SWAP3 SWAP6 POP SWAP3 SWAP6 SWAP1 SWAP4 POP JUMP JUMPDEST PUSH1 0x0 DUP1 PUSH1 0x40 DUP4 DUP6 SUB SLT ISZERO PUSH2 0x3B20 JUMPI PUSH2 0x3B1F PUSH2 0x356E JUMP JUMPDEST JUMPDEST PUSH1 0x0 PUSH2 0x3B2E DUP6 DUP3 DUP7 ADD PUSH2 0x35C1 JUMP JUMPDEST SWAP3 POP POP PUSH1 0x20 PUSH2 0x3B3F DUP6 DUP3 DUP7 ADD PUSH2 0x35C1 JUMP JUMPDEST SWAP2 POP POP SWAP3 POP SWAP3 SWAP1 POP JUMP JUMPDEST PUSH1 0x0 PUSH8 0xFFFFFFFFFFFFFFFF DUP3 GT ISZERO PUSH2 0x3B64 JUMPI PUSH2 0x3B63 PUSH2 0x3842 JUMP JUMPDEST JUMPDEST PUSH1 0x20 DUP3 MUL SWAP1 POP PUSH1 0x20 DUP2 ADD SWAP1 POP SWAP2 SWAP1 POP JUMP JUMPDEST PUSH1 0x0 PUSH2 0x3B88 PUSH2 0x3B83 DUP5 PUSH2 0x3B49 JUMP JUMPDEST PUSH2 0x38A2 JUMP JUMPDEST SWAP1 POP DUP1 DUP4 DUP3 MSTORE PUSH1 0x20 DUP3 ADD SWAP1 POP PUSH1 0x20 DUP5 MUL DUP4 ADD DUP6 DUP2 GT ISZERO PUSH2 0x3BAB JUMPI PUSH2 0x3BAA PUSH2 0x38E9 JUMP JUMPDEST JUMPDEST DUP4 JUMPDEST DUP2 DUP2 LT ISZERO PUSH2 0x3BD4 JUMPI DUP1 PUSH2 0x3BC0 DUP9 DUP3 PUSH2 0x35C1 JUMP JUMPDEST DUP5 MSTORE PUSH1 0x20 DUP5 ADD SWAP4 POP POP PUSH1 0x20 DUP2 ADD SWAP1 POP PUSH2 0x3BAD JUMP JUMPDEST POP POP POP SWAP4 SWAP3 POP POP POP JUMP JUMPDEST PUSH1 0x0 DUP3 PUSH1 0x1F DUP4 ADD SLT PUSH2 0x3BF3 JUMPI PUSH2 0x3BF2 PUSH2 0x383D JUMP JUMPDEST JUMPDEST DUP2 CALLDATALOAD PUSH2 0x3C03 DUP5 DUP3 PUSH1 0x20 DUP7 ADD PUSH2 0x3B75 JUMP JUMPDEST SWAP2 POP POP SWAP3 SWAP2 POP POP JUMP JUMPDEST PUSH1 0x0 DUP1 PUSH1 0x40 DUP4 DUP6 SUB SLT ISZERO PUSH2 0x3C23 JUMPI PUSH2 0x3C22 PUSH2 0x356E JUMP JUMPDEST JUMPDEST PUSH1 0x0 DUP4 ADD CALLDATALOAD PUSH8 0xFFFFFFFFFFFFFFFF DUP2 GT ISZERO PUSH2 0x3C41 JUMPI PUSH2 0x3C40 PUSH2 0x3573 JUMP JUMPDEST JUMPDEST PUSH2 0x3C4D DUP6 DUP3 DUP7 ADD PUSH2 0x3BDE JUMP JUMPDEST SWAP3 POP POP PUSH1 0x20 DUP4 ADD CALLDATALOAD PUSH8 0xFFFFFFFFFFFFFFFF DUP2 GT ISZERO PUSH2 0x3C6E JUMPI PUSH2 0x3C6D PUSH2 0x3573 JUMP JUMPDEST JUMPDEST PUSH2 0x3C7A DUP6 DUP3 DUP7 ADD PUSH2 0x3957 JUMP JUMPDEST SWAP2 POP POP SWAP3 POP SWAP3 SWAP1 POP JUMP JUMPDEST PUSH1 0x0 DUP2 MLOAD SWAP1 POP SWAP2 SWAP1 POP JUMP JUMPDEST PUSH1 0x0 DUP3 DUP3 MSTORE PUSH1 0x20 DUP3 ADD SWAP1 POP SWAP3 SWAP2 POP POP JUMP JUMPDEST PUSH1 0x0 DUP2 SWAP1 POP PUSH1 0x20 DUP3 ADD SWAP1 POP SWAP2 SWAP1 POP JUMP JUMPDEST PUSH2 0x3CB9 DUP2 PUSH2 0x35D6 JUMP JUMPDEST DUP3 MSTORE POP POP JUMP JUMPDEST PUSH1 0x0 PUSH2 0x3CCB DUP4 DUP4 PUSH2 0x3CB0 JUMP JUMPDEST PUSH1 0x20 DUP4 ADD SWAP1 POP SWAP3 SWAP2 POP POP JUMP JUMPDEST PUSH1 0x0 PUSH1 0x20 DUP3 ADD SWAP1 POP SWAP2 SWAP1 POP JUMP JUMPDEST PUSH1 0x0 PUSH2 0x3CEF DUP3 PUSH2 0x3C84 JUMP JUMPDEST PUSH2 0x3CF9 DUP2 DUP6 PUSH2 0x3C8F JUMP JUMPDEST SWAP4 POP PUSH2 0x3D04 DUP4 PUSH2 0x3CA0 JUMP JUMPDEST DUP1 PUSH1 0x0 JUMPDEST DUP4 DUP2 LT ISZERO PUSH2 0x3D35 JUMPI DUP2 MLOAD PUSH2 0x3D1C DUP9 DUP3 PUSH2 0x3CBF JUMP JUMPDEST SWAP8 POP PUSH2 0x3D27 DUP4 PUSH2 0x3CD7 JUMP JUMPDEST SWAP3 POP POP PUSH1 0x1 DUP2 ADD SWAP1 POP PUSH2 0x3D08 JUMP JUMPDEST POP DUP6 SWAP4 POP POP POP POP SWAP3 SWAP2 POP POP JUMP JUMPDEST PUSH1 0x0 PUSH1 0x20 DUP3 ADD SWAP1 POP DUP2 DUP2 SUB PUSH1 0x0 DUP4 ADD MSTORE PUSH2 0x3D5C DUP2 DUP5 PUSH2 0x3CE4 JUMP JUMPDEST SWAP1 POP SWAP3 SWAP2 POP POP JUMP JUMPDEST PUSH1 0x0 DUP1 PUSH1 0x0 DUP1 PUSH1 0x80 DUP6 DUP8 SUB SLT ISZERO PUSH2 0x3D7E JUMPI PUSH2 0x3D7D PUSH2 0x356E JUMP JUMPDEST JUMPDEST PUSH1 0x0 PUSH2 0x3D8C DUP8 DUP3 DUP9 ADD PUSH2 0x35C1 JUMP JUMPDEST SWAP5 POP POP PUSH1 0x20 PUSH2 0x3D9D DUP8 DUP3 DUP9 ADD PUSH2 0x35C1 JUMP JUMPDEST SWAP4 POP POP PUSH1 0x40 PUSH2 0x3DAE DUP8 DUP3 DUP9 ADD PUSH2 0x35F7 JUMP JUMPDEST SWAP3 POP POP PUSH1 0x60 DUP6 ADD CALLDATALOAD PUSH8 0xFFFFFFFFFFFFFFFF DUP2 GT ISZERO PUSH2 0x3DCF JUMPI PUSH2 0x3DCE PUSH2 0x3573 JUMP JUMPDEST JUMPDEST PUSH2 0x3DDB DUP8 DUP3 DUP9 ADD PUSH2 0x3A0C JUMP JUMPDEST SWAP2 POP POP SWAP3 SWAP6 SWAP2 SWAP5 POP SWAP3 POP JUMP JUMPDEST PUSH1 0x0 DUP1 PUSH1 0x0 DUP1 PUSH1 0x80 DUP6 DUP8 SUB SLT ISZERO PUSH2 0x3E01 JUMPI PUSH2 0x3E00 PUSH2 0x356E JUMP JUMPDEST JUMPDEST PUSH1 0x0 PUSH2 0x3E0F DUP8 DUP3 DUP9 ADD PUSH2 0x35C1 JUMP JUMPDEST SWAP5 POP POP PUSH1 0x20 PUSH2 0x3E20 DUP8 DUP3 DUP9 ADD PUSH2 0x35F7 JUMP JUMPDEST SWAP4 POP POP PUSH1 0x40 PUSH2 0x3E31 DUP8 DUP3 DUP9 ADD PUSH2 0x35C1 JUMP JUMPDEST SWAP3 POP POP PUSH1 0x60 DUP6 ADD CALLDATALOAD PUSH8 0xFFFFFFFFFFFFFFFF DUP2 GT ISZERO PUSH2 0x3E52 JUMPI PUSH2 0x3E51 PUSH2 0x3573 JUMP JUMPDEST JUMPDEST PUSH2 0x3E5E DUP8 DUP3 DUP9 ADD PUSH2 0x3A0C JUMP JUMPDEST SWAP2 POP POP SWAP3 SWAP6 SWAP2 SWAP5 POP SWAP3 POP JUMP JUMPDEST PUSH2 0x3E73 DUP2 PUSH2 0x3598 JUMP JUMPDEST DUP3 MSTORE POP POP JUMP JUMPDEST PUSH1 0x0 PUSH1 0x20 DUP3 ADD SWAP1 POP PUSH2 0x3E8E PUSH1 0x0 DUP4 ADD DUP5 PUSH2 0x3E6A JUMP JUMPDEST SWAP3 SWAP2 POP POP JUMP JUMPDEST PUSH1 0x0 DUP1 PUSH1 0x0 DUP1 PUSH1 0x0 PUSH1 0xA0 DUP7 DUP9 SUB SLT ISZERO PUSH2 0x3EB0 JUMPI PUSH2 0x3EAF PUSH2 0x356E JUMP JUMPDEST JUMPDEST PUSH1 0x0 PUSH2 0x3EBE DUP9 DUP3 DUP10 ADD PUSH2 0x35C1 JUMP JUMPDEST SWAP6 POP POP PUSH1 0x20 PUSH2 0x3ECF DUP9 DUP3 DUP10 ADD PUSH2 0x35C1 JUMP JUMPDEST SWAP5 POP POP PUSH1 0x40 PUSH2 0x3EE0 DUP9 DUP3 DUP10 ADD PUSH2 0x35C1 JUMP JUMPDEST SWAP4 POP POP PUSH1 0x60 PUSH2 0x3EF1 DUP9 DUP3 DUP10 ADD PUSH2 0x35F7 JUMP JUMPDEST SWAP3 POP POP PUSH1 0x80 DUP7 ADD CALLDATALOAD PUSH8 0xFFFFFFFFFFFFFFFF DUP2 GT ISZERO PUSH2 0x3F12 JUMPI PUSH2 0x3F11 PUSH2 0x3573 JUMP JUMPDEST JUMPDEST PUSH2 0x3F1E DUP9 DUP3 DUP10 ADD PUSH2 0x3A0C JUMP JUMPDEST SWAP2 POP POP SWAP3 SWAP6 POP SWAP3 SWAP6 SWAP1 SWAP4 POP JUMP JUMPDEST PUSH2 0x3F34 DUP2 PUSH2 0x36FB JUMP JUMPDEST DUP2 EQ PUSH2 0x3F3F JUMPI PUSH1 0x0 DUP1 REVERT JUMPDEST POP JUMP JUMPDEST PUSH1 0x0 DUP2 CALLDATALOAD SWAP1 POP PUSH2 0x3F51 DUP2 PUSH2 0x3F2B JUMP JUMPDEST SWAP3 SWAP2 POP POP JUMP JUMPDEST PUSH1 0x0 DUP1 PUSH1 0x40 DUP4 DUP6 SUB SLT ISZERO PUSH2 0x3F6E JUMPI PUSH2 0x3F6D PUSH2 0x356E JUMP JUMPDEST JUMPDEST PUSH1 0x0 PUSH2 0x3F7C DUP6 DUP3 DUP7 ADD PUSH2 0x35C1 JUMP JUMPDEST SWAP3 POP POP PUSH1 0x20 PUSH2 0x3F8D DUP6 DUP3 DUP7 ADD PUSH2 0x3F42 JUMP JUMPDEST SWAP2 POP POP SWAP3 POP SWAP3 SWAP1 POP JUMP JUMPDEST PUSH1 0x0 DUP1 PUSH1 0x0 DUP1 PUSH1 0x0 PUSH1 0xA0 DUP7 DUP9 SUB SLT ISZERO PUSH2 0x3FB3 JUMPI PUSH2 0x3FB2 PUSH2 0x356E JUMP JUMPDEST JUMPDEST PUSH1 0x0 PUSH2 0x3FC1 DUP9 DUP3 DUP10 ADD PUSH2 0x35C1 JUMP JUMPDEST SWAP6 POP POP PUSH1 0x20 PUSH2 0x3FD2 DUP9 DUP3 DUP10 ADD PUSH2 0x35F7 JUMP JUMPDEST SWAP5 POP POP PUSH1 0x40 PUSH2 0x3FE3 DUP9 DUP3 DUP10 ADD PUSH2 0x35C1 JUMP JUMPDEST SWAP4 POP POP PUSH1 0x60 PUSH2 0x3FF4 DUP9 DUP3 DUP10 ADD PUSH2 0x35C1 JUMP JUMPDEST SWAP3 POP POP PUSH1 0x80 DUP7 ADD CALLDATALOAD PUSH8 0xFFFFFFFFFFFFFFFF DUP2 GT ISZERO PUSH2 0x4015 JUMPI PUSH2 0x4014 PUSH2 0x3573 JUMP JUMPDEST JUMPDEST PUSH2 0x4021 DUP9 DUP3 DUP10 ADD PUSH2 0x3A0C JUMP JUMPDEST SWAP2 POP POP SWAP3 SWAP6 POP SWAP3 SWAP6 SWAP1 SWAP4 POP JUMP JUMPDEST PUSH1 0x0 DUP2 SWAP1 POP SWAP2 SWAP1 POP JUMP JUMPDEST PUSH1 0x0 PUSH2 0x4053 PUSH2 0x404E PUSH2 0x4049 DUP5 PUSH2 0x3578 JUMP JUMPDEST PUSH2 0x402E JUMP JUMPDEST PUSH2 0x3578 JUMP JUMPDEST SWAP1 POP SWAP2 SWAP1 POP JUMP JUMPDEST PUSH1 0x0 PUSH2 0x4065 DUP3 PUSH2 0x4038 JUMP JUMPDEST SWAP1 POP SWAP2 SWAP1 POP JUMP JUMPDEST PUSH1 0x0 PUSH2 0x4077 DUP3 PUSH2 0x405A JUMP JUMPDEST SWAP1 POP SWAP2 SWAP1 POP JUMP JUMPDEST PUSH2 0x4087 DUP2 PUSH2 0x406C JUMP JUMPDEST DUP3 MSTORE POP POP JUMP JUMPDEST PUSH1 0x0 PUSH1 0x20 DUP3 ADD SWAP1 POP PUSH2 0x40A2 PUSH1 0x0 DUP4 ADD DUP5 PUSH2 0x407E JUMP JUMPDEST SWAP3 SWAP2 POP POP JUMP JUMPDEST PUSH1 0x0 PUSH2 0x40B3 DUP3 PUSH2 0x405A JUMP JUMPDEST SWAP1 POP SWAP2 SWAP1 POP JUMP JUMPDEST PUSH2 0x40C3 DUP2 PUSH2 0x40A8 JUMP JUMPDEST DUP3 MSTORE POP POP JUMP JUMPDEST PUSH1 0x0 PUSH1 0x20 DUP3 ADD SWAP1 POP PUSH2 0x40DE PUSH1 0x0 DUP4 ADD DUP5 PUSH2 0x40BA JUMP JUMPDEST SWAP3 SWAP2 POP POP JUMP JUMPDEST PUSH1 0x0 DUP1 PUSH1 0x0 DUP1 PUSH1 0x0 PUSH1 0xA0 DUP7 DUP9 SUB SLT ISZERO PUSH2 0x4100 JUMPI PUSH2 0x40FF PUSH2 0x356E JUMP JUMPDEST JUMPDEST PUSH1 0x0 PUSH2 0x410E DUP9 DUP3 DUP10 ADD PUSH2 0x35C1 JUMP JUMPDEST SWAP6 POP POP PUSH1 0x20 PUSH2 0x411F DUP9 DUP3 DUP10 ADD PUSH2 0x35C1 JUMP JUMPDEST SWAP5 POP POP PUSH1 0x40 PUSH2 0x4130 DUP9 DUP3 DUP10 ADD PUSH2 0x35F7 JUMP JUMPDEST SWAP4 POP POP PUSH1 0x60 PUSH2 0x4141 DUP9 DUP3 DUP10 ADD PUSH2 0x35F7 JUMP JUMPDEST SWAP3 POP POP PUSH1 0x80 DUP7 ADD CALLDATALOAD PUSH8 0xFFFFFFFFFFFFFFFF DUP2 GT ISZERO PUSH2 0x4162 JUMPI PUSH2 0x4161 PUSH2 0x3573 JUMP JUMPDEST JUMPDEST PUSH2 0x416E DUP9 DUP3 DUP10 ADD PUSH2 0x3A0C JUMP JUMPDEST SWAP2 POP POP SWAP3 SWAP6 POP SWAP3 SWAP6 SWAP1 SWAP4 POP JUMP JUMPDEST PUSH32 0x455243313135353A2061646472657373207A65726F206973206E6F7420612076 PUSH1 0x0 DUP3 ADD MSTORE PUSH32 0x616C6964206F776E657200000000000000000000000000000000000000000000 PUSH1 0x20 DUP3 ADD MSTORE POP JUMP JUMPDEST PUSH1 0x0 PUSH2 0x41D7 PUSH1 0x2A DUP4 PUSH2 0x3769 JUMP JUMPDEST SWAP2 POP PUSH2 0x41E2 DUP3 PUSH2 0x417B JUMP JUMPDEST PUSH1 0x40 DUP3 ADD SWAP1 POP SWAP2 SWAP1 POP JUMP JUMPDEST PUSH1 0x0 PUSH1 0x20 DUP3 ADD SWAP1 POP DUP2 DUP2 SUB PUSH1 0x0 DUP4 ADD MSTORE PUSH2 0x4206 DUP2 PUSH2 0x41CA JUMP JUMPDEST SWAP1 POP SWAP2 SWAP1 POP JUMP JUMPDEST PUSH32 0x455243313135353A2063616C6C6572206973206E6F7420746F6B656E206F776E PUSH1 0x0 DUP3 ADD MSTORE PUSH32 0x6572206E6F7220617070726F7665640000000000000000000000000000000000 PUSH1 0x20 DUP3 ADD MSTORE POP JUMP JUMPDEST PUSH1 0x0 PUSH2 0x4269 PUSH1 0x2F DUP4 PUSH2 0x3769 JUMP JUMPDEST SWAP2 POP PUSH2 0x4274 DUP3 PUSH2 0x420D JUMP JUMPDEST PUSH1 0x40 DUP3 ADD SWAP1 POP SWAP2 SWAP1 POP JUMP JUMPDEST PUSH1 0x0 PUSH1 0x20 DUP3 ADD SWAP1 POP DUP2 DUP2 SUB PUSH1 0x0 DUP4 ADD MSTORE PUSH2 0x4298 DUP2 PUSH2 0x425C JUMP JUMPDEST SWAP1 POP SWAP2 SWAP1 POP JUMP JUMPDEST PUSH32 0x455243313135353A206163636F756E747320616E6420696473206C656E677468 PUSH1 0x0 DUP3 ADD MSTORE PUSH32 0x206D69736D617463680000000000000000000000000000000000000000000000 PUSH1 0x20 DUP3 ADD MSTORE POP JUMP JUMPDEST PUSH1 0x0 PUSH2 0x42FB PUSH1 0x29 DUP4 PUSH2 0x3769 JUMP JUMPDEST SWAP2 POP PUSH2 0x4306 DUP3 PUSH2 0x429F JUMP JUMPDEST PUSH1 0x40 DUP3 ADD SWAP1 POP SWAP2 SWAP1 POP JUMP JUMPDEST PUSH1 0x0 PUSH1 0x20 DUP3 ADD SWAP1 POP DUP2 DUP2 SUB PUSH1 0x0 DUP4 ADD MSTORE PUSH2 0x432A DUP2 PUSH2 0x42EE JUMP JUMPDEST SWAP1 POP SWAP2 SWAP1 POP JUMP JUMPDEST PUSH32 0x4E487B7100000000000000000000000000000000000000000000000000000000 PUSH1 0x0 MSTORE PUSH1 0x32 PUSH1 0x4 MSTORE PUSH1 0x24 PUSH1 0x0 REVERT JUMPDEST PUSH32 0x4E487B7100000000000000000000000000000000000000000000000000000000 PUSH1 0x0 MSTORE PUSH1 0x11 PUSH1 0x4 MSTORE PUSH1 0x24 PUSH1 0x0 REVERT JUMPDEST PUSH1 0x0 PUSH2 0x439A DUP3 PUSH2 0x35D6 JUMP JUMPDEST SWAP2 POP PUSH32 0xFFFFFFFFFFFFFFFFFFFFFFFFFFFFFFFFFFFFFFFFFFFFFFFFFFFFFFFFFFFFFFFF DUP3 SUB PUSH2 0x43CC JUMPI PUSH2 0x43CB PUSH2 0x4360 JUMP JUMPDEST JUMPDEST PUSH1 0x1 DUP3 ADD SWAP1 POP SWAP2 SWAP1 POP JUMP JUMPDEST PUSH1 0x0 PUSH1 0x40 DUP3 ADD SWAP1 POP PUSH2 0x43EC PUSH1 0x0 DUP4 ADD DUP6 PUSH2 0x3E6A JUMP JUMPDEST PUSH2 0x43F9 PUSH1 0x20 DUP4 ADD DUP5 PUSH2 0x364C JUMP JUMPDEST SWAP4 SWAP3 POP POP POP JUMP JUMPDEST PUSH1 0x0 DUP2 MLOAD SWAP1 POP PUSH2 0x440F DUP2 PUSH2 0x3F2B JUMP JUMPDEST SWAP3 SWAP2 POP POP JUMP JUMPDEST PUSH1 0x0 PUSH1 0x20 DUP3 DUP5 SUB SLT ISZERO PUSH2 0x442B JUMPI PUSH2 0x442A PUSH2 0x356E JUMP JUMPDEST JUMPDEST PUSH1 0x0 PUSH2 0x4439 DUP5 DUP3 DUP6 ADD PUSH2 0x4400 JUMP JUMPDEST SWAP2 POP POP SWAP3 SWAP2 POP POP JUMP JUMPDEST PUSH32 0x63616E2774207472616E73666572000000000000000000000000000000000000 PUSH1 0x0 DUP3 ADD MSTORE POP JUMP JUMPDEST PUSH1 0x0 PUSH2 0x4478 PUSH1 0xE DUP4 PUSH2 0x3769 JUMP JUMPDEST SWAP2 POP PUSH2 0x4483 DUP3 PUSH2 0x4442 JUMP JUMPDEST PUSH1 0x20 DUP3 ADD SWAP1 POP SWAP2 SWAP1 POP JUMP JUMPDEST PUSH1 0x0 PUSH1 0x20 DUP3 ADD SWAP1 POP DUP2 DUP2 SUB PUSH1 0x0 DUP4 ADD MSTORE PUSH2 0x44A7 DUP2 PUSH2 0x446B JUMP JUMPDEST SWAP1 POP SWAP2 SWAP1 POP JUMP JUMPDEST PUSH1 0x0 PUSH1 0x60 DUP3 ADD SWAP1 POP PUSH2 0x44C3 PUSH1 0x0 DUP4 ADD DUP7 PUSH2 0x3E6A JUMP JUMPDEST PUSH2 0x44D0 PUSH1 0x20 DUP4 ADD DUP6 PUSH2 0x3E6A JUMP JUMPDEST PUSH2 0x44DD PUSH1 0x40 DUP4 ADD DUP5 PUSH2 0x364C JUMP JUMPDEST SWAP5 SWAP4 POP POP POP POP JUMP JUMPDEST PUSH1 0x0 DUP2 PUSH1 0x60 SHL SWAP1 POP SWAP2 SWAP1 POP JUMP JUMPDEST PUSH1 0x0 PUSH2 0x44FD DUP3 PUSH2 0x44E5 JUMP JUMPDEST SWAP1 POP SWAP2 SWAP1 POP JUMP JUMPDEST PUSH1 0x0 PUSH2 0x450F DUP3 PUSH2 0x44F2 JUMP JUMPDEST SWAP1 POP SWAP2 SWAP1 POP JUMP JUMPDEST PUSH2 0x4527 PUSH2 0x4522 DUP3 PUSH2 0x3598 JUMP JUMPDEST PUSH2 0x4504 JUMP JUMPDEST DUP3 MSTORE POP POP JUMP JUMPDEST PUSH1 0x0 DUP2 SWAP1 POP SWAP2 SWAP1 POP JUMP JUMPDEST PUSH2 0x4548 PUSH2 0x4543 DUP3 PUSH2 0x35D6 JUMP JUMPDEST PUSH2 0x452D JUMP JUMPDEST DUP3 MSTORE POP POP JUMP JUMPDEST PUSH1 0x0 PUSH2 0x455A DUP3 DUP6 PUSH2 0x4516 JUMP JUMPDEST PUSH1 0x14 DUP3 ADD SWAP2 POP PUSH2 0x456A DUP3 DUP5 PUSH2 0x4537 JUMP JUMPDEST PUSH1 0x20 DUP3 ADD SWAP2 POP DUP2 SWAP1 POP SWAP4 SWAP3 POP POP POP JUMP JUMPDEST PUSH32 0x4F776E61626C653A206E6577206F776E657220697320746865207A65726F2061 PUSH1 0x0 DUP3 ADD MSTORE PUSH32 0x6464726573730000000000000000000000000000000000000000000000000000 PUSH1 0x20 DUP3 ADD MSTORE POP JUMP JUMPDEST PUSH1 0x0 PUSH2 0x45D6 PUSH1 0x26 DUP4 PUSH2 0x3769 JUMP JUMPDEST SWAP2 POP PUSH2 0x45E1 DUP3 PUSH2 0x457A JUMP JUMPDEST PUSH1 0x40 DUP3 ADD SWAP1 POP SWAP2 SWAP1 POP JUMP JUMPDEST PUSH1 0x0 PUSH1 0x20 DUP3 ADD SWAP1 POP DUP2 DUP2 SUB PUSH1 0x0 DUP4 ADD MSTORE PUSH2 0x4605 DUP2 PUSH2 0x45C9 JUMP JUMPDEST SWAP1 POP SWAP2 SWAP1 POP JUMP JUMPDEST PUSH32 0x4E487B7100000000000000000000000000000000000000000000000000000000 PUSH1 0x0 MSTORE PUSH1 0x22 PUSH1 0x4 MSTORE PUSH1 0x24 PUSH1 0x0 REVERT JUMPDEST PUSH1 0x0 PUSH1 0x2 DUP3 DIV SWAP1 POP PUSH1 0x1 DUP3 AND DUP1 PUSH2 0x4653 JUMPI PUSH1 0x7F DUP3 AND SWAP2 POP JUMPDEST PUSH1 0x20 DUP3 LT DUP2 SUB PUSH2 0x4666 JUMPI PUSH2 0x4665 PUSH2 0x460C JUMP JUMPDEST JUMPDEST POP SWAP2 SWAP1 POP JUMP JUMPDEST PUSH1 0x0 DUP2 SWAP1 POP SWAP3 SWAP2 POP POP JUMP JUMPDEST PUSH1 0x0 DUP2 SWAP1 POP DUP2 PUSH1 0x0 MSTORE PUSH1 0x20 PUSH1 0x0 KECCAK256 SWAP1 POP SWAP2 SWAP1 POP JUMP JUMPDEST PUSH1 0x0 DUP2 SLOAD PUSH2 0x4699 DUP2 PUSH2 0x463B JUMP JUMPDEST PUSH2 0x46A3 DUP2 DUP7 PUSH2 0x466C JUMP JUMPDEST SWAP5 POP PUSH1 0x1 DUP3 AND PUSH1 0x0 DUP2 EQ PUSH2 0x46BE JUMPI PUSH1 0x1 DUP2 EQ PUSH2 0x46D3 JUMPI PUSH2 0x4706 JUMP JUMPDEST PUSH1 0xFF NOT DUP4 AND DUP7 MSTORE DUP2 ISZERO ISZERO DUP3 MUL DUP7 ADD SWAP4 POP PUSH2 0x4706 JUMP JUMPDEST PUSH2 0x46DC DUP6 PUSH2 0x4677 JUMP JUMPDEST PUSH1 0x0 JUMPDEST DUP4 DUP2 LT ISZERO PUSH2 0x46FE JUMPI DUP2 SLOAD DUP2 DUP10 ADD MSTORE PUSH1 0x1 DUP3 ADD SWAP2 POP PUSH1 0x20 DUP2 ADD SWAP1 POP PUSH2 0x46DF JUMP JUMPDEST DUP4 DUP9 ADD SWAP6 POP POP POP JUMPDEST POP POP POP SWAP3 SWAP2 POP POP JUMP JUMPDEST PUSH1 0x0 PUSH2 0x471A DUP3 PUSH2 0x375E JUMP JUMPDEST PUSH2 0x4724 DUP2 DUP6 PUSH2 0x466C JUMP JUMPDEST SWAP4 POP PUSH2 0x4734 DUP2 DUP6 PUSH1 0x20 DUP7 ADD PUSH2 0x377A JUMP JUMPDEST DUP1 DUP5 ADD SWAP2 POP POP SWAP3 SWAP2 POP POP JUMP JUMPDEST PUSH1 0x0 PUSH2 0x474C DUP3 DUP6 PUSH2 0x468C JUMP JUMPDEST SWAP2 POP PUSH2 0x4758 DUP3 DUP5 PUSH2 0x470F JUMP JUMPDEST SWAP2 POP DUP2 SWAP1 POP SWAP4 SWAP3 POP POP POP JUMP JUMPDEST PUSH32 0x455243313135353A2069647320616E6420616D6F756E7473206C656E67746820 PUSH1 0x0 DUP3 ADD MSTORE PUSH32 0x6D69736D61746368000000000000000000000000000000000000000000000000 PUSH1 0x20 DUP3 ADD MSTORE POP JUMP JUMPDEST PUSH1 0x0 PUSH2 0x47C0 PUSH1 0x28 DUP4 PUSH2 0x3769 JUMP JUMPDEST SWAP2 POP PUSH2 0x47CB DUP3 PUSH2 0x4764 JUMP JUMPDEST PUSH1 0x40 DUP3 ADD SWAP1 POP SWAP2 SWAP1 POP JUMP JUMPDEST PUSH1 0x0 PUSH1 0x20 DUP3 ADD SWAP1 POP DUP2 DUP2 SUB PUSH1 0x0 DUP4 ADD MSTORE PUSH2 0x47EF DUP2 PUSH2 0x47B3 JUMP JUMPDEST SWAP1 POP SWAP2 SWAP1 POP JUMP JUMPDEST PUSH32 0x455243313135353A207472616E7366657220746F20746865207A65726F206164 PUSH1 0x0 DUP3 ADD MSTORE PUSH32 0x6472657373000000000000000000000000000000000000000000000000000000 PUSH1 0x20 DUP3 ADD MSTORE POP JUMP JUMPDEST PUSH1 0x0 PUSH2 0x4852 PUSH1 0x25 DUP4 PUSH2 0x3769 JUMP JUMPDEST SWAP2 POP PUSH2 0x485D DUP3 PUSH2 0x47F6 JUMP JUMPDEST PUSH1 0x40 DUP3 ADD SWAP1 POP SWAP2 SWAP1 POP JUMP JUMPDEST PUSH1 0x0 PUSH1 0x20 DUP3 ADD SWAP1 POP DUP2 DUP2 SUB PUSH1 0x0 DUP4 ADD MSTORE PUSH2 0x4881 DUP2 PUSH2 0x4845 JUMP JUMPDEST SWAP1 POP SWAP2 SWAP1 POP JUMP JUMPDEST PUSH32 0x455243313135353A20696E73756666696369656E742062616C616E636520666F PUSH1 0x0 DUP3 ADD MSTORE PUSH32 0x72207472616E7366657200000000000000000000000000000000000000000000 PUSH1 0x20 DUP3 ADD MSTORE POP JUMP JUMPDEST PUSH1 0x0 PUSH2 0x48E4 PUSH1 0x2A DUP4 PUSH2 0x3769 JUMP JUMPDEST SWAP2 POP PUSH2 0x48EF DUP3 PUSH2 0x4888 JUMP JUMPDEST PUSH1 0x40 DUP3 ADD SWAP1 POP SWAP2 SWAP1 POP JUMP JUMPDEST PUSH1 0x0 PUSH1 0x20 DUP3 ADD SWAP1 POP DUP2 DUP2 SUB PUSH1 0x0 DUP4 ADD MSTORE PUSH2 0x4913 DUP2 PUSH2 0x48D7 JUMP JUMPDEST SWAP1 POP SWAP2 SWAP1 POP JUMP JUMPDEST PUSH1 0x0 PUSH2 0x4925 DUP3 PUSH2 0x35D6 JUMP JUMPDEST SWAP2 POP PUSH2 0x4930 DUP4 PUSH2 0x35D6 JUMP JUMPDEST SWAP3 POP DUP3 DUP3 ADD SWAP1 POP DUP1 DUP3 GT ISZERO PUSH2 0x4948 JUMPI PUSH2 0x4947 PUSH2 0x4360 JUMP JUMPDEST JUMPDEST SWAP3 SWAP2 POP POP JUMP JUMPDEST PUSH1 0x0 PUSH1 0x40 DUP3 ADD SWAP1 POP DUP2 DUP2 SUB PUSH1 0x0 DUP4 ADD MSTORE PUSH2 0x4968 DUP2 DUP6 PUSH2 0x3CE4 JUMP JUMPDEST SWAP1 POP DUP2 DUP2 SUB PUSH1 0x20 DUP4 ADD MSTORE PUSH2 0x497C DUP2 DUP5 PUSH2 0x3CE4 JUMP JUMPDEST SWAP1 POP SWAP4 SWAP3 POP POP POP JUMP JUMPDEST PUSH32 0x4F776E61626C653A2063616C6C6572206973206E6F7420746865206F776E6572 PUSH1 0x0 DUP3 ADD MSTORE POP JUMP JUMPDEST PUSH1 0x0 PUSH2 0x49BB PUSH1 0x20 DUP4 PUSH2 0x3769 JUMP JUMPDEST SWAP2 POP PUSH2 0x49C6 DUP3 PUSH2 0x4985 JUMP JUMPDEST PUSH1 0x20 DUP3 ADD SWAP1 POP SWAP2 SWAP1 POP JUMP JUMPDEST PUSH1 0x0 PUSH1 0x20 DUP3 ADD SWAP1 POP DUP2 DUP2 SUB PUSH1 0x0 DUP4 ADD MSTORE PUSH2 0x49EA DUP2 PUSH2 0x49AE JUMP JUMPDEST SWAP1 POP SWAP2 SWAP1 POP JUMP JUMPDEST PUSH32 0x5061757361626C653A2070617573656400000000000000000000000000000000 PUSH1 0x0 DUP3 ADD MSTORE POP JUMP JUMPDEST PUSH1 0x0 PUSH2 0x4A27 PUSH1 0x10 DUP4 PUSH2 0x3769 JUMP JUMPDEST SWAP2 POP PUSH2 0x4A32 DUP3 PUSH2 0x49F1 JUMP JUMPDEST PUSH1 0x20 DUP3 ADD SWAP1 POP SWAP2 SWAP1 POP JUMP JUMPDEST PUSH1 0x0 PUSH1 0x20 DUP3 ADD SWAP1 POP DUP2 DUP2 SUB PUSH1 0x0 DUP4 ADD MSTORE PUSH2 0x4A56 DUP2 PUSH2 0x4A1A JUMP JUMPDEST SWAP1 POP SWAP2 SWAP1 POP JUMP JUMPDEST PUSH32 0x455243313135353A206275726E2066726F6D20746865207A65726F2061646472 PUSH1 0x0 DUP3 ADD MSTORE PUSH32 0x6573730000000000000000000000000000000000000000000000000000000000 PUSH1 0x20 DUP3 ADD MSTORE POP JUMP JUMPDEST PUSH1 0x0 PUSH2 0x4AB9 PUSH1 0x23 DUP4 PUSH2 0x3769 JUMP JUMPDEST SWAP2 POP PUSH2 0x4AC4 DUP3 PUSH2 0x4A5D JUMP JUMPDEST PUSH1 0x40 DUP3 ADD SWAP1 POP SWAP2 SWAP1 POP JUMP JUMPDEST PUSH1 0x0 PUSH1 0x20 DUP3 ADD SWAP1 POP DUP2 DUP2 SUB PUSH1 0x0 DUP4 ADD MSTORE PUSH2 0x4AE8 DUP2 PUSH2 0x4AAC JUMP JUMPDEST SWAP1 POP SWAP2 SWAP1 POP JUMP JUMPDEST PUSH32 0x455243313135353A206275726E20616D6F756E7420657863656564732062616C PUSH1 0x0 DUP3 ADD MSTORE PUSH32 0x616E636500000000000000000000000000000000000000000000000000000000 PUSH1 0x20 DUP3 ADD MSTORE POP JUMP JUMPDEST PUSH1 0x0 PUSH2 0x4B4B PUSH1 0x24 DUP4 PUSH2 0x3769 JUMP JUMPDEST SWAP2 POP PUSH2 0x4B56 DUP3 PUSH2 0x4AEF JUMP JUMPDEST PUSH1 0x40 DUP3 ADD SWAP1 POP SWAP2 SWAP1 POP JUMP JUMPDEST PUSH1 0x0 PUSH1 0x20 DUP3 ADD SWAP1 POP DUP2 DUP2 SUB PUSH1 0x0 DUP4 ADD MSTORE PUSH2 0x4B7A DUP2 PUSH2 0x4B3E JUMP JUMPDEST SWAP1 POP SWAP2 SWAP1 POP JUMP JUMPDEST PUSH1 0x0 PUSH1 0x40 DUP3 ADD SWAP1 POP PUSH2 0x4B96 PUSH1 0x0 DUP4 ADD DUP6 PUSH2 0x364C JUMP JUMPDEST PUSH2 0x4BA3 PUSH1 0x20 DUP4 ADD DUP5 PUSH2 0x364C JUMP JUMPDEST SWAP4 SWAP3 POP POP POP JUMP JUMPDEST PUSH1 0x0 DUP2 MLOAD SWAP1 POP SWAP2 SWAP1 POP JUMP JUMPDEST PUSH1 0x0 DUP3 DUP3 MSTORE PUSH1 0x20 DUP3 ADD SWAP1 POP SWAP3 SWAP2 POP POP JUMP JUMPDEST PUSH1 0x0 PUSH2 0x4BD1 DUP3 PUSH2 0x4BAA JUMP JUMPDEST PUSH2 0x4BDB DUP2 DUP6 PUSH2 0x4BB5 JUMP JUMPDEST SWAP4 POP PUSH2 0x4BEB DUP2 DUP6 PUSH1 0x20 DUP7 ADD PUSH2 0x377A JUMP JUMPDEST PUSH2 0x4BF4 DUP2 PUSH2 0x37A4 JUMP JUMPDEST DUP5 ADD SWAP2 POP POP SWAP3 SWAP2 POP POP JUMP JUMPDEST PUSH1 0x0 PUSH1 0xC0 DUP3 ADD SWAP1 POP PUSH2 0x4C14 PUSH1 0x0 DUP4 ADD DUP10 PUSH2 0x3E6A JUMP JUMPDEST PUSH2 0x4C21 PUSH1 0x20 DUP4 ADD DUP9 PUSH2 0x364C JUMP JUMPDEST PUSH2 0x4C2E PUSH1 0x40 DUP4 ADD DUP8 PUSH2 0x3E6A JUMP JUMPDEST PUSH2 0x4C3B PUSH1 0x60 DUP4 ADD DUP7 PUSH2 0x3E6A JUMP JUMPDEST PUSH2 0x4C48 PUSH1 0x80 DUP4 ADD DUP6 PUSH2 0x364C JUMP JUMPDEST DUP2 DUP2 SUB PUSH1 0xA0 DUP4 ADD MSTORE PUSH2 0x4C5A DUP2 DUP5 PUSH2 0x4BC6 JUMP JUMPDEST SWAP1 POP SWAP8 SWAP7 POP POP POP POP POP POP POP JUMP JUMPDEST PUSH32 0x302B332B455243323020546F6B656E2052656C65617365642B00000000000000 PUSH1 0x0 DUP3 ADD MSTORE POP JUMP JUMPDEST PUSH1 0x0 PUSH2 0x4C9D PUSH1 0x19 DUP4 PUSH2 0x466C JUMP JUMPDEST SWAP2 POP PUSH2 0x4CA8 DUP3 PUSH2 0x4C67 JUMP JUMPDEST PUSH1 0x19 DUP3 ADD SWAP1 POP SWAP2 SWAP1 POP JUMP JUMPDEST PUSH32 0x7B22746F6B656E223A2200000000000000000000000000000000000000000000 PUSH1 0x0 DUP3 ADD MSTORE POP JUMP JUMPDEST PUSH1 0x0 PUSH2 0x4CE9 PUSH1 0xA DUP4 PUSH2 0x466C JUMP JUMPDEST SWAP2 POP PUSH2 0x4CF4 DUP3 PUSH2 0x4CB3 JUMP JUMPDEST PUSH1 0xA DUP3 ADD SWAP1 POP SWAP2 SWAP1 POP JUMP JUMPDEST PUSH32 0x222C000000000000000000000000000000000000000000000000000000000000 PUSH1 0x0 DUP3 ADD MSTORE POP JUMP JUMPDEST PUSH1 0x0 PUSH2 0x4D35 PUSH1 0x2 DUP4 PUSH2 0x466C JUMP JUMPDEST SWAP2 POP PUSH2 0x4D40 DUP3 PUSH2 0x4CFF JUMP JUMPDEST PUSH1 0x2 DUP3 ADD SWAP1 POP SWAP2 SWAP1 POP JUMP JUMPDEST PUSH32 0x22777261707065645F746F6B656E5F6964223A22000000000000000000000000 PUSH1 0x0 DUP3 ADD MSTORE POP JUMP JUMPDEST PUSH1 0x0 PUSH2 0x4D81 PUSH1 0x14 DUP4 PUSH2 0x466C JUMP JUMPDEST SWAP2 POP PUSH2 0x4D8C DUP3 PUSH2 0x4D4B JUMP JUMPDEST PUSH1 0x14 DUP3 ADD SWAP1 POP SWAP2 SWAP1 POP JUMP JUMPDEST PUSH32 0x2266726F6D223A22000000000000000000000000000000000000000000000000 PUSH1 0x0 DUP3 ADD MSTORE POP JUMP JUMPDEST PUSH1 0x0 PUSH2 0x4DCD PUSH1 0x8 DUP4 PUSH2 0x466C JUMP JUMPDEST SWAP2 POP PUSH2 0x4DD8 DUP3 PUSH2 0x4D97 JUMP JUMPDEST PUSH1 0x8 DUP3 ADD SWAP1 POP SWAP2 SWAP1 POP JUMP JUMPDEST PUSH32 0x22746F223A220000000000000000000000000000000000000000000000000000 PUSH1 0x0 DUP3 ADD MSTORE POP JUMP JUMPDEST PUSH1 0x0 PUSH2 0x4E19 PUSH1 0x6 DUP4 PUSH2 0x466C JUMP JUMPDEST SWAP2 POP PUSH2 0x4E24 DUP3 PUSH2 0x4DE3 JUMP JUMPDEST PUSH1 0x6 DUP3 ADD SWAP1 POP SWAP2 SWAP1 POP JUMP JUMPDEST PUSH32 0x22616D6F756E74223A2200000000000000000000000000000000000000000000 PUSH1 0x0 DUP3 ADD MSTORE POP JUMP JUMPDEST PUSH1 0x0 PUSH2 0x4E65 PUSH1 0xA DUP4 PUSH2 0x466C JUMP JUMPDEST SWAP2 POP PUSH2 0x4E70 DUP3 PUSH2 0x4E2F JUMP JUMPDEST PUSH1 0xA DUP3 ADD SWAP1 POP SWAP2 SWAP1 POP JUMP JUMPDEST PUSH32 0x2264617461223A22000000000000000000000000000000000000000000000000 PUSH1 0x0 DUP3 ADD MSTORE POP JUMP JUMPDEST PUSH1 0x0 PUSH2 0x4EB1 PUSH1 0x8 DUP4 PUSH2 0x466C JUMP JUMPDEST SWAP2 POP PUSH2 0x4EBC DUP3 PUSH2 0x4E7B JUMP JUMPDEST PUSH1 0x8 DUP3 ADD SWAP1 POP SWAP2 SWAP1 POP JUMP JUMPDEST PUSH32 0x227D000000000000000000000000000000000000000000000000000000000000 PUSH1 0x0 DUP3 ADD MSTORE POP JUMP JUMPDEST PUSH1 0x0 PUSH2 0x4EFD PUSH1 0x2 DUP4 PUSH2 0x466C JUMP JUMPDEST SWAP2 POP PUSH2 0x4F08 DUP3 PUSH2 0x4EC7 JUMP JUMPDEST PUSH1 0x2 DUP3 ADD SWAP1 POP SWAP2 SWAP1 POP JUMP JUMPDEST PUSH1 0x0 PUSH2 0x4F1E DUP3 PUSH2 0x4C90 JUMP JUMPDEST SWAP2 POP PUSH2 0x4F29 DUP3 PUSH2 0x4CDC JUMP JUMPDEST SWAP2 POP PUSH2 0x4F35 DUP3 DUP10 PUSH2 0x470F JUMP JUMPDEST SWAP2 POP PUSH2 0x4F40 DUP3 PUSH2 0x4D28 JUMP JUMPDEST SWAP2 POP PUSH2 0x4F4B DUP3 PUSH2 0x4D74 JUMP JUMPDEST SWAP2 POP PUSH2 0x4F57 DUP3 DUP9 PUSH2 0x470F JUMP JUMPDEST SWAP2 POP PUSH2 0x4F62 DUP3 PUSH2 0x4D28 JUMP JUMPDEST SWAP2 POP PUSH2 0x4F6D DUP3 PUSH2 0x4DC0 JUMP JUMPDEST SWAP2 POP PUSH2 0x4F79 DUP3 DUP8 PUSH2 0x470F JUMP JUMPDEST SWAP2 POP PUSH2 0x4F84 DUP3 PUSH2 0x4D28 JUMP JUMPDEST SWAP2 POP PUSH2 0x4F8F DUP3 PUSH2 0x4E0C JUMP JUMPDEST SWAP2 POP PUSH2 0x4F9B DUP3 DUP7 PUSH2 0x470F JUMP JUMPDEST SWAP2 POP PUSH2 0x4FA6 DUP3 PUSH2 0x4D28 JUMP JUMPDEST SWAP2 POP PUSH2 0x4FB1 DUP3 PUSH2 0x4E58 JUMP JUMPDEST SWAP2 POP PUSH2 0x4FBD DUP3 DUP6 PUSH2 0x470F JUMP JUMPDEST SWAP2 POP PUSH2 0x4FC8 DUP3 PUSH2 0x4D28 JUMP JUMPDEST SWAP2 POP PUSH2 0x4FD3 DUP3 PUSH2 0x4EA4 JUMP JUMPDEST SWAP2 POP PUSH2 0x4FDF DUP3 DUP5 PUSH2 0x470F JUMP JUMPDEST SWAP2 POP PUSH2 0x4FEA DUP3 PUSH2 0x4EF0 JUMP JUMPDEST SWAP2 POP DUP2 SWAP1 POP SWAP8 SWAP7 POP POP POP POP POP POP POP JUMP JUMPDEST PUSH1 0x0 PUSH1 0x60 DUP3 ADD SWAP1 POP PUSH2 0x500F PUSH1 0x0 DUP4 ADD DUP7 PUSH2 0x3E6A JUMP JUMPDEST PUSH2 0x501C PUSH1 0x20 DUP4 ADD DUP6 PUSH2 0x3E6A JUMP JUMPDEST DUP2 DUP2 SUB PUSH1 0x40 DUP4 ADD MSTORE PUSH2 0x502E DUP2 DUP5 PUSH2 0x4BC6 JUMP JUMPDEST SWAP1 POP SWAP5 SWAP4 POP POP POP POP JUMP JUMPDEST PUSH1 0x0 PUSH1 0xC0 DUP3 ADD SWAP1 POP PUSH2 0x504D PUSH1 0x0 DUP4 ADD DUP10 PUSH2 0x3E6A JUMP JUMPDEST PUSH2 0x505A PUSH1 0x20 DUP4 ADD DUP9 PUSH2 0x364C JUMP JUMPDEST PUSH2 0x5067 PUSH1 0x40 DUP4 ADD DUP8 PUSH2 0x364C JUMP JUMPDEST PUSH2 0x5074 PUSH1 0x60 DUP4 ADD DUP7 PUSH2 0x3E6A JUMP JUMPDEST PUSH2 0x5081 PUSH1 0x80 DUP4 ADD DUP6 PUSH2 0x3E6A JUMP JUMPDEST DUP2 DUP2 SUB PUSH1 0xA0 DUP4 ADD MSTORE PUSH2 0x5093 DUP2 DUP5 PUSH2 0x4BC6 JUMP JUMPDEST SWAP1 POP SWAP8 SWAP7 POP POP POP POP POP POP POP JUMP JUMPDEST PUSH32 0x302B332B455243373231204E46542052656C65617365642B0000000000000000 PUSH1 0x0 DUP3 ADD MSTORE POP JUMP JUMPDEST PUSH1 0x0 PUSH2 0x50D6 PUSH1 0x18 DUP4 PUSH2 0x466C JUMP JUMPDEST SWAP2 POP PUSH2 0x50E1 DUP3 PUSH2 0x50A0 JUMP JUMPDEST PUSH1 0x18 DUP3 ADD SWAP1 POP SWAP2 SWAP1 POP JUMP JUMPDEST PUSH32 0x226964223A220000000000000000000000000000000000000000000000000000 PUSH1 0x0 DUP3 ADD MSTORE POP JUMP JUMPDEST PUSH1 0x0 PUSH2 0x5122 PUSH1 0x6 DUP4 PUSH2 0x466C JUMP JUMPDEST SWAP2 POP PUSH2 0x512D DUP3 PUSH2 0x50EC JUMP JUMPDEST PUSH1 0x6 DUP3 ADD SWAP1 POP SWAP2 SWAP1 POP JUMP JUMPDEST PUSH1 0x0 PUSH2 0x5143 DUP3 PUSH2 0x50C9 JUMP JUMPDEST SWAP2 POP PUSH2 0x514E DUP3 PUSH2 0x4CDC JUMP JUMPDEST SWAP2 POP PUSH2 0x515A DUP3 DUP10 PUSH2 0x470F JUMP JUMPDEST SWAP2 POP PUSH2 0x5165 DUP3 PUSH2 0x4D28 JUMP JUMPDEST SWAP2 POP PUSH2 0x5170 DUP3 PUSH2 0x5115 JUMP JUMPDEST SWAP2 POP PUSH2 0x517C DUP3 DUP9 PUSH2 0x470F JUMP JUMPDEST SWAP2 POP PUSH2 0x5187 DUP3 PUSH2 0x4D28 JUMP JUMPDEST SWAP2 POP PUSH2 0x5192 DUP3 PUSH2 0x4D74 JUMP JUMPDEST SWAP2 POP PUSH2 0x519E DUP3 DUP8 PUSH2 0x470F JUMP JUMPDEST SWAP2 POP PUSH2 0x51A9 DUP3 PUSH2 0x4D28 JUMP JUMPDEST SWAP2 POP PUSH2 0x51B4 DUP3 PUSH2 0x4DC0 JUMP JUMPDEST SWAP2 POP PUSH2 0x51C0 DUP3 DUP7 PUSH2 0x470F JUMP JUMPDEST SWAP2 POP PUSH2 0x51CB DUP3 PUSH2 0x4D28 JUMP JUMPDEST SWAP2 POP PUSH2 0x51D6 DUP3 PUSH2 0x4E0C JUMP JUMPDEST SWAP2 POP PUSH2 0x51E2 DUP3 DUP6 PUSH2 0x470F JUMP JUMPDEST SWAP2 POP PUSH2 0x51ED DUP3 PUSH2 0x4D28 JUMP JUMPDEST SWAP2 POP PUSH2 0x51F8 DUP3 PUSH2 0x4EA4 JUMP JUMPDEST SWAP2 POP PUSH2 0x5204 DUP3 DUP5 PUSH2 0x470F JUMP JUMPDEST SWAP2 POP PUSH2 0x520F DUP3 PUSH2 0x4EF0 JUMP JUMPDEST SWAP2 POP DUP2 SWAP1 POP SWAP8 SWAP7 POP POP POP POP POP POP POP JUMP JUMPDEST PUSH32 0x455243313135353A206D696E7420746F20746865207A65726F20616464726573 PUSH1 0x0 DUP3 ADD MSTORE PUSH32 0x7300000000000000000000000000000000000000000000000000000000000000 PUSH1 0x20 DUP3 ADD MSTORE POP JUMP JUMPDEST PUSH1 0x0 PUSH2 0x527B PUSH1 0x21 DUP4 PUSH2 0x3769 JUMP JUMPDEST SWAP2 POP PUSH2 0x5286 DUP3 PUSH2 0x521F JUMP JUMPDEST PUSH1 0x40 DUP3 ADD SWAP1 POP SWAP2 SWAP1 POP JUMP JUMPDEST PUSH1 0x0 PUSH1 0x20 DUP3 ADD SWAP1 POP DUP2 DUP2 SUB PUSH1 0x0 DUP4 ADD MSTORE PUSH2 0x52AA DUP2 PUSH2 0x526E JUMP JUMPDEST SWAP1 POP SWAP2 SWAP1 POP JUMP JUMPDEST PUSH32 0x302B332B455243323020546F6B656E204C6F636B65642B000000000000000000 PUSH1 0x0 DUP3 ADD MSTORE POP JUMP JUMPDEST PUSH1 0x0 PUSH2 0x52E7 PUSH1 0x17 DUP4 PUSH2 0x466C JUMP JUMPDEST SWAP2 POP PUSH2 0x52F2 DUP3 PUSH2 0x52B1 JUMP JUMPDEST PUSH1 0x17 DUP3 ADD SWAP1 POP SWAP2 SWAP1 POP JUMP JUMPDEST PUSH1 0x0 PUSH2 0x5308 DUP3 PUSH2 0x52DA JUMP JUMPDEST SWAP2 POP PUSH2 0x5313 DUP3 PUSH2 0x4CDC JUMP JUMPDEST SWAP2 POP PUSH2 0x531F DUP3 DUP10 PUSH2 0x470F JUMP JUMPDEST SWAP2 POP PUSH2 0x532A DUP3 PUSH2 0x4D28 JUMP JUMPDEST SWAP2 POP PUSH2 0x5335 DUP3 PUSH2 0x4D74 JUMP JUMPDEST SWAP2 POP PUSH2 0x5341 DUP3 DUP9 PUSH2 0x470F JUMP JUMPDEST SWAP2 POP PUSH2 0x534C DUP3 PUSH2 0x4D28 JUMP JUMPDEST SWAP2 POP PUSH2 0x5357 DUP3 PUSH2 0x4DC0 JUMP JUMPDEST SWAP2 POP PUSH2 0x5363 DUP3 DUP8 PUSH2 0x470F JUMP JUMPDEST SWAP2 POP PUSH2 0x536E DUP3 PUSH2 0x4D28 JUMP JUMPDEST SWAP2 POP PUSH2 0x5379 DUP3 PUSH2 0x4E0C JUMP JUMPDEST SWAP2 POP PUSH2 0x5385 DUP3 DUP7 PUSH2 0x470F JUMP JUMPDEST SWAP2 POP PUSH2 0x5390 DUP3 PUSH2 0x4D28 JUMP JUMPDEST SWAP2 POP PUSH2 0x539B DUP3 PUSH2 0x4E58 JUMP JUMPDEST SWAP2 POP PUSH2 0x53A7 DUP3 DUP6 PUSH2 0x470F JUMP JUMPDEST SWAP2 POP PUSH2 0x53B2 DUP3 PUSH2 0x4D28 JUMP JUMPDEST SWAP2 POP PUSH2 0x53BD DUP3 PUSH2 0x4EA4 JUMP JUMPDEST SWAP2 POP PUSH2 0x53C9 DUP3 DUP5 PUSH2 0x470F JUMP JUMPDEST SWAP2 POP PUSH2 0x53D4 DUP3 PUSH2 0x4EF0 JUMP JUMPDEST SWAP2 POP DUP2 SWAP1 POP SWAP8 SWAP7 POP POP POP POP POP POP POP JUMP JUMPDEST PUSH32 0x455243313135353A2073657474696E6720617070726F76616C20737461747573 PUSH1 0x0 DUP3 ADD MSTORE PUSH32 0x20666F722073656C660000000000000000000000000000000000000000000000 PUSH1 0x20 DUP3 ADD MSTORE POP JUMP JUMPDEST PUSH1 0x0 PUSH2 0x5440 PUSH1 0x29 DUP4 PUSH2 0x3769 JUMP JUMPDEST SWAP2 POP PUSH2 0x544B DUP3 PUSH2 0x53E4 JUMP JUMPDEST PUSH1 0x40 DUP3 ADD SWAP1 POP SWAP2 SWAP1 POP JUMP JUMPDEST PUSH1 0x0 PUSH1 0x20 DUP3 ADD SWAP1 POP DUP2 DUP2 SUB PUSH1 0x0 DUP4 ADD MSTORE PUSH2 0x546F DUP2 PUSH2 0x5433 JUMP JUMPDEST SWAP1 POP SWAP2 SWAP1 POP JUMP JUMPDEST PUSH32 0x302B332B455243373231204E4654204C6F636B65642B00000000000000000000 PUSH1 0x0 DUP3 ADD MSTORE POP JUMP JUMPDEST PUSH1 0x0 PUSH2 0x54AC PUSH1 0x16 DUP4 PUSH2 0x466C JUMP JUMPDEST SWAP2 POP PUSH2 0x54B7 DUP3 PUSH2 0x5476 JUMP JUMPDEST PUSH1 0x16 DUP3 ADD SWAP1 POP SWAP2 SWAP1 POP JUMP JUMPDEST PUSH1 0x0 PUSH2 0x54CD DUP3 PUSH2 0x549F JUMP JUMPDEST SWAP2 POP PUSH2 0x54D8 DUP3 PUSH2 0x4CDC JUMP JUMPDEST SWAP2 POP PUSH2 0x54E4 DUP3 DUP10 PUSH2 0x470F JUMP JUMPDEST SWAP2 POP PUSH2 0x54EF DUP3 PUSH2 0x4D28 JUMP JUMPDEST SWAP2 POP PUSH2 0x54FA DUP3 PUSH2 0x5115 JUMP JUMPDEST SWAP2 POP PUSH2 0x5506 DUP3 DUP9 PUSH2 0x470F JUMP JUMPDEST SWAP2 POP PUSH2 0x5511 DUP3 PUSH2 0x4D28 JUMP JUMPDEST SWAP2 POP PUSH2 0x551C DUP3 PUSH2 0x4D74 JUMP JUMPDEST SWAP2 POP PUSH2 0x5528 DUP3 DUP8 PUSH2 0x470F JUMP JUMPDEST SWAP2 POP PUSH2 0x5533 DUP3 PUSH2 0x4D28 JUMP JUMPDEST SWAP2 POP PUSH2 0x553E DUP3 PUSH2 0x4DC0 JUMP JUMPDEST SWAP2 POP PUSH2 0x554A DUP3 DUP7 PUSH2 0x470F JUMP JUMPDEST SWAP2 POP PUSH2 0x5555 DUP3 PUSH2 0x4D28 JUMP JUMPDEST SWAP2 POP PUSH2 0x5560 DUP3 PUSH2 0x4E0C JUMP JUMPDEST SWAP2 POP PUSH2 0x556C DUP3 DUP6 PUSH2 0x470F JUMP JUMPDEST SWAP2 POP PUSH2 0x5577 DUP3 PUSH2 0x4D28 JUMP JUMPDEST SWAP2 POP PUSH2 0x5582 DUP3 PUSH2 0x4EA4 JUMP JUMPDEST SWAP2 POP PUSH2 0x558E DUP3 DUP5 PUSH2 0x470F JUMP JUMPDEST SWAP2 POP PUSH2 0x5599 DUP3 PUSH2 0x4EF0 JUMP JUMPDEST SWAP2 POP DUP2 SWAP1 POP SWAP8 SWAP7 POP POP POP POP POP POP POP JUMP JUMPDEST PUSH1 0x0 DUP2 MLOAD SWAP1 POP PUSH2 0x55B8 DUP2 PUSH2 0x35E0 JUMP JUMPDEST SWAP3 SWAP2 POP POP JUMP JUMPDEST PUSH1 0x0 PUSH1 0x20 DUP3 DUP5 SUB SLT ISZERO PUSH2 0x55D4 JUMPI PUSH2 0x55D3 PUSH2 0x356E JUMP JUMPDEST JUMPDEST PUSH1 0x0 PUSH2 0x55E2 DUP5 DUP3 DUP6 ADD PUSH2 0x55A9 JUMP JUMPDEST SWAP2 POP POP SWAP3 SWAP2 POP POP JUMP JUMPDEST PUSH32 0x73656E64657220646F65736E27742068617665204B594320746F6B656E000000 PUSH1 0x0 DUP3 ADD MSTORE POP JUMP JUMPDEST PUSH1 0x0 PUSH2 0x5621 PUSH1 0x1D DUP4 PUSH2 0x3769 JUMP JUMPDEST SWAP2 POP PUSH2 0x562C DUP3 PUSH2 0x55EB JUMP JUMPDEST PUSH1 0x20 DUP3 ADD SWAP1 POP SWAP2 SWAP1 POP JUMP JUMPDEST PUSH1 0x0 PUSH1 0x20 DUP3 ADD SWAP1 POP DUP2 DUP2 SUB PUSH1 0x0 DUP4 ADD MSTORE PUSH2 0x5650 DUP2 PUSH2 0x5614 JUMP JUMPDEST SWAP1 POP SWAP2 SWAP1 POP JUMP JUMPDEST PUSH32 0x726563697069656E7420646F65736E27742068617665204B594320746F6B656E PUSH1 0x0 DUP3 ADD MSTORE POP JUMP JUMPDEST PUSH1 0x0 PUSH2 0x568D PUSH1 0x20 DUP4 PUSH2 0x3769 JUMP JUMPDEST SWAP2 POP PUSH2 0x5698 DUP3 PUSH2 0x5657 JUMP JUMPDEST PUSH1 0x20 DUP3 ADD SWAP1 POP SWAP2 SWAP1 POP JUMP JUMPDEST PUSH1 0x0 PUSH1 0x20 DUP3 ADD SWAP1 POP DUP2 DUP2 SUB PUSH1 0x0 DUP4 ADD MSTORE PUSH2 0x56BC DUP2 PUSH2 0x5680 JUMP JUMPDEST SWAP1 POP SWAP2 SWAP1 POP JUMP JUMPDEST PUSH32 0x302B332B546F6B656E205472616E7366657265642B0000000000000000000000 PUSH1 0x0 DUP3 ADD MSTORE POP JUMP JUMPDEST PUSH1 0x0 PUSH2 0x56F9 PUSH1 0x15 DUP4 PUSH2 0x466C JUMP JUMPDEST SWAP2 POP PUSH2 0x5704 DUP3 PUSH2 0x56C3 JUMP JUMPDEST PUSH1 0x15 DUP3 ADD SWAP1 POP SWAP2 SWAP1 POP JUMP JUMPDEST PUSH1 0x0 PUSH2 0x571A DUP3 PUSH2 0x56EC JUMP JUMPDEST SWAP2 POP DUP2 SWAP1 POP SWAP2 SWAP1 POP JUMP JUMPDEST PUSH1 0x0 DUP2 SWAP1 POP SWAP3 SWAP2 POP POP JUMP JUMPDEST PUSH1 0x0 PUSH2 0x573A DUP3 PUSH2 0x4BAA JUMP JUMPDEST PUSH2 0x5744 DUP2 DUP6 PUSH2 0x5724 JUMP JUMPDEST SWAP4 POP PUSH2 0x5754 DUP2 DUP6 PUSH1 0x20 DUP7 ADD PUSH2 0x377A JUMP JUMPDEST DUP1 DUP5 ADD SWAP2 POP POP SWAP3 SWAP2 POP POP JUMP JUMPDEST PUSH32 0x7B226F70657261746F72223A2200000000000000000000000000000000000000 PUSH1 0x0 DUP3 ADD MSTORE POP JUMP JUMPDEST PUSH1 0x0 PUSH2 0x5796 PUSH1 0xD DUP4 PUSH2 0x466C JUMP JUMPDEST SWAP2 POP PUSH2 0x57A1 DUP3 PUSH2 0x5760 JUMP JUMPDEST PUSH1 0xD DUP3 ADD SWAP1 POP SWAP2 SWAP1 POP JUMP JUMPDEST PUSH32 0x222C2266726F6D223A2200000000000000000000000000000000000000000000 PUSH1 0x0 DUP3 ADD MSTORE POP JUMP JUMPDEST PUSH1 0x0 PUSH2 0x57E2 PUSH1 0xA DUP4 PUSH2 0x466C JUMP JUMPDEST SWAP2 POP PUSH2 0x57ED DUP3 PUSH2 0x57AC JUMP JUMPDEST PUSH1 0xA DUP3 ADD SWAP1 POP SWAP2 SWAP1 POP JUMP JUMPDEST PUSH32 0x222C22746F223A22000000000000000000000000000000000000000000000000 PUSH1 0x0 DUP3 ADD MSTORE POP JUMP JUMPDEST PUSH1 0x0 PUSH2 0x582E PUSH1 0x8 DUP4 PUSH2 0x466C JUMP JUMPDEST SWAP2 POP PUSH2 0x5839 DUP3 PUSH2 0x57F8 JUMP JUMPDEST PUSH1 0x8 DUP3 ADD SWAP1 POP SWAP2 SWAP1 POP JUMP JUMPDEST PUSH32 0x222C22696473223A000000000000000000000000000000000000000000000000 PUSH1 0x0 DUP3 ADD MSTORE POP JUMP JUMPDEST PUSH1 0x0 PUSH2 0x587A PUSH1 0x8 DUP4 PUSH2 0x466C JUMP JUMPDEST SWAP2 POP PUSH2 0x5885 DUP3 PUSH2 0x5844 JUMP JUMPDEST PUSH1 0x8 DUP3 ADD SWAP1 POP SWAP2 SWAP1 POP JUMP JUMPDEST PUSH1 0x0 PUSH2 0x589C DUP3 DUP8 PUSH2 0x572F JUMP JUMPDEST SWAP2 POP PUSH2 0x58A7 DUP3 PUSH2 0x5789 JUMP JUMPDEST SWAP2 POP PUSH2 0x58B3 DUP3 DUP7 PUSH2 0x470F JUMP JUMPDEST SWAP2 POP PUSH2 0x58BE DUP3 PUSH2 0x57D5 JUMP JUMPDEST SWAP2 POP PUSH2 0x58CA DUP3 DUP6 PUSH2 0x470F JUMP JUMPDEST SWAP2 POP PUSH2 0x58D5 DUP3 PUSH2 0x5821 JUMP JUMPDEST SWAP2 POP PUSH2 0x58E1 DUP3 DUP5 PUSH2 0x470F JUMP JUMPDEST SWAP2 POP PUSH2 0x58EC DUP3 PUSH2 0x586D JUMP JUMPDEST SWAP2 POP DUP2 SWAP1 POP SWAP6 SWAP5 POP POP POP POP POP JUMP JUMPDEST PUSH32 0x5B00000000000000000000000000000000000000000000000000000000000000 PUSH1 0x0 DUP3 ADD MSTORE POP JUMP JUMPDEST PUSH1 0x0 PUSH2 0x5930 PUSH1 0x1 DUP4 PUSH2 0x466C JUMP JUMPDEST SWAP2 POP PUSH2 0x593B DUP3 PUSH2 0x58FA JUMP JUMPDEST PUSH1 0x1 DUP3 ADD SWAP1 POP SWAP2 SWAP1 POP JUMP JUMPDEST PUSH1 0x0 PUSH2 0x5951 DUP3 PUSH2 0x5923 JUMP JUMPDEST SWAP2 POP DUP2 SWAP1 POP SWAP2 SWAP1 POP JUMP JUMPDEST PUSH32 0x2200000000000000000000000000000000000000000000000000000000000000 PUSH1 0x0 DUP3 ADD MSTORE POP JUMP JUMPDEST PUSH1 0x0 PUSH2 0x5991 PUSH1 0x1 DUP4 PUSH2 0x466C JUMP JUMPDEST SWAP2 POP PUSH2 0x599C DUP3 PUSH2 0x595B JUMP JUMPDEST PUSH1 0x1 DUP3 ADD SWAP1 POP SWAP2 SWAP1 POP JUMP JUMPDEST PUSH1 0x0 PUSH2 0x59B3 DUP3 DUP6 PUSH2 0x572F JUMP JUMPDEST SWAP2 POP PUSH2 0x59BE DUP3 PUSH2 0x5984 JUMP JUMPDEST SWAP2 POP PUSH2 0x59CA DUP3 DUP5 PUSH2 0x470F JUMP JUMPDEST SWAP2 POP PUSH2 0x59D5 DUP3 PUSH2 0x5984 JUMP JUMPDEST SWAP2 POP DUP2 SWAP1 POP SWAP4 SWAP3 POP POP POP JUMP JUMPDEST PUSH32 0x2C22000000000000000000000000000000000000000000000000000000000000 PUSH1 0x0 DUP3 ADD MSTORE POP JUMP JUMPDEST PUSH1 0x0 PUSH2 0x5A17 PUSH1 0x2 DUP4 PUSH2 0x466C JUMP JUMPDEST SWAP2 POP PUSH2 0x5A22 DUP3 PUSH2 0x59E1 JUMP JUMPDEST PUSH1 0x2 DUP3 ADD SWAP1 POP SWAP2 SWAP1 POP JUMP JUMPDEST PUSH1 0x0 PUSH2 0x5A39 DUP3 DUP6 PUSH2 0x572F JUMP JUMPDEST SWAP2 POP PUSH2 0x5A44 DUP3 PUSH2 0x5A0A JUMP JUMPDEST SWAP2 POP PUSH2 0x5A50 DUP3 DUP5 PUSH2 0x470F JUMP JUMPDEST SWAP2 POP PUSH2 0x5A5B DUP3 PUSH2 0x5984 JUMP JUMPDEST SWAP2 POP DUP2 SWAP1 POP SWAP4 SWAP3 POP POP POP JUMP JUMPDEST PUSH32 0x5D2C22616D6F756E7473223A5B00000000000000000000000000000000000000 PUSH1 0x0 DUP3 ADD MSTORE POP JUMP JUMPDEST PUSH1 0x0 PUSH2 0x5A9D PUSH1 0xD DUP4 PUSH2 0x466C JUMP JUMPDEST SWAP2 POP PUSH2 0x5AA8 DUP3 PUSH2 0x5A67 JUMP JUMPDEST PUSH1 0xD DUP3 ADD SWAP1 POP SWAP2 SWAP1 POP JUMP JUMPDEST PUSH32 0x5D2C2264617461223A2200000000000000000000000000000000000000000000 PUSH1 0x0 DUP3 ADD MSTORE POP JUMP JUMPDEST PUSH1 0x0 PUSH2 0x5AE9 PUSH1 0xA DUP4 PUSH2 0x466C JUMP JUMPDEST SWAP2 POP PUSH2 0x5AF4 DUP3 PUSH2 0x5AB3 JUMP JUMPDEST PUSH1 0xA DUP3 ADD SWAP1 POP SWAP2 SWAP1 POP JUMP JUMPDEST PUSH1 0x0 PUSH2 0x5B0B DUP3 DUP8 PUSH2 0x572F JUMP JUMPDEST SWAP2 POP PUSH2 0x5B17 DUP3 DUP7 PUSH2 0x572F JUMP JUMPDEST SWAP2 POP PUSH2 0x5B22 DUP3 PUSH2 0x5A90 JUMP JUMPDEST SWAP2 POP PUSH2 0x5B2E DUP3 DUP6 PUSH2 0x572F JUMP JUMPDEST SWAP2 POP PUSH2 0x5B39 DUP3 PUSH2 0x5ADC JUMP JUMPDEST SWAP2 POP PUSH2 0x5B45 DUP3 DUP5 PUSH2 0x470F JUMP JUMPDEST SWAP2 POP PUSH2 0x5B50 DUP3 PUSH2 0x4EF0 JUMP JUMPDEST SWAP2 POP DUP2 SWAP1 POP SWAP6 SWAP5 POP POP POP POP POP JUMP JUMPDEST PUSH1 0x0 PUSH1 0xA0 DUP3 ADD SWAP1 POP PUSH2 0x5B73 PUSH1 0x0 DUP4 ADD DUP9 PUSH2 0x3E6A JUMP JUMPDEST PUSH2 0x5B80 PUSH1 0x20 DUP4 ADD DUP8 PUSH2 0x3E6A JUMP JUMPDEST DUP2 DUP2 SUB PUSH1 0x40 DUP4 ADD MSTORE PUSH2 0x5B92 DUP2 DUP7 PUSH2 0x3CE4 JUMP JUMPDEST SWAP1 POP DUP2 DUP2 SUB PUSH1 0x60 DUP4 ADD MSTORE PUSH2 0x5BA6 DUP2 DUP6 PUSH2 0x3CE4 JUMP JUMPDEST SWAP1 POP DUP2 DUP2 SUB PUSH1 0x80 DUP4 ADD MSTORE PUSH2 0x5BBA DUP2 DUP5 PUSH2 0x4BC6 JUMP JUMPDEST SWAP1 POP SWAP7 SWAP6 POP POP POP POP POP POP JUMP JUMPDEST PUSH1 0x0 DUP2 MLOAD SWAP1 POP PUSH2 0x5BD5 DUP2 PUSH2 0x36A2 JUMP JUMPDEST SWAP3 SWAP2 POP POP JUMP JUMPDEST PUSH1 0x0 PUSH1 0x20 DUP3 DUP5 SUB SLT ISZERO PUSH2 0x5BF1 JUMPI PUSH2 0x5BF0 PUSH2 0x356E JUMP JUMPDEST JUMPDEST PUSH1 0x0 PUSH2 0x5BFF DUP5 DUP3 DUP6 ADD PUSH2 0x5BC6 JUMP JUMPDEST SWAP2 POP POP SWAP3 SWAP2 POP POP JUMP JUMPDEST PUSH1 0x0 DUP2 PUSH1 0xE0 SHR SWAP1 POP SWAP2 SWAP1 POP JUMP JUMPDEST PUSH1 0x0 PUSH1 0x3 RETURNDATASIZE GT ISZERO PUSH2 0x5C34 JUMPI PUSH1 0x4 PUSH1 0x0 DUP1 RETURNDATACOPY PUSH2 0x5C31 PUSH1 0x0 MLOAD PUSH2 0x5C08 JUMP JUMPDEST SWAP1 POP JUMPDEST SWAP1 JUMP JUMPDEST PUSH1 0x0 PUSH1 0x44 RETURNDATASIZE LT PUSH2 0x5CC4 JUMPI PUSH2 0x5C49 PUSH2 0x3564 JUMP JUMPDEST PUSH1 0x4 RETURNDATASIZE SUB PUSH1 0x4 DUP3 RETURNDATACOPY DUP1 MLOAD RETURNDATASIZE PUSH1 0x24 DUP3 ADD GT PUSH8 0xFFFFFFFFFFFFFFFF DUP3 GT OR ISZERO PUSH2 0x5C71 JUMPI POP POP PUSH2 0x5CC4 JUMP JUMPDEST DUP1 DUP3 ADD DUP1 MLOAD PUSH8 0xFFFFFFFFFFFFFFFF DUP2 GT ISZERO PUSH2 0x5C8F JUMPI POP POP POP POP PUSH2 0x5CC4 JUMP JUMPDEST DUP1 PUSH1 0x20 DUP4 ADD ADD PUSH1 0x4 RETURNDATASIZE SUB DUP6 ADD DUP2 GT ISZERO PUSH2 0x5CAC JUMPI POP POP POP POP POP PUSH2 0x5CC4 JUMP JUMPDEST PUSH2 0x5CBB DUP3 PUSH1 0x20 ADD DUP6 ADD DUP7 PUSH2 0x3871 JUMP JUMPDEST DUP3 SWAP6 POP POP POP POP POP POP JUMPDEST SWAP1 JUMP JUMPDEST PUSH32 0x455243313135353A207472616E7366657220746F206E6F6E2045524331313535 PUSH1 0x0 DUP3 ADD MSTORE PUSH32 0x526563656976657220696D706C656D656E746572000000000000000000000000 PUSH1 0x20 DUP3 ADD MSTORE POP JUMP JUMPDEST PUSH1 0x0 PUSH2 0x5D23 PUSH1 0x34 DUP4 PUSH2 0x3769 JUMP JUMPDEST SWAP2 POP PUSH2 0x5D2E DUP3 PUSH2 0x5CC7 JUMP JUMPDEST PUSH1 0x40 DUP3 ADD SWAP1 POP SWAP2 SWAP1 POP JUMP JUMPDEST PUSH1 0x0 PUSH1 0x20 DUP3 ADD SWAP1 POP DUP2 DUP2 SUB PUSH1 0x0 DUP4 ADD MSTORE PUSH2 0x5D52 DUP2 PUSH2 0x5D16 JUMP JUMPDEST SWAP1 POP SWAP2 SWAP1 POP JUMP JUMPDEST PUSH32 0x455243313135353A204552433131353552656365697665722072656A65637465 PUSH1 0x0 DUP3 ADD MSTORE PUSH32 0x6420746F6B656E73000000000000000000000000000000000000000000000000 PUSH1 0x20 DUP3 ADD MSTORE POP JUMP JUMPDEST PUSH1 0x0 PUSH2 0x5DB5 PUSH1 0x28 DUP4 PUSH2 0x3769 JUMP JUMPDEST SWAP2 POP PUSH2 0x5DC0 DUP3 PUSH2 0x5D59 JUMP JUMPDEST PUSH1 0x40 DUP3 ADD SWAP1 POP SWAP2 SWAP1 POP JUMP JUMPDEST PUSH1 0x0 PUSH1 0x20 DUP3 ADD SWAP1 POP DUP2 DUP2 SUB PUSH1 0x0 DUP4 ADD MSTORE PUSH2 0x5DE4 DUP2 PUSH2 0x5DA8 JUMP JUMPDEST SWAP1 POP SWAP2 SWAP1 POP JUMP JUMPDEST PUSH32 0x5061757361626C653A206E6F7420706175736564000000000000000000000000 PUSH1 0x0 DUP3 ADD MSTORE POP JUMP JUMPDEST PUSH1 0x0 PUSH2 0x5E21 PUSH1 0x14 DUP4 PUSH2 0x3769 JUMP JUMPDEST SWAP2 POP PUSH2 0x5E2C DUP3 PUSH2 0x5DEB JUMP JUMPDEST PUSH1 0x20 DUP3 ADD SWAP1 POP SWAP2 SWAP1 POP JUMP JUMPDEST PUSH1 0x0 PUSH1 0x20 DUP3 ADD SWAP1 POP DUP2 DUP2 SUB PUSH1 0x0 DUP4 ADD MSTORE PUSH2 0x5E50 DUP2 PUSH2 0x5E14 JUMP JUMPDEST SWAP1 POP SWAP2 SWAP1 POP JUMP JUMPDEST PUSH1 0x0 PUSH1 0xA0 DUP3 ADD SWAP1 POP PUSH2 0x5E6C PUSH1 0x0 DUP4 ADD DUP9 PUSH2 0x3E6A JUMP JUMPDEST PUSH2 0x5E79 PUSH1 0x20 DUP4 ADD DUP8 PUSH2 0x3E6A JUMP JUMPDEST PUSH2 0x5E86 PUSH1 0x40 DUP4 ADD DUP7 PUSH2 0x364C JUMP JUMPDEST PUSH2 0x5E93 PUSH1 0x60 DUP4 ADD DUP6 PUSH2 0x364C JUMP JUMPDEST DUP2 DUP2 SUB PUSH1 0x80 DUP4 ADD MSTORE PUSH2 0x5EA5 DUP2 DUP5 PUSH2 0x4BC6 JUMP JUMPDEST SWAP1 POP SWAP7 SWAP6 POP POP POP POP POP POP JUMP JUMPDEST PUSH1 0x0 PUSH2 0x5EBC DUP3 PUSH2 0x35D6 JUMP JUMPDEST SWAP2 POP PUSH2 0x5EC7 DUP4 PUSH2 0x35D6 JUMP JUMPDEST SWAP3 POP DUP3 DUP3 MUL PUSH2 0x5ED5 DUP2 PUSH2 0x35D6 JUMP JUMPDEST SWAP2 POP DUP3 DUP3 DIV DUP5 EQ DUP4 ISZERO OR PUSH2 0x5EEC JUMPI PUSH2 0x5EEB PUSH2 0x4360 JUMP JUMPDEST JUMPDEST POP SWAP3 SWAP2 POP POP JUMP JUMPDEST PUSH1 0x0 PUSH2 0x5EFE DUP3 PUSH2 0x35D6 JUMP JUMPDEST SWAP2 POP PUSH1 0x0 DUP3 SUB PUSH2 0x5F11 JUMPI PUSH2 0x5F10 PUSH2 0x4360 JUMP JUMPDEST JUMPDEST PUSH1 0x1 DUP3 SUB SWAP1 POP SWAP2 SWAP1 POP JUMP JUMPDEST PUSH32 0x537472696E67733A20686578206C656E67746820696E73756666696369656E74 PUSH1 0x0 DUP3 ADD MSTORE POP JUMP JUMPDEST PUSH1 0x0 PUSH2 0x5F52 PUSH1 0x20 DUP4 PUSH2 0x3769 JUMP JUMPDEST SWAP2 POP PUSH2 0x5F5D DUP3 PUSH2 0x5F1C JUMP JUMPDEST PUSH1 0x20 DUP3 ADD SWAP1 POP SWAP2 SWAP1 POP JUMP JUMPDEST PUSH1 0x0 PUSH1 0x20 DUP3 ADD SWAP1 POP DUP2 DUP2 SUB PUSH1 0x0 DUP4 ADD MSTORE PUSH2 0x5F81 DUP2 PUSH2 0x5F45 JUMP JUMPDEST SWAP1 POP SWAP2 SWAP1 POP JUMP INVALID LOG2 PUSH5 0x6970667358 0x22 SLT KECCAK256 SWAP12 0xE GAS SWAP8 SWAP15 0xC9 EXP CREATE2 SWAP7 ISZERO MLOAD 0xE2 0xE8 MSIZE PUSH16 0x7593293019E5C949CA7795BB84F62C6D DUP14 PUSH5 0x736F6C6343 STOP ADDMOD GT STOP CALLER "},"methodIdentifiers":{"_channelAddress()":"f4552982","_kycToken()":"dee3a00b","_push()":"dfc40e31","balanceOf(address,uint256)":"00fdd58e","balanceOfBatch(address[],uint256[])":"4e1273f4","erc20TokenID(address)":"29d06964","erc721TokenID(address,uint256)":"98b6ca9b","isApprovedForAll(address,address)":"e985e9c5","lockERC20(address,address,address,uint256,bytes)":"903acbdb","lockERC721(address,uint256,address,address,bytes)":"ad2edf90","owner()":"8da5cb5b","pause()":"8456cb59","paused()":"5c975abb","releaseERC20(address,address,uint256,bytes)":"5668c3f4","releaseERC721(address,uint256,address,bytes)":"672bf705","renounceOwnership()":"715018a6","safeBatchTransferFrom(address,address,uint256[],uint256[],bytes)":"2eb2c2d6","safeTransferFrom(address,address,uint256,uint256,bytes)":"f242432a","setApprovalForAll(address,bool)":"a22cb465","setKYCToken(address)":"a3c1c4a9","setPushProtocol(address,address)":"37e4b0c2","supportsInterface(bytes4)":"01ffc9a7","transferOwnership(address)":"f2fde38b","unpause()":"3f4ba83a","uri(uint256)":"0e89341c"}}}}}